{
  "_format": "hh-sol-artifact-1",
  "contractName": "EmergencyProtocol",
  "sourceName": "contracts/EmergencyProtocol.sol",
  "abi": [
    {
      "inputs": [
        {
          "internalType": "address",
          "name": "_doctorRegistry",
          "type": "address"
        }
      ],
      "stateMutability": "nonpayable",
      "type": "constructor"
    },
    {
      "inputs": [
        {
          "internalType": "address",
          "name": "owner",
          "type": "address"
        }
      ],
      "name": "OwnableInvalidOwner",
      "type": "error"
    },
    {
      "inputs": [
        {
          "internalType": "address",
          "name": "account",
          "type": "address"
        }
      ],
      "name": "OwnableUnauthorizedAccount",
      "type": "error"
    },
    {
      "anonymous": false,
      "inputs": [
        {
          "indexed": true,
          "internalType": "uint256",
          "name": "ticketId",
          "type": "uint256"
        },
        {
          "indexed": true,
          "internalType": "address",
          "name": "patient",
          "type": "address"
        }
      ],
      "name": "EmergencyRaised",
      "type": "event"
    },
    {
      "anonymous": false,
      "inputs": [
        {
          "indexed": true,
          "internalType": "uint256",
          "name": "ticketId",
          "type": "uint256"
        },
        {
          "indexed": true,
          "internalType": "address",
          "name": "patient",
          "type": "address"
        }
      ],
      "name": "EmergencyResolved",
      "type": "event"
    },
    {
      "anonymous": false,
      "inputs": [
        {
          "indexed": true,
          "internalType": "address",
          "name": "previousOwner",
          "type": "address"
        },
        {
          "indexed": true,
          "internalType": "address",
          "name": "newOwner",
          "type": "address"
        }
      ],
      "name": "OwnershipTransferred",
      "type": "event"
    },
    {
      "anonymous": false,
      "inputs": [
        {
          "indexed": true,
          "internalType": "uint256",
          "name": "ticketId",
          "type": "uint256"
        },
        {
          "indexed": true,
          "internalType": "address",
          "name": "doctor",
          "type": "address"
        }
      ],
      "name": "VoteCast",
      "type": "event"
    },
    {
      "inputs": [],
      "name": "doctorRegistry",
      "outputs": [
        {
          "internalType": "contract IDoctorRegistry",
          "name": "",
          "type": "address"
        }
      ],
      "stateMutability": "view",
      "type": "function"
    },
    {
      "inputs": [
        {
          "internalType": "address",
          "name": "_patient",
          "type": "address"
        }
      ],
      "name": "isEmergencyAccessApproved",
      "outputs": [
        {
          "internalType": "bool",
          "name": "",
          "type": "bool"
        }
      ],
      "stateMutability": "view",
      "type": "function"
    },
    {
      "inputs": [],
      "name": "nextTicketId",
      "outputs": [
        {
          "internalType": "uint256",
          "name": "",
          "type": "uint256"
        }
      ],
      "stateMutability": "view",
      "type": "function"
    },
    {
      "inputs": [],
      "name": "owner",
      "outputs": [
        {
          "internalType": "address",
          "name": "",
          "type": "address"
        }
      ],
      "stateMutability": "view",
      "type": "function"
    },
    {
      "inputs": [
        {
          "internalType": "address",
          "name": "_patient",
          "type": "address"
        }
      ],
      "name": "raiseEmergency",
      "outputs": [],
      "stateMutability": "nonpayable",
      "type": "function"
    },
    {
      "inputs": [],
      "name": "renounceOwnership",
      "outputs": [],
      "stateMutability": "nonpayable",
      "type": "function"
    },
    {
      "inputs": [
        {
          "internalType": "uint256",
          "name": "",
          "type": "uint256"
        }
      ],
      "name": "tickets",
      "outputs": [
        {
          "internalType": "address",
          "name": "patient",
          "type": "address"
        },
        {
          "internalType": "uint256",
          "name": "votesFor",
          "type": "uint256"
        },
        {
          "internalType": "bool",
          "name": "isResolved",
          "type": "bool"
        }
      ],
      "stateMutability": "view",
      "type": "function"
    },
    {
      "inputs": [
        {
          "internalType": "address",
          "name": "newOwner",
          "type": "address"
        }
      ],
      "name": "transferOwnership",
      "outputs": [],
      "stateMutability": "nonpayable",
      "type": "function"
    },
    {
      "inputs": [
        {
          "internalType": "uint256",
          "name": "_ticketId",
          "type": "uint256"
        }
      ],
      "name": "vote",
      "outputs": [],
      "stateMutability": "nonpayable",
      "type": "function"
    }
  ],
  "bytecode": "0x608060405234801561001057600080fd5b506040516112e63803806112e683398181016040528101906100329190610223565b33600073ffffffffffffffffffffffffffffffffffffffff168173ffffffffffffffffffffffffffffffffffffffff16036100a55760006040517f1e4fbdf700000000000000000000000000000000000000000000000000000000815260040161009c919061025f565b60405180910390fd5b6100b4816100fc60201b60201c565b5080600160006101000a81548173ffffffffffffffffffffffffffffffffffffffff021916908373ffffffffffffffffffffffffffffffffffffffff1602179055505061027a565b60008060009054906101000a900473ffffffffffffffffffffffffffffffffffffffff169050816000806101000a81548173ffffffffffffffffffffffffffffffffffffffff021916908373ffffffffffffffffffffffffffffffffffffffff1602179055508173ffffffffffffffffffffffffffffffffffffffff168173ffffffffffffffffffffffffffffffffffffffff167f8be0079c531659141344cd1fd0a4f28419497f9722a3daafe3b4186f6b6457e060405160405180910390a35050565b600080fd5b600073ffffffffffffffffffffffffffffffffffffffff82169050919050565b60006101f0826101c5565b9050919050565b610200816101e5565b811461020b57600080fd5b50565b60008151905061021d816101f7565b92915050565b600060208284031215610239576102386101c0565b5b60006102478482850161020e565b91505092915050565b610259816101e5565b82525050565b60006020820190506102746000830184610250565b92915050565b61105d806102896000396000f3fe608060405234801561001057600080fd5b50600436106100935760003560e01c806382cfb2ff1161006657806382cfb2ff1461010e5780638da5cb5b1461012c578063b491f3c01461014a578063c9b46b2314610166578063f2fde38b1461019657610093565b80630121b93f1461009857806350b44712146100b45780636031a52f146100e6578063715018a614610104575b600080fd5b6100b260048036038101906100ad9190610a16565b6101b2565b005b6100ce60048036038101906100c99190610a16565b610586565b6040516100dd93929190610aae565b60405180910390f35b6100ee6105dd565b6040516100fb9190610ae5565b60405180910390f35b61010c6105e3565b005b6101166105f7565b6040516101239190610b5f565b60405180910390f35b61013461061d565b6040516101419190610b7a565b60405180910390f35b610164600480360381019061015f9190610bc1565b610646565b005b610180600480360381019061017b9190610bc1565b610729565b60405161018d9190610bee565b60405180910390f35b6101b060048036038101906101ab9190610bc1565b6107f3565b005b600160009054906101000a900473ffffffffffffffffffffffffffffffffffffffff1673ffffffffffffffffffffffffffffffffffffffff1663996440c6336040518263ffffffff1660e01b815260040161020d9190610b7a565b602060405180830381865afa15801561022a573d6000803e3d6000fd5b505050506040513d601f19601f8201168201806040525081019061024e9190610c35565b61028d576040517f08c379a000000000000000000000000000000000000000000000000000000000815260040161028490610cbf565b60405180910390fd5b60006002600083815260200190815260200160002090508060020160009054906101000a900460ff16156102f6576040517f08c379a00000000000000000000000000000000000000000000000000000000081526004016102ed90610d2b565b60405180910390fd5b8060030160003373ffffffffffffffffffffffffffffffffffffffff1673ffffffffffffffffffffffffffffffffffffffff16815260200190815260200160002060009054906101000a900460ff1615610385576040517f08c379a000000000000000000000000000000000000000000000000000000000815260040161037c90610d97565b60405180910390fd5b60018160030160003373ffffffffffffffffffffffffffffffffffffffff1673ffffffffffffffffffffffffffffffffffffffff16815260200190815260200160002060006101000a81548160ff0219169083151502179055508060010160008154809291906103f490610de6565b91905055503373ffffffffffffffffffffffffffffffffffffffff16827ff1003b73c437642c0460aee9cd9628b0b8c447b66e6c7c905531b9c644214a1160405160405180910390a36000600160009054906101000a900473ffffffffffffffffffffffffffffffffffffffff1673ffffffffffffffffffffffffffffffffffffffff1663a71aefc96040518163ffffffff1660e01b8152600401600060405180830381865afa1580156104ac573d6000803e3d6000fd5b505050506040513d6000823e3d601f19601f820116820180604052508101906104d59190610f9c565b5190506002816104e59190610fe5565b600383600101546104f69190610fe5565b106105815760018260020160006101000a81548160ff0219169083151502179055508160000160009054906101000a900473ffffffffffffffffffffffffffffffffffffffff1673ffffffffffffffffffffffffffffffffffffffff16837ffdbf976a7e1498a6f73211cfd73fb0f435c1033fc7c20f23ce52d620f822a88b60405160405180910390a35b505050565b60026020528060005260406000206000915090508060000160009054906101000a900473ffffffffffffffffffffffffffffffffffffffff16908060010154908060020160009054906101000a900460ff16905083565b60035481565b6105eb610879565b6105f56000610900565b565b600160009054906101000a900473ffffffffffffffffffffffffffffffffffffffff1681565b60008060009054906101000a900473ffffffffffffffffffffffffffffffffffffffff16905090565b61064e610879565b60006002600060035481526020019081526020016000209050818160000160006101000a81548173ffffffffffffffffffffffffffffffffffffffff021916908373ffffffffffffffffffffffffffffffffffffffff16021790555060008160020160006101000a81548160ff0219169083151502179055508173ffffffffffffffffffffffffffffffffffffffff166003547f11ed0a3c6247b2d7338dd664e37df3c77fe48b299f6ab078478856b7d6dcc10f60405160405180910390a36003600081548092919061072090610de6565b91905055505050565b600080600090505b6003548110156107e8578273ffffffffffffffffffffffffffffffffffffffff166002600083815260200190815260200160002060000160009054906101000a900473ffffffffffffffffffffffffffffffffffffffff1673ffffffffffffffffffffffffffffffffffffffff161480156107cc57506002600082815260200190815260200160002060020160009054906101000a900460ff165b156107db5760019150506107ee565b8080600101915050610731565b50600090505b919050565b6107fb610879565b600073ffffffffffffffffffffffffffffffffffffffff168173ffffffffffffffffffffffffffffffffffffffff160361086d5760006040517f1e4fbdf70000000000000000000000000000000000000000000000000000000081526004016108649190610b7a565b60405180910390fd5b61087681610900565b50565b6108816109c4565b73ffffffffffffffffffffffffffffffffffffffff1661089f61061d565b73ffffffffffffffffffffffffffffffffffffffff16146108fe576108c26109c4565b6040517f118cdaa70000000000000000000000000000000000000000000000000000000081526004016108f59190610b7a565b60405180910390fd5b565b60008060009054906101000a900473ffffffffffffffffffffffffffffffffffffffff169050816000806101000a81548173ffffffffffffffffffffffffffffffffffffffff021916908373ffffffffffffffffffffffffffffffffffffffff1602179055508173ffffffffffffffffffffffffffffffffffffffff168173ffffffffffffffffffffffffffffffffffffffff167f8be0079c531659141344cd1fd0a4f28419497f9722a3daafe3b4186f6b6457e060405160405180910390a35050565b600033905090565b6000604051905090565b600080fd5b600080fd5b6000819050919050565b6109f3816109e0565b81146109fe57600080fd5b50565b600081359050610a10816109ea565b92915050565b600060208284031215610a2c57610a2b6109d6565b5b6000610a3a84828501610a01565b91505092915050565b600073ffffffffffffffffffffffffffffffffffffffff82169050919050565b6000610a6e82610a43565b9050919050565b610a7e81610a63565b82525050565b610a8d816109e0565b82525050565b60008115159050919050565b610aa881610a93565b82525050565b6000606082019050610ac36000830186610a75565b610ad06020830185610a84565b610add6040830184610a9f565b949350505050565b6000602082019050610afa6000830184610a84565b92915050565b6000819050919050565b6000610b25610b20610b1b84610a43565b610b00565b610a43565b9050919050565b6000610b3782610b0a565b9050919050565b6000610b4982610b2c565b9050919050565b610b5981610b3e565b82525050565b6000602082019050610b746000830184610b50565b92915050565b6000602082019050610b8f6000830184610a75565b92915050565b610b9e81610a63565b8114610ba957600080fd5b50565b600081359050610bbb81610b95565b92915050565b600060208284031215610bd757610bd66109d6565b5b6000610be584828501610bac565b91505092915050565b6000602082019050610c036000830184610a9f565b92915050565b610c1281610a93565b8114610c1d57600080fd5b50565b600081519050610c2f81610c09565b92915050565b600060208284031215610c4b57610c4a6109d6565b5b6000610c5984828501610c20565b91505092915050565b600082825260208201905092915050565b7f4f6e6c7920446f63746f72732063616e20766f74650000000000000000000000600082015250565b6000610ca9601583610c62565b9150610cb482610c73565b602082019050919050565b60006020820190508181036000830152610cd881610c9c565b9050919050565b7f5469636b657420616c7265616479207265736f6c766564000000000000000000600082015250565b6000610d15601783610c62565b9150610d2082610cdf565b602082019050919050565b60006020820190508181036000830152610d4481610d08565b9050919050565b7f416c726561647920766f74656400000000000000000000000000000000000000600082015250565b6000610d81600d83610c62565b9150610d8c82610d4b565b602082019050919050565b60006020820190508181036000830152610db081610d74565b9050919050565b7f4e487b7100000000000000000000000000000000000000000000000000000000600052601160045260246000fd5b6000610df1826109e0565b91507fffffffffffffffffffffffffffffffffffffffffffffffffffffffffffffffff8203610e2357610e22610db7565b5b600182019050919050565b600080fd5b6000601f19601f8301169050919050565b7f4e487b7100000000000000000000000000000000000000000000000000000000600052604160045260246000fd5b610e7c82610e33565b810181811067ffffffffffffffff82111715610e9b57610e9a610e44565b5b80604052505050565b6000610eae6109cc565b9050610eba8282610e73565b919050565b600067ffffffffffffffff821115610eda57610ed9610e44565b5b602082029050602081019050919050565b600080fd5b600081519050610eff81610b95565b92915050565b6000610f18610f1384610ebf565b610ea4565b90508083825260208201905060208402830185811115610f3b57610f3a610eeb565b5b835b81811015610f645780610f508882610ef0565b845260208401935050602081019050610f3d565b5050509392505050565b600082601f830112610f8357610f82610e2e565b5b8151610f93848260208601610f05565b91505092915050565b600060208284031215610fb257610fb16109d6565b5b600082015167ffffffffffffffff811115610fd057610fcf6109db565b5b610fdc84828501610f6e565b91505092915050565b6000610ff0826109e0565b9150610ffb836109e0565b9250828202611009816109e0565b915082820484148315176110205761101f610db7565b5b509291505056fea2646970667358221220d123a6c6b960283f1e05ac9366ac1a6ca4f1d02ab7765cf2a094c6428b46efc064736f6c634300081c0033",
  "linkReferences": {},
  "deployedLinkReferences": {}
}