{
  "_format": "hh-sol-artifact-1",
  "contractName": "Escrow",
  "sourceName": "contracts/Escrow.sol",
  "abi": [
    {
      "inputs": [
        {
          "internalType": "address",
          "name": "_realEstateAddress",
          "type": "address"
        },
        {
          "internalType": "address",
          "name": "_inspector",
          "type": "address"
        },
        {
          "internalType": "address",
          "name": "_lender",
          "type": "address"
        }
      ],
      "stateMutability": "nonpayable",
      "type": "constructor"
    },
    {
      "anonymous": false,
      "inputs": [
        {
          "indexed": true,
          "internalType": "uint256",
          "name": "listingID",
          "type": "uint256"
        },
        {
          "indexed": true,
          "internalType": "address",
          "name": "participant",
          "type": "address"
        }
      ],
      "name": "ApprovalUpdated",
      "type": "event"
    },
    {
      "anonymous": false,
      "inputs": [
        {
          "indexed": true,
          "internalType": "uint256",
          "name": "listingID",
          "type": "uint256"
        },
        {
          "indexed": true,
          "internalType": "address",
          "name": "buyer",
          "type": "address"
        },
        {
          "indexed": false,
          "internalType": "uint256",
          "name": "amount",
          "type": "uint256"
        }
      ],
      "name": "DepositEarnest",
      "type": "event"
    },
    {
      "anonymous": false,
      "inputs": [
        {
          "indexed": true,
          "internalType": "uint256",
          "name": "listingID",
          "type": "uint256"
        },
        {
          "indexed": false,
          "internalType": "bool",
          "name": "passed",
          "type": "bool"
        }
      ],
      "name": "InspectionUpdated",
      "type": "event"
    },
    {
      "anonymous": false,
      "inputs": [
        {
          "indexed": true,
          "internalType": "uint256",
          "name": "listingID",
          "type": "uint256"
        },
        {
          "indexed": true,
          "internalType": "address",
          "name": "seller",
          "type": "address"
        },
        {
          "indexed": false,
          "internalType": "uint256",
          "name": "purchasePrice",
          "type": "uint256"
        }
      ],
      "name": "ProposedListing",
      "type": "event"
    },
    {
      "anonymous": false,
      "inputs": [
        {
          "indexed": true,
          "internalType": "uint256",
          "name": "listingID",
          "type": "uint256"
        }
      ],
      "name": "SaleFinalized",
      "type": "event"
    },
    {
      "inputs": [
        {
          "internalType": "uint256",
          "name": "",
          "type": "uint256"
        },
        {
          "internalType": "address",
          "name": "",
          "type": "address"
        }
      ],
      "name": "approval",
      "outputs": [
        {
          "internalType": "bool",
          "name": "",
          "type": "bool"
        }
      ],
      "stateMutability": "view",
      "type": "function"
    },
    {
      "inputs": [
        {
          "internalType": "uint256",
          "name": "listingID",
          "type": "uint256"
        }
      ],
      "name": "approveSale",
      "outputs": [],
      "stateMutability": "nonpayable",
      "type": "function"
    },
    {
      "inputs": [
        {
          "internalType": "uint256",
          "name": "",
          "type": "uint256"
        }
      ],
      "name": "buyer",
      "outputs": [
        {
          "internalType": "address",
          "name": "",
          "type": "address"
        }
      ],
      "stateMutability": "view",
      "type": "function"
    },
    {
      "inputs": [
        {
          "internalType": "uint256",
          "name": "listingID",
          "type": "uint256"
        }
      ],
      "name": "depositEarnest",
      "outputs": [],
      "stateMutability": "payable",
      "type": "function"
    },
    {
      "inputs": [
        {
          "internalType": "uint256",
          "name": "",
          "type": "uint256"
        }
      ],
      "name": "escrowAmount",
      "outputs": [
        {
          "internalType": "uint256",
          "name": "",
          "type": "uint256"
        }
      ],
      "stateMutability": "view",
      "type": "function"
    },
    {
      "inputs": [
        {
          "internalType": "uint256",
          "name": "listingID",
          "type": "uint256"
        }
      ],
      "name": "finalizeSale",
      "outputs": [],
      "stateMutability": "nonpayable",
      "type": "function"
    },
    {
      "inputs": [
        {
          "internalType": "uint256",
          "name": "",
          "type": "uint256"
        }
      ],
      "name": "inspectionPassed",
      "outputs": [
        {
          "internalType": "bool",
          "name": "",
          "type": "bool"
        }
      ],
      "stateMutability": "view",
      "type": "function"
    },
    {
      "inputs": [],
      "name": "inspector",
      "outputs": [
        {
          "internalType": "address",
          "name": "",
          "type": "address"
        }
      ],
      "stateMutability": "view",
      "type": "function"
    },
    {
      "inputs": [
        {
          "internalType": "uint256",
          "name": "",
          "type": "uint256"
        }
      ],
      "name": "isListed",
      "outputs": [
        {
          "internalType": "bool",
          "name": "",
          "type": "bool"
        }
      ],
      "stateMutability": "view",
      "type": "function"
    },
    {
      "inputs": [],
      "name": "lender",
      "outputs": [
        {
          "internalType": "address",
          "name": "",
          "type": "address"
        }
      ],
      "stateMutability": "view",
      "type": "function"
    },
    {
      "inputs": [
        {
          "internalType": "uint256",
          "name": "",
          "type": "uint256"
        }
      ],
      "name": "propertyStatus",
      "outputs": [
        {
          "internalType": "enum Escrow.ListingStatus",
          "name": "",
          "type": "uint8"
        }
      ],
      "stateMutability": "view",
      "type": "function"
    },
    {
      "inputs": [
        {
          "internalType": "string",
          "name": "_tokenURI",
          "type": "string"
        },
        {
          "internalType": "uint256",
          "name": "_purchasePrice",
          "type": "uint256"
        }
      ],
      "name": "proposeListing",
      "outputs": [
        {
          "internalType": "uint256",
          "name": "",
          "type": "uint256"
        }
      ],
      "stateMutability": "nonpayable",
      "type": "function"
    },
    {
      "inputs": [
        {
          "internalType": "uint256",
          "name": "",
          "type": "uint256"
        }
      ],
      "name": "purchasePrice",
      "outputs": [
        {
          "internalType": "uint256",
          "name": "",
          "type": "uint256"
        }
      ],
      "stateMutability": "view",
      "type": "function"
    },
    {
      "inputs": [],
      "name": "realEstate",
      "outputs": [
        {
          "internalType": "contract IRealEstate",
          "name": "",
          "type": "address"
        }
      ],
      "stateMutability": "view",
      "type": "function"
    },
    {
      "inputs": [
        {
          "internalType": "uint256",
          "name": "",
          "type": "uint256"
        }
      ],
      "name": "sellers",
      "outputs": [
        {
          "internalType": "address",
          "name": "",
          "type": "address"
        }
      ],
      "stateMutability": "view",
      "type": "function"
    },
    {
      "inputs": [
        {
          "internalType": "uint256",
          "name": "listingID",
          "type": "uint256"
        },
        {
          "internalType": "bool",
          "name": "passed",
          "type": "bool"
        }
      ],
      "name": "updateInspection",
      "outputs": [],
      "stateMutability": "nonpayable",
      "type": "function"
    },
    {
      "stateMutability": "payable",
      "type": "receive"
    }
  ],
  "bytecode": "0x60806040523480156200001157600080fd5b5060405162002487380380620024878339818101604052810190620000379190620002c3565b600073ffffffffffffffffffffffffffffffffffffffff168373ffffffffffffffffffffffffffffffffffffffff1603620000a9576040517f08c379a0000000000000000000000000000000000000000000000000000000008152600401620000a09062000380565b60405180910390fd5b600073ffffffffffffffffffffffffffffffffffffffff168273ffffffffffffffffffffffffffffffffffffffff16036200011b576040517f08c379a00000000000000000000000000000000000000000000000000000000081526004016200011290620003f2565b60405180910390fd5b600073ffffffffffffffffffffffffffffffffffffffff168173ffffffffffffffffffffffffffffffffffffffff16036200018d576040517f08c379a0000000000000000000000000000000000000000000000000000000008152600401620001849062000464565b60405180910390fd5b82600160006101000a81548173ffffffffffffffffffffffffffffffffffffffff021916908373ffffffffffffffffffffffffffffffffffffffff16021790555081600260006101000a81548173ffffffffffffffffffffffffffffffffffffffff021916908373ffffffffffffffffffffffffffffffffffffffff16021790555080600360006101000a81548173ffffffffffffffffffffffffffffffffffffffff021916908373ffffffffffffffffffffffffffffffffffffffff16021790555050505062000486565b600080fd5b600073ffffffffffffffffffffffffffffffffffffffff82169050919050565b60006200028b826200025e565b9050919050565b6200029d816200027e565b8114620002a957600080fd5b50565b600081519050620002bd8162000292565b92915050565b600080600060608486031215620002df57620002de62000259565b5b6000620002ef86828701620002ac565b93505060206200030286828701620002ac565b92505060406200031586828701620002ac565b9150509250925092565b600082825260208201905092915050565b7f5265616c4573746174653d7a65726f0000000000000000000000000000000000600082015250565b600062000368600f836200031f565b9150620003758262000330565b602082019050919050565b600060208201905081810360008301526200039b8162000359565b9050919050565b7f496e73706563746f723d7a65726f000000000000000000000000000000000000600082015250565b6000620003da600e836200031f565b9150620003e782620003a2565b602082019050919050565b600060208201905081810360008301526200040d81620003cb565b9050919050565b7f4c656e6465723d7a65726f000000000000000000000000000000000000000000600082015250565b60006200044c600b836200031f565b9150620004598262000414565b602082019050919050565b600060208201905081810360008301526200047f816200043d565b9050919050565b611ff180620004966000396000f3fe6080604052600436106100f75760003560e01c8063aa9293801161008a578063e740f77011610059578063e740f77014610393578063ed2cee9e146103af578063f680038b146103da578063fcce488314610403576100fe565b8063aa929380146102c5578063b848de35146102ee578063bcead63e1461032b578063cee26ed514610356576100fe565b80635d19e56c116100c65780635d19e56c146101e35780635eed5fff1461022057806370ce84971461025d57806377fbc4ae14610288576100fe565b806314a72feb14610103578063151aab071461012c5780631d56284a146101695780634dd4acaf146101a6576100fe565b366100fe57005b600080fd5b34801561010f57600080fd5b5061012a600480360381019061012591906112e7565b610440565b005b34801561013857600080fd5b50610153600480360381019061014e919061145a565b6106cd565b60405161016091906114c5565b60405180910390f35b34801561017557600080fd5b50610190600480360381019061018b91906112e7565b6108f4565b60405161019d9190611557565b60405180910390f35b3480156101b257600080fd5b506101cd60048036038101906101c891906112e7565b610914565b6040516101da91906115b3565b60405180910390f35b3480156101ef57600080fd5b5061020a600480360381019061020591906112e7565b610947565b60405161021791906114c5565b60405180910390f35b34801561022c57600080fd5b50610247600480360381019061024291906112e7565b61095f565b60405161025491906115e9565b60405180910390f35b34801561026957600080fd5b5061027261097f565b60405161027f9190611663565b60405180910390f35b34801561029457600080fd5b506102af60048036038101906102aa91906112e7565b6109a5565b6040516102bc91906114c5565b60405180910390f35b3480156102d157600080fd5b506102ec60048036038101906102e791906112e7565b6109bd565b005b3480156102fa57600080fd5b50610315600480360381019061031091906116aa565b610f5b565b60405161032291906115e9565b60405180910390f35b34801561033757600080fd5b50610340610f8a565b60405161034d91906115b3565b60405180910390f35b34801561036257600080fd5b5061037d600480360381019061037891906112e7565b610fb0565b60405161038a91906115b3565b60405180910390f35b6103ad60048036038101906103a891906112e7565b610fe3565b005b3480156103bb57600080fd5b506103c461113c565b6040516103d191906115b3565b60405180910390f35b3480156103e657600080fd5b5061040160048036038101906103fc9190611716565b611162565b005b34801561040f57600080fd5b5061042a600480360381019061042591906112e7565b611259565b60405161043791906115e9565b60405180910390f35b6006600082815260200190815260200160002060009054906101000a900460ff166104a0576040517f08c379a0000000000000000000000000000000000000000000000000000000008152600401610497906117b3565b60405180910390fd5b60006009600083815260200190815260200160002060009054906101000a900473ffffffffffffffffffffffffffffffffffffffff1673ffffffffffffffffffffffffffffffffffffffff163373ffffffffffffffffffffffffffffffffffffffff160361051157600190506105dc565b6004600083815260200190815260200160002060009054906101000a900473ffffffffffffffffffffffffffffffffffffffff1673ffffffffffffffffffffffffffffffffffffffff163373ffffffffffffffffffffffffffffffffffffffff160361058057600190506105db565b600360009054906101000a900473ffffffffffffffffffffffffffffffffffffffff1673ffffffffffffffffffffffffffffffffffffffff163373ffffffffffffffffffffffffffffffffffffffff16036105da57600190505b5b5b8061061c576040517f08c379a00000000000000000000000000000000000000000000000000000000081526004016106139061181f565b60405180910390fd5b6001600b600084815260200190815260200160002060003373ffffffffffffffffffffffffffffffffffffffff1673ffffffffffffffffffffffffffffffffffffffff16815260200190815260200160002060006101000a81548160ff0219169083151502179055503373ffffffffffffffffffffffffffffffffffffffff16827f780c1d67a93c16b861b015f21f928c5d0d45e1a706b0004751d15df1fdfaa37660405160405180910390a35050565b60006106d96000611279565b60006106e5600061128f565b9050600160009054906101000a900473ffffffffffffffffffffffffffffffffffffffff1673ffffffffffffffffffffffffffffffffffffffff1663d3fc98643083876040518463ffffffff1660e01b8152600401610746939291906118ad565b600060405180830381600087803b15801561076057600080fd5b505af1158015610774573d6000803e3d6000fd5b50505050336004600083815260200190815260200160002060006101000a81548173ffffffffffffffffffffffffffffffffffffffff021916908373ffffffffffffffffffffffffffffffffffffffff1602179055508260076000838152602001908152602001600020819055506064600a846107f1919061191a565b6107fb919061198b565b600860008381526020019081526020016000208190555060016005600083815260200190815260200160002060006101000a81548160ff02191690836004811115610849576108486114e0565b5b021790555060016006600083815260200190815260200160002060006101000a81548160ff02191690831515021790555083600c6000838152602001908152602001600020908161089a9190611bbe565b503373ffffffffffffffffffffffffffffffffffffffff16817ffd380029448de66b04c3ea6dc88059bbab60aca3780bc46a5f892593244c2bba856040516108e291906114c5565b60405180910390a38091505092915050565b60056020528060005260406000206000915054906101000a900460ff1681565b60096020528060005260406000206000915054906101000a900473ffffffffffffffffffffffffffffffffffffffff1681565b60086020528060005260406000206000915090505481565b600a6020528060005260406000206000915054906101000a900460ff1681565b600160009054906101000a900473ffffffffffffffffffffffffffffffffffffffff1681565b60076020528060005260406000206000915090505481565b600360009054906101000a900473ffffffffffffffffffffffffffffffffffffffff1673ffffffffffffffffffffffffffffffffffffffff163373ffffffffffffffffffffffffffffffffffffffff1614610a4d576040517f08c379a0000000000000000000000000000000000000000000000000000000008152600401610a4490611cdc565b60405180910390fd5b6006600082815260200190815260200160002060009054906101000a900460ff16610aad576040517f08c379a0000000000000000000000000000000000000000000000000000000008152600401610aa4906117b3565b60405180910390fd5b600a600082815260200190815260200160002060009054906101000a900460ff16610b0d576040517f08c379a0000000000000000000000000000000000000000000000000000000008152600401610b0490611d48565b60405180910390fd5b600b600082815260200190815260200160002060006009600084815260200190815260200160002060009054906101000a900473ffffffffffffffffffffffffffffffffffffffff1673ffffffffffffffffffffffffffffffffffffffff1673ffffffffffffffffffffffffffffffffffffffff16815260200190815260200160002060009054906101000a900460ff16610bdd576040517f08c379a0000000000000000000000000000000000000000000000000000000008152600401610bd490611db4565b60405180910390fd5b600b600082815260200190815260200160002060006004600084815260200190815260200160002060009054906101000a900473ffffffffffffffffffffffffffffffffffffffff1673ffffffffffffffffffffffffffffffffffffffff1673ffffffffffffffffffffffffffffffffffffffff16815260200190815260200160002060009054906101000a900460ff16610cad576040517f08c379a0000000000000000000000000000000000000000000000000000000008152600401610ca490611e20565b60405180910390fd5b600b60008281526020019081526020016000206000600360009054906101000a900473ffffffffffffffffffffffffffffffffffffffff1673ffffffffffffffffffffffffffffffffffffffff1673ffffffffffffffffffffffffffffffffffffffff16815260200190815260200160002060009054906101000a900460ff16610d6c576040517f08c379a0000000000000000000000000000000000000000000000000000000008152600401610d6390611e8c565b60405180910390fd5b60006007600083815260200190815260200160002054905060006006600084815260200190815260200160002060006101000a81548160ff02191690831515021790555060046005600084815260200190815260200160002060006101000a81548160ff02191690836004811115610de757610de66114e0565b5b02179055506004600083815260200190815260200160002060009054906101000a900473ffffffffffffffffffffffffffffffffffffffff1673ffffffffffffffffffffffffffffffffffffffff166108fc829081150290604051600060405180830381858888f19350505050158015610e65573d6000803e3d6000fd5b50600160009054906101000a900473ffffffffffffffffffffffffffffffffffffffff1673ffffffffffffffffffffffffffffffffffffffff166323b872dd306009600086815260200190815260200160002060009054906101000a900473ffffffffffffffffffffffffffffffffffffffff16856040518463ffffffff1660e01b8152600401610ef893929190611eac565b600060405180830381600087803b158015610f1257600080fd5b505af1158015610f26573d6000803e3d6000fd5b50505050817f69f3cc4e34492a96604c6a9068df274385221039516ee176167f6defd2d195ee60405160405180910390a25050565b600b6020528160005260406000206020528060005260406000206000915091509054906101000a900460ff1681565b600360009054906101000a900473ffffffffffffffffffffffffffffffffffffffff1681565b60046020528060005260406000206000915054906101000a900473ffffffffffffffffffffffffffffffffffffffff1681565b6006600082815260200190815260200160002060009054906101000a900460ff16611043576040517f08c379a000000000000000000000000000000000000000000000000000000000815260040161103a906117b3565b60405180910390fd5b60086000828152602001908152602001600020543414611098576040517f08c379a000000000000000000000000000000000000000000000000000000000815260040161108f90611f2f565b60405180910390fd5b336009600083815260200190815260200160002060006101000a81548173ffffffffffffffffffffffffffffffffffffffff021916908373ffffffffffffffffffffffffffffffffffffffff1602179055503373ffffffffffffffffffffffffffffffffffffffff16817f3f2b95d3e8febed7228920c9b8a9c3ab9d4926f771865c80c303fba69fad04123460405161113191906114c5565b60405180910390a350565b600260009054906101000a900473ffffffffffffffffffffffffffffffffffffffff1681565b600260009054906101000a900473ffffffffffffffffffffffffffffffffffffffff1673ffffffffffffffffffffffffffffffffffffffff163373ffffffffffffffffffffffffffffffffffffffff16146111f2576040517f08c379a00000000000000000000000000000000000000000000000000000000081526004016111e990611f9b565b60405180910390fd5b80600a600084815260200190815260200160002060006101000a81548160ff021916908315150217905550817f6e254fae6dfb5e77180decd584a4dbc2bdbd358f9152749ea807aed85af195278260405161124d91906115e9565b60405180910390a25050565b60066020528060005260406000206000915054906101000a900460ff1681565b6001816000016000828254019250508190555050565b600081600001549050919050565b6000604051905090565b600080fd5b600080fd5b6000819050919050565b6112c4816112b1565b81146112cf57600080fd5b50565b6000813590506112e1816112bb565b92915050565b6000602082840312156112fd576112fc6112a7565b5b600061130b848285016112d2565b91505092915050565b600080fd5b600080fd5b6000601f19601f8301169050919050565b7f4e487b7100000000000000000000000000000000000000000000000000000000600052604160045260246000fd5b6113678261131e565b810181811067ffffffffffffffff821117156113865761138561132f565b5b80604052505050565b600061139961129d565b90506113a5828261135e565b919050565b600067ffffffffffffffff8211156113c5576113c461132f565b5b6113ce8261131e565b9050602081019050919050565b82818337600083830152505050565b60006113fd6113f8846113aa565b61138f565b90508281526020810184848401111561141957611418611319565b5b6114248482856113db565b509392505050565b600082601f83011261144157611440611314565b5b81356114518482602086016113ea565b91505092915050565b60008060408385031215611471576114706112a7565b5b600083013567ffffffffffffffff81111561148f5761148e6112ac565b5b61149b8582860161142c565b92505060206114ac858286016112d2565b9150509250929050565b6114bf816112b1565b82525050565b60006020820190506114da60008301846114b6565b92915050565b7f4e487b7100000000000000000000000000000000000000000000000000000000600052602160045260246000fd5b600581106115205761151f6114e0565b5b50565b60008190506115318261150f565b919050565b600061154182611523565b9050919050565b61155181611536565b82525050565b600060208201905061156c6000830184611548565b92915050565b600073ffffffffffffffffffffffffffffffffffffffff82169050919050565b600061159d82611572565b9050919050565b6115ad81611592565b82525050565b60006020820190506115c860008301846115a4565b92915050565b60008115159050919050565b6115e3816115ce565b82525050565b60006020820190506115fe60008301846115da565b92915050565b6000819050919050565b600061162961162461161f84611572565b611604565b611572565b9050919050565b600061163b8261160e565b9050919050565b600061164d82611630565b9050919050565b61165d81611642565b82525050565b60006020820190506116786000830184611654565b92915050565b61168781611592565b811461169257600080fd5b50565b6000813590506116a48161167e565b92915050565b600080604083850312156116c1576116c06112a7565b5b60006116cf858286016112d2565b92505060206116e085828601611695565b9150509250929050565b6116f3816115ce565b81146116fe57600080fd5b50565b600081359050611710816116ea565b92915050565b6000806040838503121561172d5761172c6112a7565b5b600061173b858286016112d2565b925050602061174c85828601611701565b9150509250929050565b600082825260208201905092915050565b7f4e6f74206c697374656400000000000000000000000000000000000000000000600082015250565b600061179d600a83611756565b91506117a882611767565b602082019050919050565b600060208201905081810360008301526117cc81611790565b9050919050565b7f4e6f742061207061727469636970616e74000000000000000000000000000000600082015250565b6000611809601183611756565b9150611814826117d3565b602082019050919050565b60006020820190508181036000830152611838816117fc565b9050919050565b600081519050919050565b60005b8381101561186857808201518184015260208101905061184d565b60008484015250505050565b600061187f8261183f565b6118898185611756565b935061189981856020860161184a565b6118a28161131e565b840191505092915050565b60006060820190506118c260008301866115a4565b6118cf60208301856114b6565b81810360408301526118e18184611874565b9050949350505050565b7f4e487b7100000000000000000000000000000000000000000000000000000000600052601160045260246000fd5b6000611925826112b1565b9150611930836112b1565b925082820261193e816112b1565b91508282048414831517611955576119546118eb565b5b5092915050565b7f4e487b7100000000000000000000000000000000000000000000000000000000600052601260045260246000fd5b6000611996826112b1565b91506119a1836112b1565b9250826119b1576119b061195c565b5b828204905092915050565b7f4e487b7100000000000000000000000000000000000000000000000000000000600052602260045260246000fd5b60006002820490506001821680611a0357607f821691505b602082108103611a1657611a156119bc565b5b50919050565b60008190508160005260206000209050919050565b60006020601f8301049050919050565b600082821b905092915050565b600060088302611a7e7fffffffffffffffffffffffffffffffffffffffffffffffffffffffffffffffff82611a41565b611a888683611a41565b95508019841693508086168417925050509392505050565b6000611abb611ab6611ab1846112b1565b611604565b6112b1565b9050919050565b6000819050919050565b611ad583611aa0565b611ae9611ae182611ac2565b848454611a4e565b825550505050565b600090565b611afe611af1565b611b09818484611acc565b505050565b5b81811015611b2d57611b22600082611af6565b600181019050611b0f565b5050565b601f821115611b7257611b4381611a1c565b611b4c84611a31565b81016020851015611b5b578190505b611b6f611b6785611a31565b830182611b0e565b50505b505050565b600082821c905092915050565b6000611b9560001984600802611b77565b1980831691505092915050565b6000611bae8383611b84565b9150826002028217905092915050565b611bc78261183f565b67ffffffffffffffff811115611be057611bdf61132f565b5b611bea82546119eb565b611bf5828285611b31565b600060209050601f831160018114611c285760008415611c16578287015190505b611c208582611ba2565b865550611c88565b601f198416611c3686611a1c565b60005b82811015611c5e57848901518255600182019150602085019450602081019050611c39565b86831015611c7b5784890151611c77601f891682611b84565b8355505b6001600288020188555050505b505050505050565b7f4f6e6c79206c656e646572000000000000000000000000000000000000000000600082015250565b6000611cc6600b83611756565b9150611cd182611c90565b602082019050919050565b60006020820190508181036000830152611cf581611cb9565b9050919050565b7f496e7370656374696f6e2070656e64696e670000000000000000000000000000600082015250565b6000611d32601283611756565b9150611d3d82611cfc565b602082019050919050565b60006020820190508181036000830152611d6181611d25565b9050919050565b7f4275796572206e6f7420617070726f7665640000000000000000000000000000600082015250565b6000611d9e601283611756565b9150611da982611d68565b602082019050919050565b60006020820190508181036000830152611dcd81611d91565b9050919050565b7f53656c6c6572206e6f7420617070726f76656400000000000000000000000000600082015250565b6000611e0a601383611756565b9150611e1582611dd4565b602082019050919050565b60006020820190508181036000830152611e3981611dfd565b9050919050565b7f4c656e646572206e6f7420617070726f76656400000000000000000000000000600082015250565b6000611e76601383611756565b9150611e8182611e40565b602082019050919050565b60006020820190508181036000830152611ea581611e69565b9050919050565b6000606082019050611ec160008301866115a4565b611ece60208301856115a4565b611edb60408301846114b6565b949350505050565b7f57726f6e6720616d6f756e740000000000000000000000000000000000000000600082015250565b6000611f19600c83611756565b9150611f2482611ee3565b602082019050919050565b60006020820190508181036000830152611f4881611f0c565b9050919050565b7f4f6e6c7920696e73706563746f72000000000000000000000000000000000000600082015250565b6000611f85600e83611756565b9150611f9082611f4f565b602082019050919050565b60006020820190508181036000830152611fb481611f78565b905091905056fea2646970667358221220834fdc154d6229c882909dbdac40d560568c2d3b5ee2e8a0d36510818ee0eeb064736f6c63430008120033",
  "linkReferences": {},
  "deployedLinkReferences": {}
}