{
  "_format": "hh-sol-artifact-1",
  "contractName": "Escrow",
  "sourceName": "contracts/Escrow.sol",
  "abi": [
    {
      "inputs": [
        {
          "internalType": "address",
          "name": "_realEstateAddress",
          "type": "address"
        },
        {
          "internalType": "address",
          "name": "_inspector",
          "type": "address"
        },
        {
          "internalType": "address",
          "name": "_lender",
          "type": "address"
        }
      ],
      "stateMutability": "nonpayable",
      "type": "constructor"
    },
    {
      "anonymous": false,
      "inputs": [
        {
          "indexed": true,
          "internalType": "uint256",
          "name": "listingID",
          "type": "uint256"
        },
        {
          "indexed": true,
          "internalType": "address",
          "name": "participant",
          "type": "address"
        }
      ],
      "name": "ApprovalUpdated",
      "type": "event"
    },
    {
      "anonymous": false,
      "inputs": [
        {
          "indexed": true,
          "internalType": "uint256",
          "name": "listingID",
          "type": "uint256"
        },
        {
          "indexed": true,
          "internalType": "address",
          "name": "buyer",
          "type": "address"
        },
        {
          "indexed": false,
          "internalType": "uint256",
          "name": "amount",
          "type": "uint256"
        }
      ],
      "name": "DepositEarnest",
      "type": "event"
    },
    {
      "anonymous": false,
      "inputs": [
        {
          "indexed": true,
          "internalType": "uint256",
          "name": "listingID",
          "type": "uint256"
        },
        {
          "indexed": false,
          "internalType": "bool",
          "name": "passed",
          "type": "bool"
        }
      ],
      "name": "InspectionUpdated",
      "type": "event"
    },
    {
      "anonymous": false,
      "inputs": [
        {
          "indexed": true,
          "internalType": "uint256",
          "name": "listingID",
          "type": "uint256"
        },
        {
          "indexed": true,
          "internalType": "address",
          "name": "seller",
          "type": "address"
        },
        {
          "indexed": false,
          "internalType": "uint256",
          "name": "purchasePrice",
          "type": "uint256"
        }
      ],
      "name": "ProposedListing",
      "type": "event"
    },
    {
      "anonymous": false,
      "inputs": [
        {
          "indexed": true,
          "internalType": "uint256",
          "name": "nftID",
          "type": "uint256"
        },
        {
          "indexed": true,
          "internalType": "address",
          "name": "refundedTo",
          "type": "address"
        },
        {
          "indexed": false,
          "internalType": "uint256",
          "name": "amount",
          "type": "uint256"
        }
      ],
      "name": "SaleCancelled",
      "type": "event"
    },
    {
      "anonymous": false,
      "inputs": [
        {
          "indexed": true,
          "internalType": "uint256",
          "name": "listingID",
          "type": "uint256"
        }
      ],
      "name": "SaleFinalized",
      "type": "event"
    },
    {
      "inputs": [
        {
          "internalType": "uint256",
          "name": "",
          "type": "uint256"
        },
        {
          "internalType": "address",
          "name": "",
          "type": "address"
        }
      ],
      "name": "approval",
      "outputs": [
        {
          "internalType": "bool",
          "name": "",
          "type": "bool"
        }
      ],
      "stateMutability": "view",
      "type": "function"
    },
    {
      "inputs": [
        {
          "internalType": "uint256",
          "name": "listingID",
          "type": "uint256"
        }
      ],
      "name": "approveSale",
      "outputs": [],
      "stateMutability": "nonpayable",
      "type": "function"
    },
    {
      "inputs": [
        {
          "internalType": "uint256",
          "name": "",
          "type": "uint256"
        }
      ],
      "name": "buyer",
      "outputs": [
        {
          "internalType": "address",
          "name": "",
          "type": "address"
        }
      ],
      "stateMutability": "view",
      "type": "function"
    },
    {
      "inputs": [
        {
          "internalType": "uint256",
          "name": "listingID",
          "type": "uint256"
        }
      ],
      "name": "depositEarnest",
      "outputs": [],
      "stateMutability": "payable",
      "type": "function"
    },
    {
      "inputs": [
        {
          "internalType": "uint256",
          "name": "",
          "type": "uint256"
        }
      ],
      "name": "escrowAmount",
      "outputs": [
        {
          "internalType": "uint256",
          "name": "",
          "type": "uint256"
        }
      ],
      "stateMutability": "view",
      "type": "function"
    },
    {
      "inputs": [
        {
          "internalType": "uint256",
          "name": "listingID",
          "type": "uint256"
        }
      ],
      "name": "finalizeSale",
      "outputs": [],
      "stateMutability": "nonpayable",
      "type": "function"
    },
    {
      "inputs": [
        {
          "internalType": "uint256",
          "name": "",
          "type": "uint256"
        }
      ],
      "name": "inspectionPassed",
      "outputs": [
        {
          "internalType": "bool",
          "name": "",
          "type": "bool"
        }
      ],
      "stateMutability": "view",
      "type": "function"
    },
    {
      "inputs": [],
      "name": "inspector",
      "outputs": [
        {
          "internalType": "address",
          "name": "",
          "type": "address"
        }
      ],
      "stateMutability": "view",
      "type": "function"
    },
    {
      "inputs": [
        {
          "internalType": "uint256",
          "name": "",
          "type": "uint256"
        }
      ],
      "name": "isListed",
      "outputs": [
        {
          "internalType": "bool",
          "name": "",
          "type": "bool"
        }
      ],
      "stateMutability": "view",
      "type": "function"
    },
    {
      "inputs": [],
      "name": "lender",
      "outputs": [
        {
          "internalType": "address",
          "name": "",
          "type": "address"
        }
      ],
      "stateMutability": "view",
      "type": "function"
    },
    {
      "inputs": [
        {
          "internalType": "uint256",
          "name": "",
          "type": "uint256"
        }
      ],
      "name": "propertyStatus",
      "outputs": [
        {
          "internalType": "enum Escrow.ListingStatus",
          "name": "",
          "type": "uint8"
        }
      ],
      "stateMutability": "view",
      "type": "function"
    },
    {
      "inputs": [
        {
          "internalType": "string",
          "name": "_tokenURI",
          "type": "string"
        },
        {
          "internalType": "uint256",
          "name": "_purchasePrice",
          "type": "uint256"
        }
      ],
      "name": "proposeListing",
      "outputs": [
        {
          "internalType": "uint256",
          "name": "",
          "type": "uint256"
        }
      ],
      "stateMutability": "nonpayable",
      "type": "function"
    },
    {
      "inputs": [
        {
          "internalType": "uint256",
          "name": "",
          "type": "uint256"
        }
      ],
      "name": "purchasePrice",
      "outputs": [
        {
          "internalType": "uint256",
          "name": "",
          "type": "uint256"
        }
      ],
      "stateMutability": "view",
      "type": "function"
    },
    {
      "inputs": [],
      "name": "realEstate",
      "outputs": [
        {
          "internalType": "contract IRealEstate",
          "name": "",
          "type": "address"
        }
      ],
      "stateMutability": "view",
      "type": "function"
    },
    {
      "inputs": [
        {
          "internalType": "uint256",
          "name": "_nftID",
          "type": "uint256"
        }
      ],
      "name": "rejectSale",
      "outputs": [],
      "stateMutability": "nonpayable",
      "type": "function"
    },
    {
      "inputs": [
        {
          "internalType": "uint256",
          "name": "",
          "type": "uint256"
        }
      ],
      "name": "sellers",
      "outputs": [
        {
          "internalType": "address",
          "name": "",
          "type": "address"
        }
      ],
      "stateMutability": "view",
      "type": "function"
    },
    {
      "inputs": [
        {
          "internalType": "uint256",
          "name": "listingID",
          "type": "uint256"
        },
        {
          "internalType": "bool",
          "name": "passed",
          "type": "bool"
        }
      ],
      "name": "updateInspection",
      "outputs": [],
      "stateMutability": "nonpayable",
      "type": "function"
    },
    {
      "stateMutability": "payable",
      "type": "receive"
    }
  ],
  "bytecode": "0x60806040523480156200001157600080fd5b5060405162002b0638038062002b068339818101604052810190620000379190620002c3565b600073ffffffffffffffffffffffffffffffffffffffff168373ffffffffffffffffffffffffffffffffffffffff1603620000a9576040517f08c379a0000000000000000000000000000000000000000000000000000000008152600401620000a09062000380565b60405180910390fd5b600073ffffffffffffffffffffffffffffffffffffffff168273ffffffffffffffffffffffffffffffffffffffff16036200011b576040517f08c379a00000000000000000000000000000000000000000000000000000000081526004016200011290620003f2565b60405180910390fd5b600073ffffffffffffffffffffffffffffffffffffffff168173ffffffffffffffffffffffffffffffffffffffff16036200018d576040517f08c379a0000000000000000000000000000000000000000000000000000000008152600401620001849062000464565b60405180910390fd5b82600160006101000a81548173ffffffffffffffffffffffffffffffffffffffff021916908373ffffffffffffffffffffffffffffffffffffffff16021790555081600260006101000a81548173ffffffffffffffffffffffffffffffffffffffff021916908373ffffffffffffffffffffffffffffffffffffffff16021790555080600360006101000a81548173ffffffffffffffffffffffffffffffffffffffff021916908373ffffffffffffffffffffffffffffffffffffffff16021790555050505062000486565b600080fd5b600073ffffffffffffffffffffffffffffffffffffffff82169050919050565b60006200028b826200025e565b9050919050565b6200029d816200027e565b8114620002a957600080fd5b50565b600081519050620002bd8162000292565b92915050565b600080600060608486031215620002df57620002de62000259565b5b6000620002ef86828701620002ac565b93505060206200030286828701620002ac565b92505060406200031586828701620002ac565b9150509250925092565b600082825260208201905092915050565b7f5265616c4573746174653d7a65726f0000000000000000000000000000000000600082015250565b600062000368600f836200031f565b9150620003758262000330565b602082019050919050565b600060208201905081810360008301526200039b8162000359565b9050919050565b7f496e73706563746f723d7a65726f000000000000000000000000000000000000600082015250565b6000620003da600e836200031f565b9150620003e782620003a2565b602082019050919050565b600060208201905081810360008301526200040d81620003cb565b9050919050565b7f4c656e6465723d7a65726f000000000000000000000000000000000000000000600082015250565b60006200044c600b836200031f565b9150620004598262000414565b602082019050919050565b600060208201905081810360008301526200047f816200043d565b9050919050565b61267080620004966000396000f3fe6080604052600436106101025760003560e01c806377fbc4ae11610095578063cee26ed511610064578063cee26ed51461038a578063e740f770146103c7578063ed2cee9e146103e3578063f680038b1461040e578063fcce48831461043757610109565b806377fbc4ae146102bc578063aa929380146102f9578063b848de3514610322578063bcead63e1461035f57610109565b80635d19e56c116100d15780635d19e56c146101ee5780635eed5fff1461022b5780636cb326bf1461026857806370ce84971461029157610109565b806314a72feb1461010e578063151aab07146101375780631d56284a146101745780634dd4acaf146101b157610109565b3661010957005b600080fd5b34801561011a57600080fd5b5061013560048036038101906101309190611769565b610474565b005b34801561014357600080fd5b5061015e600480360381019061015991906118dc565b610701565b60405161016b9190611947565b60405180910390f35b34801561018057600080fd5b5061019b60048036038101906101969190611769565b610910565b6040516101a891906119d9565b60405180910390f35b3480156101bd57600080fd5b506101d860048036038101906101d39190611769565b610930565b6040516101e59190611a35565b60405180910390f35b3480156101fa57600080fd5b5061021560048036038101906102109190611769565b610963565b6040516102229190611947565b60405180910390f35b34801561023757600080fd5b50610252600480360381019061024d9190611769565b61097b565b60405161025f9190611a6b565b60405180910390f35b34801561027457600080fd5b5061028f600480360381019061028a9190611769565b61099b565b005b34801561029d57600080fd5b506102a6610e01565b6040516102b39190611ae5565b60405180910390f35b3480156102c857600080fd5b506102e360048036038101906102de9190611769565b610e27565b6040516102f09190611947565b60405180910390f35b34801561030557600080fd5b50610320600480360381019061031b9190611769565b610e3f565b005b34801561032e57600080fd5b5061034960048036038101906103449190611b2c565b6113dd565b6040516103569190611a6b565b60405180910390f35b34801561036b57600080fd5b5061037461140c565b6040516103819190611a35565b60405180910390f35b34801561039657600080fd5b506103b160048036038101906103ac9190611769565b611432565b6040516103be9190611a35565b60405180910390f35b6103e160048036038101906103dc9190611769565b611465565b005b3480156103ef57600080fd5b506103f86115be565b6040516104059190611a35565b60405180910390f35b34801561041a57600080fd5b5061043560048036038101906104309190611b98565b6115e4565b005b34801561044357600080fd5b5061045e60048036038101906104599190611769565b6116db565b60405161046b9190611a6b565b60405180910390f35b6006600082815260200190815260200160002060009054906101000a900460ff166104d4576040517f08c379a00000000000000000000000000000000000000000000000000000000081526004016104cb90611c35565b60405180910390fd5b60006009600083815260200190815260200160002060009054906101000a900473ffffffffffffffffffffffffffffffffffffffff1673ffffffffffffffffffffffffffffffffffffffff163373ffffffffffffffffffffffffffffffffffffffff16036105455760019050610610565b6004600083815260200190815260200160002060009054906101000a900473ffffffffffffffffffffffffffffffffffffffff1673ffffffffffffffffffffffffffffffffffffffff163373ffffffffffffffffffffffffffffffffffffffff16036105b4576001905061060f565b600360009054906101000a900473ffffffffffffffffffffffffffffffffffffffff1673ffffffffffffffffffffffffffffffffffffffff163373ffffffffffffffffffffffffffffffffffffffff160361060e57600190505b5b5b80610650576040517f08c379a000000000000000000000000000000000000000000000000000000000815260040161064790611ca1565b60405180910390fd5b6001600b600084815260200190815260200160002060003373ffffffffffffffffffffffffffffffffffffffff1673ffffffffffffffffffffffffffffffffffffffff16815260200190815260200160002060006101000a81548160ff0219169083151502179055503373ffffffffffffffffffffffffffffffffffffffff16827f780c1d67a93c16b861b015f21f928c5d0d45e1a706b0004751d15df1fdfaa37660405160405180910390a35050565b600061070d60006116fb565b60006107196000611711565b9050600160009054906101000a900473ffffffffffffffffffffffffffffffffffffffff1673ffffffffffffffffffffffffffffffffffffffff1663d3fc98643083876040518463ffffffff1660e01b815260040161077a93929190611d2f565b600060405180830381600087803b15801561079457600080fd5b505af11580156107a8573d6000803e3d6000fd5b50505050336004600083815260200190815260200160002060006101000a81548173ffffffffffffffffffffffffffffffffffffffff021916908373ffffffffffffffffffffffffffffffffffffffff16021790555082600760008381526020019081526020016000208190555082600860008381526020019081526020016000208190555060016005600083815260200190815260200160002060006101000a81548160ff0219169083600481111561086557610864611962565b5b021790555060016006600083815260200190815260200160002060006101000a81548160ff02191690831515021790555083600c600083815260200190815260200160002090816108b69190611f6f565b503373ffffffffffffffffffffffffffffffffffffffff16817ffd380029448de66b04c3ea6dc88059bbab60aca3780bc46a5f892593244c2bba856040516108fe9190611947565b60405180910390a38091505092915050565b60056020528060005260406000206000915054906101000a900460ff1681565b60096020528060005260406000206000915054906101000a900473ffffffffffffffffffffffffffffffffffffffff1681565b60086020528060005260406000206000915090505481565b600a6020528060005260406000206000915054906101000a900460ff1681565b600360009054906101000a900473ffffffffffffffffffffffffffffffffffffffff1673ffffffffffffffffffffffffffffffffffffffff163373ffffffffffffffffffffffffffffffffffffffff1614610a2b576040517f08c379a0000000000000000000000000000000000000000000000000000000008152600401610a229061208d565b60405180910390fd5b60006005600083815260200190815260200160002060009054906101000a900460ff16905060026004811115610a6457610a63611962565b5b816004811115610a7757610a76611962565b5b1480610aa7575060016004811115610a9257610a91611962565b5b816004811115610aa557610aa4611962565b5b145b610ae6576040517f08c379a0000000000000000000000000000000000000000000000000000000008152600401610add906120f9565b60405180910390fd5b60006009600084815260200190815260200160002060009054906101000a900473ffffffffffffffffffffffffffffffffffffffff169050600060086000858152602001908152602001600020549050600073ffffffffffffffffffffffffffffffffffffffff168273ffffffffffffffffffffffffffffffffffffffff1603610ba5576040517f08c379a0000000000000000000000000000000000000000000000000000000008152600401610b9c90612165565b60405180910390fd5b60008111610be8576040517f08c379a0000000000000000000000000000000000000000000000000000000008152600401610bdf906121d1565b60405180910390fd5b80471015610c2b576040517f08c379a0000000000000000000000000000000000000000000000000000000008152600401610c229061223d565b60405180910390fd5b60006009600086815260200190815260200160002060006101000a81548173ffffffffffffffffffffffffffffffffffffffff021916908373ffffffffffffffffffffffffffffffffffffffff1602179055506000600860008681526020019081526020016000208190555060036005600086815260200190815260200160002060006101000a81548160ff02191690836004811115610cce57610ccd611962565b5b021790555060006006600086815260200190815260200160002060006101000a81548160ff02191690831515021790555060008273ffffffffffffffffffffffffffffffffffffffff1682604051610d259061228e565b60006040518083038185875af1925050503d8060008114610d62576040519150601f19603f3d011682016040523d82523d6000602084013e610d67565b606091505b5050905080610dab576040517f08c379a0000000000000000000000000000000000000000000000000000000008152600401610da2906122ef565b60405180910390fd5b8273ffffffffffffffffffffffffffffffffffffffff16857f855a9fce4c4fa99e21aa667d9fb05057b34881288a94d43172cc9f0abd46272c84604051610df29190611947565b60405180910390a35050505050565b600160009054906101000a900473ffffffffffffffffffffffffffffffffffffffff1681565b60076020528060005260406000206000915090505481565b600360009054906101000a900473ffffffffffffffffffffffffffffffffffffffff1673ffffffffffffffffffffffffffffffffffffffff163373ffffffffffffffffffffffffffffffffffffffff1614610ecf576040517f08c379a0000000000000000000000000000000000000000000000000000000008152600401610ec69061235b565b60405180910390fd5b6006600082815260200190815260200160002060009054906101000a900460ff16610f2f576040517f08c379a0000000000000000000000000000000000000000000000000000000008152600401610f2690611c35565b60405180910390fd5b600a600082815260200190815260200160002060009054906101000a900460ff16610f8f576040517f08c379a0000000000000000000000000000000000000000000000000000000008152600401610f86906123c7565b60405180910390fd5b600b600082815260200190815260200160002060006009600084815260200190815260200160002060009054906101000a900473ffffffffffffffffffffffffffffffffffffffff1673ffffffffffffffffffffffffffffffffffffffff1673ffffffffffffffffffffffffffffffffffffffff16815260200190815260200160002060009054906101000a900460ff1661105f576040517f08c379a000000000000000000000000000000000000000000000000000000000815260040161105690612433565b60405180910390fd5b600b600082815260200190815260200160002060006004600084815260200190815260200160002060009054906101000a900473ffffffffffffffffffffffffffffffffffffffff1673ffffffffffffffffffffffffffffffffffffffff1673ffffffffffffffffffffffffffffffffffffffff16815260200190815260200160002060009054906101000a900460ff1661112f576040517f08c379a00000000000000000000000000000000000000000000000000000000081526004016111269061249f565b60405180910390fd5b600b60008281526020019081526020016000206000600360009054906101000a900473ffffffffffffffffffffffffffffffffffffffff1673ffffffffffffffffffffffffffffffffffffffff1673ffffffffffffffffffffffffffffffffffffffff16815260200190815260200160002060009054906101000a900460ff166111ee576040517f08c379a00000000000000000000000000000000000000000000000000000000081526004016111e59061250b565b60405180910390fd5b60006007600083815260200190815260200160002054905060006006600084815260200190815260200160002060006101000a81548160ff02191690831515021790555060046005600084815260200190815260200160002060006101000a81548160ff0219169083600481111561126957611268611962565b5b02179055506004600083815260200190815260200160002060009054906101000a900473ffffffffffffffffffffffffffffffffffffffff1673ffffffffffffffffffffffffffffffffffffffff166108fc829081150290604051600060405180830381858888f193505050501580156112e7573d6000803e3d6000fd5b50600160009054906101000a900473ffffffffffffffffffffffffffffffffffffffff1673ffffffffffffffffffffffffffffffffffffffff166323b872dd306009600086815260200190815260200160002060009054906101000a900473ffffffffffffffffffffffffffffffffffffffff16856040518463ffffffff1660e01b815260040161137a9392919061252b565b600060405180830381600087803b15801561139457600080fd5b505af11580156113a8573d6000803e3d6000fd5b50505050817f69f3cc4e34492a96604c6a9068df274385221039516ee176167f6defd2d195ee60405160405180910390a25050565b600b6020528160005260406000206020528060005260406000206000915091509054906101000a900460ff1681565b600360009054906101000a900473ffffffffffffffffffffffffffffffffffffffff1681565b60046020528060005260406000206000915054906101000a900473ffffffffffffffffffffffffffffffffffffffff1681565b6006600082815260200190815260200160002060009054906101000a900460ff166114c5576040517f08c379a00000000000000000000000000000000000000000000000000000000081526004016114bc90611c35565b60405180910390fd5b6008600082815260200190815260200160002054341461151a576040517f08c379a0000000000000000000000000000000000000000000000000000000008152600401611511906125ae565b60405180910390fd5b336009600083815260200190815260200160002060006101000a81548173ffffffffffffffffffffffffffffffffffffffff021916908373ffffffffffffffffffffffffffffffffffffffff1602179055503373ffffffffffffffffffffffffffffffffffffffff16817f3f2b95d3e8febed7228920c9b8a9c3ab9d4926f771865c80c303fba69fad0412346040516115b39190611947565b60405180910390a350565b600260009054906101000a900473ffffffffffffffffffffffffffffffffffffffff1681565b600260009054906101000a900473ffffffffffffffffffffffffffffffffffffffff1673ffffffffffffffffffffffffffffffffffffffff163373ffffffffffffffffffffffffffffffffffffffff1614611674576040517f08c379a000000000000000000000000000000000000000000000000000000000815260040161166b9061261a565b60405180910390fd5b80600a600084815260200190815260200160002060006101000a81548160ff021916908315150217905550817f6e254fae6dfb5e77180decd584a4dbc2bdbd358f9152749ea807aed85af19527826040516116cf9190611a6b565b60405180910390a25050565b60066020528060005260406000206000915054906101000a900460ff1681565b6001816000016000828254019250508190555050565b600081600001549050919050565b6000604051905090565b600080fd5b600080fd5b6000819050919050565b61174681611733565b811461175157600080fd5b50565b6000813590506117638161173d565b92915050565b60006020828403121561177f5761177e611729565b5b600061178d84828501611754565b91505092915050565b600080fd5b600080fd5b6000601f19601f8301169050919050565b7f4e487b7100000000000000000000000000000000000000000000000000000000600052604160045260246000fd5b6117e9826117a0565b810181811067ffffffffffffffff82111715611808576118076117b1565b5b80604052505050565b600061181b61171f565b905061182782826117e0565b919050565b600067ffffffffffffffff821115611847576118466117b1565b5b611850826117a0565b9050602081019050919050565b82818337600083830152505050565b600061187f61187a8461182c565b611811565b90508281526020810184848401111561189b5761189a61179b565b5b6118a684828561185d565b509392505050565b600082601f8301126118c3576118c2611796565b5b81356118d384826020860161186c565b91505092915050565b600080604083850312156118f3576118f2611729565b5b600083013567ffffffffffffffff8111156119115761191061172e565b5b61191d858286016118ae565b925050602061192e85828601611754565b9150509250929050565b61194181611733565b82525050565b600060208201905061195c6000830184611938565b92915050565b7f4e487b7100000000000000000000000000000000000000000000000000000000600052602160045260246000fd5b600581106119a2576119a1611962565b5b50565b60008190506119b382611991565b919050565b60006119c3826119a5565b9050919050565b6119d3816119b8565b82525050565b60006020820190506119ee60008301846119ca565b92915050565b600073ffffffffffffffffffffffffffffffffffffffff82169050919050565b6000611a1f826119f4565b9050919050565b611a2f81611a14565b82525050565b6000602082019050611a4a6000830184611a26565b92915050565b60008115159050919050565b611a6581611a50565b82525050565b6000602082019050611a806000830184611a5c565b92915050565b6000819050919050565b6000611aab611aa6611aa1846119f4565b611a86565b6119f4565b9050919050565b6000611abd82611a90565b9050919050565b6000611acf82611ab2565b9050919050565b611adf81611ac4565b82525050565b6000602082019050611afa6000830184611ad6565b92915050565b611b0981611a14565b8114611b1457600080fd5b50565b600081359050611b2681611b00565b92915050565b60008060408385031215611b4357611b42611729565b5b6000611b5185828601611754565b9250506020611b6285828601611b17565b9150509250929050565b611b7581611a50565b8114611b8057600080fd5b50565b600081359050611b9281611b6c565b92915050565b60008060408385031215611baf57611bae611729565b5b6000611bbd85828601611754565b9250506020611bce85828601611b83565b9150509250929050565b600082825260208201905092915050565b7f4e6f74206c697374656400000000000000000000000000000000000000000000600082015250565b6000611c1f600a83611bd8565b9150611c2a82611be9565b602082019050919050565b60006020820190508181036000830152611c4e81611c12565b9050919050565b7f4e6f742061207061727469636970616e74000000000000000000000000000000600082015250565b6000611c8b601183611bd8565b9150611c9682611c55565b602082019050919050565b60006020820190508181036000830152611cba81611c7e565b9050919050565b600081519050919050565b60005b83811015611cea578082015181840152602081019050611ccf565b60008484015250505050565b6000611d0182611cc1565b611d0b8185611bd8565b9350611d1b818560208601611ccc565b611d24816117a0565b840191505092915050565b6000606082019050611d446000830186611a26565b611d516020830185611938565b8181036040830152611d638184611cf6565b9050949350505050565b7f4e487b7100000000000000000000000000000000000000000000000000000000600052602260045260246000fd5b60006002820490506001821680611db457607f821691505b602082108103611dc757611dc6611d6d565b5b50919050565b60008190508160005260206000209050919050565b60006020601f8301049050919050565b600082821b905092915050565b600060088302611e2f7fffffffffffffffffffffffffffffffffffffffffffffffffffffffffffffffff82611df2565b611e398683611df2565b95508019841693508086168417925050509392505050565b6000611e6c611e67611e6284611733565b611a86565b611733565b9050919050565b6000819050919050565b611e8683611e51565b611e9a611e9282611e73565b848454611dff565b825550505050565b600090565b611eaf611ea2565b611eba818484611e7d565b505050565b5b81811015611ede57611ed3600082611ea7565b600181019050611ec0565b5050565b601f821115611f2357611ef481611dcd565b611efd84611de2565b81016020851015611f0c578190505b611f20611f1885611de2565b830182611ebf565b50505b505050565b600082821c905092915050565b6000611f4660001984600802611f28565b1980831691505092915050565b6000611f5f8383611f35565b9150826002028217905092915050565b611f7882611cc1565b67ffffffffffffffff811115611f9157611f906117b1565b5b611f9b8254611d9c565b611fa6828285611ee2565b600060209050601f831160018114611fd95760008415611fc7578287015190505b611fd18582611f53565b865550612039565b601f198416611fe786611dcd565b60005b8281101561200f57848901518255600182019150602085019450602081019050611fea565b8683101561202c5784890151612028601f891682611f35565b8355505b6001600288020188555050505b505050505050565b7f4f6e6c79206c656e6465722063616e2063616e63656c00000000000000000000600082015250565b6000612077601683611bd8565b915061208282612041565b602082019050919050565b600060208201905081810360008301526120a68161206a565b9050919050565b7f43616e6e6f742063616e63656c20617420746869732073746167650000000000600082015250565b60006120e3601b83611bd8565b91506120ee826120ad565b602082019050919050565b60006020820190508181036000830152612112816120d6565b9050919050565b7f4e6f20627579657220746f20726566756e640000000000000000000000000000600082015250565b600061214f601283611bd8565b915061215a82612119565b602082019050919050565b6000602082019050818103600083015261217e81612142565b9050919050565b7f4e6f206465706f73697420746f20726566756e64000000000000000000000000600082015250565b60006121bb601483611bd8565b91506121c682612185565b602082019050919050565b600060208201905081810360008301526121ea816121ae565b9050919050565b7f496e73756666696369656e742062616c616e6365000000000000000000000000600082015250565b6000612227601483611bd8565b9150612232826121f1565b602082019050919050565b600060208201905081810360008301526122568161221a565b9050919050565b600081905092915050565b50565b600061227860008361225d565b915061228382612268565b600082019050919050565b60006122998261226b565b9150819050919050565b7f526566756e64206661696c656400000000000000000000000000000000000000600082015250565b60006122d9600d83611bd8565b91506122e4826122a3565b602082019050919050565b60006020820190508181036000830152612308816122cc565b9050919050565b7f4f6e6c79206c656e646572000000000000000000000000000000000000000000600082015250565b6000612345600b83611bd8565b91506123508261230f565b602082019050919050565b6000602082019050818103600083015261237481612338565b9050919050565b7f496e7370656374696f6e2070656e64696e670000000000000000000000000000600082015250565b60006123b1601283611bd8565b91506123bc8261237b565b602082019050919050565b600060208201905081810360008301526123e0816123a4565b9050919050565b7f4275796572206e6f7420617070726f7665640000000000000000000000000000600082015250565b600061241d601283611bd8565b9150612428826123e7565b602082019050919050565b6000602082019050818103600083015261244c81612410565b9050919050565b7f53656c6c6572206e6f7420617070726f76656400000000000000000000000000600082015250565b6000612489601383611bd8565b915061249482612453565b602082019050919050565b600060208201905081810360008301526124b88161247c565b9050919050565b7f4c656e646572206e6f7420617070726f76656400000000000000000000000000600082015250565b60006124f5601383611bd8565b9150612500826124bf565b602082019050919050565b60006020820190508181036000830152612524816124e8565b9050919050565b60006060820190506125406000830186611a26565b61254d6020830185611a26565b61255a6040830184611938565b949350505050565b7f57726f6e6720616d6f756e740000000000000000000000000000000000000000600082015250565b6000612598600c83611bd8565b91506125a382612562565b602082019050919050565b600060208201905081810360008301526125c78161258b565b9050919050565b7f4f6e6c7920696e73706563746f72000000000000000000000000000000000000600082015250565b6000612604600e83611bd8565b915061260f826125ce565b602082019050919050565b60006020820190508181036000830152612633816125f7565b905091905056fea2646970667358221220c262b652f00ade6290e9a26bd38b1e56045a79e3985243fb96cb915fe1af714764736f6c63430008120033",
  "linkReferences": {},
  "deployedLinkReferences": {}
}