{
  "_format": "hh-sol-artifact-1",
  "contractName": "RealEstate",
  "sourceName": "contracts/RealEstate.sol",
  "abi": [
    {
      "inputs": [],
      "stateMutability": "nonpayable",
      "type": "constructor"
    },
    {
      "anonymous": false,
      "inputs": [
        {
          "indexed": true,
          "internalType": "address",
          "name": "owner",
          "type": "address"
        },
        {
          "indexed": true,
          "internalType": "address",
          "name": "approved",
          "type": "address"
        },
        {
          "indexed": true,
          "internalType": "uint256",
          "name": "tokenId",
          "type": "uint256"
        }
      ],
      "name": "Approval",
      "type": "event"
    },
    {
      "anonymous": false,
      "inputs": [
        {
          "indexed": true,
          "internalType": "address",
          "name": "owner",
          "type": "address"
        },
        {
          "indexed": true,
          "internalType": "address",
          "name": "operator",
          "type": "address"
        },
        {
          "indexed": false,
          "internalType": "bool",
          "name": "approved",
          "type": "bool"
        }
      ],
      "name": "ApprovalForAll",
      "type": "event"
    },
    {
      "anonymous": false,
      "inputs": [
        {
          "indexed": true,
          "internalType": "address",
          "name": "previousOwner",
          "type": "address"
        },
        {
          "indexed": true,
          "internalType": "address",
          "name": "newOwner",
          "type": "address"
        }
      ],
      "name": "OwnershipTransferred",
      "type": "event"
    },
    {
      "anonymous": false,
      "inputs": [
        {
          "indexed": true,
          "internalType": "address",
          "name": "from",
          "type": "address"
        },
        {
          "indexed": true,
          "internalType": "address",
          "name": "to",
          "type": "address"
        },
        {
          "indexed": true,
          "internalType": "uint256",
          "name": "tokenId",
          "type": "uint256"
        }
      ],
      "name": "Transfer",
      "type": "event"
    },
    {
      "inputs": [
        {
          "internalType": "address",
          "name": "to",
          "type": "address"
        },
        {
          "internalType": "uint256",
          "name": "tokenId",
          "type": "uint256"
        }
      ],
      "name": "approve",
      "outputs": [],
      "stateMutability": "nonpayable",
      "type": "function"
    },
    {
      "inputs": [
        {
          "internalType": "address",
          "name": "owner",
          "type": "address"
        }
      ],
      "name": "balanceOf",
      "outputs": [
        {
          "internalType": "uint256",
          "name": "",
          "type": "uint256"
        }
      ],
      "stateMutability": "view",
      "type": "function"
    },
    {
      "inputs": [],
      "name": "escrowMinter",
      "outputs": [
        {
          "internalType": "address",
          "name": "",
          "type": "address"
        }
      ],
      "stateMutability": "view",
      "type": "function"
    },
    {
      "inputs": [
        {
          "internalType": "uint256",
          "name": "tokenId",
          "type": "uint256"
        }
      ],
      "name": "getApproved",
      "outputs": [
        {
          "internalType": "address",
          "name": "",
          "type": "address"
        }
      ],
      "stateMutability": "view",
      "type": "function"
    },
    {
      "inputs": [
        {
          "internalType": "address",
          "name": "owner",
          "type": "address"
        },
        {
          "internalType": "address",
          "name": "operator",
          "type": "address"
        }
      ],
      "name": "isApprovedForAll",
      "outputs": [
        {
          "internalType": "bool",
          "name": "",
          "type": "bool"
        }
      ],
      "stateMutability": "view",
      "type": "function"
    },
    {
      "inputs": [
        {
          "internalType": "address",
          "name": "_to",
          "type": "address"
        },
        {
          "internalType": "uint256",
          "name": "_tokenId",
          "type": "uint256"
        },
        {
          "internalType": "string",
          "name": "_tokenURI",
          "type": "string"
        }
      ],
      "name": "mint",
      "outputs": [],
      "stateMutability": "nonpayable",
      "type": "function"
    },
    {
      "inputs": [],
      "name": "name",
      "outputs": [
        {
          "internalType": "string",
          "name": "",
          "type": "string"
        }
      ],
      "stateMutability": "view",
      "type": "function"
    },
    {
      "inputs": [],
      "name": "owner",
      "outputs": [
        {
          "internalType": "address",
          "name": "",
          "type": "address"
        }
      ],
      "stateMutability": "view",
      "type": "function"
    },
    {
      "inputs": [
        {
          "internalType": "uint256",
          "name": "tokenId",
          "type": "uint256"
        }
      ],
      "name": "ownerOf",
      "outputs": [
        {
          "internalType": "address",
          "name": "",
          "type": "address"
        }
      ],
      "stateMutability": "view",
      "type": "function"
    },
    {
      "inputs": [],
      "name": "renounceOwnership",
      "outputs": [],
      "stateMutability": "nonpayable",
      "type": "function"
    },
    {
      "inputs": [
        {
          "internalType": "address",
          "name": "from",
          "type": "address"
        },
        {
          "internalType": "address",
          "name": "to",
          "type": "address"
        },
        {
          "internalType": "uint256",
          "name": "tokenId",
          "type": "uint256"
        }
      ],
      "name": "safeTransferFrom",
      "outputs": [],
      "stateMutability": "nonpayable",
      "type": "function"
    },
    {
      "inputs": [
        {
          "internalType": "address",
          "name": "from",
          "type": "address"
        },
        {
          "internalType": "address",
          "name": "to",
          "type": "address"
        },
        {
          "internalType": "uint256",
          "name": "tokenId",
          "type": "uint256"
        },
        {
          "internalType": "bytes",
          "name": "data",
          "type": "bytes"
        }
      ],
      "name": "safeTransferFrom",
      "outputs": [],
      "stateMutability": "nonpayable",
      "type": "function"
    },
    {
      "inputs": [
        {
          "internalType": "address",
          "name": "operator",
          "type": "address"
        },
        {
          "internalType": "bool",
          "name": "approved",
          "type": "bool"
        }
      ],
      "name": "setApprovalForAll",
      "outputs": [],
      "stateMutability": "nonpayable",
      "type": "function"
    },
    {
      "inputs": [
        {
          "internalType": "address",
          "name": "_escrowMinter",
          "type": "address"
        }
      ],
      "name": "setEscrowMinter",
      "outputs": [],
      "stateMutability": "nonpayable",
      "type": "function"
    },
    {
      "inputs": [
        {
          "internalType": "bytes4",
          "name": "interfaceId",
          "type": "bytes4"
        }
      ],
      "name": "supportsInterface",
      "outputs": [
        {
          "internalType": "bool",
          "name": "",
          "type": "bool"
        }
      ],
      "stateMutability": "view",
      "type": "function"
    },
    {
      "inputs": [],
      "name": "symbol",
      "outputs": [
        {
          "internalType": "string",
          "name": "",
          "type": "string"
        }
      ],
      "stateMutability": "view",
      "type": "function"
    },
    {
      "inputs": [
        {
          "internalType": "uint256",
          "name": "tokenId",
          "type": "uint256"
        }
      ],
      "name": "tokenURI",
      "outputs": [
        {
          "internalType": "string",
          "name": "",
          "type": "string"
        }
      ],
      "stateMutability": "view",
      "type": "function"
    },
    {
      "inputs": [
        {
          "internalType": "address",
          "name": "from",
          "type": "address"
        },
        {
          "internalType": "address",
          "name": "to",
          "type": "address"
        },
        {
          "internalType": "uint256",
          "name": "tokenId",
          "type": "uint256"
        }
      ],
      "name": "transferFrom",
      "outputs": [],
      "stateMutability": "nonpayable",
      "type": "function"
    },
    {
      "inputs": [
        {
          "internalType": "address",
          "name": "newOwner",
          "type": "address"
        }
      ],
      "name": "transferOwnership",
      "outputs": [],
      "stateMutability": "nonpayable",
      "type": "function"
    }
  ],
  "bytecode": "0x60806040523480156200001157600080fd5b506040518060400160405280600b81526020017f5265616c204573746174650000000000000000000000000000000000000000008152506040518060400160405280600481526020017f5245414c0000000000000000000000000000000000000000000000000000000081525081600090816200008f919062000453565b508060019081620000a1919062000453565b505050620000c4620000b86200010b60201b60201c565b6200011360201b60201c565b33600860006101000a81548173ffffffffffffffffffffffffffffffffffffffff021916908373ffffffffffffffffffffffffffffffffffffffff1602179055506200053a565b600033905090565b6000600760009054906101000a900473ffffffffffffffffffffffffffffffffffffffff16905081600760006101000a81548173ffffffffffffffffffffffffffffffffffffffff021916908373ffffffffffffffffffffffffffffffffffffffff1602179055508173ffffffffffffffffffffffffffffffffffffffff168173ffffffffffffffffffffffffffffffffffffffff167f8be0079c531659141344cd1fd0a4f28419497f9722a3daafe3b4186f6b6457e060405160405180910390a35050565b600081519050919050565b7f4e487b7100000000000000000000000000000000000000000000000000000000600052604160045260246000fd5b7f4e487b7100000000000000000000000000000000000000000000000000000000600052602260045260246000fd5b600060028204905060018216806200025b57607f821691505b60208210810362000271576200027062000213565b5b50919050565b60008190508160005260206000209050919050565b60006020601f8301049050919050565b600082821b905092915050565b600060088302620002db7fffffffffffffffffffffffffffffffffffffffffffffffffffffffffffffffff826200029c565b620002e786836200029c565b95508019841693508086168417925050509392505050565b6000819050919050565b6000819050919050565b6000620003346200032e6200032884620002ff565b62000309565b620002ff565b9050919050565b6000819050919050565b620003508362000313565b620003686200035f826200033b565b848454620002a9565b825550505050565b600090565b6200037f62000370565b6200038c81848462000345565b505050565b5b81811015620003b457620003a860008262000375565b60018101905062000392565b5050565b601f8211156200040357620003cd8162000277565b620003d8846200028c565b81016020851015620003e8578190505b62000400620003f7856200028c565b83018262000391565b50505b505050565b600082821c905092915050565b6000620004286000198460080262000408565b1980831691505092915050565b600062000443838362000415565b9150826002028217905092915050565b6200045e82620001d9565b67ffffffffffffffff8111156200047a5762000479620001e4565b5b62000486825462000242565b62000493828285620003b8565b600060209050601f831160018114620004cb5760008415620004b6578287015190505b620004c2858262000435565b86555062000532565b601f198416620004db8662000277565b60005b828110156200050557848901518255600182019150602085019450602081019050620004de565b8683101562000525578489015162000521601f89168262000415565b8355505b6001600288020188555050505b505050505050565b612ff4806200054a6000396000f3fe608060405234801561001057600080fd5b50600436106101215760003560e01c8063715018a6116100ad578063b88d4fde11610071578063b88d4fde146102f4578063c87b56dd14610310578063d3fc986414610340578063e985e9c51461035c578063f2fde38b1461038c57610121565b8063715018a6146102745780638da5cb5b1461027e57806395d89b411461029c578063a22cb465146102ba578063af4f43e5146102d657610121565b806323b872dd116100f457806323b872dd146101c05780632dfd6369146101dc57806342842e0e146101f85780636352211e1461021457806370a082311461024457610121565b806301ffc9a71461012657806306fdde0314610156578063081812fc14610174578063095ea7b3146101a4575b600080fd5b610140600480360381019061013b9190611b8a565b6103a8565b60405161014d9190611bd2565b60405180910390f35b61015e61048a565b60405161016b9190611c7d565b60405180910390f35b61018e60048036038101906101899190611cd5565b61051c565b60405161019b9190611d43565b60405180910390f35b6101be60048036038101906101b99190611d8a565b610562565b005b6101da60048036038101906101d59190611dca565b610679565b005b6101f660048036038101906101f19190611e1d565b6106d9565b005b610212600480360381019061020d9190611dca565b610794565b005b61022e60048036038101906102299190611cd5565b6107b4565b60405161023b9190611d43565b60405180910390f35b61025e60048036038101906102599190611e1d565b610865565b60405161026b9190611e59565b60405180910390f35b61027c61091c565b005b610286610930565b6040516102939190611d43565b60405180910390f35b6102a461095a565b6040516102b19190611c7d565b60405180910390f35b6102d460048036038101906102cf9190611ea0565b6109ec565b005b6102de610a02565b6040516102eb9190611d43565b60405180910390f35b61030e60048036038101906103099190612015565b610a28565b005b61032a60048036038101906103259190611cd5565b610a8a565b6040516103379190611c7d565b60405180910390f35b61035a60048036038101906103559190612139565b610b9c565b005b610376600480360381019061037191906121a8565b610c45565b6040516103839190611bd2565b60405180910390f35b6103a660048036038101906103a19190611e1d565b610cd9565b005b60007f80ac58cd000000000000000000000000000000000000000000000000000000007bffffffffffffffffffffffffffffffffffffffffffffffffffffffff1916827bffffffffffffffffffffffffffffffffffffffffffffffffffffffff1916148061047357507f5b5e139f000000000000000000000000000000000000000000000000000000007bffffffffffffffffffffffffffffffffffffffffffffffffffffffff1916827bffffffffffffffffffffffffffffffffffffffffffffffffffffffff1916145b80610483575061048282610d5c565b5b9050919050565b60606000805461049990612217565b80601f01602080910402602001604051908101604052809291908181526020018280546104c590612217565b80156105125780601f106104e757610100808354040283529160200191610512565b820191906000526020600020905b8154815290600101906020018083116104f557829003601f168201915b5050505050905090565b600061052782610dc6565b6004600083815260200190815260200160002060009054906101000a900473ffffffffffffffffffffffffffffffffffffffff169050919050565b600061056d826107b4565b90508073ffffffffffffffffffffffffffffffffffffffff168373ffffffffffffffffffffffffffffffffffffffff16036105dd576040517f08c379a00000000000000000000000000000000000000000000000000000000081526004016105d4906122ba565b60405180910390fd5b8073ffffffffffffffffffffffffffffffffffffffff166105fc610e11565b73ffffffffffffffffffffffffffffffffffffffff16148061062b575061062a81610625610e11565b610c45565b5b61066a576040517f08c379a00000000000000000000000000000000000000000000000000000000081526004016106619061234c565b60405180910390fd5b6106748383610e19565b505050565b61068a610684610e11565b82610ed2565b6106c9576040517f08c379a00000000000000000000000000000000000000000000000000000000081526004016106c0906123de565b60405180910390fd5b6106d4838383610f67565b505050565b6106e16111cd565b600073ffffffffffffffffffffffffffffffffffffffff168173ffffffffffffffffffffffffffffffffffffffff1603610750576040517f08c379a00000000000000000000000000000000000000000000000000000000081526004016107479061244a565b60405180910390fd5b80600860006101000a81548173ffffffffffffffffffffffffffffffffffffffff021916908373ffffffffffffffffffffffffffffffffffffffff16021790555050565b6107af83838360405180602001604052806000815250610a28565b505050565b6000806002600084815260200190815260200160002060009054906101000a900473ffffffffffffffffffffffffffffffffffffffff169050600073ffffffffffffffffffffffffffffffffffffffff168173ffffffffffffffffffffffffffffffffffffffff160361085c576040517f08c379a0000000000000000000000000000000000000000000000000000000008152600401610853906124b6565b60405180910390fd5b80915050919050565b60008073ffffffffffffffffffffffffffffffffffffffff168273ffffffffffffffffffffffffffffffffffffffff16036108d5576040517f08c379a00000000000000000000000000000000000000000000000000000000081526004016108cc90612548565b60405180910390fd5b600360008373ffffffffffffffffffffffffffffffffffffffff1673ffffffffffffffffffffffffffffffffffffffff168152602001908152602001600020549050919050565b6109246111cd565b61092e600061124b565b565b6000600760009054906101000a900473ffffffffffffffffffffffffffffffffffffffff16905090565b60606001805461096990612217565b80601f016020809104026020016040519081016040528092919081815260200182805461099590612217565b80156109e25780601f106109b7576101008083540402835291602001916109e2565b820191906000526020600020905b8154815290600101906020018083116109c557829003601f168201915b5050505050905090565b6109fe6109f7610e11565b8383611311565b5050565b600860009054906101000a900473ffffffffffffffffffffffffffffffffffffffff1681565b610a39610a33610e11565b83610ed2565b610a78576040517f08c379a0000000000000000000000000000000000000000000000000000000008152600401610a6f906123de565b60405180910390fd5b610a848484848461147d565b50505050565b6060610a9582610dc6565b6000600660008481526020019081526020016000208054610ab590612217565b80601f0160208091040260200160405190810160405280929190818152602001828054610ae190612217565b8015610b2e5780601f10610b0357610100808354040283529160200191610b2e565b820191906000526020600020905b815481529060010190602001808311610b1157829003601f168201915b505050505090506000610b3f6114d9565b90506000815103610b54578192505050610b97565b600082511115610b89578082604051602001610b719291906125a4565b60405160208183030381529060405292505050610b97565b610b92846114f0565b925050505b919050565b600860009054906101000a900473ffffffffffffffffffffffffffffffffffffffff1673ffffffffffffffffffffffffffffffffffffffff163373ffffffffffffffffffffffffffffffffffffffff1614610c2c576040517f08c379a0000000000000000000000000000000000000000000000000000000008152600401610c2390612614565b60405180910390fd5b610c368383611558565b610c408282611731565b505050565b6000600560008473ffffffffffffffffffffffffffffffffffffffff1673ffffffffffffffffffffffffffffffffffffffff16815260200190815260200160002060008373ffffffffffffffffffffffffffffffffffffffff1673ffffffffffffffffffffffffffffffffffffffff16815260200190815260200160002060009054906101000a900460ff16905092915050565b610ce16111cd565b600073ffffffffffffffffffffffffffffffffffffffff168173ffffffffffffffffffffffffffffffffffffffff1603610d50576040517f08c379a0000000000000000000000000000000000000000000000000000000008152600401610d47906126a6565b60405180910390fd5b610d598161124b565b50565b60007f01ffc9a7000000000000000000000000000000000000000000000000000000007bffffffffffffffffffffffffffffffffffffffffffffffffffffffff1916827bffffffffffffffffffffffffffffffffffffffffffffffffffffffff1916149050919050565b610dcf8161179e565b610e0e576040517f08c379a0000000000000000000000000000000000000000000000000000000008152600401610e05906124b6565b60405180910390fd5b50565b600033905090565b816004600083815260200190815260200160002060006101000a81548173ffffffffffffffffffffffffffffffffffffffff021916908373ffffffffffffffffffffffffffffffffffffffff160217905550808273ffffffffffffffffffffffffffffffffffffffff16610e8c836107b4565b73ffffffffffffffffffffffffffffffffffffffff167f8c5be1e5ebec7d5bd14f71427d1e84f3dd0314c0f7b2291e5b200ac8c7c3b92560405160405180910390a45050565b600080610ede836107b4565b90508073ffffffffffffffffffffffffffffffffffffffff168473ffffffffffffffffffffffffffffffffffffffff161480610f205750610f1f8185610c45565b5b80610f5e57508373ffffffffffffffffffffffffffffffffffffffff16610f468461051c565b73ffffffffffffffffffffffffffffffffffffffff16145b91505092915050565b8273ffffffffffffffffffffffffffffffffffffffff16610f87826107b4565b73ffffffffffffffffffffffffffffffffffffffff1614610fdd576040517f08c379a0000000000000000000000000000000000000000000000000000000008152600401610fd490612738565b60405180910390fd5b600073ffffffffffffffffffffffffffffffffffffffff168273ffffffffffffffffffffffffffffffffffffffff160361104c576040517f08c379a0000000000000000000000000000000000000000000000000000000008152600401611043906127ca565b60405180910390fd5b61105783838361180a565b611062600082610e19565b6001600360008573ffffffffffffffffffffffffffffffffffffffff1673ffffffffffffffffffffffffffffffffffffffff16815260200190815260200160002060008282546110b29190612819565b925050819055506001600360008473ffffffffffffffffffffffffffffffffffffffff1673ffffffffffffffffffffffffffffffffffffffff1681526020019081526020016000206000828254611109919061284d565b92505081905550816002600083815260200190815260200160002060006101000a81548173ffffffffffffffffffffffffffffffffffffffff021916908373ffffffffffffffffffffffffffffffffffffffff160217905550808273ffffffffffffffffffffffffffffffffffffffff168473ffffffffffffffffffffffffffffffffffffffff167fddf252ad1be2c89b69c2b068fc378daa952ba7f163c4a11628f55a4df523b3ef60405160405180910390a46111c883838361180f565b505050565b6111d5610e11565b73ffffffffffffffffffffffffffffffffffffffff166111f3610930565b73ffffffffffffffffffffffffffffffffffffffff1614611249576040517f08c379a0000000000000000000000000000000000000000000000000000000008152600401611240906128cd565b60405180910390fd5b565b6000600760009054906101000a900473ffffffffffffffffffffffffffffffffffffffff16905081600760006101000a81548173ffffffffffffffffffffffffffffffffffffffff021916908373ffffffffffffffffffffffffffffffffffffffff1602179055508173ffffffffffffffffffffffffffffffffffffffff168173ffffffffffffffffffffffffffffffffffffffff167f8be0079c531659141344cd1fd0a4f28419497f9722a3daafe3b4186f6b6457e060405160405180910390a35050565b8173ffffffffffffffffffffffffffffffffffffffff168373ffffffffffffffffffffffffffffffffffffffff160361137f576040517f08c379a000000000000000000000000000000000000000000000000000000000815260040161137690612939565b60405180910390fd5b80600560008573ffffffffffffffffffffffffffffffffffffffff1673ffffffffffffffffffffffffffffffffffffffff16815260200190815260200160002060008473ffffffffffffffffffffffffffffffffffffffff1673ffffffffffffffffffffffffffffffffffffffff16815260200190815260200160002060006101000a81548160ff0219169083151502179055508173ffffffffffffffffffffffffffffffffffffffff168373ffffffffffffffffffffffffffffffffffffffff167f17307eab39ab6107e8899845ad3d59bd9653f200f220920489ca2b5937696c31836040516114709190611bd2565b60405180910390a3505050565b611488848484610f67565b61149484848484611814565b6114d3576040517f08c379a00000000000000000000000000000000000000000000000000000000081526004016114ca906129cb565b60405180910390fd5b50505050565b606060405180602001604052806000815250905090565b60606114fb82610dc6565b60006115056114d9565b905060008151116115255760405180602001604052806000815250611550565b8061152f8461199b565b6040516020016115409291906125a4565b6040516020818303038152906040525b915050919050565b600073ffffffffffffffffffffffffffffffffffffffff168273ffffffffffffffffffffffffffffffffffffffff16036115c7576040517f08c379a00000000000000000000000000000000000000000000000000000000081526004016115be90612a37565b60405180910390fd5b6115d08161179e565b15611610576040517f08c379a000000000000000000000000000000000000000000000000000000000815260040161160790612aa3565b60405180910390fd5b61161c6000838361180a565b6001600360008473ffffffffffffffffffffffffffffffffffffffff1673ffffffffffffffffffffffffffffffffffffffff168152602001908152602001600020600082825461166c919061284d565b92505081905550816002600083815260200190815260200160002060006101000a81548173ffffffffffffffffffffffffffffffffffffffff021916908373ffffffffffffffffffffffffffffffffffffffff160217905550808273ffffffffffffffffffffffffffffffffffffffff16600073ffffffffffffffffffffffffffffffffffffffff167fddf252ad1be2c89b69c2b068fc378daa952ba7f163c4a11628f55a4df523b3ef60405160405180910390a461172d6000838361180f565b5050565b61173a8261179e565b611779576040517f08c379a000000000000000000000000000000000000000000000000000000000815260040161177090612b35565b60405180910390fd5b806006600084815260200190815260200160002090816117999190612d01565b505050565b60008073ffffffffffffffffffffffffffffffffffffffff166002600084815260200190815260200160002060009054906101000a900473ffffffffffffffffffffffffffffffffffffffff1673ffffffffffffffffffffffffffffffffffffffff1614159050919050565b505050565b505050565b60006118358473ffffffffffffffffffffffffffffffffffffffff16611afb565b1561198e578373ffffffffffffffffffffffffffffffffffffffff1663150b7a0261185e610e11565b8786866040518563ffffffff1660e01b81526004016118809493929190612e28565b6020604051808303816000875af19250505080156118bc57506040513d601f19601f820116820180604052508101906118b99190612e89565b60015b61193e573d80600081146118ec576040519150601f19603f3d011682016040523d82523d6000602084013e6118f1565b606091505b506000815103611936576040517f08c379a000000000000000000000000000000000000000000000000000000000815260040161192d906129cb565b60405180910390fd5b805181602001fd5b63150b7a0260e01b7bffffffffffffffffffffffffffffffffffffffffffffffffffffffff1916817bffffffffffffffffffffffffffffffffffffffffffffffffffffffff191614915050611993565b600190505b949350505050565b6060600082036119e2576040518060400160405280600181526020017f30000000000000000000000000000000000000000000000000000000000000008152509050611af6565b600082905060005b60008214611a145780806119fd90612eb6565b915050600a82611a0d9190612f2d565b91506119ea565b60008167ffffffffffffffff811115611a3057611a2f611eea565b5b6040519080825280601f01601f191660200182016040528015611a625781602001600182028036833780820191505090505b5090505b60008514611aef57600182611a7b9190612819565b9150600a85611a8a9190612f5e565b6030611a96919061284d565b60f81b818381518110611aac57611aab612f8f565b5b60200101907effffffffffffffffffffffffffffffffffffffffffffffffffffffffffffff1916908160001a905350600a85611ae89190612f2d565b9450611a66565b8093505050505b919050565b6000808273ffffffffffffffffffffffffffffffffffffffff163b119050919050565b6000604051905090565b600080fd5b600080fd5b60007fffffffff0000000000000000000000000000000000000000000000000000000082169050919050565b611b6781611b32565b8114611b7257600080fd5b50565b600081359050611b8481611b5e565b92915050565b600060208284031215611ba057611b9f611b28565b5b6000611bae84828501611b75565b91505092915050565b60008115159050919050565b611bcc81611bb7565b82525050565b6000602082019050611be76000830184611bc3565b92915050565b600081519050919050565b600082825260208201905092915050565b60005b83811015611c27578082015181840152602081019050611c0c565b60008484015250505050565b6000601f19601f8301169050919050565b6000611c4f82611bed565b611c598185611bf8565b9350611c69818560208601611c09565b611c7281611c33565b840191505092915050565b60006020820190508181036000830152611c978184611c44565b905092915050565b6000819050919050565b611cb281611c9f565b8114611cbd57600080fd5b50565b600081359050611ccf81611ca9565b92915050565b600060208284031215611ceb57611cea611b28565b5b6000611cf984828501611cc0565b91505092915050565b600073ffffffffffffffffffffffffffffffffffffffff82169050919050565b6000611d2d82611d02565b9050919050565b611d3d81611d22565b82525050565b6000602082019050611d586000830184611d34565b92915050565b611d6781611d22565b8114611d7257600080fd5b50565b600081359050611d8481611d5e565b92915050565b60008060408385031215611da157611da0611b28565b5b6000611daf85828601611d75565b9250506020611dc085828601611cc0565b9150509250929050565b600080600060608486031215611de357611de2611b28565b5b6000611df186828701611d75565b9350506020611e0286828701611d75565b9250506040611e1386828701611cc0565b9150509250925092565b600060208284031215611e3357611e32611b28565b5b6000611e4184828501611d75565b91505092915050565b611e5381611c9f565b82525050565b6000602082019050611e6e6000830184611e4a565b92915050565b611e7d81611bb7565b8114611e8857600080fd5b50565b600081359050611e9a81611e74565b92915050565b60008060408385031215611eb757611eb6611b28565b5b6000611ec585828601611d75565b9250506020611ed685828601611e8b565b9150509250929050565b600080fd5b600080fd5b7f4e487b7100000000000000000000000000000000000000000000000000000000600052604160045260246000fd5b611f2282611c33565b810181811067ffffffffffffffff82111715611f4157611f40611eea565b5b80604052505050565b6000611f54611b1e565b9050611f608282611f19565b919050565b600067ffffffffffffffff821115611f8057611f7f611eea565b5b611f8982611c33565b9050602081019050919050565b82818337600083830152505050565b6000611fb8611fb384611f65565b611f4a565b905082815260208101848484011115611fd457611fd3611ee5565b5b611fdf848285611f96565b509392505050565b600082601f830112611ffc57611ffb611ee0565b5b813561200c848260208601611fa5565b91505092915050565b6000806000806080858703121561202f5761202e611b28565b5b600061203d87828801611d75565b945050602061204e87828801611d75565b935050604061205f87828801611cc0565b925050606085013567ffffffffffffffff8111156120805761207f611b2d565b5b61208c87828801611fe7565b91505092959194509250565b600067ffffffffffffffff8211156120b3576120b2611eea565b5b6120bc82611c33565b9050602081019050919050565b60006120dc6120d784612098565b611f4a565b9050828152602081018484840111156120f8576120f7611ee5565b5b612103848285611f96565b509392505050565b600082601f8301126121205761211f611ee0565b5b81356121308482602086016120c9565b91505092915050565b60008060006060848603121561215257612151611b28565b5b600061216086828701611d75565b935050602061217186828701611cc0565b925050604084013567ffffffffffffffff81111561219257612191611b2d565b5b61219e8682870161210b565b9150509250925092565b600080604083850312156121bf576121be611b28565b5b60006121cd85828601611d75565b92505060206121de85828601611d75565b9150509250929050565b7f4e487b7100000000000000000000000000000000000000000000000000000000600052602260045260246000fd5b6000600282049050600182168061222f57607f821691505b602082108103612242576122416121e8565b5b50919050565b7f4552433732313a20617070726f76616c20746f2063757272656e74206f776e6560008201527f7200000000000000000000000000000000000000000000000000000000000000602082015250565b60006122a4602183611bf8565b91506122af82612248565b604082019050919050565b600060208201905081810360008301526122d381612297565b9050919050565b7f4552433732313a20617070726f76652063616c6c6572206973206e6f7420746f60008201527f6b656e206f776e6572206e6f7220617070726f76656420666f7220616c6c0000602082015250565b6000612336603e83611bf8565b9150612341826122da565b604082019050919050565b6000602082019050818103600083015261236581612329565b9050919050565b7f4552433732313a2063616c6c6572206973206e6f7420746f6b656e206f776e6560008201527f72206e6f7220617070726f766564000000000000000000000000000000000000602082015250565b60006123c8602e83611bf8565b91506123d38261236c565b604082019050919050565b600060208201905081810360008301526123f7816123bb565b9050919050565b7f5265616c4573746174653a207a65726f206d696e746572000000000000000000600082015250565b6000612434601783611bf8565b915061243f826123fe565b602082019050919050565b6000602082019050818103600083015261246381612427565b9050919050565b7f4552433732313a20696e76616c696420746f6b656e2049440000000000000000600082015250565b60006124a0601883611bf8565b91506124ab8261246a565b602082019050919050565b600060208201905081810360008301526124cf81612493565b9050919050565b7f4552433732313a2061646472657373207a65726f206973206e6f74206120766160008201527f6c6964206f776e65720000000000000000000000000000000000000000000000602082015250565b6000612532602983611bf8565b915061253d826124d6565b604082019050919050565b6000602082019050818103600083015261256181612525565b9050919050565b600081905092915050565b600061257e82611bed565b6125888185612568565b9350612598818560208601611c09565b80840191505092915050565b60006125b08285612573565b91506125bc8284612573565b91508190509392505050565b7f4f6e6c7920657363726f77206d696e7465720000000000000000000000000000600082015250565b60006125fe601283611bf8565b9150612609826125c8565b602082019050919050565b6000602082019050818103600083015261262d816125f1565b9050919050565b7f4f776e61626c653a206e6577206f776e657220697320746865207a65726f206160008201527f6464726573730000000000000000000000000000000000000000000000000000602082015250565b6000612690602683611bf8565b915061269b82612634565b604082019050919050565b600060208201905081810360008301526126bf81612683565b9050919050565b7f4552433732313a207472616e736665722066726f6d20696e636f72726563742060008201527f6f776e6572000000000000000000000000000000000000000000000000000000602082015250565b6000612722602583611bf8565b915061272d826126c6565b604082019050919050565b6000602082019050818103600083015261275181612715565b9050919050565b7f4552433732313a207472616e7366657220746f20746865207a65726f2061646460008201527f7265737300000000000000000000000000000000000000000000000000000000602082015250565b60006127b4602483611bf8565b91506127bf82612758565b604082019050919050565b600060208201905081810360008301526127e3816127a7565b9050919050565b7f4e487b7100000000000000000000000000000000000000000000000000000000600052601160045260246000fd5b600061282482611c9f565b915061282f83611c9f565b9250828203905081811115612847576128466127ea565b5b92915050565b600061285882611c9f565b915061286383611c9f565b925082820190508082111561287b5761287a6127ea565b5b92915050565b7f4f776e61626c653a2063616c6c6572206973206e6f7420746865206f776e6572600082015250565b60006128b7602083611bf8565b91506128c282612881565b602082019050919050565b600060208201905081810360008301526128e6816128aa565b9050919050565b7f4552433732313a20617070726f766520746f2063616c6c657200000000000000600082015250565b6000612923601983611bf8565b915061292e826128ed565b602082019050919050565b6000602082019050818103600083015261295281612916565b9050919050565b7f4552433732313a207472616e7366657220746f206e6f6e20455243373231526560008201527f63656976657220696d706c656d656e7465720000000000000000000000000000602082015250565b60006129b5603283611bf8565b91506129c082612959565b604082019050919050565b600060208201905081810360008301526129e4816129a8565b9050919050565b7f4552433732313a206d696e7420746f20746865207a65726f2061646472657373600082015250565b6000612a21602083611bf8565b9150612a2c826129eb565b602082019050919050565b60006020820190508181036000830152612a5081612a14565b9050919050565b7f4552433732313a20746f6b656e20616c7265616479206d696e74656400000000600082015250565b6000612a8d601c83611bf8565b9150612a9882612a57565b602082019050919050565b60006020820190508181036000830152612abc81612a80565b9050919050565b7f45524337323155524953746f726167653a2055524920736574206f66206e6f6e60008201527f6578697374656e7420746f6b656e000000000000000000000000000000000000602082015250565b6000612b1f602e83611bf8565b9150612b2a82612ac3565b604082019050919050565b60006020820190508181036000830152612b4e81612b12565b9050919050565b60008190508160005260206000209050919050565b60006020601f8301049050919050565b600082821b905092915050565b600060088302612bb77fffffffffffffffffffffffffffffffffffffffffffffffffffffffffffffffff82612b7a565b612bc18683612b7a565b95508019841693508086168417925050509392505050565b6000819050919050565b6000612bfe612bf9612bf484611c9f565b612bd9565b611c9f565b9050919050565b6000819050919050565b612c1883612be3565b612c2c612c2482612c05565b848454612b87565b825550505050565b600090565b612c41612c34565b612c4c818484612c0f565b505050565b5b81811015612c7057612c65600082612c39565b600181019050612c52565b5050565b601f821115612cb557612c8681612b55565b612c8f84612b6a565b81016020851015612c9e578190505b612cb2612caa85612b6a565b830182612c51565b50505b505050565b600082821c905092915050565b6000612cd860001984600802612cba565b1980831691505092915050565b6000612cf18383612cc7565b9150826002028217905092915050565b612d0a82611bed565b67ffffffffffffffff811115612d2357612d22611eea565b5b612d2d8254612217565b612d38828285612c74565b600060209050601f831160018114612d6b5760008415612d59578287015190505b612d638582612ce5565b865550612dcb565b601f198416612d7986612b55565b60005b82811015612da157848901518255600182019150602085019450602081019050612d7c565b86831015612dbe5784890151612dba601f891682612cc7565b8355505b6001600288020188555050505b505050505050565b600081519050919050565b600082825260208201905092915050565b6000612dfa82612dd3565b612e048185612dde565b9350612e14818560208601611c09565b612e1d81611c33565b840191505092915050565b6000608082019050612e3d6000830187611d34565b612e4a6020830186611d34565b612e576040830185611e4a565b8181036060830152612e698184612def565b905095945050505050565b600081519050612e8381611b5e565b92915050565b600060208284031215612e9f57612e9e611b28565b5b6000612ead84828501612e74565b91505092915050565b6000612ec182611c9f565b91507fffffffffffffffffffffffffffffffffffffffffffffffffffffffffffffffff8203612ef357612ef26127ea565b5b600182019050919050565b7f4e487b7100000000000000000000000000000000000000000000000000000000600052601260045260246000fd5b6000612f3882611c9f565b9150612f4383611c9f565b925082612f5357612f52612efe565b5b828204905092915050565b6000612f6982611c9f565b9150612f7483611c9f565b925082612f8457612f83612efe565b5b828206905092915050565b7f4e487b7100000000000000000000000000000000000000000000000000000000600052603260045260246000fdfea2646970667358221220b075069fdd8b73e0026c481d8cb782fec0ef3214e4bade3d2c7b15331935664264736f6c63430008120033",
  "linkReferences": {},
  "deployedLinkReferences": {}
}