{
  "_format": "hh-sol-artifact-1",
  "contractName": "PatientRegistry",
  "sourceName": "contracts/Registration/PatientRegistry.sol",
  "abi": [
    {
      "inputs": [],
      "stateMutability": "nonpayable",
      "type": "constructor"
    },
    {
      "inputs": [
        {
          "internalType": "address",
          "name": "sender",
          "type": "address"
        },
        {
          "internalType": "uint256",
          "name": "tokenId",
          "type": "uint256"
        },
        {
          "internalType": "address",
          "name": "owner",
          "type": "address"
        }
      ],
      "name": "ERC721IncorrectOwner",
      "type": "error"
    },
    {
      "inputs": [
        {
          "internalType": "address",
          "name": "operator",
          "type": "address"
        },
        {
          "internalType": "uint256",
          "name": "tokenId",
          "type": "uint256"
        }
      ],
      "name": "ERC721InsufficientApproval",
      "type": "error"
    },
    {
      "inputs": [
        {
          "internalType": "address",
          "name": "approver",
          "type": "address"
        }
      ],
      "name": "ERC721InvalidApprover",
      "type": "error"
    },
    {
      "inputs": [
        {
          "internalType": "address",
          "name": "operator",
          "type": "address"
        }
      ],
      "name": "ERC721InvalidOperator",
      "type": "error"
    },
    {
      "inputs": [
        {
          "internalType": "address",
          "name": "owner",
          "type": "address"
        }
      ],
      "name": "ERC721InvalidOwner",
      "type": "error"
    },
    {
      "inputs": [
        {
          "internalType": "address",
          "name": "receiver",
          "type": "address"
        }
      ],
      "name": "ERC721InvalidReceiver",
      "type": "error"
    },
    {
      "inputs": [
        {
          "internalType": "address",
          "name": "sender",
          "type": "address"
        }
      ],
      "name": "ERC721InvalidSender",
      "type": "error"
    },
    {
      "inputs": [
        {
          "internalType": "uint256",
          "name": "tokenId",
          "type": "uint256"
        }
      ],
      "name": "ERC721NonexistentToken",
      "type": "error"
    },
    {
      "inputs": [
        {
          "internalType": "address",
          "name": "owner",
          "type": "address"
        }
      ],
      "name": "OwnableInvalidOwner",
      "type": "error"
    },
    {
      "inputs": [
        {
          "internalType": "address",
          "name": "account",
          "type": "address"
        }
      ],
      "name": "OwnableUnauthorizedAccount",
      "type": "error"
    },
    {
      "anonymous": false,
      "inputs": [
        {
          "indexed": true,
          "internalType": "address",
          "name": "owner",
          "type": "address"
        },
        {
          "indexed": true,
          "internalType": "address",
          "name": "approved",
          "type": "address"
        },
        {
          "indexed": true,
          "internalType": "uint256",
          "name": "tokenId",
          "type": "uint256"
        }
      ],
      "name": "Approval",
      "type": "event"
    },
    {
      "anonymous": false,
      "inputs": [
        {
          "indexed": true,
          "internalType": "address",
          "name": "owner",
          "type": "address"
        },
        {
          "indexed": true,
          "internalType": "address",
          "name": "operator",
          "type": "address"
        },
        {
          "indexed": false,
          "internalType": "bool",
          "name": "approved",
          "type": "bool"
        }
      ],
      "name": "ApprovalForAll",
      "type": "event"
    },
    {
      "anonymous": false,
      "inputs": [
        {
          "indexed": true,
          "internalType": "address",
          "name": "previousOwner",
          "type": "address"
        },
        {
          "indexed": true,
          "internalType": "address",
          "name": "newOwner",
          "type": "address"
        }
      ],
      "name": "OwnershipTransferred",
      "type": "event"
    },
    {
      "anonymous": false,
      "inputs": [
        {
          "indexed": true,
          "internalType": "address",
          "name": "patient",
          "type": "address"
        },
        {
          "indexed": false,
          "internalType": "string",
          "name": "name",
          "type": "string"
        },
        {
          "indexed": false,
          "internalType": "uint256",
          "name": "tokenId",
          "type": "uint256"
        }
      ],
      "name": "PatientAdded",
      "type": "event"
    },
    {
      "anonymous": false,
      "inputs": [
        {
          "indexed": true,
          "internalType": "address",
          "name": "patient",
          "type": "address"
        }
      ],
      "name": "PatientRemoved",
      "type": "event"
    },
    {
      "anonymous": false,
      "inputs": [
        {
          "indexed": true,
          "internalType": "address",
          "name": "from",
          "type": "address"
        },
        {
          "indexed": true,
          "internalType": "address",
          "name": "to",
          "type": "address"
        },
        {
          "indexed": true,
          "internalType": "uint256",
          "name": "tokenId",
          "type": "uint256"
        }
      ],
      "name": "Transfer",
      "type": "event"
    },
    {
      "inputs": [
        {
          "internalType": "address",
          "name": "patient",
          "type": "address"
        },
        {
          "internalType": "string",
          "name": "name",
          "type": "string"
        },
        {
          "internalType": "string",
          "name": "ipfsProfile",
          "type": "string"
        }
      ],
      "name": "addPatient",
      "outputs": [],
      "stateMutability": "nonpayable",
      "type": "function"
    },
    {
      "inputs": [
        {
          "internalType": "address",
          "name": "to",
          "type": "address"
        },
        {
          "internalType": "uint256",
          "name": "tokenId",
          "type": "uint256"
        }
      ],
      "name": "approve",
      "outputs": [],
      "stateMutability": "nonpayable",
      "type": "function"
    },
    {
      "inputs": [
        {
          "internalType": "address",
          "name": "owner",
          "type": "address"
        }
      ],
      "name": "balanceOf",
      "outputs": [
        {
          "internalType": "uint256",
          "name": "",
          "type": "uint256"
        }
      ],
      "stateMutability": "view",
      "type": "function"
    },
    {
      "inputs": [
        {
          "internalType": "uint256",
          "name": "tokenId",
          "type": "uint256"
        }
      ],
      "name": "getApproved",
      "outputs": [
        {
          "internalType": "address",
          "name": "",
          "type": "address"
        }
      ],
      "stateMutability": "view",
      "type": "function"
    },
    {
      "inputs": [],
      "name": "getPatientList",
      "outputs": [
        {
          "internalType": "address[]",
          "name": "",
          "type": "address[]"
        }
      ],
      "stateMutability": "view",
      "type": "function"
    },
    {
      "inputs": [
        {
          "internalType": "address",
          "name": "owner",
          "type": "address"
        },
        {
          "internalType": "address",
          "name": "operator",
          "type": "address"
        }
      ],
      "name": "isApprovedForAll",
      "outputs": [
        {
          "internalType": "bool",
          "name": "",
          "type": "bool"
        }
      ],
      "stateMutability": "view",
      "type": "function"
    },
    {
      "inputs": [
        {
          "internalType": "address",
          "name": "addr",
          "type": "address"
        }
      ],
      "name": "isPatient",
      "outputs": [
        {
          "internalType": "bool",
          "name": "",
          "type": "bool"
        }
      ],
      "stateMutability": "view",
      "type": "function"
    },
    {
      "inputs": [],
      "name": "name",
      "outputs": [
        {
          "internalType": "string",
          "name": "",
          "type": "string"
        }
      ],
      "stateMutability": "view",
      "type": "function"
    },
    {
      "inputs": [],
      "name": "owner",
      "outputs": [
        {
          "internalType": "address",
          "name": "",
          "type": "address"
        }
      ],
      "stateMutability": "view",
      "type": "function"
    },
    {
      "inputs": [
        {
          "internalType": "uint256",
          "name": "tokenId",
          "type": "uint256"
        }
      ],
      "name": "ownerOf",
      "outputs": [
        {
          "internalType": "address",
          "name": "",
          "type": "address"
        }
      ],
      "stateMutability": "view",
      "type": "function"
    },
    {
      "inputs": [
        {
          "internalType": "address",
          "name": "",
          "type": "address"
        }
      ],
      "name": "patients",
      "outputs": [
        {
          "internalType": "bool",
          "name": "exists",
          "type": "bool"
        },
        {
          "internalType": "string",
          "name": "name",
          "type": "string"
        },
        {
          "internalType": "string",
          "name": "ipfsProfile",
          "type": "string"
        },
        {
          "internalType": "uint256",
          "name": "tokenId",
          "type": "uint256"
        }
      ],
      "stateMutability": "view",
      "type": "function"
    },
    {
      "inputs": [
        {
          "internalType": "address",
          "name": "patient",
          "type": "address"
        }
      ],
      "name": "removePatient",
      "outputs": [],
      "stateMutability": "nonpayable",
      "type": "function"
    },
    {
      "inputs": [],
      "name": "renounceOwnership",
      "outputs": [],
      "stateMutability": "nonpayable",
      "type": "function"
    },
    {
      "inputs": [
        {
          "internalType": "address",
          "name": "from",
          "type": "address"
        },
        {
          "internalType": "address",
          "name": "to",
          "type": "address"
        },
        {
          "internalType": "uint256",
          "name": "tokenId",
          "type": "uint256"
        }
      ],
      "name": "safeTransferFrom",
      "outputs": [],
      "stateMutability": "nonpayable",
      "type": "function"
    },
    {
      "inputs": [
        {
          "internalType": "address",
          "name": "from",
          "type": "address"
        },
        {
          "internalType": "address",
          "name": "to",
          "type": "address"
        },
        {
          "internalType": "uint256",
          "name": "tokenId",
          "type": "uint256"
        },
        {
          "internalType": "bytes",
          "name": "data",
          "type": "bytes"
        }
      ],
      "name": "safeTransferFrom",
      "outputs": [],
      "stateMutability": "nonpayable",
      "type": "function"
    },
    {
      "inputs": [
        {
          "internalType": "address",
          "name": "operator",
          "type": "address"
        },
        {
          "internalType": "bool",
          "name": "approved",
          "type": "bool"
        }
      ],
      "name": "setApprovalForAll",
      "outputs": [],
      "stateMutability": "nonpayable",
      "type": "function"
    },
    {
      "inputs": [
        {
          "internalType": "bytes4",
          "name": "interfaceId",
          "type": "bytes4"
        }
      ],
      "name": "supportsInterface",
      "outputs": [
        {
          "internalType": "bool",
          "name": "",
          "type": "bool"
        }
      ],
      "stateMutability": "view",
      "type": "function"
    },
    {
      "inputs": [],
      "name": "symbol",
      "outputs": [
        {
          "internalType": "string",
          "name": "",
          "type": "string"
        }
      ],
      "stateMutability": "view",
      "type": "function"
    },
    {
      "inputs": [
        {
          "internalType": "uint256",
          "name": "tokenId",
          "type": "uint256"
        }
      ],
      "name": "tokenURI",
      "outputs": [
        {
          "internalType": "string",
          "name": "",
          "type": "string"
        }
      ],
      "stateMutability": "view",
      "type": "function"
    },
    {
      "inputs": [
        {
          "internalType": "address",
          "name": "from",
          "type": "address"
        },
        {
          "internalType": "address",
          "name": "to",
          "type": "address"
        },
        {
          "internalType": "uint256",
          "name": "tokenId",
          "type": "uint256"
        }
      ],
      "name": "transferFrom",
      "outputs": [],
      "stateMutability": "nonpayable",
      "type": "function"
    },
    {
      "inputs": [
        {
          "internalType": "address",
          "name": "newOwner",
          "type": "address"
        }
      ],
      "name": "transferOwnership",
      "outputs": [],
      "stateMutability": "nonpayable",
      "type": "function"
    }
  ],
  "bytecode": "0x608060405234801561001057600080fd5b506040518060400160405280601281526020017f50617469656e744964656e7469747953425400000000000000000000000000008152506040518060400160405280600381526020017f504944000000000000000000000000000000000000000000000000000000000081525033600073ffffffffffffffffffffffffffffffffffffffff168173ffffffffffffffffffffffffffffffffffffffff16036100f05760006040517f1e4fbdf70000000000000000000000000000000000000000000000000000000081526004016100e7919061022c565b60405180910390fd5b6100ff8161012760201b60201c565b50816001908161010f9190610497565b50806002908161011f9190610497565b505050610569565b60008060009054906101000a900473ffffffffffffffffffffffffffffffffffffffff169050816000806101000a81548173ffffffffffffffffffffffffffffffffffffffff021916908373ffffffffffffffffffffffffffffffffffffffff1602179055508173ffffffffffffffffffffffffffffffffffffffff168173ffffffffffffffffffffffffffffffffffffffff167f8be0079c531659141344cd1fd0a4f28419497f9722a3daafe3b4186f6b6457e060405160405180910390a35050565b600073ffffffffffffffffffffffffffffffffffffffff82169050919050565b6000610216826101eb565b9050919050565b6102268161020b565b82525050565b6000602082019050610241600083018461021d565b92915050565b600081519050919050565b7f4e487b7100000000000000000000000000000000000000000000000000000000600052604160045260246000fd5b7f4e487b7100000000000000000000000000000000000000000000000000000000600052602260045260246000fd5b600060028204905060018216806102c857607f821691505b6020821081036102db576102da610281565b5b50919050565b60008190508160005260206000209050919050565b60006020601f8301049050919050565b600082821b905092915050565b6000600883026103437fffffffffffffffffffffffffffffffffffffffffffffffffffffffffffffffff82610306565b61034d8683610306565b95508019841693508086168417925050509392505050565b6000819050919050565b6000819050919050565b600061039461038f61038a84610365565b61036f565b610365565b9050919050565b6000819050919050565b6103ae83610379565b6103c26103ba8261039b565b848454610313565b825550505050565b600090565b6103d76103ca565b6103e28184846103a5565b505050565b5b81811015610406576103fb6000826103cf565b6001810190506103e8565b5050565b601f82111561044b5761041c816102e1565b610425846102f6565b81016020851015610434578190505b610448610440856102f6565b8301826103e7565b50505b505050565b600082821c905092915050565b600061046e60001984600802610450565b1980831691505092915050565b6000610487838361045d565b9150826002028217905092915050565b6104a082610247565b67ffffffffffffffff8111156104b9576104b8610252565b5b6104c382546102b0565b6104ce82828561040a565b600060209050601f83116001811461050157600084156104ef578287015190505b6104f9858261047b565b865550610561565b601f19841661050f866102e1565b60005b8281101561053757848901518255600182019150602085019450602081019050610512565b868310156105545784890151610550601f89168261045d565b8355505b6001600288020188555050505b505050505050565b6131ca806105786000396000f3fe608060405234801561001057600080fd5b50600436106101375760003560e01c806370a08231116100b857806395d89b411161007c57806395d89b411461034f578063a22cb4651461036d578063b88d4fde14610389578063c87b56dd146103a5578063e985e9c5146103d5578063f2fde38b1461040557610137565b806370a08231146102ab578063715018a6146102db5780637d0d6257146102e55780638da5cb5b146103015780638f9c79ed1461031f57610137565b806323b872dd116100ff57806323b872dd1461020957806337b16b501461022557806342842e0e14610241578063503b13541461025d5780636352211e1461027b57610137565b806301ffc9a71461013c57806306fdde031461016c578063081812fc1461018a5780630869cfbc146101ba578063095ea7b3146101ed575b600080fd5b61015660048036038101906101519190612278565b610421565b60405161016391906122c0565b60405180910390f35b610174610503565b604051610181919061236b565b60405180910390f35b6101a4600480360381019061019f91906123c3565b610595565b6040516101b19190612431565b60405180910390f35b6101d460048036038101906101cf9190612478565b6105b1565b6040516101e494939291906124b4565b60405180910390f35b61020760048036038101906102029190612507565b6106fe565b005b610223600480360381019061021e9190612547565b6107b4565b005b61023f600480360381019061023a91906125ff565b6108b6565b005b61025b60048036038101906102569190612547565b610bba565b005b610265610bda565b6040516102729190612752565b60405180910390f35b610295600480360381019061029091906123c3565b610c68565b6040516102a29190612431565b60405180910390f35b6102c560048036038101906102c09190612478565b610c7a565b6040516102d29190612774565b60405180910390f35b6102e3610d34565b005b6102ff60048036038101906102fa9190612478565b610d48565b005b6103096110c7565b6040516103169190612431565b60405180910390f35b61033960048036038101906103349190612478565b6110f0565b60405161034691906122c0565b60405180910390f35b610357611149565b604051610364919061236b565b60405180910390f35b610387600480360381019061038291906127bb565b6111db565b005b6103a3600480360381019061039e919061292b565b611216565b005b6103bf60048036038101906103ba91906123c3565b61123b565b6040516103cc919061236b565b60405180910390f35b6103ef60048036038101906103ea91906129ae565b6112a4565b6040516103fc91906122c0565b60405180910390f35b61041f600480360381019061041a9190612478565b611338565b005b60007f80ac58cd000000000000000000000000000000000000000000000000000000007bffffffffffffffffffffffffffffffffffffffffffffffffffffffff1916827bffffffffffffffffffffffffffffffffffffffffffffffffffffffff191614806104ec57507f5b5e139f000000000000000000000000000000000000000000000000000000007bffffffffffffffffffffffffffffffffffffffffffffffffffffffff1916827bffffffffffffffffffffffffffffffffffffffffffffffffffffffff1916145b806104fc57506104fb826113be565b5b9050919050565b60606001805461051290612a1d565b80601f016020809104026020016040519081016040528092919081815260200182805461053e90612a1d565b801561058b5780601f106105605761010080835404028352916020019161058b565b820191906000526020600020905b81548152906001019060200180831161056e57829003601f168201915b5050505050905090565b60006105a082611428565b506105aa826114b0565b9050919050565b60086020528060005260406000206000915090508060000160009054906101000a900460ff16908060010180546105e790612a1d565b80601f016020809104026020016040519081016040528092919081815260200182805461061390612a1d565b80156106605780601f1061063557610100808354040283529160200191610660565b820191906000526020600020905b81548152906001019060200180831161064357829003601f168201915b50505050509080600201805461067590612a1d565b80601f01602080910402602001604051908101604052809291908181526020018280546106a190612a1d565b80156106ee5780601f106106c3576101008083540402835291602001916106ee565b820191906000526020600020905b8154815290600101906020018083116106d157829003601f168201915b5050505050908060030154905084565b600061070982610c68565b90508073ffffffffffffffffffffffffffffffffffffffff163373ffffffffffffffffffffffffffffffffffffffff1614610779576040517f08c379a000000000000000000000000000000000000000000000000000000000815260040161077090612a9a565b60405180910390fd5b6040517f08c379a00000000000000000000000000000000000000000000000000000000081526004016107ab90612b2c565b60405180910390fd5b600073ffffffffffffffffffffffffffffffffffffffff168273ffffffffffffffffffffffffffffffffffffffff16036108265760006040517f64a0ae9200000000000000000000000000000000000000000000000000000000815260040161081d9190612431565b60405180910390fd5b600061083a83836108356114ed565b6114f5565b90508373ffffffffffffffffffffffffffffffffffffffff168173ffffffffffffffffffffffffffffffffffffffff16146108b0578382826040517f64283d7b0000000000000000000000000000000000000000000000000000000081526004016108a793929190612b4c565b60405180910390fd5b50505050565b6108be61170f565b600860008673ffffffffffffffffffffffffffffffffffffffff1673ffffffffffffffffffffffffffffffffffffffff16815260200190815260200160002060000160009054906101000a900460ff161561094e576040517f08c379a000000000000000000000000000000000000000000000000000000000815260040161094590612bcf565b60405180910390fd5b6109586007611796565b600061096460076117ac565b905061097086826117ba565b604051806080016040528060011515815260200186868080601f016020809104026020016040519081016040528093929190818152602001838380828437600081840152601f19601f82011690508083019250505050505050815260200184848080601f016020809104026020016040519081016040528093929190818152602001838380828437600081840152601f19601f82011690508083019250505050505050815260200182815250600860008873ffffffffffffffffffffffffffffffffffffffff1673ffffffffffffffffffffffffffffffffffffffff16815260200190815260200160002060008201518160000160006101000a81548160ff0219169083151502179055506020820151816001019081610a909190612d9b565b506040820151816002019081610aa69190612d9b565b5060608201518160030155905050600980549050600a60008873ffffffffffffffffffffffffffffffffffffffff1673ffffffffffffffffffffffffffffffffffffffff168152602001908152602001600020819055506009869080600181540180825580915050600190039060005260206000200160009091909190916101000a81548173ffffffffffffffffffffffffffffffffffffffff021916908373ffffffffffffffffffffffffffffffffffffffff1602179055508573ffffffffffffffffffffffffffffffffffffffff167f27f45a593be448e62c97ef0c4b096f90876bf2c134cf3ac1d52d2ae4b017eda3868684604051610baa93929190612e9a565b60405180910390a2505050505050565b610bd583838360405180602001604052806000815250611216565b505050565b60606009805480602002602001604051908101604052809291908181526020018280548015610c5e57602002820191906000526020600020905b8160009054906101000a900473ffffffffffffffffffffffffffffffffffffffff1673ffffffffffffffffffffffffffffffffffffffff1681526020019060010190808311610c14575b5050505050905090565b6000610c7382611428565b9050919050565b60008073ffffffffffffffffffffffffffffffffffffffff168273ffffffffffffffffffffffffffffffffffffffff1603610ced5760006040517f89c62b64000000000000000000000000000000000000000000000000000000008152600401610ce49190612431565b60405180910390fd5b600460008373ffffffffffffffffffffffffffffffffffffffff1673ffffffffffffffffffffffffffffffffffffffff168152602001908152602001600020549050919050565b610d3c61170f565b610d4660006117d8565b565b610d5061170f565b600860008273ffffffffffffffffffffffffffffffffffffffff1673ffffffffffffffffffffffffffffffffffffffff16815260200190815260200160002060000160009054906101000a900460ff16610ddf576040517f08c379a0000000000000000000000000000000000000000000000000000000008152600401610dd690612f18565b60405180910390fd5b6000600860008373ffffffffffffffffffffffffffffffffffffffff1673ffffffffffffffffffffffffffffffffffffffff168152602001908152602001600020600301549050610e2f8161189c565b6000600a60008473ffffffffffffffffffffffffffffffffffffffff1673ffffffffffffffffffffffffffffffffffffffff16815260200190815260200160002054905060006001600980549050610e879190612f67565b9050808214610f7657600060098281548110610ea657610ea5612f9b565b5b9060005260206000200160009054906101000a900473ffffffffffffffffffffffffffffffffffffffff1690508060098481548110610ee857610ee7612f9b565b5b9060005260206000200160006101000a81548173ffffffffffffffffffffffffffffffffffffffff021916908373ffffffffffffffffffffffffffffffffffffffff16021790555082600a60008373ffffffffffffffffffffffffffffffffffffffff1673ffffffffffffffffffffffffffffffffffffffff16815260200190815260200160002081905550505b6009805480610f8857610f87612fca565b5b6001900381819060005260206000200160006101000a81549073ffffffffffffffffffffffffffffffffffffffff02191690559055600a60008573ffffffffffffffffffffffffffffffffffffffff1673ffffffffffffffffffffffffffffffffffffffff16815260200190815260200160002060009055600860008573ffffffffffffffffffffffffffffffffffffffff1673ffffffffffffffffffffffffffffffffffffffff168152602001908152602001600020600080820160006101000a81549060ff021916905560018201600061106491906121af565b60028201600061107491906121af565b600382016000905550508373ffffffffffffffffffffffffffffffffffffffff167f053a4badf166f01c4b02f6bcb71d2d67734470d0866282e291e73001aa25c76960405160405180910390a250505050565b60008060009054906101000a900473ffffffffffffffffffffffffffffffffffffffff16905090565b6000600860008373ffffffffffffffffffffffffffffffffffffffff1673ffffffffffffffffffffffffffffffffffffffff16815260200190815260200160002060000160009054906101000a900460ff169050919050565b60606002805461115890612a1d565b80601f016020809104026020016040519081016040528092919081815260200182805461118490612a1d565b80156111d15780601f106111a6576101008083540402835291602001916111d1565b820191906000526020600020905b8154815290600101906020018083116111b457829003601f168201915b5050505050905090565b6040517f08c379a000000000000000000000000000000000000000000000000000000000815260040161120d90612b2c565b60405180910390fd5b6112218484846107b4565b61123561122c6114ed565b85858585611922565b50505050565b606061124682611428565b506000611251611ad3565b90506000815111611271576040518060200160405280600081525061129c565b8061127b84611aea565b60405160200161128c929190613035565b6040516020818303038152906040525b915050919050565b6000600660008473ffffffffffffffffffffffffffffffffffffffff1673ffffffffffffffffffffffffffffffffffffffff16815260200190815260200160002060008373ffffffffffffffffffffffffffffffffffffffff1673ffffffffffffffffffffffffffffffffffffffff16815260200190815260200160002060009054906101000a900460ff16905092915050565b61134061170f565b600073ffffffffffffffffffffffffffffffffffffffff168173ffffffffffffffffffffffffffffffffffffffff16036113b25760006040517f1e4fbdf70000000000000000000000000000000000000000000000000000000081526004016113a99190612431565b60405180910390fd5b6113bb816117d8565b50565b60007f01ffc9a7000000000000000000000000000000000000000000000000000000007bffffffffffffffffffffffffffffffffffffffffffffffffffffffff1916827bffffffffffffffffffffffffffffffffffffffffffffffffffffffff1916149050919050565b60008061143483611bb8565b9050600073ffffffffffffffffffffffffffffffffffffffff168173ffffffffffffffffffffffffffffffffffffffff16036114a757826040517f7e27328900000000000000000000000000000000000000000000000000000000815260040161149e9190612774565b60405180910390fd5b80915050919050565b60006005600083815260200190815260200160002060009054906101000a900473ffffffffffffffffffffffffffffffffffffffff169050919050565b600033905090565b60008061150184611bb8565b9050600073ffffffffffffffffffffffffffffffffffffffff168373ffffffffffffffffffffffffffffffffffffffff161461154357611542818486611bf5565b5b600073ffffffffffffffffffffffffffffffffffffffff168173ffffffffffffffffffffffffffffffffffffffff16146115d457611585600085600080611cb9565b6001600460008373ffffffffffffffffffffffffffffffffffffffff1673ffffffffffffffffffffffffffffffffffffffff168152602001908152602001600020600082825403925050819055505b600073ffffffffffffffffffffffffffffffffffffffff168573ffffffffffffffffffffffffffffffffffffffff1614611657576001600460008773ffffffffffffffffffffffffffffffffffffffff1673ffffffffffffffffffffffffffffffffffffffff168152602001908152602001600020600082825401925050819055505b846003600086815260200190815260200160002060006101000a81548173ffffffffffffffffffffffffffffffffffffffff021916908373ffffffffffffffffffffffffffffffffffffffff160217905550838573ffffffffffffffffffffffffffffffffffffffff168273ffffffffffffffffffffffffffffffffffffffff167fddf252ad1be2c89b69c2b068fc378daa952ba7f163c4a11628f55a4df523b3ef60405160405180910390a4809150509392505050565b6117176114ed565b73ffffffffffffffffffffffffffffffffffffffff166117356110c7565b73ffffffffffffffffffffffffffffffffffffffff1614611794576117586114ed565b6040517f118cdaa700000000000000000000000000000000000000000000000000000000815260040161178b9190612431565b60405180910390fd5b565b6001816000016000828254019250508190555050565b600081600001549050919050565b6117d4828260405180602001604052806000815250611e7e565b5050565b60008060009054906101000a900473ffffffffffffffffffffffffffffffffffffffff169050816000806101000a81548173ffffffffffffffffffffffffffffffffffffffff021916908373ffffffffffffffffffffffffffffffffffffffff1602179055508173ffffffffffffffffffffffffffffffffffffffff168173ffffffffffffffffffffffffffffffffffffffff167f8be0079c531659141344cd1fd0a4f28419497f9722a3daafe3b4186f6b6457e060405160405180910390a35050565b60006118ab60008360006114f5565b9050600073ffffffffffffffffffffffffffffffffffffffff168173ffffffffffffffffffffffffffffffffffffffff160361191e57816040517f7e2732890000000000000000000000000000000000000000000000000000000081526004016119159190612774565b60405180910390fd5b5050565b60008373ffffffffffffffffffffffffffffffffffffffff163b1115611acc578273ffffffffffffffffffffffffffffffffffffffff1663150b7a02868685856040518563ffffffff1660e01b815260040161198194939291906130ae565b6020604051808303816000875af19250505080156119bd57506040513d601f19601f820116820180604052508101906119ba919061310f565b60015b611a41573d80600081146119ed576040519150601f19603f3d011682016040523d82523d6000602084013e6119f2565b606091505b506000815103611a3957836040517f64a0ae92000000000000000000000000000000000000000000000000000000008152600401611a309190612431565b60405180910390fd5b805160208201fd5b63150b7a0260e01b7bffffffffffffffffffffffffffffffffffffffffffffffffffffffff1916817bffffffffffffffffffffffffffffffffffffffffffffffffffffffff191614611aca57836040517f64a0ae92000000000000000000000000000000000000000000000000000000008152600401611ac19190612431565b60405180910390fd5b505b5050505050565b606060405180602001604052806000815250905090565b606060006001611af984611ea2565b01905060008167ffffffffffffffff811115611b1857611b17612800565b5b6040519080825280601f01601f191660200182016040528015611b4a5781602001600182028036833780820191505090505b509050600082602083010190505b600115611bad578080600190039150507f3031323334353637383961626364656600000000000000000000000000000000600a86061a8153600a8581611ba157611ba061313c565b5b04945060008503611b58575b819350505050919050565b60006003600083815260200190815260200160002060009054906101000a900473ffffffffffffffffffffffffffffffffffffffff169050919050565b611c00838383611ff5565b611cb457600073ffffffffffffffffffffffffffffffffffffffff168373ffffffffffffffffffffffffffffffffffffffff1603611c7557806040517f7e273289000000000000000000000000000000000000000000000000000000008152600401611c6c9190612774565b60405180910390fd5b81816040517f177e802f000000000000000000000000000000000000000000000000000000008152600401611cab92919061316b565b60405180910390fd5b505050565b8080611cf25750600073ffffffffffffffffffffffffffffffffffffffff168273ffffffffffffffffffffffffffffffffffffffff1614155b15611e26576000611d0284611428565b9050600073ffffffffffffffffffffffffffffffffffffffff168373ffffffffffffffffffffffffffffffffffffffff1614158015611d6d57508273ffffffffffffffffffffffffffffffffffffffff168173ffffffffffffffffffffffffffffffffffffffff1614155b8015611d805750611d7e81846112a4565b155b15611dc257826040517fa9fbf51f000000000000000000000000000000000000000000000000000000008152600401611db99190612431565b60405180910390fd5b8115611e2457838573ffffffffffffffffffffffffffffffffffffffff168273ffffffffffffffffffffffffffffffffffffffff167f8c5be1e5ebec7d5bd14f71427d1e84f3dd0314c0f7b2291e5b200ac8c7c3b92560405160405180910390a45b505b836005600085815260200190815260200160002060006101000a81548173ffffffffffffffffffffffffffffffffffffffff021916908373ffffffffffffffffffffffffffffffffffffffff16021790555050505050565b611e8883836120b6565b611e9d611e936114ed565b6000858585611922565b505050565b600080600090507a184f03e93ff9f4daa797ed6e38ed64bf6a1f0100000000000000008310611f00577a184f03e93ff9f4daa797ed6e38ed64bf6a1f0100000000000000008381611ef657611ef561313c565b5b0492506040810190505b6d04ee2d6d415b85acef81000000008310611f3d576d04ee2d6d415b85acef81000000008381611f3357611f3261313c565b5b0492506020810190505b662386f26fc100008310611f6c57662386f26fc100008381611f6257611f6161313c565b5b0492506010810190505b6305f5e1008310611f95576305f5e1008381611f8b57611f8a61313c565b5b0492506008810190505b6127108310611fba576127108381611fb057611faf61313c565b5b0492506004810190505b60648310611fdd5760648381611fd357611fd261313c565b5b0492506002810190505b600a8310611fec576001810190505b80915050919050565b60008073ffffffffffffffffffffffffffffffffffffffff168373ffffffffffffffffffffffffffffffffffffffff16141580156120ad57508273ffffffffffffffffffffffffffffffffffffffff168473ffffffffffffffffffffffffffffffffffffffff16148061206e575061206d84846112a4565b5b806120ac57508273ffffffffffffffffffffffffffffffffffffffff16612094836114b0565b73ffffffffffffffffffffffffffffffffffffffff16145b5b90509392505050565b600073ffffffffffffffffffffffffffffffffffffffff168273ffffffffffffffffffffffffffffffffffffffff16036121285760006040517f64a0ae9200000000000000000000000000000000000000000000000000000000815260040161211f9190612431565b60405180910390fd5b6000612136838360006114f5565b9050600073ffffffffffffffffffffffffffffffffffffffff168173ffffffffffffffffffffffffffffffffffffffff16146121aa5760006040517f73c6ac6e0000000000000000000000000000000000000000000000000000000081526004016121a19190612431565b60405180910390fd5b505050565b5080546121bb90612a1d565b6000825580601f106121cd57506121ec565b601f0160209004906000526020600020908101906121eb91906121ef565b5b50565b5b808211156122085760008160009055506001016121f0565b5090565b6000604051905090565b600080fd5b600080fd5b60007fffffffff0000000000000000000000000000000000000000000000000000000082169050919050565b61225581612220565b811461226057600080fd5b50565b6000813590506122728161224c565b92915050565b60006020828403121561228e5761228d612216565b5b600061229c84828501612263565b91505092915050565b60008115159050919050565b6122ba816122a5565b82525050565b60006020820190506122d560008301846122b1565b92915050565b600081519050919050565b600082825260208201905092915050565b60005b838110156123155780820151818401526020810190506122fa565b60008484015250505050565b6000601f19601f8301169050919050565b600061233d826122db565b61234781856122e6565b93506123578185602086016122f7565b61236081612321565b840191505092915050565b600060208201905081810360008301526123858184612332565b905092915050565b6000819050919050565b6123a08161238d565b81146123ab57600080fd5b50565b6000813590506123bd81612397565b92915050565b6000602082840312156123d9576123d8612216565b5b60006123e7848285016123ae565b91505092915050565b600073ffffffffffffffffffffffffffffffffffffffff82169050919050565b600061241b826123f0565b9050919050565b61242b81612410565b82525050565b60006020820190506124466000830184612422565b92915050565b61245581612410565b811461246057600080fd5b50565b6000813590506124728161244c565b92915050565b60006020828403121561248e5761248d612216565b5b600061249c84828501612463565b91505092915050565b6124ae8161238d565b82525050565b60006080820190506124c960008301876122b1565b81810360208301526124db8186612332565b905081810360408301526124ef8185612332565b90506124fe60608301846124a5565b95945050505050565b6000806040838503121561251e5761251d612216565b5b600061252c85828601612463565b925050602061253d858286016123ae565b9150509250929050565b6000806000606084860312156125605761255f612216565b5b600061256e86828701612463565b935050602061257f86828701612463565b9250506040612590868287016123ae565b9150509250925092565b600080fd5b600080fd5b600080fd5b60008083601f8401126125bf576125be61259a565b5b8235905067ffffffffffffffff8111156125dc576125db61259f565b5b6020830191508360018202830111156125f8576125f76125a4565b5b9250929050565b60008060008060006060868803121561261b5761261a612216565b5b600061262988828901612463565b955050602086013567ffffffffffffffff81111561264a5761264961221b565b5b612656888289016125a9565b9450945050604086013567ffffffffffffffff8111156126795761267861221b565b5b612685888289016125a9565b92509250509295509295909350565b600081519050919050565b600082825260208201905092915050565b6000819050602082019050919050565b6126c981612410565b82525050565b60006126db83836126c0565b60208301905092915050565b6000602082019050919050565b60006126ff82612694565b612709818561269f565b9350612714836126b0565b8060005b8381101561274557815161272c88826126cf565b9750612737836126e7565b925050600181019050612718565b5085935050505092915050565b6000602082019050818103600083015261276c81846126f4565b905092915050565b600060208201905061278960008301846124a5565b92915050565b612798816122a5565b81146127a357600080fd5b50565b6000813590506127b58161278f565b92915050565b600080604083850312156127d2576127d1612216565b5b60006127e085828601612463565b92505060206127f1858286016127a6565b9150509250929050565b600080fd5b7f4e487b7100000000000000000000000000000000000000000000000000000000600052604160045260246000fd5b61283882612321565b810181811067ffffffffffffffff8211171561285757612856612800565b5b80604052505050565b600061286a61220c565b9050612876828261282f565b919050565b600067ffffffffffffffff82111561289657612895612800565b5b61289f82612321565b9050602081019050919050565b82818337600083830152505050565b60006128ce6128c98461287b565b612860565b9050828152602081018484840111156128ea576128e96127fb565b5b6128f58482856128ac565b509392505050565b600082601f8301126129125761291161259a565b5b81356129228482602086016128bb565b91505092915050565b6000806000806080858703121561294557612944612216565b5b600061295387828801612463565b945050602061296487828801612463565b9350506040612975878288016123ae565b925050606085013567ffffffffffffffff8111156129965761299561221b565b5b6129a2878288016128fd565b91505092959194509250565b600080604083850312156129c5576129c4612216565b5b60006129d385828601612463565b92505060206129e485828601612463565b9150509250929050565b7f4e487b7100000000000000000000000000000000000000000000000000000000600052602260045260246000fd5b60006002820490506001821680612a3557607f821691505b602082108103612a4857612a476129ee565b5b50919050565b7f5342543a204f6e6c79206f776e65722063616e20617070726f76652e00000000600082015250565b6000612a84601c836122e6565b9150612a8f82612a4e565b602082019050919050565b60006020820190508181036000830152612ab381612a77565b9050919050565b7f5342543a205472616e736665727320616e6420417070726f76616c732061726560008201527f2072657374726963746564000000000000000000000000000000000000000000602082015250565b6000612b16602b836122e6565b9150612b2182612aba565b604082019050919050565b60006020820190508181036000830152612b4581612b09565b9050919050565b6000606082019050612b616000830186612422565b612b6e60208301856124a5565b612b7b6040830184612422565b949350505050565b7f52656769737472793a20416c7265616479207265676973746572656400000000600082015250565b6000612bb9601c836122e6565b9150612bc482612b83565b602082019050919050565b60006020820190508181036000830152612be881612bac565b9050919050565b60008190508160005260206000209050919050565b60006020601f8301049050919050565b600082821b905092915050565b600060088302612c517fffffffffffffffffffffffffffffffffffffffffffffffffffffffffffffffff82612c14565b612c5b8683612c14565b95508019841693508086168417925050509392505050565b6000819050919050565b6000612c98612c93612c8e8461238d565b612c73565b61238d565b9050919050565b6000819050919050565b612cb283612c7d565b612cc6612cbe82612c9f565b848454612c21565b825550505050565b600090565b612cdb612cce565b612ce6818484612ca9565b505050565b5b81811015612d0a57612cff600082612cd3565b600181019050612cec565b5050565b601f821115612d4f57612d2081612bef565b612d2984612c04565b81016020851015612d38578190505b612d4c612d4485612c04565b830182612ceb565b50505b505050565b600082821c905092915050565b6000612d7260001984600802612d54565b1980831691505092915050565b6000612d8b8383612d61565b9150826002028217905092915050565b612da4826122db565b67ffffffffffffffff811115612dbd57612dbc612800565b5b612dc78254612a1d565b612dd2828285612d0e565b600060209050601f831160018114612e055760008415612df3578287015190505b612dfd8582612d7f565b865550612e65565b601f198416612e1386612bef565b60005b82811015612e3b57848901518255600182019150602085019450602081019050612e16565b86831015612e585784890151612e54601f891682612d61565b8355505b6001600288020188555050505b505050505050565b6000612e7983856122e6565b9350612e868385846128ac565b612e8f83612321565b840190509392505050565b60006040820190508181036000830152612eb5818587612e6d565b9050612ec460208301846124a5565b949350505050565b7f52656769737472793a204e6f7420666f756e6400000000000000000000000000600082015250565b6000612f026013836122e6565b9150612f0d82612ecc565b602082019050919050565b60006020820190508181036000830152612f3181612ef5565b9050919050565b7f4e487b7100000000000000000000000000000000000000000000000000000000600052601160045260246000fd5b6000612f728261238d565b9150612f7d8361238d565b9250828203905081811115612f9557612f94612f38565b5b92915050565b7f4e487b7100000000000000000000000000000000000000000000000000000000600052603260045260246000fd5b7f4e487b7100000000000000000000000000000000000000000000000000000000600052603160045260246000fd5b600081905092915050565b600061300f826122db565b6130198185612ff9565b93506130298185602086016122f7565b80840191505092915050565b60006130418285613004565b915061304d8284613004565b91508190509392505050565b600081519050919050565b600082825260208201905092915050565b600061308082613059565b61308a8185613064565b935061309a8185602086016122f7565b6130a381612321565b840191505092915050565b60006080820190506130c36000830187612422565b6130d06020830186612422565b6130dd60408301856124a5565b81810360608301526130ef8184613075565b905095945050505050565b6000815190506131098161224c565b92915050565b60006020828403121561312557613124612216565b5b6000613133848285016130fa565b91505092915050565b7f4e487b7100000000000000000000000000000000000000000000000000000000600052601260045260246000fd5b60006040820190506131806000830185612422565b61318d60208301846124a5565b939250505056fea2646970667358221220da35b386ab856dc1e514850de99de9a34c172929affa4bc9612b9387f954463764736f6c634300081c0033",
  "linkReferences": {},
  "deployedLinkReferences": {}
}