{
  "_format": "hh-sol-artifact-1",
  "contractName": "PatientRegistry",
  "sourceName": "contracts/Registration/PatientRegistry.sol",
  "abi": [
    {
      "inputs": [],
      "stateMutability": "nonpayable",
      "type": "constructor"
    },
    {
      "inputs": [
        {
          "internalType": "address",
          "name": "sender",
          "type": "address"
        },
        {
          "internalType": "uint256",
          "name": "tokenId",
          "type": "uint256"
        },
        {
          "internalType": "address",
          "name": "owner",
          "type": "address"
        }
      ],
      "name": "ERC721IncorrectOwner",
      "type": "error"
    },
    {
      "inputs": [
        {
          "internalType": "address",
          "name": "operator",
          "type": "address"
        },
        {
          "internalType": "uint256",
          "name": "tokenId",
          "type": "uint256"
        }
      ],
      "name": "ERC721InsufficientApproval",
      "type": "error"
    },
    {
      "inputs": [
        {
          "internalType": "address",
          "name": "approver",
          "type": "address"
        }
      ],
      "name": "ERC721InvalidApprover",
      "type": "error"
    },
    {
      "inputs": [
        {
          "internalType": "address",
          "name": "operator",
          "type": "address"
        }
      ],
      "name": "ERC721InvalidOperator",
      "type": "error"
    },
    {
      "inputs": [
        {
          "internalType": "address",
          "name": "owner",
          "type": "address"
        }
      ],
      "name": "ERC721InvalidOwner",
      "type": "error"
    },
    {
      "inputs": [
        {
          "internalType": "address",
          "name": "receiver",
          "type": "address"
        }
      ],
      "name": "ERC721InvalidReceiver",
      "type": "error"
    },
    {
      "inputs": [
        {
          "internalType": "address",
          "name": "sender",
          "type": "address"
        }
      ],
      "name": "ERC721InvalidSender",
      "type": "error"
    },
    {
      "inputs": [
        {
          "internalType": "uint256",
          "name": "tokenId",
          "type": "uint256"
        }
      ],
      "name": "ERC721NonexistentToken",
      "type": "error"
    },
    {
      "inputs": [
        {
          "internalType": "address",
          "name": "owner",
          "type": "address"
        }
      ],
      "name": "OwnableInvalidOwner",
      "type": "error"
    },
    {
      "inputs": [
        {
          "internalType": "address",
          "name": "account",
          "type": "address"
        }
      ],
      "name": "OwnableUnauthorizedAccount",
      "type": "error"
    },
    {
      "anonymous": false,
      "inputs": [
        {
          "indexed": true,
          "internalType": "address",
          "name": "owner",
          "type": "address"
        },
        {
          "indexed": true,
          "internalType": "address",
          "name": "approved",
          "type": "address"
        },
        {
          "indexed": true,
          "internalType": "uint256",
          "name": "tokenId",
          "type": "uint256"
        }
      ],
      "name": "Approval",
      "type": "event"
    },
    {
      "anonymous": false,
      "inputs": [
        {
          "indexed": true,
          "internalType": "address",
          "name": "owner",
          "type": "address"
        },
        {
          "indexed": true,
          "internalType": "address",
          "name": "operator",
          "type": "address"
        },
        {
          "indexed": false,
          "internalType": "bool",
          "name": "approved",
          "type": "bool"
        }
      ],
      "name": "ApprovalForAll",
      "type": "event"
    },
    {
      "anonymous": false,
      "inputs": [
        {
          "indexed": true,
          "internalType": "address",
          "name": "previousOwner",
          "type": "address"
        },
        {
          "indexed": true,
          "internalType": "address",
          "name": "newOwner",
          "type": "address"
        }
      ],
      "name": "OwnershipTransferred",
      "type": "event"
    },
    {
      "anonymous": false,
      "inputs": [
        {
          "indexed": true,
          "internalType": "address",
          "name": "patient",
          "type": "address"
        },
        {
          "indexed": false,
          "internalType": "string",
          "name": "name",
          "type": "string"
        },
        {
          "indexed": false,
          "internalType": "uint256",
          "name": "tokenId",
          "type": "uint256"
        }
      ],
      "name": "PatientAdded",
      "type": "event"
    },
    {
      "anonymous": false,
      "inputs": [
        {
          "indexed": true,
          "internalType": "address",
          "name": "patient",
          "type": "address"
        }
      ],
      "name": "PatientRemoved",
      "type": "event"
    },
    {
      "anonymous": false,
      "inputs": [
        {
          "indexed": true,
          "internalType": "address",
          "name": "from",
          "type": "address"
        },
        {
          "indexed": true,
          "internalType": "address",
          "name": "to",
          "type": "address"
        },
        {
          "indexed": true,
          "internalType": "uint256",
          "name": "tokenId",
          "type": "uint256"
        }
      ],
      "name": "Transfer",
      "type": "event"
    },
    {
      "inputs": [
        {
          "internalType": "address",
          "name": "patient",
          "type": "address"
        },
        {
          "internalType": "string",
          "name": "name",
          "type": "string"
        },
        {
          "internalType": "string",
          "name": "ipfsProfile",
          "type": "string"
        }
      ],
      "name": "addPatient",
      "outputs": [],
      "stateMutability": "nonpayable",
      "type": "function"
    },
    {
      "inputs": [
        {
          "internalType": "address",
          "name": "to",
          "type": "address"
        },
        {
          "internalType": "uint256",
          "name": "tokenId",
          "type": "uint256"
        }
      ],
      "name": "approve",
      "outputs": [],
      "stateMutability": "nonpayable",
      "type": "function"
    },
    {
      "inputs": [
        {
          "internalType": "address",
          "name": "owner",
          "type": "address"
        }
      ],
      "name": "balanceOf",
      "outputs": [
        {
          "internalType": "uint256",
          "name": "",
          "type": "uint256"
        }
      ],
      "stateMutability": "view",
      "type": "function"
    },
    {
      "inputs": [
        {
          "internalType": "uint256",
          "name": "tokenId",
          "type": "uint256"
        }
      ],
      "name": "getApproved",
      "outputs": [
        {
          "internalType": "address",
          "name": "",
          "type": "address"
        }
      ],
      "stateMutability": "view",
      "type": "function"
    },
    {
      "inputs": [],
      "name": "getPatientList",
      "outputs": [
        {
          "internalType": "address[]",
          "name": "",
          "type": "address[]"
        }
      ],
      "stateMutability": "view",
      "type": "function"
    },
    {
      "inputs": [
        {
          "internalType": "address",
          "name": "owner",
          "type": "address"
        },
        {
          "internalType": "address",
          "name": "operator",
          "type": "address"
        }
      ],
      "name": "isApprovedForAll",
      "outputs": [
        {
          "internalType": "bool",
          "name": "",
          "type": "bool"
        }
      ],
      "stateMutability": "view",
      "type": "function"
    },
    {
      "inputs": [
        {
          "internalType": "address",
          "name": "addr",
          "type": "address"
        }
      ],
      "name": "isPatient",
      "outputs": [
        {
          "internalType": "bool",
          "name": "",
          "type": "bool"
        }
      ],
      "stateMutability": "view",
      "type": "function"
    },
    {
      "inputs": [],
      "name": "name",
      "outputs": [
        {
          "internalType": "string",
          "name": "",
          "type": "string"
        }
      ],
      "stateMutability": "view",
      "type": "function"
    },
    {
      "inputs": [],
      "name": "owner",
      "outputs": [
        {
          "internalType": "address",
          "name": "",
          "type": "address"
        }
      ],
      "stateMutability": "view",
      "type": "function"
    },
    {
      "inputs": [
        {
          "internalType": "uint256",
          "name": "tokenId",
          "type": "uint256"
        }
      ],
      "name": "ownerOf",
      "outputs": [
        {
          "internalType": "address",
          "name": "",
          "type": "address"
        }
      ],
      "stateMutability": "view",
      "type": "function"
    },
    {
      "inputs": [
        {
          "internalType": "address",
          "name": "",
          "type": "address"
        }
      ],
      "name": "patients",
      "outputs": [
        {
          "internalType": "bool",
          "name": "exists",
          "type": "bool"
        },
        {
          "internalType": "string",
          "name": "name",
          "type": "string"
        },
        {
          "internalType": "string",
          "name": "ipfsProfile",
          "type": "string"
        },
        {
          "internalType": "uint256",
          "name": "tokenId",
          "type": "uint256"
        }
      ],
      "stateMutability": "view",
      "type": "function"
    },
    {
      "inputs": [
        {
          "internalType": "address",
          "name": "patient",
          "type": "address"
        }
      ],
      "name": "removePatient",
      "outputs": [],
      "stateMutability": "nonpayable",
      "type": "function"
    },
    {
      "inputs": [],
      "name": "renounceOwnership",
      "outputs": [],
      "stateMutability": "nonpayable",
      "type": "function"
    },
    {
      "inputs": [
        {
          "internalType": "address",
          "name": "from",
          "type": "address"
        },
        {
          "internalType": "address",
          "name": "to",
          "type": "address"
        },
        {
          "internalType": "uint256",
          "name": "tokenId",
          "type": "uint256"
        }
      ],
      "name": "safeTransferFrom",
      "outputs": [],
      "stateMutability": "nonpayable",
      "type": "function"
    },
    {
      "inputs": [
        {
          "internalType": "address",
          "name": "from",
          "type": "address"
        },
        {
          "internalType": "address",
          "name": "to",
          "type": "address"
        },
        {
          "internalType": "uint256",
          "name": "tokenId",
          "type": "uint256"
        },
        {
          "internalType": "bytes",
          "name": "data",
          "type": "bytes"
        }
      ],
      "name": "safeTransferFrom",
      "outputs": [],
      "stateMutability": "nonpayable",
      "type": "function"
    },
    {
      "inputs": [
        {
          "internalType": "address",
          "name": "operator",
          "type": "address"
        },
        {
          "internalType": "bool",
          "name": "approved",
          "type": "bool"
        }
      ],
      "name": "setApprovalForAll",
      "outputs": [],
      "stateMutability": "nonpayable",
      "type": "function"
    },
    {
      "inputs": [
        {
          "internalType": "bytes4",
          "name": "interfaceId",
          "type": "bytes4"
        }
      ],
      "name": "supportsInterface",
      "outputs": [
        {
          "internalType": "bool",
          "name": "",
          "type": "bool"
        }
      ],
      "stateMutability": "view",
      "type": "function"
    },
    {
      "inputs": [],
      "name": "symbol",
      "outputs": [
        {
          "internalType": "string",
          "name": "",
          "type": "string"
        }
      ],
      "stateMutability": "view",
      "type": "function"
    },
    {
      "inputs": [
        {
          "internalType": "uint256",
          "name": "tokenId",
          "type": "uint256"
        }
      ],
      "name": "tokenURI",
      "outputs": [
        {
          "internalType": "string",
          "name": "",
          "type": "string"
        }
      ],
      "stateMutability": "view",
      "type": "function"
    },
    {
      "inputs": [
        {
          "internalType": "address",
          "name": "from",
          "type": "address"
        },
        {
          "internalType": "address",
          "name": "to",
          "type": "address"
        },
        {
          "internalType": "uint256",
          "name": "tokenId",
          "type": "uint256"
        }
      ],
      "name": "transferFrom",
      "outputs": [],
      "stateMutability": "nonpayable",
      "type": "function"
    },
    {
      "inputs": [
        {
          "internalType": "address",
          "name": "newOwner",
          "type": "address"
        }
      ],
      "name": "transferOwnership",
      "outputs": [],
      "stateMutability": "nonpayable",
      "type": "function"
    }
  ],
  "bytecode": "0x608060405234801561000f575f5ffd5b506040518060400160405280601281526020017f50617469656e744964656e7469747953425400000000000000000000000000008152506040518060400160405280600381526020017f5049440000000000000000000000000000000000000000000000000000000000815250335f73ffffffffffffffffffffffffffffffffffffffff168173ffffffffffffffffffffffffffffffffffffffff16036100ed575f6040517f1e4fbdf70000000000000000000000000000000000000000000000000000000081526004016100e49190610224565b60405180910390fd5b6100fc8161012460201b60201c565b50816001908161010c919061047a565b50806002908161011c919061047a565b505050610549565b5f5f5f9054906101000a900473ffffffffffffffffffffffffffffffffffffffff169050815f5f6101000a81548173ffffffffffffffffffffffffffffffffffffffff021916908373ffffffffffffffffffffffffffffffffffffffff1602179055508173ffffffffffffffffffffffffffffffffffffffff168173ffffffffffffffffffffffffffffffffffffffff167f8be0079c531659141344cd1fd0a4f28419497f9722a3daafe3b4186f6b6457e060405160405180910390a35050565b5f73ffffffffffffffffffffffffffffffffffffffff82169050919050565b5f61020e826101e5565b9050919050565b61021e81610204565b82525050565b5f6020820190506102375f830184610215565b92915050565b5f81519050919050565b7f4e487b71000000000000000000000000000000000000000000000000000000005f52604160045260245ffd5b7f4e487b71000000000000000000000000000000000000000000000000000000005f52602260045260245ffd5b5f60028204905060018216806102b857607f821691505b6020821081036102cb576102ca610274565b5b50919050565b5f819050815f5260205f209050919050565b5f6020601f8301049050919050565b5f82821b905092915050565b5f6008830261032d7fffffffffffffffffffffffffffffffffffffffffffffffffffffffffffffffff826102f2565b61033786836102f2565b95508019841693508086168417925050509392505050565b5f819050919050565b5f819050919050565b5f61037b6103766103718461034f565b610358565b61034f565b9050919050565b5f819050919050565b61039483610361565b6103a86103a082610382565b8484546102fe565b825550505050565b5f5f905090565b6103bf6103b0565b6103ca81848461038b565b505050565b5b818110156103ed576103e25f826103b7565b6001810190506103d0565b5050565b601f82111561043257610403816102d1565b61040c846102e3565b8101602085101561041b578190505b61042f610427856102e3565b8301826103cf565b50505b505050565b5f82821c905092915050565b5f6104525f1984600802610437565b1980831691505092915050565b5f61046a8383610443565b9150826002028217905092915050565b6104838261023d565b67ffffffffffffffff81111561049c5761049b610247565b5b6104a682546102a1565b6104b18282856103f1565b5f60209050601f8311600181146104e2575f84156104d0578287015190505b6104da858261045f565b865550610541565b601f1984166104f0866102d1565b5f5b82811015610517578489015182556001820191506020850194506020810190506104f2565b868310156105345784890151610530601f891682610443565b8355505b6001600288020188555050505b505050505050565b61307d806105565f395ff3fe608060405234801561000f575f5ffd5b5060043610610135575f3560e01c806370a08231116100b657806395d89b411161007a57806395d89b411461034c578063a22cb4651461036a578063b88d4fde14610386578063c87b56dd146103a2578063e985e9c5146103d2578063f2fde38b1461040257610135565b806370a08231146102a8578063715018a6146102d85780637d0d6257146102e25780638da5cb5b146102fe5780638f9c79ed1461031c57610135565b806323b872dd116100fd57806323b872dd1461020657806337b16b501461022257806342842e0e1461023e578063503b13541461025a5780636352211e1461027857610135565b806301ffc9a71461013957806306fdde0314610169578063081812fc146101875780630869cfbc146101b7578063095ea7b3146101ea575b5f5ffd5b610153600480360381019061014e91906121c7565b61041e565b604051610160919061220c565b60405180910390f35b6101716104ff565b60405161017e9190612295565b60405180910390f35b6101a1600480360381019061019c91906122e8565b61058f565b6040516101ae9190612352565b60405180910390f35b6101d160048036038101906101cc9190612395565b6105aa565b6040516101e194939291906123cf565b60405180910390f35b61020460048036038101906101ff9190612420565b6106ee565b005b610220600480360381019061021b919061245e565b6107a3565b005b61023c6004803603810190610237919061250f565b6108a2565b005b6102586004803603810190610253919061245e565b610b95565b005b610262610bb4565b60405161026f9190612657565b60405180910390f35b610292600480360381019061028d91906122e8565b610c3f565b60405161029f9190612352565b60405180910390f35b6102c260048036038101906102bd9190612395565b610c50565b6040516102cf9190612677565b60405180910390f35b6102e0610d06565b005b6102fc60048036038101906102f79190612395565b610d19565b005b610306611077565b6040516103139190612352565b60405180910390f35b61033660048036038101906103319190612395565b61109e565b604051610343919061220c565b60405180910390f35b6103546110f2565b6040516103619190612295565b60405180910390f35b610384600480360381019061037f91906126ba565b611182565b005b6103a0600480360381019061039b9190612820565b6111bd565b005b6103bc60048036038101906103b791906122e8565b6111e2565b6040516103c99190612295565b60405180910390f35b6103ec60048036038101906103e791906128a0565b611248565b6040516103f9919061220c565b60405180910390f35b61041c60048036038101906104179190612395565b6112d6565b005b5f7f80ac58cd000000000000000000000000000000000000000000000000000000007bffffffffffffffffffffffffffffffffffffffffffffffffffffffff1916827bffffffffffffffffffffffffffffffffffffffffffffffffffffffff191614806104e857507f5b5e139f000000000000000000000000000000000000000000000000000000007bffffffffffffffffffffffffffffffffffffffffffffffffffffffff1916827bffffffffffffffffffffffffffffffffffffffffffffffffffffffff1916145b806104f857506104f78261135a565b5b9050919050565b60606001805461050e9061290b565b80601f016020809104026020016040519081016040528092919081815260200182805461053a9061290b565b80156105855780601f1061055c57610100808354040283529160200191610585565b820191905f5260205f20905b81548152906001019060200180831161056857829003601f168201915b5050505050905090565b5f610599826113c3565b506105a382611449565b9050919050565b6008602052805f5260405f205f91509050805f015f9054906101000a900460ff16908060010180546105db9061290b565b80601f01602080910402602001604051908101604052809291908181526020018280546106079061290b565b80156106525780601f1061062957610100808354040283529160200191610652565b820191905f5260205f20905b81548152906001019060200180831161063557829003601f168201915b5050505050908060020180546106679061290b565b80601f01602080910402602001604051908101604052809291908181526020018280546106939061290b565b80156106de5780601f106106b5576101008083540402835291602001916106de565b820191905f5260205f20905b8154815290600101906020018083116106c157829003601f168201915b5050505050908060030154905084565b5f6106f882610c3f565b90508073ffffffffffffffffffffffffffffffffffffffff163373ffffffffffffffffffffffffffffffffffffffff1614610768576040517f08c379a000000000000000000000000000000000000000000000000000000000815260040161075f90612985565b60405180910390fd5b6040517f08c379a000000000000000000000000000000000000000000000000000000000815260040161079a90612a13565b60405180910390fd5b5f73ffffffffffffffffffffffffffffffffffffffff168273ffffffffffffffffffffffffffffffffffffffff1603610813575f6040517f64a0ae9200000000000000000000000000000000000000000000000000000000815260040161080a9190612352565b60405180910390fd5b5f6108268383610821611482565b611489565b90508373ffffffffffffffffffffffffffffffffffffffff168173ffffffffffffffffffffffffffffffffffffffff161461089c578382826040517f64283d7b00000000000000000000000000000000000000000000000000000000815260040161089393929190612a31565b60405180910390fd5b50505050565b6108aa611694565b60085f8673ffffffffffffffffffffffffffffffffffffffff1673ffffffffffffffffffffffffffffffffffffffff1681526020019081526020015f205f015f9054906101000a900460ff1615610936576040517f08c379a000000000000000000000000000000000000000000000000000000000815260040161092d90612ab0565b60405180910390fd5b610940600761171b565b5f61094b600761172f565b9050610957868261173b565b604051806080016040528060011515815260200186868080601f0160208091040260200160405190810160405280939291908181526020018383808284375f81840152601f19601f82011690508083019250505050505050815260200184848080601f0160208091040260200160405190810160405280939291908181526020018383808284375f81840152601f19601f8201169050808301925050505050505081526020018281525060085f8873ffffffffffffffffffffffffffffffffffffffff1673ffffffffffffffffffffffffffffffffffffffff1681526020019081526020015f205f820151815f015f6101000a81548160ff0219169083151502179055506020820151816001019081610a709190612c6e565b506040820151816002019081610a869190612c6e565b5060608201518160030155905050600980549050600a5f8873ffffffffffffffffffffffffffffffffffffffff1673ffffffffffffffffffffffffffffffffffffffff1681526020019081526020015f2081905550600986908060018154018082558091505060019003905f5260205f20015f9091909190916101000a81548173ffffffffffffffffffffffffffffffffffffffff021916908373ffffffffffffffffffffffffffffffffffffffff1602179055508573ffffffffffffffffffffffffffffffffffffffff167f27f45a593be448e62c97ef0c4b096f90876bf2c134cf3ac1d52d2ae4b017eda3868684604051610b8593929190612d69565b60405180910390a2505050505050565b610baf83838360405180602001604052805f8152506111bd565b505050565b60606009805480602002602001604051908101604052809291908181526020018280548015610c3557602002820191905f5260205f20905b815f9054906101000a900473ffffffffffffffffffffffffffffffffffffffff1673ffffffffffffffffffffffffffffffffffffffff1681526020019060010190808311610bec575b5050505050905090565b5f610c49826113c3565b9050919050565b5f5f73ffffffffffffffffffffffffffffffffffffffff168273ffffffffffffffffffffffffffffffffffffffff1603610cc1575f6040517f89c62b64000000000000000000000000000000000000000000000000000000008152600401610cb89190612352565b60405180910390fd5b60045f8373ffffffffffffffffffffffffffffffffffffffff1673ffffffffffffffffffffffffffffffffffffffff1681526020019081526020015f20549050919050565b610d0e611694565b610d175f611758565b565b610d21611694565b60085f8273ffffffffffffffffffffffffffffffffffffffff1673ffffffffffffffffffffffffffffffffffffffff1681526020019081526020015f205f015f9054906101000a900460ff16610dac576040517f08c379a0000000000000000000000000000000000000000000000000000000008152600401610da390612de3565b60405180910390fd5b5f60085f8373ffffffffffffffffffffffffffffffffffffffff1673ffffffffffffffffffffffffffffffffffffffff1681526020019081526020015f20600301549050610df981611819565b5f600a5f8473ffffffffffffffffffffffffffffffffffffffff1673ffffffffffffffffffffffffffffffffffffffff1681526020019081526020015f205490505f6001600980549050610e4d9190612e2e565b9050808214610f33575f60098281548110610e6b57610e6a612e61565b5b905f5260205f20015f9054906101000a900473ffffffffffffffffffffffffffffffffffffffff1690508060098481548110610eaa57610ea9612e61565b5b905f5260205f20015f6101000a81548173ffffffffffffffffffffffffffffffffffffffff021916908373ffffffffffffffffffffffffffffffffffffffff16021790555082600a5f8373ffffffffffffffffffffffffffffffffffffffff1673ffffffffffffffffffffffffffffffffffffffff1681526020019081526020015f2081905550505b6009805480610f4557610f44612e8e565b5b600190038181905f5260205f20015f6101000a81549073ffffffffffffffffffffffffffffffffffffffff02191690559055600a5f8573ffffffffffffffffffffffffffffffffffffffff1673ffffffffffffffffffffffffffffffffffffffff1681526020019081526020015f205f905560085f8573ffffffffffffffffffffffffffffffffffffffff1673ffffffffffffffffffffffffffffffffffffffff1681526020019081526020015f205f5f82015f6101000a81549060ff0219169055600182015f6110169190612109565b600282015f6110259190612109565b600382015f905550508373ffffffffffffffffffffffffffffffffffffffff167f053a4badf166f01c4b02f6bcb71d2d67734470d0866282e291e73001aa25c76960405160405180910390a250505050565b5f5f5f9054906101000a900473ffffffffffffffffffffffffffffffffffffffff16905090565b5f60085f8373ffffffffffffffffffffffffffffffffffffffff1673ffffffffffffffffffffffffffffffffffffffff1681526020019081526020015f205f015f9054906101000a900460ff169050919050565b6060600280546111019061290b565b80601f016020809104026020016040519081016040528092919081815260200182805461112d9061290b565b80156111785780601f1061114f57610100808354040283529160200191611178565b820191905f5260205f20905b81548152906001019060200180831161115b57829003601f168201915b5050505050905090565b6040517f08c379a00000000000000000000000000000000000000000000000000000000081526004016111b490612a13565b60405180910390fd5b6111c88484846107a3565b6111dc6111d3611482565b8585858561189b565b50505050565b60606111ed826113c3565b505f6111f7611a47565b90505f8151116112155760405180602001604052805f815250611240565b8061121f84611a5d565b604051602001611230929190612ef5565b6040516020818303038152906040525b915050919050565b5f60065f8473ffffffffffffffffffffffffffffffffffffffff1673ffffffffffffffffffffffffffffffffffffffff1681526020019081526020015f205f8373ffffffffffffffffffffffffffffffffffffffff1673ffffffffffffffffffffffffffffffffffffffff1681526020019081526020015f205f9054906101000a900460ff16905092915050565b6112de611694565b5f73ffffffffffffffffffffffffffffffffffffffff168173ffffffffffffffffffffffffffffffffffffffff160361134e575f6040517f1e4fbdf70000000000000000000000000000000000000000000000000000000081526004016113459190612352565b60405180910390fd5b61135781611758565b50565b5f7f01ffc9a7000000000000000000000000000000000000000000000000000000007bffffffffffffffffffffffffffffffffffffffffffffffffffffffff1916827bffffffffffffffffffffffffffffffffffffffffffffffffffffffff1916149050919050565b5f5f6113ce83611b27565b90505f73ffffffffffffffffffffffffffffffffffffffff168173ffffffffffffffffffffffffffffffffffffffff160361144057826040517f7e2732890000000000000000000000000000000000000000000000000000000081526004016114379190612677565b60405180910390fd5b80915050919050565b5f60055f8381526020019081526020015f205f9054906101000a900473ffffffffffffffffffffffffffffffffffffffff169050919050565b5f33905090565b5f5f61149484611b27565b90505f73ffffffffffffffffffffffffffffffffffffffff168373ffffffffffffffffffffffffffffffffffffffff16146114d5576114d4818486611b60565b5b5f73ffffffffffffffffffffffffffffffffffffffff168173ffffffffffffffffffffffffffffffffffffffff1614611560576115145f855f5f611c23565b600160045f8373ffffffffffffffffffffffffffffffffffffffff1673ffffffffffffffffffffffffffffffffffffffff1681526020019081526020015f205f82825403925050819055505b5f73ffffffffffffffffffffffffffffffffffffffff168573ffffffffffffffffffffffffffffffffffffffff16146115df57600160045f8773ffffffffffffffffffffffffffffffffffffffff1673ffffffffffffffffffffffffffffffffffffffff1681526020019081526020015f205f82825401925050819055505b8460035f8681526020019081526020015f205f6101000a81548173ffffffffffffffffffffffffffffffffffffffff021916908373ffffffffffffffffffffffffffffffffffffffff160217905550838573ffffffffffffffffffffffffffffffffffffffff168273ffffffffffffffffffffffffffffffffffffffff167fddf252ad1be2c89b69c2b068fc378daa952ba7f163c4a11628f55a4df523b3ef60405160405180910390a4809150509392505050565b61169c611482565b73ffffffffffffffffffffffffffffffffffffffff166116ba611077565b73ffffffffffffffffffffffffffffffffffffffff1614611719576116dd611482565b6040517f118cdaa70000000000000000000000000000000000000000000000000000000081526004016117109190612352565b60405180910390fd5b565b6001815f015f828254019250508190555050565b5f815f01549050919050565b611754828260405180602001604052805f815250611de2565b5050565b5f5f5f9054906101000a900473ffffffffffffffffffffffffffffffffffffffff169050815f5f6101000a81548173ffffffffffffffffffffffffffffffffffffffff021916908373ffffffffffffffffffffffffffffffffffffffff1602179055508173ffffffffffffffffffffffffffffffffffffffff168173ffffffffffffffffffffffffffffffffffffffff167f8be0079c531659141344cd1fd0a4f28419497f9722a3daafe3b4186f6b6457e060405160405180910390a35050565b5f6118255f835f611489565b90505f73ffffffffffffffffffffffffffffffffffffffff168173ffffffffffffffffffffffffffffffffffffffff160361189757816040517f7e27328900000000000000000000000000000000000000000000000000000000815260040161188e9190612677565b60405180910390fd5b5050565b5f8373ffffffffffffffffffffffffffffffffffffffff163b1115611a40578273ffffffffffffffffffffffffffffffffffffffff1663150b7a02868685856040518563ffffffff1660e01b81526004016118f99493929190612f6a565b6020604051808303815f875af192505050801561193457506040513d601f19601f820116820180604052508101906119319190612fc8565b60015b6119b5573d805f8114611962576040519150601f19603f3d011682016040523d82523d5f602084013e611967565b606091505b505f8151036119ad57836040517f64a0ae920000000000000000000000000000000000000000000000000000000081526004016119a49190612352565b60405180910390fd5b805160208201fd5b63150b7a0260e01b7bffffffffffffffffffffffffffffffffffffffffffffffffffffffff1916817bffffffffffffffffffffffffffffffffffffffffffffffffffffffff191614611a3e57836040517f64a0ae92000000000000000000000000000000000000000000000000000000008152600401611a359190612352565b60405180910390fd5b505b5050505050565b606060405180602001604052805f815250905090565b60605f6001611a6b84611e05565b0190505f8167ffffffffffffffff811115611a8957611a886126fc565b5b6040519080825280601f01601f191660200182016040528015611abb5781602001600182028036833780820191505090505b5090505f82602083010190505b600115611b1c578080600190039150507f3031323334353637383961626364656600000000000000000000000000000000600a86061a8153600a8581611b1157611b10612ff3565b5b0494505f8503611ac8575b819350505050919050565b5f60035f8381526020019081526020015f205f9054906101000a900473ffffffffffffffffffffffffffffffffffffffff169050919050565b611b6b838383611f56565b611c1e575f73ffffffffffffffffffffffffffffffffffffffff168373ffffffffffffffffffffffffffffffffffffffff1603611bdf57806040517f7e273289000000000000000000000000000000000000000000000000000000008152600401611bd69190612677565b60405180910390fd5b81816040517f177e802f000000000000000000000000000000000000000000000000000000008152600401611c15929190613020565b60405180910390fd5b505050565b8080611c5b57505f73ffffffffffffffffffffffffffffffffffffffff168273ffffffffffffffffffffffffffffffffffffffff1614155b15611d8d575f611c6a846113c3565b90505f73ffffffffffffffffffffffffffffffffffffffff168373ffffffffffffffffffffffffffffffffffffffff1614158015611cd457508273ffffffffffffffffffffffffffffffffffffffff168173ffffffffffffffffffffffffffffffffffffffff1614155b8015611ce75750611ce58184611248565b155b15611d2957826040517fa9fbf51f000000000000000000000000000000000000000000000000000000008152600401611d209190612352565b60405180910390fd5b8115611d8b57838573ffffffffffffffffffffffffffffffffffffffff168273ffffffffffffffffffffffffffffffffffffffff167f8c5be1e5ebec7d5bd14f71427d1e84f3dd0314c0f7b2291e5b200ac8c7c3b92560405160405180910390a45b505b8360055f8581526020019081526020015f205f6101000a81548173ffffffffffffffffffffffffffffffffffffffff021916908373ffffffffffffffffffffffffffffffffffffffff16021790555050505050565b611dec8383612016565b611e00611df7611482565b5f85858561189b565b505050565b5f5f5f90507a184f03e93ff9f4daa797ed6e38ed64bf6a1f0100000000000000008310611e61577a184f03e93ff9f4daa797ed6e38ed64bf6a1f0100000000000000008381611e5757611e56612ff3565b5b0492506040810190505b6d04ee2d6d415b85acef81000000008310611e9e576d04ee2d6d415b85acef81000000008381611e9457611e93612ff3565b5b0492506020810190505b662386f26fc100008310611ecd57662386f26fc100008381611ec357611ec2612ff3565b5b0492506010810190505b6305f5e1008310611ef6576305f5e1008381611eec57611eeb612ff3565b5b0492506008810190505b6127108310611f1b576127108381611f1157611f10612ff3565b5b0492506004810190505b60648310611f3e5760648381611f3457611f33612ff3565b5b0492506002810190505b600a8310611f4d576001810190505b80915050919050565b5f5f73ffffffffffffffffffffffffffffffffffffffff168373ffffffffffffffffffffffffffffffffffffffff161415801561200d57508273ffffffffffffffffffffffffffffffffffffffff168473ffffffffffffffffffffffffffffffffffffffff161480611fce5750611fcd8484611248565b5b8061200c57508273ffffffffffffffffffffffffffffffffffffffff16611ff483611449565b73ffffffffffffffffffffffffffffffffffffffff16145b5b90509392505050565b5f73ffffffffffffffffffffffffffffffffffffffff168273ffffffffffffffffffffffffffffffffffffffff1603612086575f6040517f64a0ae9200000000000000000000000000000000000000000000000000000000815260040161207d9190612352565b60405180910390fd5b5f61209283835f611489565b90505f73ffffffffffffffffffffffffffffffffffffffff168173ffffffffffffffffffffffffffffffffffffffff1614612104575f6040517f73c6ac6e0000000000000000000000000000000000000000000000000000000081526004016120fb9190612352565b60405180910390fd5b505050565b5080546121159061290b565b5f825580601f106121265750612143565b601f0160209004905f5260205f20908101906121429190612146565b5b50565b5b8082111561215d575f815f905550600101612147565b5090565b5f604051905090565b5f5ffd5b5f5ffd5b5f7fffffffff0000000000000000000000000000000000000000000000000000000082169050919050565b6121a681612172565b81146121b0575f5ffd5b50565b5f813590506121c18161219d565b92915050565b5f602082840312156121dc576121db61216a565b5b5f6121e9848285016121b3565b91505092915050565b5f8115159050919050565b612206816121f2565b82525050565b5f60208201905061221f5f8301846121fd565b92915050565b5f81519050919050565b5f82825260208201905092915050565b8281835e5f83830152505050565b5f601f19601f8301169050919050565b5f61226782612225565b612271818561222f565b935061228181856020860161223f565b61228a8161224d565b840191505092915050565b5f6020820190508181035f8301526122ad818461225d565b905092915050565b5f819050919050565b6122c7816122b5565b81146122d1575f5ffd5b50565b5f813590506122e2816122be565b92915050565b5f602082840312156122fd576122fc61216a565b5b5f61230a848285016122d4565b91505092915050565b5f73ffffffffffffffffffffffffffffffffffffffff82169050919050565b5f61233c82612313565b9050919050565b61234c81612332565b82525050565b5f6020820190506123655f830184612343565b92915050565b61237481612332565b811461237e575f5ffd5b50565b5f8135905061238f8161236b565b92915050565b5f602082840312156123aa576123a961216a565b5b5f6123b784828501612381565b91505092915050565b6123c9816122b5565b82525050565b5f6080820190506123e25f8301876121fd565b81810360208301526123f4818661225d565b90508181036040830152612408818561225d565b905061241760608301846123c0565b95945050505050565b5f5f604083850312156124365761243561216a565b5b5f61244385828601612381565b9250506020612454858286016122d4565b9150509250929050565b5f5f5f606084860312156124755761247461216a565b5b5f61248286828701612381565b935050602061249386828701612381565b92505060406124a4868287016122d4565b9150509250925092565b5f5ffd5b5f5ffd5b5f5ffd5b5f5f83601f8401126124cf576124ce6124ae565b5b8235905067ffffffffffffffff8111156124ec576124eb6124b2565b5b602083019150836001820283011115612508576125076124b6565b5b9250929050565b5f5f5f5f5f606086880312156125285761252761216a565b5b5f61253588828901612381565b955050602086013567ffffffffffffffff8111156125565761255561216e565b5b612562888289016124ba565b9450945050604086013567ffffffffffffffff8111156125855761258461216e565b5b612591888289016124ba565b92509250509295509295909350565b5f81519050919050565b5f82825260208201905092915050565b5f819050602082019050919050565b6125d281612332565b82525050565b5f6125e383836125c9565b60208301905092915050565b5f602082019050919050565b5f612605826125a0565b61260f81856125aa565b935061261a836125ba565b805f5b8381101561264a57815161263188826125d8565b975061263c836125ef565b92505060018101905061261d565b5085935050505092915050565b5f6020820190508181035f83015261266f81846125fb565b905092915050565b5f60208201905061268a5f8301846123c0565b92915050565b612699816121f2565b81146126a3575f5ffd5b50565b5f813590506126b481612690565b92915050565b5f5f604083850312156126d0576126cf61216a565b5b5f6126dd85828601612381565b92505060206126ee858286016126a6565b9150509250929050565b5f5ffd5b7f4e487b71000000000000000000000000000000000000000000000000000000005f52604160045260245ffd5b6127328261224d565b810181811067ffffffffffffffff82111715612751576127506126fc565b5b80604052505050565b5f612763612161565b905061276f8282612729565b919050565b5f67ffffffffffffffff82111561278e5761278d6126fc565b5b6127978261224d565b9050602081019050919050565b828183375f83830152505050565b5f6127c46127bf84612774565b61275a565b9050828152602081018484840111156127e0576127df6126f8565b5b6127eb8482856127a4565b509392505050565b5f82601f830112612807576128066124ae565b5b81356128178482602086016127b2565b91505092915050565b5f5f5f5f608085870312156128385761283761216a565b5b5f61284587828801612381565b945050602061285687828801612381565b9350506040612867878288016122d4565b925050606085013567ffffffffffffffff8111156128885761288761216e565b5b612894878288016127f3565b91505092959194509250565b5f5f604083850312156128b6576128b561216a565b5b5f6128c385828601612381565b92505060206128d485828601612381565b9150509250929050565b7f4e487b71000000000000000000000000000000000000000000000000000000005f52602260045260245ffd5b5f600282049050600182168061292257607f821691505b602082108103612935576129346128de565b5b50919050565b7f5342543a204f6e6c79206f776e65722063616e20617070726f76652e000000005f82015250565b5f61296f601c8361222f565b915061297a8261293b565b602082019050919050565b5f6020820190508181035f83015261299c81612963565b9050919050565b7f5342543a205472616e736665727320616e6420417070726f76616c73206172655f8201527f2072657374726963746564000000000000000000000000000000000000000000602082015250565b5f6129fd602b8361222f565b9150612a08826129a3565b604082019050919050565b5f6020820190508181035f830152612a2a816129f1565b9050919050565b5f606082019050612a445f830186612343565b612a5160208301856123c0565b612a5e6040830184612343565b949350505050565b7f52656769737472793a20416c72656164792072656769737465726564000000005f82015250565b5f612a9a601c8361222f565b9150612aa582612a66565b602082019050919050565b5f6020820190508181035f830152612ac781612a8e565b9050919050565b5f819050815f5260205f209050919050565b5f6020601f8301049050919050565b5f82821b905092915050565b5f60088302612b2a7fffffffffffffffffffffffffffffffffffffffffffffffffffffffffffffffff82612aef565b612b348683612aef565b95508019841693508086168417925050509392505050565b5f819050919050565b5f612b6f612b6a612b65846122b5565b612b4c565b6122b5565b9050919050565b5f819050919050565b612b8883612b55565b612b9c612b9482612b76565b848454612afb565b825550505050565b5f5f905090565b612bb3612ba4565b612bbe818484612b7f565b505050565b5b81811015612be157612bd65f82612bab565b600181019050612bc4565b5050565b601f821115612c2657612bf781612ace565b612c0084612ae0565b81016020851015612c0f578190505b612c23612c1b85612ae0565b830182612bc3565b50505b505050565b5f82821c905092915050565b5f612c465f1984600802612c2b565b1980831691505092915050565b5f612c5e8383612c37565b9150826002028217905092915050565b612c7782612225565b67ffffffffffffffff811115612c9057612c8f6126fc565b5b612c9a825461290b565b612ca5828285612be5565b5f60209050601f831160018114612cd6575f8415612cc4578287015190505b612cce8582612c53565b865550612d35565b601f198416612ce486612ace565b5f5b82811015612d0b57848901518255600182019150602085019450602081019050612ce6565b86831015612d285784890151612d24601f891682612c37565b8355505b6001600288020188555050505b505050505050565b5f612d48838561222f565b9350612d558385846127a4565b612d5e8361224d565b840190509392505050565b5f6040820190508181035f830152612d82818587612d3d565b9050612d9160208301846123c0565b949350505050565b7f52656769737472793a204e6f7420666f756e64000000000000000000000000005f82015250565b5f612dcd60138361222f565b9150612dd882612d99565b602082019050919050565b5f6020820190508181035f830152612dfa81612dc1565b9050919050565b7f4e487b71000000000000000000000000000000000000000000000000000000005f52601160045260245ffd5b5f612e38826122b5565b9150612e43836122b5565b9250828203905081811115612e5b57612e5a612e01565b5b92915050565b7f4e487b71000000000000000000000000000000000000000000000000000000005f52603260045260245ffd5b7f4e487b71000000000000000000000000000000000000000000000000000000005f52603160045260245ffd5b5f81905092915050565b5f612ecf82612225565b612ed98185612ebb565b9350612ee981856020860161223f565b80840191505092915050565b5f612f008285612ec5565b9150612f0c8284612ec5565b91508190509392505050565b5f81519050919050565b5f82825260208201905092915050565b5f612f3c82612f18565b612f468185612f22565b9350612f5681856020860161223f565b612f5f8161224d565b840191505092915050565b5f608082019050612f7d5f830187612343565b612f8a6020830186612343565b612f9760408301856123c0565b8181036060830152612fa98184612f32565b905095945050505050565b5f81519050612fc28161219d565b92915050565b5f60208284031215612fdd57612fdc61216a565b5b5f612fea84828501612fb4565b91505092915050565b7f4e487b71000000000000000000000000000000000000000000000000000000005f52601260045260245ffd5b5f6040820190506130335f830185612343565b61304060208301846123c0565b939250505056fea2646970667358221220b63f512c593a03b4cf7721ae0d066cff985e2d2dee3ad13da25b20a8030f741d64736f6c634300081c0033",
  "linkReferences": {},
  "deployedLinkReferences": {}
}