{
  "_format": "hh-sol-artifact-1",
  "contractName": "MedicalRecord",
  "sourceName": "contracts/MedicalRecord.sol",
  "abi": [
    {
      "inputs": [
        {
          "internalType": "address",
          "name": "_registries",
          "type": "address"
        },
        {
          "internalType": "address",
          "name": "_accessContract",
          "type": "address"
        }
      ],
      "stateMutability": "nonpayable",
      "type": "constructor"
    },
    {
      "anonymous": false,
      "inputs": [
        {
          "indexed": true,
          "internalType": "uint256",
          "name": "id",
          "type": "uint256"
        },
        {
          "indexed": true,
          "internalType": "address",
          "name": "doctor",
          "type": "address"
        },
        {
          "indexed": true,
          "internalType": "address",
          "name": "patient",
          "type": "address"
        },
        {
          "indexed": false,
          "internalType": "string",
          "name": "cid",
          "type": "string"
        },
        {
          "indexed": false,
          "internalType": "uint256",
          "name": "timestamp",
          "type": "uint256"
        }
      ],
      "name": "RecordAdded",
      "type": "event"
    },
    {
      "inputs": [],
      "name": "accessContract",
      "outputs": [
        {
          "internalType": "contract IAccessRequest",
          "name": "",
          "type": "address"
        }
      ],
      "stateMutability": "view",
      "type": "function"
    },
    {
      "inputs": [
        {
          "internalType": "address",
          "name": "_patient",
          "type": "address"
        },
        {
          "internalType": "string",
          "name": "_cid",
          "type": "string"
        }
      ],
      "name": "addRecord",
      "outputs": [],
      "stateMutability": "nonpayable",
      "type": "function"
    },
    {
      "inputs": [
        {
          "internalType": "address",
          "name": "_patient",
          "type": "address"
        }
      ],
      "name": "getPatientRecords",
      "outputs": [
        {
          "internalType": "uint256[]",
          "name": "",
          "type": "uint256[]"
        }
      ],
      "stateMutability": "view",
      "type": "function"
    },
    {
      "inputs": [
        {
          "internalType": "uint256",
          "name": "_id",
          "type": "uint256"
        },
        {
          "internalType": "uint256",
          "name": "_accessRequestId",
          "type": "uint256"
        }
      ],
      "name": "getRecordCID",
      "outputs": [
        {
          "internalType": "string",
          "name": "",
          "type": "string"
        }
      ],
      "stateMutability": "view",
      "type": "function"
    },
    {
      "inputs": [],
      "name": "recordCount",
      "outputs": [
        {
          "internalType": "uint256",
          "name": "",
          "type": "uint256"
        }
      ],
      "stateMutability": "view",
      "type": "function"
    },
    {
      "inputs": [],
      "name": "registries",
      "outputs": [
        {
          "internalType": "contract IRegistryCheck",
          "name": "",
          "type": "address"
        }
      ],
      "stateMutability": "view",
      "type": "function"
    }
  ],
  "bytecode": "0x608060405234801561001057600080fd5b506040516115cf3803806115cf8339818101604052810190610032919061011d565b816000806101000a81548173ffffffffffffffffffffffffffffffffffffffff021916908373ffffffffffffffffffffffffffffffffffffffff16021790555080600160006101000a81548173ffffffffffffffffffffffffffffffffffffffff021916908373ffffffffffffffffffffffffffffffffffffffff160217905550505061015d565b600080fd5b600073ffffffffffffffffffffffffffffffffffffffff82169050919050565b60006100ea826100bf565b9050919050565b6100fa816100df565b811461010557600080fd5b50565b600081519050610117816100f1565b92915050565b60008060408385031215610134576101336100ba565b5b600061014285828601610108565b925050602061015385828601610108565b9150509250929050565b6114638061016c6000396000f3fe608060405234801561001057600080fd5b50600436106100625760003560e01c806318bd484714610067578063206eba5d1461009757806366858ec8146100b5578063900407bc146100d1578063a64c5f4e146100ef578063dce9b1ff1461010d575b600080fd5b610081600480360381019061007c919061093f565b61013d565b60405161008e9190610a34565b60405180910390f35b61009f6101d4565b6040516100ac9190610ab5565b60405180910390f35b6100cf60048036038101906100ca9190610b35565b6101f8565b005b6100d9610605565b6040516100e69190610ba4565b60405180910390f35b6100f761060b565b6040516101049190610be0565b60405180910390f35b61012760048036038101906101229190610c27565b610631565b6040516101349190610cf7565b60405180910390f35b6060600460008373ffffffffffffffffffffffffffffffffffffffff1673ffffffffffffffffffffffffffffffffffffffff1681526020019081526020016000208054806020026020016040519081016040528092919081815260200182805480156101c857602002820191906000526020600020905b8154815260200190600101908083116101b4575b50505050509050919050565b60008054906101000a900473ffffffffffffffffffffffffffffffffffffffff1681565b60008054906101000a900473ffffffffffffffffffffffffffffffffffffffff1673ffffffffffffffffffffffffffffffffffffffff1663996440c6336040518263ffffffff1660e01b81526004016102519190610d28565b602060405180830381865afa15801561026e573d6000803e3d6000fd5b505050506040513d601f19601f820116820180604052508101906102929190610d7b565b6102d1576040517f08c379a00000000000000000000000000000000000000000000000000000000081526004016102c890610e1a565b60405180910390fd5b60008054906101000a900473ffffffffffffffffffffffffffffffffffffffff1673ffffffffffffffffffffffffffffffffffffffff16638f9c79ed846040518263ffffffff1660e01b815260040161032a9190610d28565b602060405180830381865afa158015610347573d6000803e3d6000fd5b505050506040513d601f19601f8201168201806040525081019061036b9190610d7b565b6103aa576040517f08c379a00000000000000000000000000000000000000000000000000000000081526004016103a190610e86565b60405180910390fd5b6001600260008282546103bd9190610ed5565b925050819055506040518060a0016040528060025481526020013373ffffffffffffffffffffffffffffffffffffffff1681526020018473ffffffffffffffffffffffffffffffffffffffff16815260200183838080601f016020809104026020016040519081016040528093929190818152602001838380828437600081840152601f19601f820116905080830192505050505050508152602001428152506003600060025481526020019081526020016000206000820151816000015560208201518160010160006101000a81548173ffffffffffffffffffffffffffffffffffffffff021916908373ffffffffffffffffffffffffffffffffffffffff16021790555060408201518160020160006101000a81548173ffffffffffffffffffffffffffffffffffffffff021916908373ffffffffffffffffffffffffffffffffffffffff160217905550606082015181600301908161051f919061113a565b5060808201518160040155905050600460008473ffffffffffffffffffffffffffffffffffffffff1673ffffffffffffffffffffffffffffffffffffffff16815260200190815260200160002060025490806001815401808255809150506001900390600052602060002001600090919091909150558273ffffffffffffffffffffffffffffffffffffffff163373ffffffffffffffffffffffffffffffffffffffff166002547e2ffc243c442f7ea3ad846fcdb7b500a2f11e87501ec8ff2b6d023c3139c82d8585426040516105f893929190611248565b60405180910390a4505050565b60025481565b600160009054906101000a900473ffffffffffffffffffffffffffffffffffffffff1681565b606060006003600085815260200190815260200160002090506000816000015403610691576040517f08c379a0000000000000000000000000000000000000000000000000000000008152600401610688906112c6565b60405180910390fd5b60008160020160009054906101000a900473ffffffffffffffffffffffffffffffffffffffff1673ffffffffffffffffffffffffffffffffffffffff163373ffffffffffffffffffffffffffffffffffffffff1614905060008260010160009054906101000a900473ffffffffffffffffffffffffffffffffffffffff1673ffffffffffffffffffffffffffffffffffffffff163373ffffffffffffffffffffffffffffffffffffffff161490506000600160009054906101000a900473ffffffffffffffffffffffffffffffffffffffff1673ffffffffffffffffffffffffffffffffffffffff1663c58343ef876040518263ffffffff1660e01b815260040161079c9190610ba4565b608060405180830381865afa1580156107b9573d6000803e3d6000fd5b505050506040513d601f19601f820116820180604052508101906107dd9190611334565b9350505050600060018260ff1614905083806107f65750825b806107fe5750805b61083d576040517f08c379a00000000000000000000000000000000000000000000000000000000081526004016108349061140d565b60405180910390fd5b84600301805461084c90610f67565b80601f016020809104026020016040519081016040528092919081815260200182805461087890610f67565b80156108c55780601f1061089a576101008083540402835291602001916108c5565b820191906000526020600020905b8154815290600101906020018083116108a857829003601f168201915b50505050509550505050505092915050565b600080fd5b600080fd5b600073ffffffffffffffffffffffffffffffffffffffff82169050919050565b600061090c826108e1565b9050919050565b61091c81610901565b811461092757600080fd5b50565b60008135905061093981610913565b92915050565b600060208284031215610955576109546108d7565b5b60006109638482850161092a565b91505092915050565b600081519050919050565b600082825260208201905092915050565b6000819050602082019050919050565b6000819050919050565b6109ab81610998565b82525050565b60006109bd83836109a2565b60208301905092915050565b6000602082019050919050565b60006109e18261096c565b6109eb8185610977565b93506109f683610988565b8060005b83811015610a27578151610a0e88826109b1565b9750610a19836109c9565b9250506001810190506109fa565b5085935050505092915050565b60006020820190508181036000830152610a4e81846109d6565b905092915050565b6000819050919050565b6000610a7b610a76610a71846108e1565b610a56565b6108e1565b9050919050565b6000610a8d82610a60565b9050919050565b6000610a9f82610a82565b9050919050565b610aaf81610a94565b82525050565b6000602082019050610aca6000830184610aa6565b92915050565b600080fd5b600080fd5b600080fd5b60008083601f840112610af557610af4610ad0565b5b8235905067ffffffffffffffff811115610b1257610b11610ad5565b5b602083019150836001820283011115610b2e57610b2d610ada565b5b9250929050565b600080600060408486031215610b4e57610b4d6108d7565b5b6000610b5c8682870161092a565b935050602084013567ffffffffffffffff811115610b7d57610b7c6108dc565b5b610b8986828701610adf565b92509250509250925092565b610b9e81610998565b82525050565b6000602082019050610bb96000830184610b95565b92915050565b6000610bca82610a82565b9050919050565b610bda81610bbf565b82525050565b6000602082019050610bf56000830184610bd1565b92915050565b610c0481610998565b8114610c0f57600080fd5b50565b600081359050610c2181610bfb565b92915050565b60008060408385031215610c3e57610c3d6108d7565b5b6000610c4c85828601610c12565b9250506020610c5d85828601610c12565b9150509250929050565b600081519050919050565b600082825260208201905092915050565b60005b83811015610ca1578082015181840152602081019050610c86565b60008484015250505050565b6000601f19601f8301169050919050565b6000610cc982610c67565b610cd38185610c72565b9350610ce3818560208601610c83565b610cec81610cad565b840191505092915050565b60006020820190508181036000830152610d118184610cbe565b905092915050565b610d2281610901565b82525050565b6000602082019050610d3d6000830184610d19565b92915050565b60008115159050919050565b610d5881610d43565b8114610d6357600080fd5b50565b600081519050610d7581610d4f565b92915050565b600060208284031215610d9157610d906108d7565b5b6000610d9f84828501610d66565b91505092915050565b7f4f6e6c79207265676973746572656420646f63746f72732063616e206164642060008201527f7265636f72647300000000000000000000000000000000000000000000000000602082015250565b6000610e04602783610c72565b9150610e0f82610da8565b604082019050919050565b60006020820190508181036000830152610e3381610df7565b9050919050565b7f496e76616c69642070617469656e742061646472657373000000000000000000600082015250565b6000610e70601783610c72565b9150610e7b82610e3a565b602082019050919050565b60006020820190508181036000830152610e9f81610e63565b9050919050565b7f4e487b7100000000000000000000000000000000000000000000000000000000600052601160045260246000fd5b6000610ee082610998565b9150610eeb83610998565b9250828201905080821115610f0357610f02610ea6565b5b92915050565b7f4e487b7100000000000000000000000000000000000000000000000000000000600052604160045260246000fd5b7f4e487b7100000000000000000000000000000000000000000000000000000000600052602260045260246000fd5b60006002820490506001821680610f7f57607f821691505b602082108103610f9257610f91610f38565b5b50919050565b60008190508160005260206000209050919050565b60006020601f8301049050919050565b600082821b905092915050565b600060088302610ffa7fffffffffffffffffffffffffffffffffffffffffffffffffffffffffffffffff82610fbd565b6110048683610fbd565b95508019841693508086168417925050509392505050565b600061103761103261102d84610998565b610a56565b610998565b9050919050565b6000819050919050565b6110518361101c565b61106561105d8261103e565b848454610fca565b825550505050565b600090565b61107a61106d565b611085818484611048565b505050565b5b818110156110a95761109e600082611072565b60018101905061108b565b5050565b601f8211156110ee576110bf81610f98565b6110c884610fad565b810160208510156110d7578190505b6110eb6110e385610fad565b83018261108a565b50505b505050565b600082821c905092915050565b6000611111600019846008026110f3565b1980831691505092915050565b600061112a8383611100565b9150826002028217905092915050565b61114382610c67565b67ffffffffffffffff81111561115c5761115b610f09565b5b6111668254610f67565b6111718282856110ad565b600060209050601f8311600181146111a45760008415611192578287015190505b61119c858261111e565b865550611204565b601f1984166111b286610f98565b60005b828110156111da578489015182556001820191506020850194506020810190506111b5565b868310156111f757848901516111f3601f891682611100565b8355505b6001600288020188555050505b505050505050565b82818337600083830152505050565b60006112278385610c72565b935061123483858461120c565b61123d83610cad565b840190509392505050565b6000604082019050818103600083015261126381858761121b565b90506112726020830184610b95565b949350505050565b7f5265636f726420646f6573206e6f742065786973740000000000000000000000600082015250565b60006112b0601583610c72565b91506112bb8261127a565b602082019050919050565b600060208201905081810360008301526112df816112a3565b9050919050565b6000815190506112f581610913565b92915050565b600060ff82169050919050565b611311816112fb565b811461131c57600080fd5b50565b60008151905061132e81611308565b92915050565b6000806000806080858703121561134e5761134d6108d7565b5b600061135c878288016112e6565b945050602061136d878288016112e6565b935050604061137e878288016112e6565b925050606061138f8782880161131f565b91505092959194509250565b7f4e6f7420617574686f72697a656420746f20766965772074686973207265636f60008201527f7264000000000000000000000000000000000000000000000000000000000000602082015250565b60006113f7602283610c72565b91506114028261139b565b604082019050919050565b60006020820190508181036000830152611426816113ea565b905091905056fea264697066735822122029e60e4fc9e84c2bb7a29e8a392a9857a8210e71d2dac91c0704de96ee31efa364736f6c634300081c0033",
  "linkReferences": {},
  "deployedLinkReferences": {}
}