{
  "_format": "hh-sol-artifact-1",
  "contractName": "Telemedicine",
  "sourceName": "contracts/Appointment/Telemedicine.sol",
  "abi": [
    {
      "inputs": [
        {
          "internalType": "address",
          "name": "doctorRegistry",
          "type": "address"
        },
        {
          "internalType": "address",
          "name": "patientRegistry",
          "type": "address"
        }
      ],
      "stateMutability": "nonpayable",
      "type": "constructor"
    },
    {
      "anonymous": false,
      "inputs": [
        {
          "indexed": true,
          "internalType": "uint256",
          "name": "id",
          "type": "uint256"
        },
        {
          "indexed": true,
          "internalType": "address",
          "name": "patient",
          "type": "address"
        },
        {
          "indexed": true,
          "internalType": "address",
          "name": "doctor",
          "type": "address"
        },
        {
          "indexed": false,
          "internalType": "uint256",
          "name": "timestamp",
          "type": "uint256"
        }
      ],
      "name": "AppointmentBooked",
      "type": "event"
    },
    {
      "anonymous": false,
      "inputs": [
        {
          "indexed": true,
          "internalType": "uint256",
          "name": "id",
          "type": "uint256"
        }
      ],
      "name": "AppointmentCanceled",
      "type": "event"
    },
    {
      "anonymous": false,
      "inputs": [
        {
          "indexed": true,
          "internalType": "uint256",
          "name": "id",
          "type": "uint256"
        }
      ],
      "name": "AppointmentCompleted",
      "type": "event"
    },
    {
      "anonymous": false,
      "inputs": [
        {
          "indexed": true,
          "internalType": "uint256",
          "name": "id",
          "type": "uint256"
        },
        {
          "indexed": false,
          "internalType": "uint256",
          "name": "newTimestamp",
          "type": "uint256"
        }
      ],
      "name": "AppointmentRescheduled",
      "type": "event"
    },
    {
      "inputs": [
        {
          "internalType": "uint256",
          "name": "",
          "type": "uint256"
        }
      ],
      "name": "appointments",
      "outputs": [
        {
          "internalType": "address",
          "name": "patient",
          "type": "address"
        },
        {
          "internalType": "address",
          "name": "doctor",
          "type": "address"
        },
        {
          "internalType": "uint256",
          "name": "timestamp",
          "type": "uint256"
        },
        {
          "internalType": "enum Telemedicine.Status",
          "name": "status",
          "type": "uint8"
        }
      ],
      "stateMutability": "view",
      "type": "function"
    },
    {
      "inputs": [
        {
          "internalType": "address",
          "name": "doctor",
          "type": "address"
        }
      ],
      "name": "bookAppointment",
      "outputs": [],
      "stateMutability": "nonpayable",
      "type": "function"
    },
    {
      "inputs": [
        {
          "internalType": "uint256",
          "name": "id",
          "type": "uint256"
        }
      ],
      "name": "cancelAppointment",
      "outputs": [],
      "stateMutability": "nonpayable",
      "type": "function"
    },
    {
      "inputs": [
        {
          "internalType": "uint256",
          "name": "id",
          "type": "uint256"
        }
      ],
      "name": "completeAppointment",
      "outputs": [],
      "stateMutability": "nonpayable",
      "type": "function"
    },
    {
      "inputs": [],
      "name": "doctors",
      "outputs": [
        {
          "internalType": "contract DoctorRegistry",
          "name": "",
          "type": "address"
        }
      ],
      "stateMutability": "view",
      "type": "function"
    },
    {
      "inputs": [
        {
          "internalType": "uint256",
          "name": "id",
          "type": "uint256"
        }
      ],
      "name": "getAppointment",
      "outputs": [
        {
          "internalType": "address",
          "name": "patient",
          "type": "address"
        },
        {
          "internalType": "address",
          "name": "doctor",
          "type": "address"
        },
        {
          "internalType": "uint256",
          "name": "timestamp",
          "type": "uint256"
        },
        {
          "internalType": "enum Telemedicine.Status",
          "name": "status",
          "type": "uint8"
        }
      ],
      "stateMutability": "view",
      "type": "function"
    },
    {
      "inputs": [],
      "name": "nextAppointmentId",
      "outputs": [
        {
          "internalType": "uint256",
          "name": "",
          "type": "uint256"
        }
      ],
      "stateMutability": "view",
      "type": "function"
    },
    {
      "inputs": [],
      "name": "patients",
      "outputs": [
        {
          "internalType": "contract PatientRegistry",
          "name": "",
          "type": "address"
        }
      ],
      "stateMutability": "view",
      "type": "function"
    },
    {
      "inputs": [
        {
          "internalType": "uint256",
          "name": "id",
          "type": "uint256"
        },
        {
          "internalType": "uint256",
          "name": "newTimestamp",
          "type": "uint256"
        }
      ],
      "name": "rescheduleAppointment",
      "outputs": [],
      "stateMutability": "nonpayable",
      "type": "function"
    }
  ],
  "bytecode": "0x608060405234801561001057600080fd5b506040516113513803806113518339818101604052810190610032919061011d565b816000806101000a81548173ffffffffffffffffffffffffffffffffffffffff021916908373ffffffffffffffffffffffffffffffffffffffff16021790555080600160006101000a81548173ffffffffffffffffffffffffffffffffffffffff021916908373ffffffffffffffffffffffffffffffffffffffff160217905550505061015d565b600080fd5b600073ffffffffffffffffffffffffffffffffffffffff82169050919050565b60006100ea826100bf565b9050919050565b6100fa816100df565b811461010557600080fd5b50565b600081519050610117816100f1565b92915050565b60008060408385031215610134576101336100ba565b5b600061014285828601610108565b925050602061015385828601610108565b9150509250929050565b6111e58061016c6000396000f3fe608060405234801561001057600080fd5b50600436106100935760003560e01c80634095b117116100665780634095b1171461013a57806368f4e9631461015657806389dcc4a214610172578063a7e6440514610190578063d2bcd6eb146101ac57610093565b80630d943da21461009857806312dc9013146100cb578063134a25c5146100fe5780632203ec2d1461011c575b600080fd5b6100b260048036038101906100ad9190610b7c565b6101c8565b6040516100c29493929190610c70565b60405180910390f35b6100e560048036038101906100e09190610b7c565b610256565b6040516100f59493929190610c70565b60405180910390f35b6101066102d3565b6040516101139190610d14565b60405180910390f35b6101246102f9565b6040516101319190610d50565b60405180910390f35b610154600480360381019061014f9190610b7c565b61031d565b005b610170600480360381019061016b9190610d97565b61049c565b005b61017a610813565b6040516101879190610dc4565b60405180910390f35b6101aa60048036038101906101a59190610b7c565b610819565b005b6101c660048036038101906101c19190610ddf565b610998565b005b60008060008060006002600087815260200190815260200160002090508060000160009054906101000a900473ffffffffffffffffffffffffffffffffffffffff168160010160009054906101000a900473ffffffffffffffffffffffffffffffffffffffff1682600201548360030160009054906101000a900460ff169450945094509450509193509193565b60026020528060005260406000206000915090508060000160009054906101000a900473ffffffffffffffffffffffffffffffffffffffff16908060010160009054906101000a900473ffffffffffffffffffffffffffffffffffffffff16908060020154908060030160009054906101000a900460ff16905084565b600160009054906101000a900473ffffffffffffffffffffffffffffffffffffffff1681565b60008054906101000a900473ffffffffffffffffffffffffffffffffffffffff1681565b60006002600083815260200190815260200160002090506000600281111561034857610347610bf9565b5b8160030160009054906101000a900460ff16600281111561036c5761036b610bf9565b5b146103ac576040517f08c379a00000000000000000000000000000000000000000000000000000000081526004016103a390610e7c565b60405180910390fd5b8060010160009054906101000a900473ffffffffffffffffffffffffffffffffffffffff1673ffffffffffffffffffffffffffffffffffffffff163373ffffffffffffffffffffffffffffffffffffffff161461043e576040517f08c379a000000000000000000000000000000000000000000000000000000000815260040161043590610ee8565b60405180910390fd5b60018160030160006101000a81548160ff0219169083600281111561046657610465610bf9565b5b0217905550817f96f7f7d72a3fe4b137949271ceab16ab2121be2faeda69bb82794730701668ca60405160405180910390a25050565b600160009054906101000a900473ffffffffffffffffffffffffffffffffffffffff1673ffffffffffffffffffffffffffffffffffffffff16638f9c79ed336040518263ffffffff1660e01b81526004016104f79190610f08565b602060405180830381865afa158015610514573d6000803e3d6000fd5b505050506040513d601f19601f820116820180604052508101906105389190610f5b565b610577576040517f08c379a000000000000000000000000000000000000000000000000000000000815260040161056e90610fd4565b60405180910390fd5b60008054906101000a900473ffffffffffffffffffffffffffffffffffffffff1673ffffffffffffffffffffffffffffffffffffffff1663996440c6826040518263ffffffff1660e01b81526004016105d09190610f08565b602060405180830381865afa1580156105ed573d6000803e3d6000fd5b505050506040513d601f19601f820116820180604052508101906106119190610f5b565b610650576040517f08c379a000000000000000000000000000000000000000000000000000000000815260040161064790611040565b60405180910390fd5b60405180608001604052803373ffffffffffffffffffffffffffffffffffffffff1681526020018273ffffffffffffffffffffffffffffffffffffffff168152602001428152602001600060028111156106ad576106ac610bf9565b5b81525060026000600354815260200190815260200160002060008201518160000160006101000a81548173ffffffffffffffffffffffffffffffffffffffff021916908373ffffffffffffffffffffffffffffffffffffffff16021790555060208201518160010160006101000a81548173ffffffffffffffffffffffffffffffffffffffff021916908373ffffffffffffffffffffffffffffffffffffffff1602179055506040820151816002015560608201518160030160006101000a81548160ff0219169083600281111561078857610787610bf9565b5b02179055509050508073ffffffffffffffffffffffffffffffffffffffff163373ffffffffffffffffffffffffffffffffffffffff166003547facb872fcf123b50205564145b9e085c652fa06f3d23ae78b288f5aa8cfaaccc3426040516107f09190610dc4565b60405180910390a46003600081548092919061080b9061108f565b919050555050565b60035481565b60006002600083815260200190815260200160002090506000600281111561084457610843610bf9565b5b8160030160009054906101000a900460ff16600281111561086857610867610bf9565b5b146108a8576040517f08c379a000000000000000000000000000000000000000000000000000000000815260040161089f90610e7c565b60405180910390fd5b8060000160009054906101000a900473ffffffffffffffffffffffffffffffffffffffff1673ffffffffffffffffffffffffffffffffffffffff163373ffffffffffffffffffffffffffffffffffffffff161461093a576040517f08c379a000000000000000000000000000000000000000000000000000000000815260040161093190611123565b60405180910390fd5b60028160030160006101000a81548160ff0219169083600281111561096257610961610bf9565b5b0217905550817fdc7f2cda20bc0e18611901fd7c164f0321857fc57b3a591e28dcf34151351c9660405160405180910390a25050565b6000600260008481526020019081526020016000209050600060028111156109c3576109c2610bf9565b5b8160030160009054906101000a900460ff1660028111156109e7576109e6610bf9565b5b14610a27576040517f08c379a0000000000000000000000000000000000000000000000000000000008152600401610a1e90610e7c565b60405180910390fd5b8060000160009054906101000a900473ffffffffffffffffffffffffffffffffffffffff1673ffffffffffffffffffffffffffffffffffffffff163373ffffffffffffffffffffffffffffffffffffffff1614610ab9576040517f08c379a0000000000000000000000000000000000000000000000000000000008152600401610ab090611123565b60405180910390fd5b428211610afb576040517f08c379a0000000000000000000000000000000000000000000000000000000008152600401610af29061118f565b60405180910390fd5b818160020181905550827f02a47dec8390aadd32619224cf716c8e913248227286409afde32bd5ffdf121b83604051610b349190610dc4565b60405180910390a2505050565b600080fd5b6000819050919050565b610b5981610b46565b8114610b6457600080fd5b50565b600081359050610b7681610b50565b92915050565b600060208284031215610b9257610b91610b41565b5b6000610ba084828501610b67565b91505092915050565b600073ffffffffffffffffffffffffffffffffffffffff82169050919050565b6000610bd482610ba9565b9050919050565b610be481610bc9565b82525050565b610bf381610b46565b82525050565b7f4e487b7100000000000000000000000000000000000000000000000000000000600052602160045260246000fd5b60038110610c3957610c38610bf9565b5b50565b6000819050610c4a82610c28565b919050565b6000610c5a82610c3c565b9050919050565b610c6a81610c4f565b82525050565b6000608082019050610c856000830187610bdb565b610c926020830186610bdb565b610c9f6040830185610bea565b610cac6060830184610c61565b95945050505050565b6000819050919050565b6000610cda610cd5610cd084610ba9565b610cb5565b610ba9565b9050919050565b6000610cec82610cbf565b9050919050565b6000610cfe82610ce1565b9050919050565b610d0e81610cf3565b82525050565b6000602082019050610d296000830184610d05565b92915050565b6000610d3a82610ce1565b9050919050565b610d4a81610d2f565b82525050565b6000602082019050610d656000830184610d41565b92915050565b610d7481610bc9565b8114610d7f57600080fd5b50565b600081359050610d9181610d6b565b92915050565b600060208284031215610dad57610dac610b41565b5b6000610dbb84828501610d82565b91505092915050565b6000602082019050610dd96000830184610bea565b92915050565b60008060408385031215610df657610df5610b41565b5b6000610e0485828601610b67565b9250506020610e1585828601610b67565b9150509250929050565b600082825260208201905092915050565b7f4e6f742061637469766500000000000000000000000000000000000000000000600082015250565b6000610e66600a83610e1f565b9150610e7182610e30565b602082019050919050565b60006020820190508181036000830152610e9581610e59565b9050919050565b7f4f6e6c7920646f63746f72000000000000000000000000000000000000000000600082015250565b6000610ed2600b83610e1f565b9150610edd82610e9c565b602082019050919050565b60006020820190508181036000830152610f0181610ec5565b9050919050565b6000602082019050610f1d6000830184610bdb565b92915050565b60008115159050919050565b610f3881610f23565b8114610f4357600080fd5b50565b600081519050610f5581610f2f565b92915050565b600060208284031215610f7157610f70610b41565b5b6000610f7f84828501610f46565b91505092915050565b7f4e6f74206120726567697374657265642070617469656e740000000000000000600082015250565b6000610fbe601883610e1f565b9150610fc982610f88565b602082019050919050565b60006020820190508181036000830152610fed81610fb1565b9050919050565b7f4e6f742061207265676973746572656420646f63746f72000000000000000000600082015250565b600061102a601783610e1f565b915061103582610ff4565b602082019050919050565b600060208201905081810360008301526110598161101d565b9050919050565b7f4e487b7100000000000000000000000000000000000000000000000000000000600052601160045260246000fd5b600061109a82610b46565b91507fffffffffffffffffffffffffffffffffffffffffffffffffffffffffffffffff82036110cc576110cb611060565b5b600182019050919050565b7f4f6e6c792070617469656e740000000000000000000000000000000000000000600082015250565b600061110d600c83610e1f565b9150611118826110d7565b602082019050919050565b6000602082019050818103600083015261113c81611100565b9050919050565b7f496e76616c69642074696d650000000000000000000000000000000000000000600082015250565b6000611179600c83610e1f565b915061118482611143565b602082019050919050565b600060208201905081810360008301526111a88161116c565b905091905056fea26469706673582212208b529ddd7b5dd6db441af61917a294870db6bc5ed70c8adfd58a42e0e20725b464736f6c634300081c0033",
  "linkReferences": {},
  "deployedLinkReferences": {}
}