{
  "_format": "hh-sol-artifact-1",
  "contractName": "MockRegistry",
  "sourceName": "contracts/MockRegistry.sol",
  "abi": [
    {
      "inputs": [],
      "name": "doctorCount",
      "outputs": [
        {
          "internalType": "uint256",
          "name": "",
          "type": "uint256"
        }
      ],
      "stateMutability": "view",
      "type": "function"
    },
    {
      "inputs": [
        {
          "internalType": "uint256",
          "name": "",
          "type": "uint256"
        }
      ],
      "name": "doctorList",
      "outputs": [
        {
          "internalType": "address",
          "name": "",
          "type": "address"
        }
      ],
      "stateMutability": "view",
      "type": "function"
    },
    {
      "inputs": [],
      "name": "getDoctorList",
      "outputs": [
        {
          "internalType": "address[]",
          "name": "",
          "type": "address[]"
        }
      ],
      "stateMutability": "view",
      "type": "function"
    },
    {
      "inputs": [
        {
          "internalType": "address",
          "name": "",
          "type": "address"
        }
      ],
      "name": "insurers",
      "outputs": [
        {
          "internalType": "bool",
          "name": "",
          "type": "bool"
        }
      ],
      "stateMutability": "view",
      "type": "function"
    },
    {
      "inputs": [
        {
          "internalType": "address",
          "name": "_addr",
          "type": "address"
        }
      ],
      "name": "isDoctor",
      "outputs": [
        {
          "internalType": "bool",
          "name": "",
          "type": "bool"
        }
      ],
      "stateMutability": "view",
      "type": "function"
    },
    {
      "inputs": [
        {
          "internalType": "address",
          "name": "_addr",
          "type": "address"
        }
      ],
      "name": "isInsurer",
      "outputs": [
        {
          "internalType": "bool",
          "name": "",
          "type": "bool"
        }
      ],
      "stateMutability": "view",
      "type": "function"
    },
    {
      "inputs": [
        {
          "internalType": "address",
          "name": "_addr",
          "type": "address"
        }
      ],
      "name": "isPatient",
      "outputs": [
        {
          "internalType": "bool",
          "name": "",
          "type": "bool"
        }
      ],
      "stateMutability": "view",
      "type": "function"
    },
    {
      "inputs": [
        {
          "internalType": "address",
          "name": "_addr",
          "type": "address"
        }
      ],
      "name": "mockRegister",
      "outputs": [],
      "stateMutability": "nonpayable",
      "type": "function"
    },
    {
      "inputs": [
        {
          "internalType": "address",
          "name": "_addr",
          "type": "address"
        }
      ],
      "name": "mockRegisterInsurer",
      "outputs": [],
      "stateMutability": "nonpayable",
      "type": "function"
    },
    {
      "inputs": [
        {
          "internalType": "address",
          "name": "",
          "type": "address"
        }
      ],
      "name": "registered",
      "outputs": [
        {
          "internalType": "bool",
          "name": "",
          "type": "bool"
        }
      ],
      "stateMutability": "view",
      "type": "function"
    }
  ],
  "bytecode": "0x6080604052348015600f57600080fd5b5061084d8061001f6000396000f3fe608060405234801561001057600080fd5b506004361061009e5760003560e01c8063a71aefc911610066578063a71aefc91461016d578063b2dd5c071461018b578063da7897e2146101bb578063de45aeef146101eb578063fe1f6d841461021b5761009e565b8063127ca4b4146100a35780631b1b0c17146100d357806378522bc4146100ef5780638f9c79ed1461010d578063996440c61461013d575b600080fd5b6100bd60048036038101906100b891906105f5565b610237565b6040516100ca9190610663565b60405180910390f35b6100ed60048036038101906100e891906106aa565b610276565b005b6100f76102d1565b60405161010491906106e6565b60405180910390f35b610127600480360381019061012291906106aa565b6102de565b604051610134919061071c565b60405180910390f35b610157600480360381019061015291906106aa565b610333565b604051610164919061071c565b60405180910390f35b610175610388565b60405161018291906107f5565b60405180910390f35b6101a560048036038101906101a091906106aa565b610416565b6040516101b2919061071c565b60405180910390f35b6101d560048036038101906101d091906106aa565b610436565b6040516101e2919061071c565b60405180910390f35b610205600480360381019061020091906106aa565b61048c565b604051610212919061071c565b60405180910390f35b610235600480360381019061023091906106aa565b6104ac565b005b6001818154811061024757600080fd5b906000526020600020016000915054906101000a900473ffffffffffffffffffffffffffffffffffffffff1681565b6001600260008373ffffffffffffffffffffffffffffffffffffffff1673ffffffffffffffffffffffffffffffffffffffff16815260200190815260200160002060006101000a81548160ff02191690831515021790555050565b6000600180549050905090565b60008060008373ffffffffffffffffffffffffffffffffffffffff1673ffffffffffffffffffffffffffffffffffffffff16815260200190815260200160002060009054906101000a900460ff169050919050565b60008060008373ffffffffffffffffffffffffffffffffffffffff1673ffffffffffffffffffffffffffffffffffffffff16815260200190815260200160002060009054906101000a900460ff169050919050565b6060600180548060200260200160405190810160405280929190818152602001828054801561040c57602002820191906000526020600020905b8160009054906101000a900473ffffffffffffffffffffffffffffffffffffffff1673ffffffffffffffffffffffffffffffffffffffff16815260200190600101908083116103c2575b5050505050905090565b60006020528060005260406000206000915054906101000a900460ff1681565b6000600260008373ffffffffffffffffffffffffffffffffffffffff1673ffffffffffffffffffffffffffffffffffffffff16815260200190815260200160002060009054906101000a900460ff169050919050565b60026020528060005260406000206000915054906101000a900460ff1681565b6000808273ffffffffffffffffffffffffffffffffffffffff1673ffffffffffffffffffffffffffffffffffffffff16815260200190815260200160002060009054906101000a900460ff166105b75760016000808373ffffffffffffffffffffffffffffffffffffffff1673ffffffffffffffffffffffffffffffffffffffff16815260200190815260200160002060006101000a81548160ff0219169083151502179055506001819080600181540180825580915050600190039060005260206000200160009091909190916101000a81548173ffffffffffffffffffffffffffffffffffffffff021916908373ffffffffffffffffffffffffffffffffffffffff1602179055505b50565b600080fd5b6000819050919050565b6105d2816105bf565b81146105dd57600080fd5b50565b6000813590506105ef816105c9565b92915050565b60006020828403121561060b5761060a6105ba565b5b6000610619848285016105e0565b91505092915050565b600073ffffffffffffffffffffffffffffffffffffffff82169050919050565b600061064d82610622565b9050919050565b61065d81610642565b82525050565b60006020820190506106786000830184610654565b92915050565b61068781610642565b811461069257600080fd5b50565b6000813590506106a48161067e565b92915050565b6000602082840312156106c0576106bf6105ba565b5b60006106ce84828501610695565b91505092915050565b6106e0816105bf565b82525050565b60006020820190506106fb60008301846106d7565b92915050565b60008115159050919050565b61071681610701565b82525050565b6000602082019050610731600083018461070d565b92915050565b600081519050919050565b600082825260208201905092915050565b6000819050602082019050919050565b61076c81610642565b82525050565b600061077e8383610763565b60208301905092915050565b6000602082019050919050565b60006107a282610737565b6107ac8185610742565b93506107b783610753565b8060005b838110156107e85781516107cf8882610772565b97506107da8361078a565b9250506001810190506107bb565b5085935050505092915050565b6000602082019050818103600083015261080f8184610797565b90509291505056fea2646970667358221220a065a608609a35fc9011825a5885162d5880473eedf5c41b0ffa8f1d04e1875464736f6c634300081c0033",
  "linkReferences": {},
  "deployedLinkReferences": {}
}