{
  "_format": "hh-sol-artifact-1",
  "contractName": "DoctorRegistry",
  "sourceName": "contracts/Registration/DoctorRegistry.sol",
  "abi": [
    {
      "inputs": [],
      "stateMutability": "nonpayable",
      "type": "constructor"
    },
    {
      "inputs": [
        {
          "internalType": "address",
          "name": "owner",
          "type": "address"
        }
      ],
      "name": "OwnableInvalidOwner",
      "type": "error"
    },
    {
      "inputs": [
        {
          "internalType": "address",
          "name": "account",
          "type": "address"
        }
      ],
      "name": "OwnableUnauthorizedAccount",
      "type": "error"
    },
    {
      "anonymous": false,
      "inputs": [
        {
          "indexed": true,
          "internalType": "address",
          "name": "doctor",
          "type": "address"
        },
        {
          "indexed": false,
          "internalType": "string",
          "name": "name",
          "type": "string"
        },
        {
          "indexed": false,
          "internalType": "string",
          "name": "specialization",
          "type": "string"
        }
      ],
      "name": "DoctorAdded",
      "type": "event"
    },
    {
      "anonymous": false,
      "inputs": [
        {
          "indexed": true,
          "internalType": "address",
          "name": "doctor",
          "type": "address"
        }
      ],
      "name": "DoctorRemoved",
      "type": "event"
    },
    {
      "anonymous": false,
      "inputs": [
        {
          "indexed": true,
          "internalType": "address",
          "name": "previousOwner",
          "type": "address"
        },
        {
          "indexed": true,
          "internalType": "address",
          "name": "newOwner",
          "type": "address"
        }
      ],
      "name": "OwnershipTransferred",
      "type": "event"
    },
    {
      "inputs": [
        {
          "internalType": "address",
          "name": "doctor",
          "type": "address"
        },
        {
          "internalType": "string",
          "name": "name",
          "type": "string"
        },
        {
          "internalType": "string",
          "name": "specialization",
          "type": "string"
        },
        {
          "internalType": "string",
          "name": "ipfsProfile",
          "type": "string"
        },
        {
          "internalType": "string",
          "name": "profileCID",
          "type": "string"
        }
      ],
      "name": "addDoctor",
      "outputs": [],
      "stateMutability": "nonpayable",
      "type": "function"
    },
    {
      "inputs": [],
      "name": "doctorCount",
      "outputs": [
        {
          "internalType": "uint256",
          "name": "",
          "type": "uint256"
        }
      ],
      "stateMutability": "view",
      "type": "function"
    },
    {
      "inputs": [
        {
          "internalType": "address",
          "name": "",
          "type": "address"
        }
      ],
      "name": "doctors",
      "outputs": [
        {
          "internalType": "bool",
          "name": "exists",
          "type": "bool"
        },
        {
          "internalType": "string",
          "name": "name",
          "type": "string"
        },
        {
          "internalType": "string",
          "name": "specialization",
          "type": "string"
        },
        {
          "internalType": "string",
          "name": "profileCID",
          "type": "string"
        },
        {
          "internalType": "string",
          "name": "ipfsProfile",
          "type": "string"
        }
      ],
      "stateMutability": "view",
      "type": "function"
    },
    {
      "inputs": [],
      "name": "getDoctorList",
      "outputs": [
        {
          "internalType": "address[]",
          "name": "",
          "type": "address[]"
        }
      ],
      "stateMutability": "view",
      "type": "function"
    },
    {
      "inputs": [
        {
          "internalType": "address",
          "name": "addr",
          "type": "address"
        }
      ],
      "name": "isDoctor",
      "outputs": [
        {
          "internalType": "bool",
          "name": "",
          "type": "bool"
        }
      ],
      "stateMutability": "view",
      "type": "function"
    },
    {
      "inputs": [],
      "name": "owner",
      "outputs": [
        {
          "internalType": "address",
          "name": "",
          "type": "address"
        }
      ],
      "stateMutability": "view",
      "type": "function"
    },
    {
      "inputs": [
        {
          "internalType": "address",
          "name": "doctor",
          "type": "address"
        }
      ],
      "name": "removeDoctor",
      "outputs": [],
      "stateMutability": "nonpayable",
      "type": "function"
    },
    {
      "inputs": [],
      "name": "renounceOwnership",
      "outputs": [],
      "stateMutability": "nonpayable",
      "type": "function"
    },
    {
      "inputs": [
        {
          "internalType": "address",
          "name": "newOwner",
          "type": "address"
        }
      ],
      "name": "transferOwnership",
      "outputs": [],
      "stateMutability": "nonpayable",
      "type": "function"
    }
  ],
  "bytecode": "0x608060405234801561001057600080fd5b5033600073ffffffffffffffffffffffffffffffffffffffff168173ffffffffffffffffffffffffffffffffffffffff16036100845760006040517f1e4fbdf700000000000000000000000000000000000000000000000000000000815260040161007b919061019e565b60405180910390fd5b6100938161009960201b60201c565b506101b9565b60008060009054906101000a900473ffffffffffffffffffffffffffffffffffffffff169050816000806101000a81548173ffffffffffffffffffffffffffffffffffffffff021916908373ffffffffffffffffffffffffffffffffffffffff1602179055508173ffffffffffffffffffffffffffffffffffffffff168173ffffffffffffffffffffffffffffffffffffffff167f8be0079c531659141344cd1fd0a4f28419497f9722a3daafe3b4186f6b6457e060405160405180910390a35050565b600073ffffffffffffffffffffffffffffffffffffffff82169050919050565b60006101888261015d565b9050919050565b6101988161017d565b82525050565b60006020820190506101b3600083018461018f565b92915050565b6118ca806101c86000396000f3fe608060405234801561001057600080fd5b50600436106100935760003560e01c806398fc90e91161006657806398fc90e9146100fa578063996440c614610116578063a71aefc914610146578063a9583c2214610164578063f2fde38b1461019857610093565b8063715018a61461009857806378522bc4146100a25780638da5cb5b146100c05780639537dfcd146100de575b600080fd5b6100a06101b4565b005b6100aa6101c8565b6040516100b79190610e2f565b60405180910390f35b6100c86101d5565b6040516100d59190610e8b565b60405180910390f35b6100f860048036038101906100f3919061108c565b6101fe565b005b610114600480360381019061010f9190611184565b610550565b005b610130600480360381019061012b9190611184565b610896565b60405161013d91906111cc565b60405180910390f35b61014e6108ef565b60405161015b91906112a5565b60405180910390f35b61017e60048036038101906101799190611184565b61097d565b60405161018f959493929190611346565b60405180910390f35b6101b260048036038101906101ad9190611184565b610be0565b005b6101bc610c66565b6101c66000610ced565b565b6000600280549050905090565b60008060009054906101000a900473ffffffffffffffffffffffffffffffffffffffff16905090565b610206610c66565b600160008973ffffffffffffffffffffffffffffffffffffffff1673ffffffffffffffffffffffffffffffffffffffff16815260200190815260200160002060000160009054906101000a900460ff1615610296576040517f08c379a000000000000000000000000000000000000000000000000000000000815260040161028d90611401565b60405180910390fd5b6040518060a0016040528060011515815260200188888080601f016020809104026020016040519081016040528093929190818152602001838380828437600081840152601f19601f82011690508083019250505050505050815260200186868080601f016020809104026020016040519081016040528093929190818152602001838380828437600081840152601f19601f82011690508083019250505050505050815260200184848080601f016020809104026020016040519081016040528093929190818152602001838380828437600081840152601f19601f82011690508083019250505050505050815260200182815250600160008a73ffffffffffffffffffffffffffffffffffffffff1673ffffffffffffffffffffffffffffffffffffffff16815260200190815260200160002060008201518160000160006101000a81548160ff0219169083151502179055506020820151816001019081610400919061162d565b506040820151816002019081610416919061162d565b50606082015181600301908161042c919061162d565b506080820151816004019081610442919061162d565b50905050600280549050600360008a73ffffffffffffffffffffffffffffffffffffffff1673ffffffffffffffffffffffffffffffffffffffff168152602001908152602001600020819055506002889080600181540180825580915050600190039060005260206000200160009091909190916101000a81548173ffffffffffffffffffffffffffffffffffffffff021916908373ffffffffffffffffffffffffffffffffffffffff1602179055508773ffffffffffffffffffffffffffffffffffffffff167f9388661dcd7dc6cff9b4e22ab9459ac0a2682f86cb52fc7a669a6e7f062bce4c8888888860405161053e949392919061172c565b60405180910390a25050505050505050565b610558610c66565b600160008273ffffffffffffffffffffffffffffffffffffffff1673ffffffffffffffffffffffffffffffffffffffff16815260200190815260200160002060000160009054906101000a900460ff166105e7576040517f08c379a00000000000000000000000000000000000000000000000000000000081526004016105de906117b3565b60405180910390fd5b6000600360008373ffffffffffffffffffffffffffffffffffffffff1673ffffffffffffffffffffffffffffffffffffffff1681526020019081526020016000205490506000600160028054905061063f9190611802565b905080821461072e5760006002828154811061065e5761065d611836565b5b9060005260206000200160009054906101000a900473ffffffffffffffffffffffffffffffffffffffff16905080600284815481106106a05761069f611836565b5b9060005260206000200160006101000a81548173ffffffffffffffffffffffffffffffffffffffff021916908373ffffffffffffffffffffffffffffffffffffffff16021790555082600360008373ffffffffffffffffffffffffffffffffffffffff1673ffffffffffffffffffffffffffffffffffffffff16815260200190815260200160002081905550505b60028054806107405761073f611865565b5b6001900381819060005260206000200160006101000a81549073ffffffffffffffffffffffffffffffffffffffff02191690559055600160008473ffffffffffffffffffffffffffffffffffffffff1673ffffffffffffffffffffffffffffffffffffffff168152602001908152602001600020600080820160006101000a81549060ff02191690556001820160006107d99190610db9565b6002820160006107e99190610db9565b6003820160006107f99190610db9565b6004820160006108099190610db9565b5050600360008473ffffffffffffffffffffffffffffffffffffffff1673ffffffffffffffffffffffffffffffffffffffff168152602001908152602001600020600090558273ffffffffffffffffffffffffffffffffffffffff167f493d7cf6a7c880406a55654d6727464ea088bd01d40498e1987a327e68961ab860405160405180910390a2505050565b6000600160008373ffffffffffffffffffffffffffffffffffffffff1673ffffffffffffffffffffffffffffffffffffffff16815260200190815260200160002060000160009054906101000a900460ff169050919050565b6060600280548060200260200160405190810160405280929190818152602001828054801561097357602002820191906000526020600020905b8160009054906101000a900473ffffffffffffffffffffffffffffffffffffffff1673ffffffffffffffffffffffffffffffffffffffff1681526020019060010190808311610929575b5050505050905090565b60016020528060005260406000206000915090508060000160009054906101000a900460ff16908060010180546109b390611450565b80601f01602080910402602001604051908101604052809291908181526020018280546109df90611450565b8015610a2c5780601f10610a0157610100808354040283529160200191610a2c565b820191906000526020600020905b815481529060010190602001808311610a0f57829003601f168201915b505050505090806002018054610a4190611450565b80601f0160208091040260200160405190810160405280929190818152602001828054610a6d90611450565b8015610aba5780601f10610a8f57610100808354040283529160200191610aba565b820191906000526020600020905b815481529060010190602001808311610a9d57829003601f168201915b505050505090806003018054610acf90611450565b80601f0160208091040260200160405190810160405280929190818152602001828054610afb90611450565b8015610b485780601f10610b1d57610100808354040283529160200191610b48565b820191906000526020600020905b815481529060010190602001808311610b2b57829003601f168201915b505050505090806004018054610b5d90611450565b80601f0160208091040260200160405190810160405280929190818152602001828054610b8990611450565b8015610bd65780601f10610bab57610100808354040283529160200191610bd6565b820191906000526020600020905b815481529060010190602001808311610bb957829003601f168201915b5050505050905085565b610be8610c66565b600073ffffffffffffffffffffffffffffffffffffffff168173ffffffffffffffffffffffffffffffffffffffff1603610c5a5760006040517f1e4fbdf7000000000000000000000000000000000000000000000000000000008152600401610c519190610e8b565b60405180910390fd5b610c6381610ced565b50565b610c6e610db1565b73ffffffffffffffffffffffffffffffffffffffff16610c8c6101d5565b73ffffffffffffffffffffffffffffffffffffffff1614610ceb57610caf610db1565b6040517f118cdaa7000000000000000000000000000000000000000000000000000000008152600401610ce29190610e8b565b60405180910390fd5b565b60008060009054906101000a900473ffffffffffffffffffffffffffffffffffffffff169050816000806101000a81548173ffffffffffffffffffffffffffffffffffffffff021916908373ffffffffffffffffffffffffffffffffffffffff1602179055508173ffffffffffffffffffffffffffffffffffffffff168173ffffffffffffffffffffffffffffffffffffffff167f8be0079c531659141344cd1fd0a4f28419497f9722a3daafe3b4186f6b6457e060405160405180910390a35050565b600033905090565b508054610dc590611450565b6000825580601f10610dd75750610df6565b601f016020900490600052602060002090810190610df59190610df9565b5b50565b5b80821115610e12576000816000905550600101610dfa565b5090565b6000819050919050565b610e2981610e16565b82525050565b6000602082019050610e446000830184610e20565b92915050565b600073ffffffffffffffffffffffffffffffffffffffff82169050919050565b6000610e7582610e4a565b9050919050565b610e8581610e6a565b82525050565b6000602082019050610ea06000830184610e7c565b92915050565b6000604051905090565b600080fd5b600080fd5b610ec381610e6a565b8114610ece57600080fd5b50565b600081359050610ee081610eba565b92915050565b600080fd5b600080fd5b600080fd5b60008083601f840112610f0b57610f0a610ee6565b5b8235905067ffffffffffffffff811115610f2857610f27610eeb565b5b602083019150836001820283011115610f4457610f43610ef0565b5b9250929050565b600080fd5b6000601f19601f8301169050919050565b7f4e487b7100000000000000000000000000000000000000000000000000000000600052604160045260246000fd5b610f9982610f50565b810181811067ffffffffffffffff82111715610fb857610fb7610f61565b5b80604052505050565b6000610fcb610ea6565b9050610fd78282610f90565b919050565b600067ffffffffffffffff821115610ff757610ff6610f61565b5b61100082610f50565b9050602081019050919050565b82818337600083830152505050565b600061102f61102a84610fdc565b610fc1565b90508281526020810184848401111561104b5761104a610f4b565b5b61105684828561100d565b509392505050565b600082601f83011261107357611072610ee6565b5b813561108384826020860161101c565b91505092915050565b60008060008060008060008060a0898b0312156110ac576110ab610eb0565b5b60006110ba8b828c01610ed1565b985050602089013567ffffffffffffffff8111156110db576110da610eb5565b5b6110e78b828c01610ef5565b9750975050604089013567ffffffffffffffff81111561110a57611109610eb5565b5b6111168b828c01610ef5565b9550955050606089013567ffffffffffffffff81111561113957611138610eb5565b5b6111458b828c01610ef5565b9350935050608089013567ffffffffffffffff81111561116857611167610eb5565b5b6111748b828c0161105e565b9150509295985092959890939650565b60006020828403121561119a57611199610eb0565b5b60006111a884828501610ed1565b91505092915050565b60008115159050919050565b6111c6816111b1565b82525050565b60006020820190506111e160008301846111bd565b92915050565b600081519050919050565b600082825260208201905092915050565b6000819050602082019050919050565b61121c81610e6a565b82525050565b600061122e8383611213565b60208301905092915050565b6000602082019050919050565b6000611252826111e7565b61125c81856111f2565b935061126783611203565b8060005b8381101561129857815161127f8882611222565b975061128a8361123a565b92505060018101905061126b565b5085935050505092915050565b600060208201905081810360008301526112bf8184611247565b905092915050565b600081519050919050565b600082825260208201905092915050565b60005b838110156113015780820151818401526020810190506112e6565b60008484015250505050565b6000611318826112c7565b61132281856112d2565b93506113328185602086016112e3565b61133b81610f50565b840191505092915050565b600060a08201905061135b60008301886111bd565b818103602083015261136d818761130d565b90508181036040830152611381818661130d565b90508181036060830152611395818561130d565b905081810360808301526113a9818461130d565b90509695505050505050565b7f52656769737472793a20416c7265616479207265676973746572656400000000600082015250565b60006113eb601c836112d2565b91506113f6826113b5565b602082019050919050565b6000602082019050818103600083015261141a816113de565b9050919050565b7f4e487b7100000000000000000000000000000000000000000000000000000000600052602260045260246000fd5b6000600282049050600182168061146857607f821691505b60208210810361147b5761147a611421565b5b50919050565b60008190508160005260206000209050919050565b60006020601f8301049050919050565b600082821b905092915050565b6000600883026114e37fffffffffffffffffffffffffffffffffffffffffffffffffffffffffffffffff826114a6565b6114ed86836114a6565b95508019841693508086168417925050509392505050565b6000819050919050565b600061152a61152561152084610e16565b611505565b610e16565b9050919050565b6000819050919050565b6115448361150f565b61155861155082611531565b8484546114b3565b825550505050565b600090565b61156d611560565b61157881848461153b565b505050565b5b8181101561159c57611591600082611565565b60018101905061157e565b5050565b601f8211156115e1576115b281611481565b6115bb84611496565b810160208510156115ca578190505b6115de6115d685611496565b83018261157d565b50505b505050565b600082821c905092915050565b6000611604600019846008026115e6565b1980831691505092915050565b600061161d83836115f3565b9150826002028217905092915050565b611636826112c7565b67ffffffffffffffff81111561164f5761164e610f61565b5b6116598254611450565b6116648282856115a0565b600060209050601f8311600181146116975760008415611685578287015190505b61168f8582611611565b8655506116f7565b601f1984166116a586611481565b60005b828110156116cd578489015182556001820191506020850194506020810190506116a8565b868310156116ea57848901516116e6601f8916826115f3565b8355505b6001600288020188555050505b505050505050565b600061170b83856112d2565b935061171883858461100d565b61172183610f50565b840190509392505050565b600060408201905081810360008301526117478186886116ff565b9050818103602083015261175c8184866116ff565b905095945050505050565b7f52656769737472793a204e6f7420666f756e6400000000000000000000000000600082015250565b600061179d6013836112d2565b91506117a882611767565b602082019050919050565b600060208201905081810360008301526117cc81611790565b9050919050565b7f4e487b7100000000000000000000000000000000000000000000000000000000600052601160045260246000fd5b600061180d82610e16565b915061181883610e16565b92508282039050818111156118305761182f6117d3565b5b92915050565b7f4e487b7100000000000000000000000000000000000000000000000000000000600052603260045260246000fd5b7f4e487b7100000000000000000000000000000000000000000000000000000000600052603160045260246000fdfea26469706673582212208aa8d09f1bcf2f42ff4f0078d9943293fcc693fb7580638eeb693274f9e7690964736f6c634300081c0033",
  "linkReferences": {},
  "deployedLinkReferences": {}
}