{
  "_format": "hh-sol-artifact-1",
  "contractName": "DoctorRegistry",
  "sourceName": "contracts/Registration/DoctorRegistry.sol",
  "abi": [
    {
      "inputs": [],
      "stateMutability": "nonpayable",
      "type": "constructor"
    },
    {
      "inputs": [
        {
          "internalType": "address",
          "name": "owner",
          "type": "address"
        }
      ],
      "name": "OwnableInvalidOwner",
      "type": "error"
    },
    {
      "inputs": [
        {
          "internalType": "address",
          "name": "account",
          "type": "address"
        }
      ],
      "name": "OwnableUnauthorizedAccount",
      "type": "error"
    },
    {
      "anonymous": false,
      "inputs": [
        {
          "indexed": true,
          "internalType": "address",
          "name": "doctor",
          "type": "address"
        },
        {
          "indexed": false,
          "internalType": "string",
          "name": "name",
          "type": "string"
        },
        {
          "indexed": false,
          "internalType": "string",
          "name": "specialization",
          "type": "string"
        }
      ],
      "name": "DoctorAdded",
      "type": "event"
    },
    {
      "anonymous": false,
      "inputs": [
        {
          "indexed": true,
          "internalType": "address",
          "name": "doctor",
          "type": "address"
        }
      ],
      "name": "DoctorRemoved",
      "type": "event"
    },
    {
      "anonymous": false,
      "inputs": [
        {
          "indexed": true,
          "internalType": "address",
          "name": "previousOwner",
          "type": "address"
        },
        {
          "indexed": true,
          "internalType": "address",
          "name": "newOwner",
          "type": "address"
        }
      ],
      "name": "OwnershipTransferred",
      "type": "event"
    },
    {
      "inputs": [
        {
          "internalType": "address",
          "name": "doctor",
          "type": "address"
        },
        {
          "internalType": "string",
          "name": "name",
          "type": "string"
        },
        {
          "internalType": "string",
          "name": "specialization",
          "type": "string"
        },
        {
          "internalType": "string",
          "name": "ipfsProfile",
          "type": "string"
        },
        {
          "internalType": "string",
          "name": "profileCID",
          "type": "string"
        }
      ],
      "name": "addDoctor",
      "outputs": [],
      "stateMutability": "nonpayable",
      "type": "function"
    },
    {
      "inputs": [],
      "name": "doctorCount",
      "outputs": [
        {
          "internalType": "uint256",
          "name": "",
          "type": "uint256"
        }
      ],
      "stateMutability": "view",
      "type": "function"
    },
    {
      "inputs": [
        {
          "internalType": "address",
          "name": "",
          "type": "address"
        }
      ],
      "name": "doctors",
      "outputs": [
        {
          "internalType": "bool",
          "name": "exists",
          "type": "bool"
        },
        {
          "internalType": "string",
          "name": "name",
          "type": "string"
        },
        {
          "internalType": "string",
          "name": "specialization",
          "type": "string"
        },
        {
          "internalType": "string",
          "name": "profileCID",
          "type": "string"
        },
        {
          "internalType": "string",
          "name": "ipfsProfile",
          "type": "string"
        }
      ],
      "stateMutability": "view",
      "type": "function"
    },
    {
      "inputs": [],
      "name": "getDoctorList",
      "outputs": [
        {
          "internalType": "address[]",
          "name": "",
          "type": "address[]"
        }
      ],
      "stateMutability": "view",
      "type": "function"
    },
    {
      "inputs": [
        {
          "internalType": "address",
          "name": "addr",
          "type": "address"
        }
      ],
      "name": "isDoctor",
      "outputs": [
        {
          "internalType": "bool",
          "name": "",
          "type": "bool"
        }
      ],
      "stateMutability": "view",
      "type": "function"
    },
    {
      "inputs": [],
      "name": "owner",
      "outputs": [
        {
          "internalType": "address",
          "name": "",
          "type": "address"
        }
      ],
      "stateMutability": "view",
      "type": "function"
    },
    {
      "inputs": [
        {
          "internalType": "address",
          "name": "doctor",
          "type": "address"
        }
      ],
      "name": "removeDoctor",
      "outputs": [],
      "stateMutability": "nonpayable",
      "type": "function"
    },
    {
      "inputs": [],
      "name": "renounceOwnership",
      "outputs": [],
      "stateMutability": "nonpayable",
      "type": "function"
    },
    {
      "inputs": [
        {
          "internalType": "address",
          "name": "newOwner",
          "type": "address"
        }
      ],
      "name": "transferOwnership",
      "outputs": [],
      "stateMutability": "nonpayable",
      "type": "function"
    }
  ],
  "bytecode": "0x608060405234801561000f575f5ffd5b50335f73ffffffffffffffffffffffffffffffffffffffff168173ffffffffffffffffffffffffffffffffffffffff1603610081575f6040517f1e4fbdf70000000000000000000000000000000000000000000000000000000081526004016100789190610196565b60405180910390fd5b6100908161009660201b60201c565b506101af565b5f5f5f9054906101000a900473ffffffffffffffffffffffffffffffffffffffff169050815f5f6101000a81548173ffffffffffffffffffffffffffffffffffffffff021916908373ffffffffffffffffffffffffffffffffffffffff1602179055508173ffffffffffffffffffffffffffffffffffffffff168173ffffffffffffffffffffffffffffffffffffffff167f8be0079c531659141344cd1fd0a4f28419497f9722a3daafe3b4186f6b6457e060405160405180910390a35050565b5f73ffffffffffffffffffffffffffffffffffffffff82169050919050565b5f61018082610157565b9050919050565b61019081610176565b82525050565b5f6020820190506101a95f830184610187565b92915050565b611802806101bc5f395ff3fe608060405234801561000f575f5ffd5b5060043610610091575f3560e01c806398fc90e91161006457806398fc90e9146100f7578063996440c614610113578063a71aefc914610143578063a9583c2214610161578063f2fde38b1461019557610091565b8063715018a61461009557806378522bc41461009f5780638da5cb5b146100bd5780639537dfcd146100db575b5f5ffd5b61009d6101b1565b005b6100a76101c4565b6040516100b49190610dd7565b60405180910390f35b6100c56101d0565b6040516100d29190610e2f565b60405180910390f35b6100f560048036038101906100f0919061101c565b6101f7565b005b610111600480360381019061010c919061110f565b610538565b005b61012d6004803603810190610128919061110f565b61085f565b60405161013a9190611154565b60405180910390f35b61014b6108b3565b6040516101589190611224565b60405180910390f35b61017b6004803603810190610176919061110f565b61093e565b60405161018c9594939291906112a4565b60405180910390f35b6101af60048036038101906101aa919061110f565b610b94565b005b6101b9610c18565b6101c25f610c9f565b565b5f600280549050905090565b5f5f5f9054906101000a900473ffffffffffffffffffffffffffffffffffffffff16905090565b6101ff610c18565b60015f8973ffffffffffffffffffffffffffffffffffffffff1673ffffffffffffffffffffffffffffffffffffffff1681526020019081526020015f205f015f9054906101000a900460ff161561028b576040517f08c379a00000000000000000000000000000000000000000000000000000000081526004016102829061135b565b60405180910390fd5b6040518060a0016040528060011515815260200188888080601f0160208091040260200160405190810160405280939291908181526020018383808284375f81840152601f19601f82011690508083019250505050505050815260200186868080601f0160208091040260200160405190810160405280939291908181526020018383808284375f81840152601f19601f82011690508083019250505050505050815260200184848080601f0160208091040260200160405190810160405280939291908181526020018383808284375f81840152601f19601f8201169050808301925050505050505081526020018281525060015f8a73ffffffffffffffffffffffffffffffffffffffff1673ffffffffffffffffffffffffffffffffffffffff1681526020019081526020015f205f820151815f015f6101000a81548160ff02191690831515021790555060208201518160010190816103ed9190611576565b5060408201518160020190816104039190611576565b5060608201518160030190816104199190611576565b50608082015181600401908161042f9190611576565b5090505060028054905060035f8a73ffffffffffffffffffffffffffffffffffffffff1673ffffffffffffffffffffffffffffffffffffffff1681526020019081526020015f2081905550600288908060018154018082558091505060019003905f5260205f20015f9091909190916101000a81548173ffffffffffffffffffffffffffffffffffffffff021916908373ffffffffffffffffffffffffffffffffffffffff1602179055508773ffffffffffffffffffffffffffffffffffffffff167f9388661dcd7dc6cff9b4e22ab9459ac0a2682f86cb52fc7a669a6e7f062bce4c888888886040516105269493929190611671565b60405180910390a25050505050505050565b610540610c18565b60015f8273ffffffffffffffffffffffffffffffffffffffff1673ffffffffffffffffffffffffffffffffffffffff1681526020019081526020015f205f015f9054906101000a900460ff166105cb576040517f08c379a00000000000000000000000000000000000000000000000000000000081526004016105c2906116f4565b60405180910390fd5b5f60035f8373ffffffffffffffffffffffffffffffffffffffff1673ffffffffffffffffffffffffffffffffffffffff1681526020019081526020015f205490505f600160028054905061061f919061173f565b9050808214610705575f6002828154811061063d5761063c611772565b5b905f5260205f20015f9054906101000a900473ffffffffffffffffffffffffffffffffffffffff169050806002848154811061067c5761067b611772565b5b905f5260205f20015f6101000a81548173ffffffffffffffffffffffffffffffffffffffff021916908373ffffffffffffffffffffffffffffffffffffffff1602179055508260035f8373ffffffffffffffffffffffffffffffffffffffff1673ffffffffffffffffffffffffffffffffffffffff1681526020019081526020015f2081905550505b60028054806107175761071661179f565b5b600190038181905f5260205f20015f6101000a81549073ffffffffffffffffffffffffffffffffffffffff0219169055905560015f8473ffffffffffffffffffffffffffffffffffffffff1673ffffffffffffffffffffffffffffffffffffffff1681526020019081526020015f205f5f82015f6101000a81549060ff0219169055600182015f6107a89190610d67565b600282015f6107b79190610d67565b600382015f6107c69190610d67565b600482015f6107d59190610d67565b505060035f8473ffffffffffffffffffffffffffffffffffffffff1673ffffffffffffffffffffffffffffffffffffffff1681526020019081526020015f205f90558273ffffffffffffffffffffffffffffffffffffffff167f493d7cf6a7c880406a55654d6727464ea088bd01d40498e1987a327e68961ab860405160405180910390a2505050565b5f60015f8373ffffffffffffffffffffffffffffffffffffffff1673ffffffffffffffffffffffffffffffffffffffff1681526020019081526020015f205f015f9054906101000a900460ff169050919050565b6060600280548060200260200160405190810160405280929190818152602001828054801561093457602002820191905f5260205f20905b815f9054906101000a900473ffffffffffffffffffffffffffffffffffffffff1673ffffffffffffffffffffffffffffffffffffffff16815260200190600101908083116108eb575b5050505050905090565b6001602052805f5260405f205f91509050805f015f9054906101000a900460ff169080600101805461096f906113a6565b80601f016020809104026020016040519081016040528092919081815260200182805461099b906113a6565b80156109e65780601f106109bd576101008083540402835291602001916109e6565b820191905f5260205f20905b8154815290600101906020018083116109c957829003601f168201915b5050505050908060020180546109fb906113a6565b80601f0160208091040260200160405190810160405280929190818152602001828054610a27906113a6565b8015610a725780601f10610a4957610100808354040283529160200191610a72565b820191905f5260205f20905b815481529060010190602001808311610a5557829003601f168201915b505050505090806003018054610a87906113a6565b80601f0160208091040260200160405190810160405280929190818152602001828054610ab3906113a6565b8015610afe5780601f10610ad557610100808354040283529160200191610afe565b820191905f5260205f20905b815481529060010190602001808311610ae157829003601f168201915b505050505090806004018054610b13906113a6565b80601f0160208091040260200160405190810160405280929190818152602001828054610b3f906113a6565b8015610b8a5780601f10610b6157610100808354040283529160200191610b8a565b820191905f5260205f20905b815481529060010190602001808311610b6d57829003601f168201915b5050505050905085565b610b9c610c18565b5f73ffffffffffffffffffffffffffffffffffffffff168173ffffffffffffffffffffffffffffffffffffffff1603610c0c575f6040517f1e4fbdf7000000000000000000000000000000000000000000000000000000008152600401610c039190610e2f565b60405180910390fd5b610c1581610c9f565b50565b610c20610d60565b73ffffffffffffffffffffffffffffffffffffffff16610c3e6101d0565b73ffffffffffffffffffffffffffffffffffffffff1614610c9d57610c61610d60565b6040517f118cdaa7000000000000000000000000000000000000000000000000000000008152600401610c949190610e2f565b60405180910390fd5b565b5f5f5f9054906101000a900473ffffffffffffffffffffffffffffffffffffffff169050815f5f6101000a81548173ffffffffffffffffffffffffffffffffffffffff021916908373ffffffffffffffffffffffffffffffffffffffff1602179055508173ffffffffffffffffffffffffffffffffffffffff168173ffffffffffffffffffffffffffffffffffffffff167f8be0079c531659141344cd1fd0a4f28419497f9722a3daafe3b4186f6b6457e060405160405180910390a35050565b5f33905090565b508054610d73906113a6565b5f825580601f10610d845750610da1565b601f0160209004905f5260205f2090810190610da09190610da4565b5b50565b5b80821115610dbb575f815f905550600101610da5565b5090565b5f819050919050565b610dd181610dbf565b82525050565b5f602082019050610dea5f830184610dc8565b92915050565b5f73ffffffffffffffffffffffffffffffffffffffff82169050919050565b5f610e1982610df0565b9050919050565b610e2981610e0f565b82525050565b5f602082019050610e425f830184610e20565b92915050565b5f604051905090565b5f5ffd5b5f5ffd5b610e6281610e0f565b8114610e6c575f5ffd5b50565b5f81359050610e7d81610e59565b92915050565b5f5ffd5b5f5ffd5b5f5ffd5b5f5f83601f840112610ea457610ea3610e83565b5b8235905067ffffffffffffffff811115610ec157610ec0610e87565b5b602083019150836001820283011115610edd57610edc610e8b565b5b9250929050565b5f5ffd5b5f601f19601f8301169050919050565b7f4e487b71000000000000000000000000000000000000000000000000000000005f52604160045260245ffd5b610f2e82610ee8565b810181811067ffffffffffffffff82111715610f4d57610f4c610ef8565b5b80604052505050565b5f610f5f610e48565b9050610f6b8282610f25565b919050565b5f67ffffffffffffffff821115610f8a57610f89610ef8565b5b610f9382610ee8565b9050602081019050919050565b828183375f83830152505050565b5f610fc0610fbb84610f70565b610f56565b905082815260208101848484011115610fdc57610fdb610ee4565b5b610fe7848285610fa0565b509392505050565b5f82601f83011261100357611002610e83565b5b8135611013848260208601610fae565b91505092915050565b5f5f5f5f5f5f5f5f60a0898b03121561103857611037610e51565b5b5f6110458b828c01610e6f565b985050602089013567ffffffffffffffff81111561106657611065610e55565b5b6110728b828c01610e8f565b9750975050604089013567ffffffffffffffff81111561109557611094610e55565b5b6110a18b828c01610e8f565b9550955050606089013567ffffffffffffffff8111156110c4576110c3610e55565b5b6110d08b828c01610e8f565b9350935050608089013567ffffffffffffffff8111156110f3576110f2610e55565b5b6110ff8b828c01610fef565b9150509295985092959890939650565b5f6020828403121561112457611123610e51565b5b5f61113184828501610e6f565b91505092915050565b5f8115159050919050565b61114e8161113a565b82525050565b5f6020820190506111675f830184611145565b92915050565b5f81519050919050565b5f82825260208201905092915050565b5f819050602082019050919050565b61119f81610e0f565b82525050565b5f6111b08383611196565b60208301905092915050565b5f602082019050919050565b5f6111d28261116d565b6111dc8185611177565b93506111e783611187565b805f5b838110156112175781516111fe88826111a5565b9750611209836111bc565b9250506001810190506111ea565b5085935050505092915050565b5f6020820190508181035f83015261123c81846111c8565b905092915050565b5f81519050919050565b5f82825260208201905092915050565b8281835e5f83830152505050565b5f61127682611244565b611280818561124e565b935061129081856020860161125e565b61129981610ee8565b840191505092915050565b5f60a0820190506112b75f830188611145565b81810360208301526112c9818761126c565b905081810360408301526112dd818661126c565b905081810360608301526112f1818561126c565b90508181036080830152611305818461126c565b90509695505050505050565b7f52656769737472793a20416c72656164792072656769737465726564000000005f82015250565b5f611345601c8361124e565b915061135082611311565b602082019050919050565b5f6020820190508181035f83015261137281611339565b9050919050565b7f4e487b71000000000000000000000000000000000000000000000000000000005f52602260045260245ffd5b5f60028204905060018216806113bd57607f821691505b6020821081036113d0576113cf611379565b5b50919050565b5f819050815f5260205f209050919050565b5f6020601f8301049050919050565b5f82821b905092915050565b5f600883026114327fffffffffffffffffffffffffffffffffffffffffffffffffffffffffffffffff826113f7565b61143c86836113f7565b95508019841693508086168417925050509392505050565b5f819050919050565b5f61147761147261146d84610dbf565b611454565b610dbf565b9050919050565b5f819050919050565b6114908361145d565b6114a461149c8261147e565b848454611403565b825550505050565b5f5f905090565b6114bb6114ac565b6114c6818484611487565b505050565b5b818110156114e9576114de5f826114b3565b6001810190506114cc565b5050565b601f82111561152e576114ff816113d6565b611508846113e8565b81016020851015611517578190505b61152b611523856113e8565b8301826114cb565b50505b505050565b5f82821c905092915050565b5f61154e5f1984600802611533565b1980831691505092915050565b5f611566838361153f565b9150826002028217905092915050565b61157f82611244565b67ffffffffffffffff81111561159857611597610ef8565b5b6115a282546113a6565b6115ad8282856114ed565b5f60209050601f8311600181146115de575f84156115cc578287015190505b6115d6858261155b565b86555061163d565b601f1984166115ec866113d6565b5f5b82811015611613578489015182556001820191506020850194506020810190506115ee565b86831015611630578489015161162c601f89168261153f565b8355505b6001600288020188555050505b505050505050565b5f611650838561124e565b935061165d838584610fa0565b61166683610ee8565b840190509392505050565b5f6040820190508181035f83015261168a818688611645565b9050818103602083015261169f818486611645565b905095945050505050565b7f52656769737472793a204e6f7420666f756e64000000000000000000000000005f82015250565b5f6116de60138361124e565b91506116e9826116aa565b602082019050919050565b5f6020820190508181035f83015261170b816116d2565b9050919050565b7f4e487b71000000000000000000000000000000000000000000000000000000005f52601160045260245ffd5b5f61174982610dbf565b915061175483610dbf565b925082820390508181111561176c5761176b611712565b5b92915050565b7f4e487b71000000000000000000000000000000000000000000000000000000005f52603260045260245ffd5b7f4e487b71000000000000000000000000000000000000000000000000000000005f52603160045260245ffdfea2646970667358221220df29196d06525ab17ff9389dcec6ac94a725228793090e227ac0e1469b8975d964736f6c634300081c0033",
  "linkReferences": {},
  "deployedLinkReferences": {}
}