{
  "_format": "hh-sol-artifact-1",
  "contractName": "InsurerRegistry",
  "sourceName": "contracts/Registration/InsurerRegistry.sol",
  "abi": [
    {
      "inputs": [],
      "stateMutability": "nonpayable",
      "type": "constructor"
    },
    {
      "inputs": [
        {
          "internalType": "address",
          "name": "owner",
          "type": "address"
        }
      ],
      "name": "OwnableInvalidOwner",
      "type": "error"
    },
    {
      "inputs": [
        {
          "internalType": "address",
          "name": "account",
          "type": "address"
        }
      ],
      "name": "OwnableUnauthorizedAccount",
      "type": "error"
    },
    {
      "anonymous": false,
      "inputs": [
        {
          "indexed": true,
          "internalType": "address",
          "name": "insurer",
          "type": "address"
        },
        {
          "indexed": false,
          "internalType": "string",
          "name": "name",
          "type": "string"
        }
      ],
      "name": "InsurerAdded",
      "type": "event"
    },
    {
      "anonymous": false,
      "inputs": [
        {
          "indexed": true,
          "internalType": "address",
          "name": "insurer",
          "type": "address"
        }
      ],
      "name": "InsurerRemoved",
      "type": "event"
    },
    {
      "anonymous": false,
      "inputs": [
        {
          "indexed": true,
          "internalType": "address",
          "name": "previousOwner",
          "type": "address"
        },
        {
          "indexed": true,
          "internalType": "address",
          "name": "newOwner",
          "type": "address"
        }
      ],
      "name": "OwnershipTransferred",
      "type": "event"
    },
    {
      "inputs": [
        {
          "internalType": "address",
          "name": "insurer",
          "type": "address"
        },
        {
          "internalType": "string",
          "name": "name",
          "type": "string"
        },
        {
          "internalType": "string",
          "name": "ipfsProfile",
          "type": "string"
        }
      ],
      "name": "addInsurer",
      "outputs": [],
      "stateMutability": "nonpayable",
      "type": "function"
    },
    {
      "inputs": [],
      "name": "getInsurerList",
      "outputs": [
        {
          "internalType": "address[]",
          "name": "",
          "type": "address[]"
        }
      ],
      "stateMutability": "view",
      "type": "function"
    },
    {
      "inputs": [
        {
          "internalType": "address",
          "name": "",
          "type": "address"
        }
      ],
      "name": "insurers",
      "outputs": [
        {
          "internalType": "bool",
          "name": "exists",
          "type": "bool"
        },
        {
          "internalType": "string",
          "name": "name",
          "type": "string"
        },
        {
          "internalType": "string",
          "name": "ipfsProfile",
          "type": "string"
        }
      ],
      "stateMutability": "view",
      "type": "function"
    },
    {
      "inputs": [
        {
          "internalType": "address",
          "name": "addr",
          "type": "address"
        }
      ],
      "name": "isInsurer",
      "outputs": [
        {
          "internalType": "bool",
          "name": "",
          "type": "bool"
        }
      ],
      "stateMutability": "view",
      "type": "function"
    },
    {
      "inputs": [],
      "name": "owner",
      "outputs": [
        {
          "internalType": "address",
          "name": "",
          "type": "address"
        }
      ],
      "stateMutability": "view",
      "type": "function"
    },
    {
      "inputs": [
        {
          "internalType": "address",
          "name": "insurer",
          "type": "address"
        }
      ],
      "name": "removeInsurer",
      "outputs": [],
      "stateMutability": "nonpayable",
      "type": "function"
    },
    {
      "inputs": [],
      "name": "renounceOwnership",
      "outputs": [],
      "stateMutability": "nonpayable",
      "type": "function"
    },
    {
      "inputs": [
        {
          "internalType": "address",
          "name": "newOwner",
          "type": "address"
        }
      ],
      "name": "transferOwnership",
      "outputs": [],
      "stateMutability": "nonpayable",
      "type": "function"
    }
  ],
  "bytecode": "0x608060405234801561000f575f5ffd5b50335f73ffffffffffffffffffffffffffffffffffffffff168173ffffffffffffffffffffffffffffffffffffffff1603610081575f6040517f1e4fbdf70000000000000000000000000000000000000000000000000000000081526004016100789190610196565b60405180910390fd5b6100908161009660201b60201c565b506101af565b5f5f5f9054906101000a900473ffffffffffffffffffffffffffffffffffffffff169050815f5f6101000a81548173ffffffffffffffffffffffffffffffffffffffff021916908373ffffffffffffffffffffffffffffffffffffffff1602179055508173ffffffffffffffffffffffffffffffffffffffff168173ffffffffffffffffffffffffffffffffffffffff167f8be0079c531659141344cd1fd0a4f28419497f9722a3daafe3b4186f6b6457e060405160405180910390a35050565b5f73ffffffffffffffffffffffffffffffffffffffff82169050919050565b5f61018082610157565b9050919050565b61019081610176565b82525050565b5f6020820190506101a95f830184610187565b92915050565b611452806101bc5f395ff3fe608060405234801561000f575f5ffd5b5060043610610086575f3560e01c80638da5cb5b116100595780638da5cb5b146100ea578063da7897e214610108578063de45aeef14610138578063f2fde38b1461016a57610086565b806327cb79161461008a5780636957c389146100a8578063715018a6146100c457806383e9dcb3146100ce575b5f5ffd5b610092610186565b60405161009f9190610cb7565b60405180910390f35b6100c260048036038101906100bd9190610d09565b610211565b005b6100cc61051a565b005b6100e860048036038101906100e39190610d95565b61052d565b005b6100f26107ec565b6040516100ff9190610e35565b60405180910390f35b610122600480360381019061011d9190610d09565b610813565b60405161012f9190610e68565b60405180910390f35b610152600480360381019061014d9190610d09565b610867565b60405161016193929190610ef1565b60405180910390f35b610184600480360381019061017f9190610d09565b6109a5565b005b6060600280548060200260200160405190810160405280929190818152602001828054801561020757602002820191905f5260205f20905b815f9054906101000a900473ffffffffffffffffffffffffffffffffffffffff1673ffffffffffffffffffffffffffffffffffffffff16815260200190600101908083116101be575b5050505050905090565b610219610a29565b60015f8273ffffffffffffffffffffffffffffffffffffffff1673ffffffffffffffffffffffffffffffffffffffff1681526020019081526020015f205f015f9054906101000a900460ff166102a4576040517f08c379a000000000000000000000000000000000000000000000000000000000815260040161029b90610f7e565b60405180910390fd5b5f60035f8373ffffffffffffffffffffffffffffffffffffffff1673ffffffffffffffffffffffffffffffffffffffff1681526020019081526020015f205490505f60016002805490506102f89190610fd2565b90508082146103de575f6002828154811061031657610315611005565b5b905f5260205f20015f9054906101000a900473ffffffffffffffffffffffffffffffffffffffff169050806002848154811061035557610354611005565b5b905f5260205f20015f6101000a81548173ffffffffffffffffffffffffffffffffffffffff021916908373ffffffffffffffffffffffffffffffffffffffff1602179055508260035f8373ffffffffffffffffffffffffffffffffffffffff1673ffffffffffffffffffffffffffffffffffffffff1681526020019081526020015f2081905550505b60028054806103f0576103ef611032565b5b600190038181905f5260205f20015f6101000a81549073ffffffffffffffffffffffffffffffffffffffff0219169055905560015f8473ffffffffffffffffffffffffffffffffffffffff1673ffffffffffffffffffffffffffffffffffffffff1681526020019081526020015f205f5f82015f6101000a81549060ff0219169055600182015f6104819190610b78565b600282015f6104909190610b78565b505060035f8473ffffffffffffffffffffffffffffffffffffffff1673ffffffffffffffffffffffffffffffffffffffff1681526020019081526020015f205f90558273ffffffffffffffffffffffffffffffffffffffff167f8fd52a13e559b9b04c1a36e606454e17d629e3179bf205a110212cb982927f3260405160405180910390a2505050565b610522610a29565b61052b5f610ab0565b565b610535610a29565b60015f8673ffffffffffffffffffffffffffffffffffffffff1673ffffffffffffffffffffffffffffffffffffffff1681526020019081526020015f205f015f9054906101000a900460ff16156105c1576040517f08c379a00000000000000000000000000000000000000000000000000000000081526004016105b8906110a9565b60405180910390fd5b604051806060016040528060011515815260200185858080601f0160208091040260200160405190810160405280939291908181526020018383808284375f81840152601f19601f82011690508083019250505050505050815260200183838080601f0160208091040260200160405190810160405280939291908181526020018383808284375f81840152601f19601f8201169050808301925050505050505081525060015f8773ffffffffffffffffffffffffffffffffffffffff1673ffffffffffffffffffffffffffffffffffffffff1681526020019081526020015f205f820151815f015f6101000a81548160ff02191690831515021790555060208201518160010190816106d491906112f1565b5060408201518160020190816106ea91906112f1565b5090505060028054905060035f8773ffffffffffffffffffffffffffffffffffffffff1673ffffffffffffffffffffffffffffffffffffffff1681526020019081526020015f2081905550600285908060018154018082558091505060019003905f5260205f20015f9091909190916101000a81548173ffffffffffffffffffffffffffffffffffffffff021916908373ffffffffffffffffffffffffffffffffffffffff1602179055508473ffffffffffffffffffffffffffffffffffffffff167f2f070323f1d21943bbb0d6da5208018d5b1506e43b244636d7ca27e7958a2eaf85856040516107dd9291906113fa565b60405180910390a25050505050565b5f5f5f9054906101000a900473ffffffffffffffffffffffffffffffffffffffff16905090565b5f60015f8373ffffffffffffffffffffffffffffffffffffffff1673ffffffffffffffffffffffffffffffffffffffff1681526020019081526020015f205f015f9054906101000a900460ff169050919050565b6001602052805f5260405f205f91509050805f015f9054906101000a900460ff169080600101805461089890611121565b80601f01602080910402602001604051908101604052809291908181526020018280546108c490611121565b801561090f5780601f106108e65761010080835404028352916020019161090f565b820191905f5260205f20905b8154815290600101906020018083116108f257829003601f168201915b50505050509080600201805461092490611121565b80601f016020809104026020016040519081016040528092919081815260200182805461095090611121565b801561099b5780601f106109725761010080835404028352916020019161099b565b820191905f5260205f20905b81548152906001019060200180831161097e57829003601f168201915b5050505050905083565b6109ad610a29565b5f73ffffffffffffffffffffffffffffffffffffffff168173ffffffffffffffffffffffffffffffffffffffff1603610a1d575f6040517f1e4fbdf7000000000000000000000000000000000000000000000000000000008152600401610a149190610e35565b60405180910390fd5b610a2681610ab0565b50565b610a31610b71565b73ffffffffffffffffffffffffffffffffffffffff16610a4f6107ec565b73ffffffffffffffffffffffffffffffffffffffff1614610aae57610a72610b71565b6040517f118cdaa7000000000000000000000000000000000000000000000000000000008152600401610aa59190610e35565b60405180910390fd5b565b5f5f5f9054906101000a900473ffffffffffffffffffffffffffffffffffffffff169050815f5f6101000a81548173ffffffffffffffffffffffffffffffffffffffff021916908373ffffffffffffffffffffffffffffffffffffffff1602179055508173ffffffffffffffffffffffffffffffffffffffff168173ffffffffffffffffffffffffffffffffffffffff167f8be0079c531659141344cd1fd0a4f28419497f9722a3daafe3b4186f6b6457e060405160405180910390a35050565b5f33905090565b508054610b8490611121565b5f825580601f10610b955750610bb2565b601f0160209004905f5260205f2090810190610bb19190610bb5565b5b50565b5b80821115610bcc575f815f905550600101610bb6565b5090565b5f81519050919050565b5f82825260208201905092915050565b5f819050602082019050919050565b5f73ffffffffffffffffffffffffffffffffffffffff82169050919050565b5f610c2282610bf9565b9050919050565b610c3281610c18565b82525050565b5f610c438383610c29565b60208301905092915050565b5f602082019050919050565b5f610c6582610bd0565b610c6f8185610bda565b9350610c7a83610bea565b805f5b83811015610caa578151610c918882610c38565b9750610c9c83610c4f565b925050600181019050610c7d565b5085935050505092915050565b5f6020820190508181035f830152610ccf8184610c5b565b905092915050565b5f5ffd5b5f5ffd5b610ce881610c18565b8114610cf2575f5ffd5b50565b5f81359050610d0381610cdf565b92915050565b5f60208284031215610d1e57610d1d610cd7565b5b5f610d2b84828501610cf5565b91505092915050565b5f5ffd5b5f5ffd5b5f5ffd5b5f5f83601f840112610d5557610d54610d34565b5b8235905067ffffffffffffffff811115610d7257610d71610d38565b5b602083019150836001820283011115610d8e57610d8d610d3c565b5b9250929050565b5f5f5f5f5f60608688031215610dae57610dad610cd7565b5b5f610dbb88828901610cf5565b955050602086013567ffffffffffffffff811115610ddc57610ddb610cdb565b5b610de888828901610d40565b9450945050604086013567ffffffffffffffff811115610e0b57610e0a610cdb565b5b610e1788828901610d40565b92509250509295509295909350565b610e2f81610c18565b82525050565b5f602082019050610e485f830184610e26565b92915050565b5f8115159050919050565b610e6281610e4e565b82525050565b5f602082019050610e7b5f830184610e59565b92915050565b5f81519050919050565b5f82825260208201905092915050565b8281835e5f83830152505050565b5f601f19601f8301169050919050565b5f610ec382610e81565b610ecd8185610e8b565b9350610edd818560208601610e9b565b610ee681610ea9565b840191505092915050565b5f606082019050610f045f830186610e59565b8181036020830152610f168185610eb9565b90508181036040830152610f2a8184610eb9565b9050949350505050565b7f4e6f7420666f756e6400000000000000000000000000000000000000000000005f82015250565b5f610f68600983610e8b565b9150610f7382610f34565b602082019050919050565b5f6020820190508181035f830152610f9581610f5c565b9050919050565b5f819050919050565b7f4e487b71000000000000000000000000000000000000000000000000000000005f52601160045260245ffd5b5f610fdc82610f9c565b9150610fe783610f9c565b9250828203905081811115610fff57610ffe610fa5565b5b92915050565b7f4e487b71000000000000000000000000000000000000000000000000000000005f52603260045260245ffd5b7f4e487b71000000000000000000000000000000000000000000000000000000005f52603160045260245ffd5b7f416c7265616479207265676973746572656400000000000000000000000000005f82015250565b5f611093601283610e8b565b915061109e8261105f565b602082019050919050565b5f6020820190508181035f8301526110c081611087565b9050919050565b7f4e487b71000000000000000000000000000000000000000000000000000000005f52604160045260245ffd5b7f4e487b71000000000000000000000000000000000000000000000000000000005f52602260045260245ffd5b5f600282049050600182168061113857607f821691505b60208210810361114b5761114a6110f4565b5b50919050565b5f819050815f5260205f209050919050565b5f6020601f8301049050919050565b5f82821b905092915050565b5f600883026111ad7fffffffffffffffffffffffffffffffffffffffffffffffffffffffffffffffff82611172565b6111b78683611172565b95508019841693508086168417925050509392505050565b5f819050919050565b5f6111f26111ed6111e884610f9c565b6111cf565b610f9c565b9050919050565b5f819050919050565b61120b836111d8565b61121f611217826111f9565b84845461117e565b825550505050565b5f5f905090565b611236611227565b611241818484611202565b505050565b5b81811015611264576112595f8261122e565b600181019050611247565b5050565b601f8211156112a95761127a81611151565b61128384611163565b81016020851015611292578190505b6112a661129e85611163565b830182611246565b50505b505050565b5f82821c905092915050565b5f6112c95f19846008026112ae565b1980831691505092915050565b5f6112e183836112ba565b9150826002028217905092915050565b6112fa82610e81565b67ffffffffffffffff811115611313576113126110c7565b5b61131d8254611121565b611328828285611268565b5f60209050601f831160018114611359575f8415611347578287015190505b61135185826112d6565b8655506113b8565b601f19841661136786611151565b5f5b8281101561138e57848901518255600182019150602085019450602081019050611369565b868310156113ab57848901516113a7601f8916826112ba565b8355505b6001600288020188555050505b505050505050565b828183375f83830152505050565b5f6113d98385610e8b565b93506113e68385846113c0565b6113ef83610ea9565b840190509392505050565b5f6020820190508181035f8301526114138184866113ce565b9050939250505056fea2646970667358221220cc6489e98b5f9b0ee80794ce8c912486b943b4ba340848eca3d28e2dc600d09664736f6c634300081c0033",
  "linkReferences": {},
  "deployedLinkReferences": {}
}