{
  "_format": "hh-sol-artifact-1",
  "contractName": "InsurerRegistry",
  "sourceName": "contracts/Registration/InsurerRegistry.sol",
  "abi": [
    {
      "inputs": [],
      "stateMutability": "nonpayable",
      "type": "constructor"
    },
    {
      "inputs": [
        {
          "internalType": "address",
          "name": "owner",
          "type": "address"
        }
      ],
      "name": "OwnableInvalidOwner",
      "type": "error"
    },
    {
      "inputs": [
        {
          "internalType": "address",
          "name": "account",
          "type": "address"
        }
      ],
      "name": "OwnableUnauthorizedAccount",
      "type": "error"
    },
    {
      "anonymous": false,
      "inputs": [
        {
          "indexed": true,
          "internalType": "address",
          "name": "insurer",
          "type": "address"
        },
        {
          "indexed": false,
          "internalType": "string",
          "name": "name",
          "type": "string"
        }
      ],
      "name": "InsurerAdded",
      "type": "event"
    },
    {
      "anonymous": false,
      "inputs": [
        {
          "indexed": true,
          "internalType": "address",
          "name": "insurer",
          "type": "address"
        }
      ],
      "name": "InsurerRemoved",
      "type": "event"
    },
    {
      "anonymous": false,
      "inputs": [
        {
          "indexed": true,
          "internalType": "address",
          "name": "previousOwner",
          "type": "address"
        },
        {
          "indexed": true,
          "internalType": "address",
          "name": "newOwner",
          "type": "address"
        }
      ],
      "name": "OwnershipTransferred",
      "type": "event"
    },
    {
      "inputs": [
        {
          "internalType": "address",
          "name": "insurer",
          "type": "address"
        },
        {
          "internalType": "string",
          "name": "name",
          "type": "string"
        },
        {
          "internalType": "string",
          "name": "ipfsProfile",
          "type": "string"
        }
      ],
      "name": "addInsurer",
      "outputs": [],
      "stateMutability": "nonpayable",
      "type": "function"
    },
    {
      "inputs": [],
      "name": "getInsurerList",
      "outputs": [
        {
          "internalType": "address[]",
          "name": "",
          "type": "address[]"
        }
      ],
      "stateMutability": "view",
      "type": "function"
    },
    {
      "inputs": [
        {
          "internalType": "address",
          "name": "",
          "type": "address"
        }
      ],
      "name": "insurers",
      "outputs": [
        {
          "internalType": "bool",
          "name": "exists",
          "type": "bool"
        },
        {
          "internalType": "string",
          "name": "name",
          "type": "string"
        },
        {
          "internalType": "string",
          "name": "ipfsProfile",
          "type": "string"
        }
      ],
      "stateMutability": "view",
      "type": "function"
    },
    {
      "inputs": [
        {
          "internalType": "address",
          "name": "addr",
          "type": "address"
        }
      ],
      "name": "isInsurer",
      "outputs": [
        {
          "internalType": "bool",
          "name": "",
          "type": "bool"
        }
      ],
      "stateMutability": "view",
      "type": "function"
    },
    {
      "inputs": [],
      "name": "owner",
      "outputs": [
        {
          "internalType": "address",
          "name": "",
          "type": "address"
        }
      ],
      "stateMutability": "view",
      "type": "function"
    },
    {
      "inputs": [
        {
          "internalType": "address",
          "name": "insurer",
          "type": "address"
        }
      ],
      "name": "removeInsurer",
      "outputs": [],
      "stateMutability": "nonpayable",
      "type": "function"
    },
    {
      "inputs": [],
      "name": "renounceOwnership",
      "outputs": [],
      "stateMutability": "nonpayable",
      "type": "function"
    },
    {
      "inputs": [
        {
          "internalType": "address",
          "name": "newOwner",
          "type": "address"
        }
      ],
      "name": "transferOwnership",
      "outputs": [],
      "stateMutability": "nonpayable",
      "type": "function"
    }
  ],
  "bytecode": "0x608060405234801561001057600080fd5b5033600073ffffffffffffffffffffffffffffffffffffffff168173ffffffffffffffffffffffffffffffffffffffff16036100845760006040517f1e4fbdf700000000000000000000000000000000000000000000000000000000815260040161007b919061019e565b60405180910390fd5b6100938161009960201b60201c565b506101b9565b60008060009054906101000a900473ffffffffffffffffffffffffffffffffffffffff169050816000806101000a81548173ffffffffffffffffffffffffffffffffffffffff021916908373ffffffffffffffffffffffffffffffffffffffff1602179055508173ffffffffffffffffffffffffffffffffffffffff168173ffffffffffffffffffffffffffffffffffffffff167f8be0079c531659141344cd1fd0a4f28419497f9722a3daafe3b4186f6b6457e060405160405180910390a35050565b600073ffffffffffffffffffffffffffffffffffffffff82169050919050565b60006101888261015d565b9050919050565b6101988161017d565b82525050565b60006020820190506101b3600083018461018f565b92915050565b611509806101c86000396000f3fe608060405234801561001057600080fd5b50600436106100885760003560e01c80638da5cb5b1161005b5780638da5cb5b146100ed578063da7897e21461010b578063de45aeef1461013b578063f2fde38b1461016d57610088565b806327cb79161461008d5780636957c389146100ab578063715018a6146100c757806383e9dcb3146100d1575b600080fd5b610095610189565b6040516100a29190610d0f565b60405180910390f35b6100c560048036038101906100c09190610d67565b610217565b005b6100cf61053d565b005b6100eb60048036038101906100e69190610df9565b610551565b005b6100f5610820565b6040516101029190610e9d565b60405180910390f35b61012560048036038101906101209190610d67565b610849565b6040516101329190610ed3565b60405180910390f35b61015560048036038101906101509190610d67565b6108a2565b60405161016493929190610f7e565b60405180910390f35b61018760048036038101906101829190610d67565b6109e9565b005b6060600280548060200260200160405190810160405280929190818152602001828054801561020d57602002820191906000526020600020905b8160009054906101000a900473ffffffffffffffffffffffffffffffffffffffff1673ffffffffffffffffffffffffffffffffffffffff16815260200190600101908083116101c3575b5050505050905090565b61021f610a6f565b600160008273ffffffffffffffffffffffffffffffffffffffff1673ffffffffffffffffffffffffffffffffffffffff16815260200190815260200160002060000160009054906101000a900460ff166102ae576040517f08c379a00000000000000000000000000000000000000000000000000000000081526004016102a59061100f565b60405180910390fd5b6000600360008373ffffffffffffffffffffffffffffffffffffffff1673ffffffffffffffffffffffffffffffffffffffff168152602001908152602001600020549050600060016002805490506103069190611068565b90508082146103f5576000600282815481106103255761032461109c565b5b9060005260206000200160009054906101000a900473ffffffffffffffffffffffffffffffffffffffff16905080600284815481106103675761036661109c565b5b9060005260206000200160006101000a81548173ffffffffffffffffffffffffffffffffffffffff021916908373ffffffffffffffffffffffffffffffffffffffff16021790555082600360008373ffffffffffffffffffffffffffffffffffffffff1673ffffffffffffffffffffffffffffffffffffffff16815260200190815260200160002081905550505b6002805480610407576104066110cb565b5b6001900381819060005260206000200160006101000a81549073ffffffffffffffffffffffffffffffffffffffff02191690559055600160008473ffffffffffffffffffffffffffffffffffffffff1673ffffffffffffffffffffffffffffffffffffffff168152602001908152602001600020600080820160006101000a81549060ff02191690556001820160006104a09190610bc2565b6002820160006104b09190610bc2565b5050600360008473ffffffffffffffffffffffffffffffffffffffff1673ffffffffffffffffffffffffffffffffffffffff168152602001908152602001600020600090558273ffffffffffffffffffffffffffffffffffffffff167f8fd52a13e559b9b04c1a36e606454e17d629e3179bf205a110212cb982927f3260405160405180910390a2505050565b610545610a6f565b61054f6000610af6565b565b610559610a6f565b600160008673ffffffffffffffffffffffffffffffffffffffff1673ffffffffffffffffffffffffffffffffffffffff16815260200190815260200160002060000160009054906101000a900460ff16156105e9576040517f08c379a00000000000000000000000000000000000000000000000000000000081526004016105e090611146565b60405180910390fd5b604051806060016040528060011515815260200185858080601f016020809104026020016040519081016040528093929190818152602001838380828437600081840152601f19601f82011690508083019250505050505050815260200183838080601f016020809104026020016040519081016040528093929190818152602001838380828437600081840152601f19601f82011690508083019250505050505050815250600160008773ffffffffffffffffffffffffffffffffffffffff1673ffffffffffffffffffffffffffffffffffffffff16815260200190815260200160002060008201518160000160006101000a81548160ff021916908315150217905550602082015181600101908161070391906113a1565b50604082015181600201908161071991906113a1565b50905050600280549050600360008773ffffffffffffffffffffffffffffffffffffffff1673ffffffffffffffffffffffffffffffffffffffff168152602001908152602001600020819055506002859080600181540180825580915050600190039060005260206000200160009091909190916101000a81548173ffffffffffffffffffffffffffffffffffffffff021916908373ffffffffffffffffffffffffffffffffffffffff1602179055508473ffffffffffffffffffffffffffffffffffffffff167f2f070323f1d21943bbb0d6da5208018d5b1506e43b244636d7ca27e7958a2eaf85856040516108119291906114af565b60405180910390a25050505050565b60008060009054906101000a900473ffffffffffffffffffffffffffffffffffffffff16905090565b6000600160008373ffffffffffffffffffffffffffffffffffffffff1673ffffffffffffffffffffffffffffffffffffffff16815260200190815260200160002060000160009054906101000a900460ff169050919050565b60016020528060005260406000206000915090508060000160009054906101000a900460ff16908060010180546108d8906111c4565b80601f0160208091040260200160405190810160405280929190818152602001828054610904906111c4565b80156109515780601f1061092657610100808354040283529160200191610951565b820191906000526020600020905b81548152906001019060200180831161093457829003601f168201915b505050505090806002018054610966906111c4565b80601f0160208091040260200160405190810160405280929190818152602001828054610992906111c4565b80156109df5780601f106109b4576101008083540402835291602001916109df565b820191906000526020600020905b8154815290600101906020018083116109c257829003601f168201915b5050505050905083565b6109f1610a6f565b600073ffffffffffffffffffffffffffffffffffffffff168173ffffffffffffffffffffffffffffffffffffffff1603610a635760006040517f1e4fbdf7000000000000000000000000000000000000000000000000000000008152600401610a5a9190610e9d565b60405180910390fd5b610a6c81610af6565b50565b610a77610bba565b73ffffffffffffffffffffffffffffffffffffffff16610a95610820565b73ffffffffffffffffffffffffffffffffffffffff1614610af457610ab8610bba565b6040517f118cdaa7000000000000000000000000000000000000000000000000000000008152600401610aeb9190610e9d565b60405180910390fd5b565b60008060009054906101000a900473ffffffffffffffffffffffffffffffffffffffff169050816000806101000a81548173ffffffffffffffffffffffffffffffffffffffff021916908373ffffffffffffffffffffffffffffffffffffffff1602179055508173ffffffffffffffffffffffffffffffffffffffff168173ffffffffffffffffffffffffffffffffffffffff167f8be0079c531659141344cd1fd0a4f28419497f9722a3daafe3b4186f6b6457e060405160405180910390a35050565b600033905090565b508054610bce906111c4565b6000825580601f10610be05750610bff565b601f016020900490600052602060002090810190610bfe9190610c02565b5b50565b5b80821115610c1b576000816000905550600101610c03565b5090565b600081519050919050565b600082825260208201905092915050565b6000819050602082019050919050565b600073ffffffffffffffffffffffffffffffffffffffff82169050919050565b6000610c7682610c4b565b9050919050565b610c8681610c6b565b82525050565b6000610c988383610c7d565b60208301905092915050565b6000602082019050919050565b6000610cbc82610c1f565b610cc68185610c2a565b9350610cd183610c3b565b8060005b83811015610d02578151610ce98882610c8c565b9750610cf483610ca4565b925050600181019050610cd5565b5085935050505092915050565b60006020820190508181036000830152610d298184610cb1565b905092915050565b600080fd5b600080fd5b610d4481610c6b565b8114610d4f57600080fd5b50565b600081359050610d6181610d3b565b92915050565b600060208284031215610d7d57610d7c610d31565b5b6000610d8b84828501610d52565b91505092915050565b600080fd5b600080fd5b600080fd5b60008083601f840112610db957610db8610d94565b5b8235905067ffffffffffffffff811115610dd657610dd5610d99565b5b602083019150836001820283011115610df257610df1610d9e565b5b9250929050565b600080600080600060608688031215610e1557610e14610d31565b5b6000610e2388828901610d52565b955050602086013567ffffffffffffffff811115610e4457610e43610d36565b5b610e5088828901610da3565b9450945050604086013567ffffffffffffffff811115610e7357610e72610d36565b5b610e7f88828901610da3565b92509250509295509295909350565b610e9781610c6b565b82525050565b6000602082019050610eb26000830184610e8e565b92915050565b60008115159050919050565b610ecd81610eb8565b82525050565b6000602082019050610ee86000830184610ec4565b92915050565b600081519050919050565b600082825260208201905092915050565b60005b83811015610f28578082015181840152602081019050610f0d565b60008484015250505050565b6000601f19601f8301169050919050565b6000610f5082610eee565b610f5a8185610ef9565b9350610f6a818560208601610f0a565b610f7381610f34565b840191505092915050565b6000606082019050610f936000830186610ec4565b8181036020830152610fa58185610f45565b90508181036040830152610fb98184610f45565b9050949350505050565b7f4e6f7420666f756e640000000000000000000000000000000000000000000000600082015250565b6000610ff9600983610ef9565b915061100482610fc3565b602082019050919050565b6000602082019050818103600083015261102881610fec565b9050919050565b6000819050919050565b7f4e487b7100000000000000000000000000000000000000000000000000000000600052601160045260246000fd5b60006110738261102f565b915061107e8361102f565b925082820390508181111561109657611095611039565b5b92915050565b7f4e487b7100000000000000000000000000000000000000000000000000000000600052603260045260246000fd5b7f4e487b7100000000000000000000000000000000000000000000000000000000600052603160045260246000fd5b7f416c726561647920726567697374657265640000000000000000000000000000600082015250565b6000611130601283610ef9565b915061113b826110fa565b602082019050919050565b6000602082019050818103600083015261115f81611123565b9050919050565b7f4e487b7100000000000000000000000000000000000000000000000000000000600052604160045260246000fd5b7f4e487b7100000000000000000000000000000000000000000000000000000000600052602260045260246000fd5b600060028204905060018216806111dc57607f821691505b6020821081036111ef576111ee611195565b5b50919050565b60008190508160005260206000209050919050565b60006020601f8301049050919050565b600082821b905092915050565b6000600883026112577fffffffffffffffffffffffffffffffffffffffffffffffffffffffffffffffff8261121a565b611261868361121a565b95508019841693508086168417925050509392505050565b6000819050919050565b600061129e6112996112948461102f565b611279565b61102f565b9050919050565b6000819050919050565b6112b883611283565b6112cc6112c4826112a5565b848454611227565b825550505050565b600090565b6112e16112d4565b6112ec8184846112af565b505050565b5b81811015611310576113056000826112d9565b6001810190506112f2565b5050565b601f82111561135557611326816111f5565b61132f8461120a565b8101602085101561133e578190505b61135261134a8561120a565b8301826112f1565b50505b505050565b600082821c905092915050565b60006113786000198460080261135a565b1980831691505092915050565b60006113918383611367565b9150826002028217905092915050565b6113aa82610eee565b67ffffffffffffffff8111156113c3576113c2611166565b5b6113cd82546111c4565b6113d8828285611314565b600060209050601f83116001811461140b57600084156113f9578287015190505b6114038582611385565b86555061146b565b601f198416611419866111f5565b60005b828110156114415784890151825560018201915060208501945060208101905061141c565b8683101561145e578489015161145a601f891682611367565b8355505b6001600288020188555050505b505050505050565b82818337600083830152505050565b600061148e8385610ef9565b935061149b838584611473565b6114a483610f34565b840190509392505050565b600060208201905081810360008301526114ca818486611482565b9050939250505056fea2646970667358221220be0c4cfef49949d9a5403b5c5a630354a325646e1e1c339aacef72fac5f6fc7464736f6c634300081c0033",
  "linkReferences": {},
  "deployedLinkReferences": {}
}