{
  "_format": "hh-sol-artifact-1",
  "contractName": "Escrow",
  "sourceName": "contracts/Escrow.sol",
  "abi": [
    {
      "inputs": [
        {
          "internalType": "address",
          "name": "_realEstateAddress",
          "type": "address"
        },
        {
          "internalType": "address",
          "name": "_inspector",
          "type": "address"
        },
        {
          "internalType": "address",
          "name": "_lender",
          "type": "address"
        }
      ],
      "stateMutability": "nonpayable",
      "type": "constructor"
    },
    {
      "anonymous": false,
      "inputs": [
        {
          "indexed": true,
          "internalType": "uint256",
          "name": "listingID",
          "type": "uint256"
        },
        {
          "indexed": true,
          "internalType": "address",
          "name": "rejector",
          "type": "address"
        }
      ],
      "name": "ListingRejected",
      "type": "event"
    },
    {
      "anonymous": false,
      "inputs": [
        {
          "indexed": true,
          "internalType": "uint256",
          "name": "nftID",
          "type": "uint256"
        },
        {
          "indexed": true,
          "internalType": "address",
          "name": "verifier",
          "type": "address"
        },
        {
          "indexed": true,
          "internalType": "address",
          "name": "to",
          "type": "address"
        },
        {
          "indexed": false,
          "internalType": "string",
          "name": "tokenURI",
          "type": "string"
        }
      ],
      "name": "ListingVerified",
      "type": "event"
    },
    {
      "anonymous": false,
      "inputs": [
        {
          "indexed": true,
          "internalType": "uint256",
          "name": "listingID",
          "type": "uint256"
        },
        {
          "indexed": true,
          "internalType": "address",
          "name": "proposer",
          "type": "address"
        },
        {
          "indexed": false,
          "internalType": "uint256",
          "name": "purchasePrice",
          "type": "uint256"
        }
      ],
      "name": "ProposedListing",
      "type": "event"
    },
    {
      "anonymous": false,
      "inputs": [
        {
          "indexed": true,
          "internalType": "uint256",
          "name": "nftID",
          "type": "uint256"
        }
      ],
      "name": "SaleCancelled",
      "type": "event"
    },
    {
      "anonymous": false,
      "inputs": [
        {
          "indexed": true,
          "internalType": "uint256",
          "name": "nftID",
          "type": "uint256"
        },
        {
          "indexed": true,
          "internalType": "address",
          "name": "buyer",
          "type": "address"
        },
        {
          "indexed": true,
          "internalType": "address",
          "name": "seller",
          "type": "address"
        },
        {
          "indexed": false,
          "internalType": "uint256",
          "name": "purchasePrice",
          "type": "uint256"
        }
      ],
      "name": "SaleFinalized",
      "type": "event"
    },
    {
      "inputs": [
        {
          "internalType": "uint256",
          "name": "",
          "type": "uint256"
        },
        {
          "internalType": "address",
          "name": "",
          "type": "address"
        }
      ],
      "name": "approval",
      "outputs": [
        {
          "internalType": "bool",
          "name": "",
          "type": "bool"
        }
      ],
      "stateMutability": "view",
      "type": "function"
    },
    {
      "inputs": [
        {
          "internalType": "uint256",
          "name": "_nftID",
          "type": "uint256"
        },
        {
          "internalType": "address",
          "name": "_party",
          "type": "address"
        }
      ],
      "name": "approveSale",
      "outputs": [],
      "stateMutability": "nonpayable",
      "type": "function"
    },
    {
      "inputs": [
        {
          "internalType": "uint256",
          "name": "",
          "type": "uint256"
        }
      ],
      "name": "buyer",
      "outputs": [
        {
          "internalType": "address",
          "name": "",
          "type": "address"
        }
      ],
      "stateMutability": "view",
      "type": "function"
    },
    {
      "inputs": [
        {
          "internalType": "uint256",
          "name": "_nftID",
          "type": "uint256"
        }
      ],
      "name": "cancelSale",
      "outputs": [],
      "stateMutability": "nonpayable",
      "type": "function"
    },
    {
      "inputs": [
        {
          "internalType": "uint256",
          "name": "_nftID",
          "type": "uint256"
        },
        {
          "internalType": "address",
          "name": "_buyer",
          "type": "address"
        }
      ],
      "name": "depositEarnest",
      "outputs": [],
      "stateMutability": "payable",
      "type": "function"
    },
    {
      "inputs": [
        {
          "internalType": "uint256",
          "name": "",
          "type": "uint256"
        }
      ],
      "name": "escrowAmount",
      "outputs": [
        {
          "internalType": "uint256",
          "name": "",
          "type": "uint256"
        }
      ],
      "stateMutability": "view",
      "type": "function"
    },
    {
      "inputs": [
        {
          "internalType": "uint256",
          "name": "_nftID",
          "type": "uint256"
        }
      ],
      "name": "finalizeSale",
      "outputs": [],
      "stateMutability": "nonpayable",
      "type": "function"
    },
    {
      "inputs": [],
      "name": "getBalance",
      "outputs": [
        {
          "internalType": "uint256",
          "name": "",
          "type": "uint256"
        }
      ],
      "stateMutability": "view",
      "type": "function"
    },
    {
      "inputs": [
        {
          "internalType": "uint256",
          "name": "",
          "type": "uint256"
        }
      ],
      "name": "inspectionPassed",
      "outputs": [
        {
          "internalType": "bool",
          "name": "",
          "type": "bool"
        }
      ],
      "stateMutability": "view",
      "type": "function"
    },
    {
      "inputs": [],
      "name": "inspector",
      "outputs": [
        {
          "internalType": "address",
          "name": "",
          "type": "address"
        }
      ],
      "stateMutability": "view",
      "type": "function"
    },
    {
      "inputs": [
        {
          "internalType": "uint256",
          "name": "",
          "type": "uint256"
        }
      ],
      "name": "isListed",
      "outputs": [
        {
          "internalType": "bool",
          "name": "",
          "type": "bool"
        }
      ],
      "stateMutability": "view",
      "type": "function"
    },
    {
      "inputs": [],
      "name": "lender",
      "outputs": [
        {
          "internalType": "address",
          "name": "",
          "type": "address"
        }
      ],
      "stateMutability": "view",
      "type": "function"
    },
    {
      "inputs": [
        {
          "internalType": "uint256",
          "name": "",
          "type": "uint256"
        }
      ],
      "name": "propertyStatus",
      "outputs": [
        {
          "internalType": "enum Escrow.ListingStatus",
          "name": "",
          "type": "uint8"
        }
      ],
      "stateMutability": "view",
      "type": "function"
    },
    {
      "inputs": [
        {
          "internalType": "string",
          "name": "_tokenURI",
          "type": "string"
        },
        {
          "internalType": "uint256",
          "name": "_purchasePrice",
          "type": "uint256"
        }
      ],
      "name": "proposeListing",
      "outputs": [
        {
          "internalType": "uint256",
          "name": "",
          "type": "uint256"
        }
      ],
      "stateMutability": "nonpayable",
      "type": "function"
    },
    {
      "inputs": [
        {
          "internalType": "uint256",
          "name": "",
          "type": "uint256"
        }
      ],
      "name": "purchasePrice",
      "outputs": [
        {
          "internalType": "uint256",
          "name": "",
          "type": "uint256"
        }
      ],
      "stateMutability": "view",
      "type": "function"
    },
    {
      "inputs": [],
      "name": "realEstate",
      "outputs": [
        {
          "internalType": "contract IRealEstate",
          "name": "",
          "type": "address"
        }
      ],
      "stateMutability": "view",
      "type": "function"
    },
    {
      "inputs": [
        {
          "internalType": "uint256",
          "name": "_nftID",
          "type": "uint256"
        }
      ],
      "name": "rejectListing",
      "outputs": [],
      "stateMutability": "nonpayable",
      "type": "function"
    },
    {
      "inputs": [
        {
          "internalType": "uint256",
          "name": "",
          "type": "uint256"
        }
      ],
      "name": "sellers",
      "outputs": [
        {
          "internalType": "address",
          "name": "",
          "type": "address"
        }
      ],
      "stateMutability": "view",
      "type": "function"
    },
    {
      "inputs": [
        {
          "internalType": "uint256",
          "name": "_nftID",
          "type": "uint256"
        },
        {
          "internalType": "uint256",
          "name": "_purchasePrice",
          "type": "uint256"
        },
        {
          "internalType": "uint256",
          "name": "_escrowAmount",
          "type": "uint256"
        }
      ],
      "name": "setPurchasePriceAndEscrow",
      "outputs": [],
      "stateMutability": "nonpayable",
      "type": "function"
    },
    {
      "inputs": [
        {
          "internalType": "address",
          "name": "_realEstateAddress",
          "type": "address"
        }
      ],
      "name": "setRealEstateAddress",
      "outputs": [],
      "stateMutability": "nonpayable",
      "type": "function"
    },
    {
      "inputs": [
        {
          "internalType": "uint256",
          "name": "_nftID",
          "type": "uint256"
        },
        {
          "internalType": "bool",
          "name": "_passed",
          "type": "bool"
        }
      ],
      "name": "updateInspectionStatus",
      "outputs": [],
      "stateMutability": "nonpayable",
      "type": "function"
    },
    {
      "inputs": [
        {
          "internalType": "uint256",
          "name": "_listingID",
          "type": "uint256"
        }
      ],
      "name": "verifyListing",
      "outputs": [],
      "stateMutability": "nonpayable",
      "type": "function"
    },
    {
      "stateMutability": "payable",
      "type": "receive"
    }
  ],
  "bytecode": "0x60806040523480156200001157600080fd5b5060405162003a1d38038062003a1d83398181016040528101906200003791906200016c565b826000806101000a81548173ffffffffffffffffffffffffffffffffffffffff021916908373ffffffffffffffffffffffffffffffffffffffff16021790555081600160006101000a81548173ffffffffffffffffffffffffffffffffffffffff021916908373ffffffffffffffffffffffffffffffffffffffff16021790555080600260006101000a81548173ffffffffffffffffffffffffffffffffffffffff021916908373ffffffffffffffffffffffffffffffffffffffff160217905550505050620001c8565b600080fd5b600073ffffffffffffffffffffffffffffffffffffffff82169050919050565b6000620001348262000107565b9050919050565b620001468162000127565b81146200015257600080fd5b50565b60008151905062000166816200013b565b92915050565b60008060006060848603121562000188576200018762000102565b5b6000620001988682870162000155565b9350506020620001ab8682870162000155565b9250506040620001be8682870162000155565b9150509250925092565b61384580620001d86000396000f3fe6080604052600436106101395760003560e01c80639739392d116100ab578063b848de351161006f578063b848de3514610444578063bcead63e14610481578063bd94b005146104ac578063cee26ed5146104d5578063ed2cee9e14610512578063fcce48831461053d57610140565b80639739392d146103775780639d0e5fd6146103a0578063aa929380146103c9578063b2be4180146103f2578063b7b8dfa61461041b57610140565b80634dd4acaf116100fd5780634dd4acaf1461023c5780635d19e56c146102795780635eed5fff146102b65780636fce4cc5146102f357806370ce84971461030f57806377fbc4ae1461033a57610140565b806312065fe014610145578063151aab07146101705780631d56284a146101ad57806320fed772146101ea5780632f3be32e1461021357610140565b3661014057005b600080fd5b34801561015157600080fd5b5061015a61057a565b604051610167919061226b565b60405180910390f35b34801561017c57600080fd5b506101976004803603810190610192919061240c565b610582565b6040516101a4919061226b565b60405180910390f35b3480156101b957600080fd5b506101d460048036038101906101cf9190612468565b6106bc565b6040516101e1919061250c565b60405180910390f35b3480156101f657600080fd5b50610211600480360381019061020c9190612468565b6106dc565b005b34801561021f57600080fd5b5061023a60048036038101906102359190612527565b610a9e565b005b34801561024857600080fd5b50610263600480360381019061025e9190612468565b610ad3565b60405161027091906125bb565b60405180910390f35b34801561028557600080fd5b506102a0600480360381019061029b9190612468565b610b06565b6040516102ad919061226b565b60405180910390f35b3480156102c257600080fd5b506102dd60048036038101906102d89190612468565b610b1e565b6040516102ea91906125f1565b60405180910390f35b61030d60048036038101906103089190612638565b610b3e565b005b34801561031b57600080fd5b50610324610d1c565b60405161033191906126d7565b60405180910390f35b34801561034657600080fd5b50610361600480360381019061035c9190612468565b610d40565b60405161036e919061226b565b60405180910390f35b34801561038357600080fd5b5061039e60048036038101906103999190612468565b610d58565b005b3480156103ac57600080fd5b506103c760048036038101906103c2919061271e565b610ef2565b005b3480156103d557600080fd5b506103f060048036038101906103eb9190612468565b611038565b005b3480156103fe57600080fd5b5061041960048036038101906104149190612638565b611838565b005b34801561042757600080fd5b50610442600480360381019061043d919061275e565b611afc565b005b34801561045057600080fd5b5061046b60048036038101906104669190612638565b611c3d565b60405161047891906125f1565b60405180910390f35b34801561048d57600080fd5b50610496611c6c565b6040516104a391906125bb565b60405180910390f35b3480156104b857600080fd5b506104d360048036038101906104ce9190612468565b611c92565b005b3480156104e157600080fd5b506104fc60048036038101906104f79190612468565b6121b5565b60405161050991906125bb565b60405180910390f35b34801561051e57600080fd5b506105276121e8565b60405161053491906125bb565b60405180910390f35b34801561054957600080fd5b50610564600480360381019061055f9190612468565b61220e565b60405161057191906125f1565b60405180910390f35b600047905090565b600061058e600361222e565b600061059a6003612244565b9050336004600083815260200190815260200160002060006101000a81548173ffffffffffffffffffffffffffffffffffffffff021916908373ffffffffffffffffffffffffffffffffffffffff16021790555082600760008381526020019081526020016000208190555060016005600083815260200190815260200160002060006101000a81548160ff0219169083600481111561063d5761063c612495565b5b021790555083600c600083815260200190815260200160002090816106629190612998565b503373ffffffffffffffffffffffffffffffffffffffff16817ffd380029448de66b04c3ea6dc88059bbab60aca3780bc46a5f892593244c2bba856040516106aa919061226b565b60405180910390a38091505092915050565b60056020528060005260406000206000915054906101000a900460ff1681565b600160009054906101000a900473ffffffffffffffffffffffffffffffffffffffff1673ffffffffffffffffffffffffffffffffffffffff163373ffffffffffffffffffffffffffffffffffffffff161461076c576040517f08c379a000000000000000000000000000000000000000000000000000000000815260040161076390612aed565b60405180910390fd5b600160048111156107805761077f612495565b5b6005600083815260200190815260200160002060009054906101000a900460ff1660048111156107b3576107b2612495565b5b146107f3576040517f08c379a00000000000000000000000000000000000000000000000000000000081526004016107ea90612b7f565b60405180910390fd5b6000600c60008381526020019081526020016000208054610813906127c5565b80601f016020809104026020016040519081016040528092919081815260200182805461083f906127c5565b801561088c5780601f106108615761010080835404028352916020019161088c565b820191906000526020600020905b81548152906001019060200180831161086f57829003601f168201915b5050505050905060008151116108d7576040517f08c379a00000000000000000000000000000000000000000000000000000000081526004016108ce90612c11565b60405180910390fd5b60008054906101000a900473ffffffffffffffffffffffffffffffffffffffff1673ffffffffffffffffffffffffffffffffffffffff1663d3fc98646004600085815260200190815260200160002060009054906101000a900473ffffffffffffffffffffffffffffffffffffffff1684846040518463ffffffff1660e01b815260040161096793929190612c94565b600060405180830381600087803b15801561098157600080fd5b505af1158015610995573d6000803e3d6000fd5b5050505060026005600084815260200190815260200160002060006101000a81548160ff021916908360048111156109d0576109cf612495565b5b021790555060016006600084815260200190815260200160002060006101000a81548160ff0219169083151502179055506004600083815260200190815260200160002060009054906101000a900473ffffffffffffffffffffffffffffffffffffffff1673ffffffffffffffffffffffffffffffffffffffff163373ffffffffffffffffffffffffffffffffffffffff16837f735b852b22fc0e4dc25045dbae988e2cac6b70065a0fb50a10d0b6e9ae02495484604051610a929190612cd2565b60405180910390a45050565b816007600085815260200190815260200160002081905550806008600085815260200190815260200160002081905550505050565b60096020528060005260406000206000915054906101000a900473ffffffffffffffffffffffffffffffffffffffff1681565b60086020528060005260406000206000915090505481565b600a6020528060005260406000206000915054906101000a900460ff1681565b60026004811115610b5257610b51612495565b5b6005600084815260200190815260200160002060009054906101000a900460ff166004811115610b8557610b84612495565b5b14610bc5576040517f08c379a0000000000000000000000000000000000000000000000000000000008152600401610bbc90612d40565b60405180910390fd5b6000600760008481526020019081526020016000205411610c1b576040517f08c379a0000000000000000000000000000000000000000000000000000000008152600401610c1290612dac565b60405180910390fd5b6000600860008481526020019081526020016000205411610c71576040517f08c379a0000000000000000000000000000000000000000000000000000000008152600401610c6890612e18565b60405180910390fd5b60086000838152602001908152602001600020543414610cc6576040517f08c379a0000000000000000000000000000000000000000000000000000000008152600401610cbd90612e84565b60405180910390fd5b806009600084815260200190815260200160002060006101000a81548173ffffffffffffffffffffffffffffffffffffffff021916908373ffffffffffffffffffffffffffffffffffffffff1602179055505050565b60008054906101000a900473ffffffffffffffffffffffffffffffffffffffff1681565b60076020528060005260406000206000915090505481565b600160009054906101000a900473ffffffffffffffffffffffffffffffffffffffff1673ffffffffffffffffffffffffffffffffffffffff163373ffffffffffffffffffffffffffffffffffffffff1614610de8576040517f08c379a0000000000000000000000000000000000000000000000000000000008152600401610ddf90612aed565b60405180910390fd5b60016004811115610dfc57610dfb612495565b5b6005600083815260200190815260200160002060009054906101000a900460ff166004811115610e2f57610e2e612495565b5b14610e6f576040517f08c379a0000000000000000000000000000000000000000000000000000000008152600401610e6690612b7f565b60405180910390fd5b60036005600083815260200190815260200160002060006101000a81548160ff02191690836004811115610ea657610ea5612495565b5b02179055503373ffffffffffffffffffffffffffffffffffffffff16817f8dbaa402933beea9fee85b46ba2f2a5190de6d6aae9841459724f200210b28b560405160405180910390a350565b600160009054906101000a900473ffffffffffffffffffffffffffffffffffffffff1673ffffffffffffffffffffffffffffffffffffffff163373ffffffffffffffffffffffffffffffffffffffff1614610f82576040517f08c379a0000000000000000000000000000000000000000000000000000000008152600401610f7990612aed565b60405180910390fd5b60026004811115610f9657610f95612495565b5b6005600084815260200190815260200160002060009054906101000a900460ff166004811115610fc957610fc8612495565b5b14611009576040517f08c379a000000000000000000000000000000000000000000000000000000000815260040161100090612d40565b60405180910390fd5b80600a600084815260200190815260200160002060006101000a81548160ff0219169083151502179055505050565b600260009054906101000a900473ffffffffffffffffffffffffffffffffffffffff1673ffffffffffffffffffffffffffffffffffffffff163373ffffffffffffffffffffffffffffffffffffffff16146110c8576040517f08c379a00000000000000000000000000000000000000000000000000000000081526004016110bf90612ef0565b60405180910390fd5b600260048111156110dc576110db612495565b5b6005600083815260200190815260200160002060009054906101000a900460ff16600481111561110f5761110e612495565b5b1461114f576040517f08c379a000000000000000000000000000000000000000000000000000000000815260040161114690612d40565b60405180910390fd5b600a600082815260200190815260200160002060009054906101000a900460ff166111af576040517f08c379a00000000000000000000000000000000000000000000000000000000081526004016111a690612f5c565b60405180910390fd5b600b600082815260200190815260200160002060006009600084815260200190815260200160002060009054906101000a900473ffffffffffffffffffffffffffffffffffffffff1673ffffffffffffffffffffffffffffffffffffffff1673ffffffffffffffffffffffffffffffffffffffff16815260200190815260200160002060009054906101000a900460ff1661127f576040517f08c379a000000000000000000000000000000000000000000000000000000000815260040161127690612fc8565b60405180910390fd5b600b600082815260200190815260200160002060006004600084815260200190815260200160002060009054906101000a900473ffffffffffffffffffffffffffffffffffffffff1673ffffffffffffffffffffffffffffffffffffffff1673ffffffffffffffffffffffffffffffffffffffff16815260200190815260200160002060009054906101000a900460ff1661134f576040517f08c379a000000000000000000000000000000000000000000000000000000000815260040161134690613034565b60405180910390fd5b600b60008281526020019081526020016000206000600260009054906101000a900473ffffffffffffffffffffffffffffffffffffffff1673ffffffffffffffffffffffffffffffffffffffff1673ffffffffffffffffffffffffffffffffffffffff16815260200190815260200160002060009054906101000a900460ff1661140e576040517f08c379a0000000000000000000000000000000000000000000000000000000008152600401611405906130a0565b60405180910390fd5b600073ffffffffffffffffffffffffffffffffffffffff166009600083815260200190815260200160002060009054906101000a900473ffffffffffffffffffffffffffffffffffffffff1673ffffffffffffffffffffffffffffffffffffffff16036114b0576040517f08c379a00000000000000000000000000000000000000000000000000000000081526004016114a79061310c565b60405180910390fd5b6007600082815260200190815260200160002054471015611506576040517f08c379a00000000000000000000000000000000000000000000000000000000081526004016114fd9061319e565b60405180910390fd5b60008054906101000a900473ffffffffffffffffffffffffffffffffffffffff1673ffffffffffffffffffffffffffffffffffffffff166323b872dd6004600084815260200190815260200160002060009054906101000a900473ffffffffffffffffffffffffffffffffffffffff166009600085815260200190815260200160002060009054906101000a900473ffffffffffffffffffffffffffffffffffffffff16846040518463ffffffff1660e01b81526004016115c9939291906131be565b600060405180830381600087803b1580156115e357600080fd5b505af11580156115f7573d6000803e3d6000fd5b5050505060006004600083815260200190815260200160002060009054906101000a900473ffffffffffffffffffffffffffffffffffffffff1673ffffffffffffffffffffffffffffffffffffffff16600760008481526020019081526020016000205460405161166790613226565b60006040518083038185875af1925050503d80600081146116a4576040519150601f19603f3d011682016040523d82523d6000602084013e6116a9565b606091505b50509050806116ed576040517f08c379a00000000000000000000000000000000000000000000000000000000081526004016116e4906132ad565b60405180910390fd5b60046005600084815260200190815260200160002060006101000a81548160ff0219169083600481111561172457611723612495565b5b021790555060006006600084815260200190815260200160002060006101000a81548160ff0219169083151502179055506004600083815260200190815260200160002060009054906101000a900473ffffffffffffffffffffffffffffffffffffffff1673ffffffffffffffffffffffffffffffffffffffff166009600084815260200190815260200160002060009054906101000a900473ffffffffffffffffffffffffffffffffffffffff1673ffffffffffffffffffffffffffffffffffffffff16837fbd44235c09cb919d940568e0d0f2cfff43c13a5493eedb465c2d1423a7d0b849600760008781526020019081526020016000205460405161182c919061226b565b60405180910390a45050565b6002600481111561184c5761184b612495565b5b6005600084815260200190815260200160002060009054906101000a900460ff16600481111561187f5761187e612495565b5b146118bf576040517f08c379a00000000000000000000000000000000000000000000000000000000081526004016118b690612d40565b60405180910390fd5b6009600083815260200190815260200160002060009054906101000a900473ffffffffffffffffffffffffffffffffffffffff1673ffffffffffffffffffffffffffffffffffffffff163373ffffffffffffffffffffffffffffffffffffffff16148061198a57506004600083815260200190815260200160002060009054906101000a900473ffffffffffffffffffffffffffffffffffffffff1673ffffffffffffffffffffffffffffffffffffffff163373ffffffffffffffffffffffffffffffffffffffff16145b806119e25750600260009054906101000a900473ffffffffffffffffffffffffffffffffffffffff1673ffffffffffffffffffffffffffffffffffffffff163373ffffffffffffffffffffffffffffffffffffffff16145b611a21576040517f08c379a0000000000000000000000000000000000000000000000000000000008152600401611a189061333f565b60405180910390fd5b8073ffffffffffffffffffffffffffffffffffffffff163373ffffffffffffffffffffffffffffffffffffffff1614611a8f576040517f08c379a0000000000000000000000000000000000000000000000000000000008152600401611a86906133d1565b60405180910390fd5b6001600b600084815260200190815260200160002060008373ffffffffffffffffffffffffffffffffffffffff1673ffffffffffffffffffffffffffffffffffffffff16815260200190815260200160002060006101000a81548160ff0219169083151502179055505050565b600073ffffffffffffffffffffffffffffffffffffffff1660008054906101000a900473ffffffffffffffffffffffffffffffffffffffff1673ffffffffffffffffffffffffffffffffffffffff1614611b8b576040517f08c379a0000000000000000000000000000000000000000000000000000000008152600401611b829061343d565b60405180910390fd5b600073ffffffffffffffffffffffffffffffffffffffff168173ffffffffffffffffffffffffffffffffffffffff1603611bfa576040517f08c379a0000000000000000000000000000000000000000000000000000000008152600401611bf1906134cf565b60405180910390fd5b806000806101000a81548173ffffffffffffffffffffffffffffffffffffffff021916908373ffffffffffffffffffffffffffffffffffffffff16021790555050565b600b6020528160005260406000206020528060005260406000206000915091509054906101000a900460ff1681565b600260009054906101000a900473ffffffffffffffffffffffffffffffffffffffff1681565b60026004811115611ca657611ca5612495565b5b6005600083815260200190815260200160002060009054906101000a900460ff166004811115611cd957611cd8612495565b5b14611d19576040517f08c379a0000000000000000000000000000000000000000000000000000000008152600401611d1090612d40565b60405180910390fd5b600a600082815260200190815260200160002060009054906101000a900460ff1615611d7a576040517f08c379a0000000000000000000000000000000000000000000000000000000008152600401611d719061353b565b60405180910390fd5b6009600082815260200190815260200160002060009054906101000a900473ffffffffffffffffffffffffffffffffffffffff1673ffffffffffffffffffffffffffffffffffffffff163373ffffffffffffffffffffffffffffffffffffffff161480611e4557506004600082815260200190815260200160002060009054906101000a900473ffffffffffffffffffffffffffffffffffffffff1673ffffffffffffffffffffffffffffffffffffffff163373ffffffffffffffffffffffffffffffffffffffff16145b80611e9d5750600160009054906101000a900473ffffffffffffffffffffffffffffffffffffffff1673ffffffffffffffffffffffffffffffffffffffff163373ffffffffffffffffffffffffffffffffffffffff16145b611edc576040517f08c379a0000000000000000000000000000000000000000000000000000000008152600401611ed3906135cd565b60405180910390fd5b600073ffffffffffffffffffffffffffffffffffffffff166009600083815260200190815260200160002060009054906101000a900473ffffffffffffffffffffffffffffffffffffffff1673ffffffffffffffffffffffffffffffffffffffff1603611f7e576040517f08c379a0000000000000000000000000000000000000000000000000000000008152600401611f759061365f565b60405180910390fd5b6000600860008381526020019081526020016000205411611fd4576040517f08c379a0000000000000000000000000000000000000000000000000000000008152600401611fcb906136f1565b60405180910390fd5b600860008281526020019081526020016000205447101561202a576040517f08c379a000000000000000000000000000000000000000000000000000000000815260040161202190613783565b60405180910390fd5b60006009600083815260200190815260200160002060009054906101000a900473ffffffffffffffffffffffffffffffffffffffff1673ffffffffffffffffffffffffffffffffffffffff16600860008481526020019081526020016000205460405161209690613226565b60006040518083038185875af1925050503d80600081146120d3576040519150601f19603f3d011682016040523d82523d6000602084013e6120d8565b606091505b505090508061211c576040517f08c379a0000000000000000000000000000000000000000000000000000000008152600401612113906137ef565b60405180910390fd5b60036005600084815260200190815260200160002060006101000a81548160ff0219169083600481111561215357612152612495565b5b021790555060006006600084815260200190815260200160002060006101000a81548160ff021916908315150217905550817f2c56893f6f6026d19bd17b7d05c9f15c522de1ae2b1c3a825f91a73c799321f260405160405180910390a25050565b60046020528060005260406000206000915054906101000a900473ffffffffffffffffffffffffffffffffffffffff1681565b600160009054906101000a900473ffffffffffffffffffffffffffffffffffffffff1681565b60066020528060005260406000206000915054906101000a900460ff1681565b6001816000016000828254019250508190555050565b600081600001549050919050565b6000819050919050565b61226581612252565b82525050565b6000602082019050612280600083018461225c565b92915050565b6000604051905090565b600080fd5b600080fd5b600080fd5b600080fd5b6000601f19601f8301169050919050565b7f4e487b7100000000000000000000000000000000000000000000000000000000600052604160045260246000fd5b6122ed826122a4565b810181811067ffffffffffffffff8211171561230c5761230b6122b5565b5b80604052505050565b600061231f612286565b905061232b82826122e4565b919050565b600067ffffffffffffffff82111561234b5761234a6122b5565b5b612354826122a4565b9050602081019050919050565b82818337600083830152505050565b600061238361237e84612330565b612315565b90508281526020810184848401111561239f5761239e61229f565b5b6123aa848285612361565b509392505050565b600082601f8301126123c7576123c661229a565b5b81356123d7848260208601612370565b91505092915050565b6123e981612252565b81146123f457600080fd5b50565b600081359050612406816123e0565b92915050565b6000806040838503121561242357612422612290565b5b600083013567ffffffffffffffff81111561244157612440612295565b5b61244d858286016123b2565b925050602061245e858286016123f7565b9150509250929050565b60006020828403121561247e5761247d612290565b5b600061248c848285016123f7565b91505092915050565b7f4e487b7100000000000000000000000000000000000000000000000000000000600052602160045260246000fd5b600581106124d5576124d4612495565b5b50565b60008190506124e6826124c4565b919050565b60006124f6826124d8565b9050919050565b612506816124eb565b82525050565b600060208201905061252160008301846124fd565b92915050565b6000806000606084860312156125405761253f612290565b5b600061254e868287016123f7565b935050602061255f868287016123f7565b9250506040612570868287016123f7565b9150509250925092565b600073ffffffffffffffffffffffffffffffffffffffff82169050919050565b60006125a58261257a565b9050919050565b6125b58161259a565b82525050565b60006020820190506125d060008301846125ac565b92915050565b60008115159050919050565b6125eb816125d6565b82525050565b600060208201905061260660008301846125e2565b92915050565b6126158161259a565b811461262057600080fd5b50565b6000813590506126328161260c565b92915050565b6000806040838503121561264f5761264e612290565b5b600061265d858286016123f7565b925050602061266e85828601612623565b9150509250929050565b6000819050919050565b600061269d6126986126938461257a565b612678565b61257a565b9050919050565b60006126af82612682565b9050919050565b60006126c1826126a4565b9050919050565b6126d1816126b6565b82525050565b60006020820190506126ec60008301846126c8565b92915050565b6126fb816125d6565b811461270657600080fd5b50565b600081359050612718816126f2565b92915050565b6000806040838503121561273557612734612290565b5b6000612743858286016123f7565b925050602061275485828601612709565b9150509250929050565b60006020828403121561277457612773612290565b5b600061278284828501612623565b91505092915050565b600081519050919050565b7f4e487b7100000000000000000000000000000000000000000000000000000000600052602260045260246000fd5b600060028204905060018216806127dd57607f821691505b6020821081036127f0576127ef612796565b5b50919050565b60008190508160005260206000209050919050565b60006020601f8301049050919050565b600082821b905092915050565b6000600883026128587fffffffffffffffffffffffffffffffffffffffffffffffffffffffffffffffff8261281b565b612862868361281b565b95508019841693508086168417925050509392505050565b600061289561289061288b84612252565b612678565b612252565b9050919050565b6000819050919050565b6128af8361287a565b6128c36128bb8261289c565b848454612828565b825550505050565b600090565b6128d86128cb565b6128e38184846128a6565b505050565b5b81811015612907576128fc6000826128d0565b6001810190506128e9565b5050565b601f82111561294c5761291d816127f6565b6129268461280b565b81016020851015612935578190505b6129496129418561280b565b8301826128e8565b50505b505050565b600082821c905092915050565b600061296f60001984600802612951565b1980831691505092915050565b6000612988838361295e565b9150826002028217905092915050565b6129a18261278b565b67ffffffffffffffff8111156129ba576129b96122b5565b5b6129c482546127c5565b6129cf82828561290b565b600060209050601f831160018114612a0257600084156129f0578287015190505b6129fa858261297c565b865550612a62565b601f198416612a10866127f6565b60005b82811015612a3857848901518255600182019150602085019450602081019050612a13565b86831015612a555784890151612a51601f89168261295e565b8355505b6001600288020188555050505b505050505050565b600082825260208201905092915050565b7f4f6e6c7920696e73706563746f722063616e2063616c6c2074686973206d657460008201527f686f640000000000000000000000000000000000000000000000000000000000602082015250565b6000612ad7602383612a6a565b9150612ae282612a7b565b604082019050919050565b60006020820190508181036000830152612b0681612aca565b9050919050565b7f4c697374696e67206973206e6f742070656e64696e6720696e7370656374696f60008201527f6e00000000000000000000000000000000000000000000000000000000000000602082015250565b6000612b69602183612a6a565b9150612b7482612b0d565b604082019050919050565b60006020820190508181036000830152612b9881612b5c565b9050919050565b7f546f6b656e20555249206d697373696e6720666f722070726f706f736564206c60008201527f697374696e670000000000000000000000000000000000000000000000000000602082015250565b6000612bfb602683612a6a565b9150612c0682612b9f565b604082019050919050565b60006020820190508181036000830152612c2a81612bee565b9050919050565b60005b83811015612c4f578082015181840152602081019050612c34565b60008484015250505050565b6000612c668261278b565b612c708185612a6a565b9350612c80818560208601612c31565b612c89816122a4565b840191505092915050565b6000606082019050612ca960008301866125ac565b612cb6602083018561225c565b8181036040830152612cc88184612c5b565b9050949350505050565b60006020820190508181036000830152612cec8184612c5b565b905092915050565b7f4c697374696e67206973206e6f74207665726966696564000000000000000000600082015250565b6000612d2a601783612a6a565b9150612d3582612cf4565b602082019050919050565b60006020820190508181036000830152612d5981612d1d565b9050919050565b7f5075726368617365207072696365206e6f742073657400000000000000000000600082015250565b6000612d96601683612a6a565b9150612da182612d60565b602082019050919050565b60006020820190508181036000830152612dc581612d89565b9050919050565b7f457363726f7720616d6f756e74206e6f7420636f6e6669677572656400000000600082015250565b6000612e02601c83612a6a565b9150612e0d82612dcc565b602082019050919050565b60006020820190508181036000830152612e3181612df5565b9050919050565b7f496e636f727265637420657363726f7720616d6f756e74000000000000000000600082015250565b6000612e6e601783612a6a565b9150612e7982612e38565b602082019050919050565b60006020820190508181036000830152612e9d81612e61565b9050919050565b7f4f6e6c79206c656e6465722063616e2063616c6c2074686973206d6574686f64600082015250565b6000612eda602083612a6a565b9150612ee582612ea4565b602082019050919050565b60006020820190508181036000830152612f0981612ecd565b9050919050565b7f496e7370656374696f6e20686173206e6f742070617373656400000000000000600082015250565b6000612f46601983612a6a565b9150612f5182612f10565b602082019050919050565b60006020820190508181036000830152612f7581612f39565b9050919050565b7f427579657220686173206e6f7420617070726f76656400000000000000000000600082015250565b6000612fb2601683612a6a565b9150612fbd82612f7c565b602082019050919050565b60006020820190508181036000830152612fe181612fa5565b9050919050565b7f53656c6c657220686173206e6f7420617070726f766564000000000000000000600082015250565b600061301e601783612a6a565b915061302982612fe8565b602082019050919050565b6000602082019050818103600083015261304d81613011565b9050919050565b7f4c656e64657220686173206e6f7420617070726f766564000000000000000000600082015250565b600061308a601783612a6a565b915061309582613054565b602082019050919050565b600060208201905081810360008301526130b98161307d565b9050919050565b7f427579657220686173206e6f74206465706f7369746564206561726e65737400600082015250565b60006130f6601f83612a6a565b9150613101826130c0565b602082019050919050565b60006020820190508181036000830152613125816130e9565b9050919050565b7f496e73756666696369656e742066756e647320696e20657363726f7720746f2060008201527f66696e616c697a652073616c6500000000000000000000000000000000000000602082015250565b6000613188602d83612a6a565b91506131938261312c565b604082019050919050565b600060208201905081810360008301526131b78161317b565b9050919050565b60006060820190506131d360008301866125ac565b6131e060208301856125ac565b6131ed604083018461225c565b949350505050565b600081905092915050565b50565b60006132106000836131f5565b915061321b82613200565b600082019050919050565b600061323182613203565b9150819050919050565b7f4661696c656420746f207472616e73666572207075726368617365207072696360008201527f6520746f2073656c6c6572000000000000000000000000000000000000000000602082015250565b6000613297602b83612a6a565b91506132a28261323b565b604082019050919050565b600060208201905081810360008301526132c68161328a565b9050919050565b7f4f6e6c792062757965722c2073656c6c6572206f72206c656e6465722063616e60008201527f20617070726f7665000000000000000000000000000000000000000000000000602082015250565b6000613329602883612a6a565b9150613334826132cd565b604082019050919050565b600060208201905081810360008301526133588161331c565b9050919050565b7f43616e6e6f7420617070726f7665206f6e20626568616c66206f6620616e6f7460008201527f6865722070617274790000000000000000000000000000000000000000000000602082015250565b60006133bb602983612a6a565b91506133c68261335f565b604082019050919050565b600060208201905081810360008301526133ea816133ae565b9050919050565b7f5265616c457374617465206164647265737320616c7265616479207365740000600082015250565b6000613427601e83612a6a565b9150613432826133f1565b602082019050919050565b600060208201905081810360008301526134568161341a565b9050919050565b7f5265616c4573746174653a204e657720616464726573732063616e6e6f74206260008201527f65207a65726f0000000000000000000000000000000000000000000000000000602082015250565b60006134b9602683612a6a565b91506134c48261345d565b604082019050919050565b600060208201905081810360008301526134e8816134ac565b9050919050565b7f496e7370656374696f6e20686173207061737365640000000000000000000000600082015250565b6000613525601583612a6a565b9150613530826134ef565b602082019050919050565b6000602082019050818103600083015261355481613518565b9050919050565b7f4f6e6c792062757965722c2073656c6c65722c206f7220696e73706563746f7260008201527f2063616e2063616e63656c000000000000000000000000000000000000000000602082015250565b60006135b7602b83612a6a565b91506135c28261355b565b604082019050919050565b600060208201905081810360008301526135e6816135aa565b9050919050565b7f4e6f206275796572206173736f63696174656420776974682074686973204e4660008201527f5420666f7220726566756e640000000000000000000000000000000000000000602082015250565b6000613649602c83612a6a565b9150613654826135ed565b604082019050919050565b600060208201905081810360008301526136788161363c565b9050919050565b7f4e6f206561726e657374206d6f6e6579206465706f736974656420666f72207460008201527f686973204e465420746f20726566756e64000000000000000000000000000000602082015250565b60006136db603183612a6a565b91506136e68261367f565b604082019050919050565b6000602082019050818103600083015261370a816136ce565b9050919050565b7f496e73756666696369656e7420657363726f772062616c616e636520666f722060008201527f726566756e640000000000000000000000000000000000000000000000000000602082015250565b600061376d602683612a6a565b915061377882613711565b604082019050919050565b6000602082019050818103600083015261379c81613760565b9050919050565b7f4661696c656420746f20726566756e64206561726e657374206d6f6e65790000600082015250565b60006137d9601e83612a6a565b91506137e4826137a3565b602082019050919050565b60006020820190508181036000830152613808816137cc565b905091905056fea26469706673582212207fd6ca6026fa11a3fe56ab69630e93c255f71bb2ef0738fa8909305e706bea1964736f6c63430008110033",
  "linkReferences": {},
  "deployedLinkReferences": {}
}