{
  "_format": "hh-sol-artifact-1",
  "contractName": "Escrow",
  "sourceName": "contracts/Escrow.sol",
  "abi": [
    {
      "inputs": [
        {
          "internalType": "address",
          "name": "_realEstateAddress",
          "type": "address"
        },
        {
          "internalType": "address",
          "name": "_inspector",
          "type": "address"
        },
        {
          "internalType": "address",
          "name": "_lender",
          "type": "address"
        }
      ],
      "stateMutability": "nonpayable",
      "type": "constructor"
    },
    {
      "anonymous": false,
      "inputs": [
        {
          "indexed": true,
          "internalType": "uint256",
          "name": "listingID",
          "type": "uint256"
        },
        {
          "indexed": true,
          "internalType": "address",
          "name": "rejector",
          "type": "address"
        }
      ],
      "name": "ListingRejected",
      "type": "event"
    },
    {
      "anonymous": false,
      "inputs": [
        {
          "indexed": true,
          "internalType": "uint256",
          "name": "nftID",
          "type": "uint256"
        },
        {
          "indexed": true,
          "internalType": "address",
          "name": "verifier",
          "type": "address"
        },
        {
          "indexed": true,
          "internalType": "address",
          "name": "to",
          "type": "address"
        },
        {
          "indexed": false,
          "internalType": "string",
          "name": "tokenURI",
          "type": "string"
        }
      ],
      "name": "ListingVerified",
      "type": "event"
    },
    {
      "anonymous": false,
      "inputs": [
        {
          "indexed": true,
          "internalType": "uint256",
          "name": "listingID",
          "type": "uint256"
        },
        {
          "indexed": true,
          "internalType": "address",
          "name": "proposer",
          "type": "address"
        },
        {
          "indexed": false,
          "internalType": "uint256",
          "name": "purchasePrice",
          "type": "uint256"
        }
      ],
      "name": "ProposedListing",
      "type": "event"
    },
    {
      "anonymous": false,
      "inputs": [
        {
          "indexed": true,
          "internalType": "uint256",
          "name": "nftID",
          "type": "uint256"
        }
      ],
      "name": "SaleCancelled",
      "type": "event"
    },
    {
      "anonymous": false,
      "inputs": [
        {
          "indexed": true,
          "internalType": "uint256",
          "name": "nftID",
          "type": "uint256"
        },
        {
          "indexed": true,
          "internalType": "address",
          "name": "buyer",
          "type": "address"
        },
        {
          "indexed": true,
          "internalType": "address",
          "name": "seller",
          "type": "address"
        },
        {
          "indexed": false,
          "internalType": "uint256",
          "name": "purchasePrice",
          "type": "uint256"
        }
      ],
      "name": "SaleFinalized",
      "type": "event"
    },
    {
      "inputs": [
        {
          "internalType": "uint256",
          "name": "",
          "type": "uint256"
        },
        {
          "internalType": "address",
          "name": "",
          "type": "address"
        }
      ],
      "name": "approval",
      "outputs": [
        {
          "internalType": "bool",
          "name": "",
          "type": "bool"
        }
      ],
      "stateMutability": "view",
      "type": "function"
    },
    {
      "inputs": [
        {
          "internalType": "uint256",
          "name": "_nftID",
          "type": "uint256"
        },
        {
          "internalType": "address",
          "name": "_party",
          "type": "address"
        }
      ],
      "name": "approveSale",
      "outputs": [],
      "stateMutability": "nonpayable",
      "type": "function"
    },
    {
      "inputs": [
        {
          "internalType": "uint256",
          "name": "",
          "type": "uint256"
        }
      ],
      "name": "buyer",
      "outputs": [
        {
          "internalType": "address",
          "name": "",
          "type": "address"
        }
      ],
      "stateMutability": "view",
      "type": "function"
    },
    {
      "inputs": [
        {
          "internalType": "uint256",
          "name": "_nftID",
          "type": "uint256"
        }
      ],
      "name": "cancelSale",
      "outputs": [],
      "stateMutability": "nonpayable",
      "type": "function"
    },
    {
      "inputs": [
        {
          "internalType": "uint256",
          "name": "_nftID",
          "type": "uint256"
        },
        {
          "internalType": "address",
          "name": "_buyer",
          "type": "address"
        }
      ],
      "name": "depositEarnest",
      "outputs": [],
      "stateMutability": "payable",
      "type": "function"
    },
    {
      "inputs": [
        {
          "internalType": "uint256",
          "name": "",
          "type": "uint256"
        }
      ],
      "name": "escrowAmount",
      "outputs": [
        {
          "internalType": "uint256",
          "name": "",
          "type": "uint256"
        }
      ],
      "stateMutability": "view",
      "type": "function"
    },
    {
      "inputs": [
        {
          "internalType": "uint256",
          "name": "_nftID",
          "type": "uint256"
        }
      ],
      "name": "finalizeSale",
      "outputs": [],
      "stateMutability": "nonpayable",
      "type": "function"
    },
    {
      "inputs": [],
      "name": "getBalance",
      "outputs": [
        {
          "internalType": "uint256",
          "name": "",
          "type": "uint256"
        }
      ],
      "stateMutability": "view",
      "type": "function"
    },
    {
      "inputs": [
        {
          "internalType": "uint256",
          "name": "",
          "type": "uint256"
        }
      ],
      "name": "inspectionPassed",
      "outputs": [
        {
          "internalType": "bool",
          "name": "",
          "type": "bool"
        }
      ],
      "stateMutability": "view",
      "type": "function"
    },
    {
      "inputs": [],
      "name": "inspector",
      "outputs": [
        {
          "internalType": "address",
          "name": "",
          "type": "address"
        }
      ],
      "stateMutability": "view",
      "type": "function"
    },
    {
      "inputs": [
        {
          "internalType": "uint256",
          "name": "",
          "type": "uint256"
        }
      ],
      "name": "isListed",
      "outputs": [
        {
          "internalType": "bool",
          "name": "",
          "type": "bool"
        }
      ],
      "stateMutability": "view",
      "type": "function"
    },
    {
      "inputs": [],
      "name": "lender",
      "outputs": [
        {
          "internalType": "address",
          "name": "",
          "type": "address"
        }
      ],
      "stateMutability": "view",
      "type": "function"
    },
    {
      "inputs": [
        {
          "internalType": "uint256",
          "name": "",
          "type": "uint256"
        }
      ],
      "name": "propertyStatus",
      "outputs": [
        {
          "internalType": "enum Escrow.ListingStatus",
          "name": "",
          "type": "uint8"
        }
      ],
      "stateMutability": "view",
      "type": "function"
    },
    {
      "inputs": [
        {
          "internalType": "string",
          "name": "_tokenURI",
          "type": "string"
        },
        {
          "internalType": "uint256",
          "name": "_purchasePrice",
          "type": "uint256"
        }
      ],
      "name": "proposeListing",
      "outputs": [
        {
          "internalType": "uint256",
          "name": "",
          "type": "uint256"
        }
      ],
      "stateMutability": "nonpayable",
      "type": "function"
    },
    {
      "inputs": [
        {
          "internalType": "uint256",
          "name": "",
          "type": "uint256"
        }
      ],
      "name": "purchasePrice",
      "outputs": [
        {
          "internalType": "uint256",
          "name": "",
          "type": "uint256"
        }
      ],
      "stateMutability": "view",
      "type": "function"
    },
    {
      "inputs": [],
      "name": "realEstate",
      "outputs": [
        {
          "internalType": "contract IRealEstate",
          "name": "",
          "type": "address"
        }
      ],
      "stateMutability": "view",
      "type": "function"
    },
    {
      "inputs": [
        {
          "internalType": "uint256",
          "name": "_nftID",
          "type": "uint256"
        }
      ],
      "name": "rejectListing",
      "outputs": [],
      "stateMutability": "nonpayable",
      "type": "function"
    },
    {
      "inputs": [
        {
          "internalType": "uint256",
          "name": "",
          "type": "uint256"
        }
      ],
      "name": "sellers",
      "outputs": [
        {
          "internalType": "address",
          "name": "",
          "type": "address"
        }
      ],
      "stateMutability": "view",
      "type": "function"
    },
    {
      "inputs": [
        {
          "internalType": "uint256",
          "name": "_nftID",
          "type": "uint256"
        },
        {
          "internalType": "uint256",
          "name": "_purchasePrice",
          "type": "uint256"
        },
        {
          "internalType": "uint256",
          "name": "_escrowAmount",
          "type": "uint256"
        }
      ],
      "name": "setPurchasePriceAndEscrow",
      "outputs": [],
      "stateMutability": "nonpayable",
      "type": "function"
    },
    {
      "inputs": [
        {
          "internalType": "address",
          "name": "_realEstateAddress",
          "type": "address"
        }
      ],
      "name": "setRealEstateAddress",
      "outputs": [],
      "stateMutability": "nonpayable",
      "type": "function"
    },
    {
      "inputs": [
        {
          "internalType": "uint256",
          "name": "_nftID",
          "type": "uint256"
        },
        {
          "internalType": "bool",
          "name": "_passed",
          "type": "bool"
        }
      ],
      "name": "updateInspectionStatus",
      "outputs": [],
      "stateMutability": "nonpayable",
      "type": "function"
    },
    {
      "inputs": [
        {
          "internalType": "uint256",
          "name": "_listingID",
          "type": "uint256"
        }
      ],
      "name": "verifyListing",
      "outputs": [],
      "stateMutability": "nonpayable",
      "type": "function"
    },
    {
      "stateMutability": "payable",
      "type": "receive"
    }
  ],
  "bytecode": "0x60806040523480156200001157600080fd5b506040516200374c3803806200374c83398181016040528101906200003791906200016c565b826000806101000a81548173ffffffffffffffffffffffffffffffffffffffff021916908373ffffffffffffffffffffffffffffffffffffffff16021790555081600160006101000a81548173ffffffffffffffffffffffffffffffffffffffff021916908373ffffffffffffffffffffffffffffffffffffffff16021790555080600260006101000a81548173ffffffffffffffffffffffffffffffffffffffff021916908373ffffffffffffffffffffffffffffffffffffffff160217905550505050620001c8565b600080fd5b600073ffffffffffffffffffffffffffffffffffffffff82169050919050565b6000620001348262000107565b9050919050565b620001468162000127565b81146200015257600080fd5b50565b60008151905062000166816200013b565b92915050565b60008060006060848603121562000188576200018762000102565b5b6000620001988682870162000155565b9350506020620001ab8682870162000155565b9250506040620001be8682870162000155565b9150509250925092565b61357480620001d86000396000f3fe6080604052600436106101395760003560e01c80639739392d116100ab578063b848de351161006f578063b848de3514610444578063bcead63e14610481578063bd94b005146104ac578063cee26ed5146104d5578063ed2cee9e14610512578063fcce48831461053d57610140565b80639739392d146103775780639d0e5fd6146103a0578063aa929380146103c9578063b2be4180146103f2578063b7b8dfa61461041b57610140565b80634dd4acaf116100fd5780634dd4acaf1461023c5780635d19e56c146102795780635eed5fff146102b65780636fce4cc5146102f357806370ce84971461030f57806377fbc4ae1461033a57610140565b806312065fe014610145578063151aab07146101705780631d56284a146101ad57806320fed772146101ea5780632f3be32e1461021357610140565b3661014057005b600080fd5b34801561015157600080fd5b5061015a61057a565b60405161016791906120de565b60405180910390f35b34801561017c57600080fd5b506101976004803603810190610192919061227f565b610582565b6040516101a491906120de565b60405180910390f35b3480156101b957600080fd5b506101d460048036038101906101cf91906122db565b6106bc565b6040516101e1919061237f565b60405180910390f35b3480156101f657600080fd5b50610211600480360381019061020c91906122db565b6106dc565b005b34801561021f57600080fd5b5061023a6004803603810190610235919061239a565b610a9e565b005b34801561024857600080fd5b50610263600480360381019061025e91906122db565b610ad3565b604051610270919061242e565b60405180910390f35b34801561028557600080fd5b506102a0600480360381019061029b91906122db565b610b06565b6040516102ad91906120de565b60405180910390f35b3480156102c257600080fd5b506102dd60048036038101906102d891906122db565b610b1e565b6040516102ea9190612464565b60405180910390f35b61030d600480360381019061030891906124ab565b610b3e565b005b34801561031b57600080fd5b50610324610d2f565b604051610331919061254a565b60405180910390f35b34801561034657600080fd5b50610361600480360381019061035c91906122db565b610d53565b60405161036e91906120de565b60405180910390f35b34801561038357600080fd5b5061039e600480360381019061039991906122db565b610d6b565b005b3480156103ac57600080fd5b506103c760048036038101906103c29190612591565b610f05565b005b3480156103d557600080fd5b506103f060048036038101906103eb91906122db565b61104b565b005b3480156103fe57600080fd5b50610419600480360381019061041491906124ab565b6116ab565b005b34801561042757600080fd5b50610442600480360381019061043d91906125d1565b61196f565b005b34801561045057600080fd5b5061046b600480360381019061046691906124ab565b611ab0565b6040516104789190612464565b60405180910390f35b34801561048d57600080fd5b50610496611adf565b6040516104a3919061242e565b60405180910390f35b3480156104b857600080fd5b506104d360048036038101906104ce91906122db565b611b05565b005b3480156104e157600080fd5b506104fc60048036038101906104f791906122db565b612028565b604051610509919061242e565b60405180910390f35b34801561051e57600080fd5b5061052761205b565b604051610534919061242e565b60405180910390f35b34801561054957600080fd5b50610564600480360381019061055f91906122db565b612081565b6040516105719190612464565b60405180910390f35b600047905090565b600061058e60036120a1565b600061059a60036120b7565b9050336004600083815260200190815260200160002060006101000a81548173ffffffffffffffffffffffffffffffffffffffff021916908373ffffffffffffffffffffffffffffffffffffffff16021790555082600760008381526020019081526020016000208190555060016005600083815260200190815260200160002060006101000a81548160ff0219169083600481111561063d5761063c612308565b5b021790555083600c60008381526020019081526020016000209081610662919061280b565b503373ffffffffffffffffffffffffffffffffffffffff16817ffd380029448de66b04c3ea6dc88059bbab60aca3780bc46a5f892593244c2bba856040516106aa91906120de565b60405180910390a38091505092915050565b60056020528060005260406000206000915054906101000a900460ff1681565b600160009054906101000a900473ffffffffffffffffffffffffffffffffffffffff1673ffffffffffffffffffffffffffffffffffffffff163373ffffffffffffffffffffffffffffffffffffffff161461076c576040517f08c379a000000000000000000000000000000000000000000000000000000000815260040161076390612960565b60405180910390fd5b600160048111156107805761077f612308565b5b6005600083815260200190815260200160002060009054906101000a900460ff1660048111156107b3576107b2612308565b5b146107f3576040517f08c379a00000000000000000000000000000000000000000000000000000000081526004016107ea906129f2565b60405180910390fd5b6000600c6000838152602001908152602001600020805461081390612638565b80601f016020809104026020016040519081016040528092919081815260200182805461083f90612638565b801561088c5780601f106108615761010080835404028352916020019161088c565b820191906000526020600020905b81548152906001019060200180831161086f57829003601f168201915b5050505050905060008151116108d7576040517f08c379a00000000000000000000000000000000000000000000000000000000081526004016108ce90612a84565b60405180910390fd5b60008054906101000a900473ffffffffffffffffffffffffffffffffffffffff1673ffffffffffffffffffffffffffffffffffffffff1663d3fc98646004600085815260200190815260200160002060009054906101000a900473ffffffffffffffffffffffffffffffffffffffff1684846040518463ffffffff1660e01b815260040161096793929190612b07565b600060405180830381600087803b15801561098157600080fd5b505af1158015610995573d6000803e3d6000fd5b5050505060026005600084815260200190815260200160002060006101000a81548160ff021916908360048111156109d0576109cf612308565b5b021790555060016006600084815260200190815260200160002060006101000a81548160ff0219169083151502179055506004600083815260200190815260200160002060009054906101000a900473ffffffffffffffffffffffffffffffffffffffff1673ffffffffffffffffffffffffffffffffffffffff163373ffffffffffffffffffffffffffffffffffffffff16837f735b852b22fc0e4dc25045dbae988e2cac6b70065a0fb50a10d0b6e9ae02495484604051610a929190612b45565b60405180910390a45050565b816007600085815260200190815260200160002081905550806008600085815260200190815260200160002081905550505050565b60096020528060005260406000206000915054906101000a900473ffffffffffffffffffffffffffffffffffffffff1681565b60086020528060005260406000206000915090505481565b600a6020528060005260406000206000915054906101000a900460ff1681565b60026004811115610b5257610b51612308565b5b6005600084815260200190815260200160002060009054906101000a900460ff166004811115610b8557610b84612308565b5b14610bc5576040517f08c379a0000000000000000000000000000000000000000000000000000000008152600401610bbc90612bb3565b60405180910390fd5b6000600760008481526020019081526020016000205411610c1b576040517f08c379a0000000000000000000000000000000000000000000000000000000008152600401610c1290612c1f565b60405180910390fd5b60076000838152602001908152602001600020543414610c70576040517f08c379a0000000000000000000000000000000000000000000000000000000008152600401610c6790612c8b565b60405180910390fd5b806009600084815260200190815260200160002060006101000a81548173ffffffffffffffffffffffffffffffffffffffff021916908373ffffffffffffffffffffffffffffffffffffffff1602179055506001600b600084815260200190815260200160002060008373ffffffffffffffffffffffffffffffffffffffff1673ffffffffffffffffffffffffffffffffffffffff16815260200190815260200160002060006101000a81548160ff0219169083151502179055505050565b60008054906101000a900473ffffffffffffffffffffffffffffffffffffffff1681565b60076020528060005260406000206000915090505481565b600160009054906101000a900473ffffffffffffffffffffffffffffffffffffffff1673ffffffffffffffffffffffffffffffffffffffff163373ffffffffffffffffffffffffffffffffffffffff1614610dfb576040517f08c379a0000000000000000000000000000000000000000000000000000000008152600401610df290612960565b60405180910390fd5b60016004811115610e0f57610e0e612308565b5b6005600083815260200190815260200160002060009054906101000a900460ff166004811115610e4257610e41612308565b5b14610e82576040517f08c379a0000000000000000000000000000000000000000000000000000000008152600401610e79906129f2565b60405180910390fd5b60036005600083815260200190815260200160002060006101000a81548160ff02191690836004811115610eb957610eb8612308565b5b02179055503373ffffffffffffffffffffffffffffffffffffffff16817f8dbaa402933beea9fee85b46ba2f2a5190de6d6aae9841459724f200210b28b560405160405180910390a350565b600160009054906101000a900473ffffffffffffffffffffffffffffffffffffffff1673ffffffffffffffffffffffffffffffffffffffff163373ffffffffffffffffffffffffffffffffffffffff1614610f95576040517f08c379a0000000000000000000000000000000000000000000000000000000008152600401610f8c90612960565b60405180910390fd5b60026004811115610fa957610fa8612308565b5b6005600084815260200190815260200160002060009054906101000a900460ff166004811115610fdc57610fdb612308565b5b1461101c576040517f08c379a000000000000000000000000000000000000000000000000000000000815260040161101390612bb3565b60405180910390fd5b80600a600084815260200190815260200160002060006101000a81548160ff0219169083151502179055505050565b600260009054906101000a900473ffffffffffffffffffffffffffffffffffffffff1673ffffffffffffffffffffffffffffffffffffffff163373ffffffffffffffffffffffffffffffffffffffff16146110db576040517f08c379a00000000000000000000000000000000000000000000000000000000081526004016110d290612cf7565b60405180910390fd5b600260048111156110ef576110ee612308565b5b6005600083815260200190815260200160002060009054906101000a900460ff16600481111561112257611121612308565b5b14611162576040517f08c379a000000000000000000000000000000000000000000000000000000000815260040161115990612bb3565b60405180910390fd5b600a600082815260200190815260200160002060009054906101000a900460ff166111c2576040517f08c379a00000000000000000000000000000000000000000000000000000000081526004016111b990612d63565b60405180910390fd5b600b60008281526020019081526020016000206000600260009054906101000a900473ffffffffffffffffffffffffffffffffffffffff1673ffffffffffffffffffffffffffffffffffffffff1673ffffffffffffffffffffffffffffffffffffffff16815260200190815260200160002060009054906101000a900460ff16611281576040517f08c379a000000000000000000000000000000000000000000000000000000000815260040161127890612dcf565b60405180910390fd5b600073ffffffffffffffffffffffffffffffffffffffff166009600083815260200190815260200160002060009054906101000a900473ffffffffffffffffffffffffffffffffffffffff1673ffffffffffffffffffffffffffffffffffffffff1603611323576040517f08c379a000000000000000000000000000000000000000000000000000000000815260040161131a90612e3b565b60405180910390fd5b6007600082815260200190815260200160002054471015611379576040517f08c379a000000000000000000000000000000000000000000000000000000000815260040161137090612ecd565b60405180910390fd5b60008054906101000a900473ffffffffffffffffffffffffffffffffffffffff1673ffffffffffffffffffffffffffffffffffffffff166323b872dd6004600084815260200190815260200160002060009054906101000a900473ffffffffffffffffffffffffffffffffffffffff166009600085815260200190815260200160002060009054906101000a900473ffffffffffffffffffffffffffffffffffffffff16846040518463ffffffff1660e01b815260040161143c93929190612eed565b600060405180830381600087803b15801561145657600080fd5b505af115801561146a573d6000803e3d6000fd5b5050505060006004600083815260200190815260200160002060009054906101000a900473ffffffffffffffffffffffffffffffffffffffff1673ffffffffffffffffffffffffffffffffffffffff1660076000848152602001908152602001600020546040516114da90612f55565b60006040518083038185875af1925050503d8060008114611517576040519150601f19603f3d011682016040523d82523d6000602084013e61151c565b606091505b5050905080611560576040517f08c379a000000000000000000000000000000000000000000000000000000000815260040161155790612fdc565b60405180910390fd5b60046005600084815260200190815260200160002060006101000a81548160ff0219169083600481111561159757611596612308565b5b021790555060006006600084815260200190815260200160002060006101000a81548160ff0219169083151502179055506004600083815260200190815260200160002060009054906101000a900473ffffffffffffffffffffffffffffffffffffffff1673ffffffffffffffffffffffffffffffffffffffff166009600084815260200190815260200160002060009054906101000a900473ffffffffffffffffffffffffffffffffffffffff1673ffffffffffffffffffffffffffffffffffffffff16837fbd44235c09cb919d940568e0d0f2cfff43c13a5493eedb465c2d1423a7d0b849600760008781526020019081526020016000205460405161169f91906120de565b60405180910390a45050565b600260048111156116bf576116be612308565b5b6005600084815260200190815260200160002060009054906101000a900460ff1660048111156116f2576116f1612308565b5b14611732576040517f08c379a000000000000000000000000000000000000000000000000000000000815260040161172990612bb3565b60405180910390fd5b6009600083815260200190815260200160002060009054906101000a900473ffffffffffffffffffffffffffffffffffffffff1673ffffffffffffffffffffffffffffffffffffffff163373ffffffffffffffffffffffffffffffffffffffff1614806117fd57506004600083815260200190815260200160002060009054906101000a900473ffffffffffffffffffffffffffffffffffffffff1673ffffffffffffffffffffffffffffffffffffffff163373ffffffffffffffffffffffffffffffffffffffff16145b806118555750600260009054906101000a900473ffffffffffffffffffffffffffffffffffffffff1673ffffffffffffffffffffffffffffffffffffffff163373ffffffffffffffffffffffffffffffffffffffff16145b611894576040517f08c379a000000000000000000000000000000000000000000000000000000000815260040161188b9061306e565b60405180910390fd5b8073ffffffffffffffffffffffffffffffffffffffff163373ffffffffffffffffffffffffffffffffffffffff1614611902576040517f08c379a00000000000000000000000000000000000000000000000000000000081526004016118f990613100565b60405180910390fd5b6001600b600084815260200190815260200160002060008373ffffffffffffffffffffffffffffffffffffffff1673ffffffffffffffffffffffffffffffffffffffff16815260200190815260200160002060006101000a81548160ff0219169083151502179055505050565b600073ffffffffffffffffffffffffffffffffffffffff1660008054906101000a900473ffffffffffffffffffffffffffffffffffffffff1673ffffffffffffffffffffffffffffffffffffffff16146119fe576040517f08c379a00000000000000000000000000000000000000000000000000000000081526004016119f59061316c565b60405180910390fd5b600073ffffffffffffffffffffffffffffffffffffffff168173ffffffffffffffffffffffffffffffffffffffff1603611a6d576040517f08c379a0000000000000000000000000000000000000000000000000000000008152600401611a64906131fe565b60405180910390fd5b806000806101000a81548173ffffffffffffffffffffffffffffffffffffffff021916908373ffffffffffffffffffffffffffffffffffffffff16021790555050565b600b6020528160005260406000206020528060005260406000206000915091509054906101000a900460ff1681565b600260009054906101000a900473ffffffffffffffffffffffffffffffffffffffff1681565b60026004811115611b1957611b18612308565b5b6005600083815260200190815260200160002060009054906101000a900460ff166004811115611b4c57611b4b612308565b5b14611b8c576040517f08c379a0000000000000000000000000000000000000000000000000000000008152600401611b8390612bb3565b60405180910390fd5b600a600082815260200190815260200160002060009054906101000a900460ff1615611bed576040517f08c379a0000000000000000000000000000000000000000000000000000000008152600401611be49061326a565b60405180910390fd5b6009600082815260200190815260200160002060009054906101000a900473ffffffffffffffffffffffffffffffffffffffff1673ffffffffffffffffffffffffffffffffffffffff163373ffffffffffffffffffffffffffffffffffffffff161480611cb857506004600082815260200190815260200160002060009054906101000a900473ffffffffffffffffffffffffffffffffffffffff1673ffffffffffffffffffffffffffffffffffffffff163373ffffffffffffffffffffffffffffffffffffffff16145b80611d105750600160009054906101000a900473ffffffffffffffffffffffffffffffffffffffff1673ffffffffffffffffffffffffffffffffffffffff163373ffffffffffffffffffffffffffffffffffffffff16145b611d4f576040517f08c379a0000000000000000000000000000000000000000000000000000000008152600401611d46906132fc565b60405180910390fd5b600073ffffffffffffffffffffffffffffffffffffffff166009600083815260200190815260200160002060009054906101000a900473ffffffffffffffffffffffffffffffffffffffff1673ffffffffffffffffffffffffffffffffffffffff1603611df1576040517f08c379a0000000000000000000000000000000000000000000000000000000008152600401611de89061338e565b60405180910390fd5b6000600860008381526020019081526020016000205411611e47576040517f08c379a0000000000000000000000000000000000000000000000000000000008152600401611e3e90613420565b60405180910390fd5b6008600082815260200190815260200160002054471015611e9d576040517f08c379a0000000000000000000000000000000000000000000000000000000008152600401611e94906134b2565b60405180910390fd5b60006009600083815260200190815260200160002060009054906101000a900473ffffffffffffffffffffffffffffffffffffffff1673ffffffffffffffffffffffffffffffffffffffff166008600084815260200190815260200160002054604051611f0990612f55565b60006040518083038185875af1925050503d8060008114611f46576040519150601f19603f3d011682016040523d82523d6000602084013e611f4b565b606091505b5050905080611f8f576040517f08c379a0000000000000000000000000000000000000000000000000000000008152600401611f869061351e565b60405180910390fd5b60036005600084815260200190815260200160002060006101000a81548160ff02191690836004811115611fc657611fc5612308565b5b021790555060006006600084815260200190815260200160002060006101000a81548160ff021916908315150217905550817f2c56893f6f6026d19bd17b7d05c9f15c522de1ae2b1c3a825f91a73c799321f260405160405180910390a25050565b60046020528060005260406000206000915054906101000a900473ffffffffffffffffffffffffffffffffffffffff1681565b600160009054906101000a900473ffffffffffffffffffffffffffffffffffffffff1681565b60066020528060005260406000206000915054906101000a900460ff1681565b6001816000016000828254019250508190555050565b600081600001549050919050565b6000819050919050565b6120d8816120c5565b82525050565b60006020820190506120f360008301846120cf565b92915050565b6000604051905090565b600080fd5b600080fd5b600080fd5b600080fd5b6000601f19601f8301169050919050565b7f4e487b7100000000000000000000000000000000000000000000000000000000600052604160045260246000fd5b61216082612117565b810181811067ffffffffffffffff8211171561217f5761217e612128565b5b80604052505050565b60006121926120f9565b905061219e8282612157565b919050565b600067ffffffffffffffff8211156121be576121bd612128565b5b6121c782612117565b9050602081019050919050565b82818337600083830152505050565b60006121f66121f1846121a3565b612188565b90508281526020810184848401111561221257612211612112565b5b61221d8482856121d4565b509392505050565b600082601f83011261223a5761223961210d565b5b813561224a8482602086016121e3565b91505092915050565b61225c816120c5565b811461226757600080fd5b50565b60008135905061227981612253565b92915050565b6000806040838503121561229657612295612103565b5b600083013567ffffffffffffffff8111156122b4576122b3612108565b5b6122c085828601612225565b92505060206122d18582860161226a565b9150509250929050565b6000602082840312156122f1576122f0612103565b5b60006122ff8482850161226a565b91505092915050565b7f4e487b7100000000000000000000000000000000000000000000000000000000600052602160045260246000fd5b6005811061234857612347612308565b5b50565b600081905061235982612337565b919050565b60006123698261234b565b9050919050565b6123798161235e565b82525050565b60006020820190506123946000830184612370565b92915050565b6000806000606084860312156123b3576123b2612103565b5b60006123c18682870161226a565b93505060206123d28682870161226a565b92505060406123e38682870161226a565b9150509250925092565b600073ffffffffffffffffffffffffffffffffffffffff82169050919050565b6000612418826123ed565b9050919050565b6124288161240d565b82525050565b6000602082019050612443600083018461241f565b92915050565b60008115159050919050565b61245e81612449565b82525050565b60006020820190506124796000830184612455565b92915050565b6124888161240d565b811461249357600080fd5b50565b6000813590506124a58161247f565b92915050565b600080604083850312156124c2576124c1612103565b5b60006124d08582860161226a565b92505060206124e185828601612496565b9150509250929050565b6000819050919050565b600061251061250b612506846123ed565b6124eb565b6123ed565b9050919050565b6000612522826124f5565b9050919050565b600061253482612517565b9050919050565b61254481612529565b82525050565b600060208201905061255f600083018461253b565b92915050565b61256e81612449565b811461257957600080fd5b50565b60008135905061258b81612565565b92915050565b600080604083850312156125a8576125a7612103565b5b60006125b68582860161226a565b92505060206125c78582860161257c565b9150509250929050565b6000602082840312156125e7576125e6612103565b5b60006125f584828501612496565b91505092915050565b600081519050919050565b7f4e487b7100000000000000000000000000000000000000000000000000000000600052602260045260246000fd5b6000600282049050600182168061265057607f821691505b60208210810361266357612662612609565b5b50919050565b60008190508160005260206000209050919050565b60006020601f8301049050919050565b600082821b905092915050565b6000600883026126cb7fffffffffffffffffffffffffffffffffffffffffffffffffffffffffffffffff8261268e565b6126d5868361268e565b95508019841693508086168417925050509392505050565b60006127086127036126fe846120c5565b6124eb565b6120c5565b9050919050565b6000819050919050565b612722836126ed565b61273661272e8261270f565b84845461269b565b825550505050565b600090565b61274b61273e565b612756818484612719565b505050565b5b8181101561277a5761276f600082612743565b60018101905061275c565b5050565b601f8211156127bf5761279081612669565b6127998461267e565b810160208510156127a8578190505b6127bc6127b48561267e565b83018261275b565b50505b505050565b600082821c905092915050565b60006127e2600019846008026127c4565b1980831691505092915050565b60006127fb83836127d1565b9150826002028217905092915050565b612814826125fe565b67ffffffffffffffff81111561282d5761282c612128565b5b6128378254612638565b61284282828561277e565b600060209050601f8311600181146128755760008415612863578287015190505b61286d85826127ef565b8655506128d5565b601f19841661288386612669565b60005b828110156128ab57848901518255600182019150602085019450602081019050612886565b868310156128c857848901516128c4601f8916826127d1565b8355505b6001600288020188555050505b505050505050565b600082825260208201905092915050565b7f4f6e6c7920696e73706563746f722063616e2063616c6c2074686973206d657460008201527f686f640000000000000000000000000000000000000000000000000000000000602082015250565b600061294a6023836128dd565b9150612955826128ee565b604082019050919050565b600060208201905081810360008301526129798161293d565b9050919050565b7f4c697374696e67206973206e6f742070656e64696e6720696e7370656374696f60008201527f6e00000000000000000000000000000000000000000000000000000000000000602082015250565b60006129dc6021836128dd565b91506129e782612980565b604082019050919050565b60006020820190508181036000830152612a0b816129cf565b9050919050565b7f546f6b656e20555249206d697373696e6720666f722070726f706f736564206c60008201527f697374696e670000000000000000000000000000000000000000000000000000602082015250565b6000612a6e6026836128dd565b9150612a7982612a12565b604082019050919050565b60006020820190508181036000830152612a9d81612a61565b9050919050565b60005b83811015612ac2578082015181840152602081019050612aa7565b60008484015250505050565b6000612ad9826125fe565b612ae381856128dd565b9350612af3818560208601612aa4565b612afc81612117565b840191505092915050565b6000606082019050612b1c600083018661241f565b612b2960208301856120cf565b8181036040830152612b3b8184612ace565b9050949350505050565b60006020820190508181036000830152612b5f8184612ace565b905092915050565b7f4c697374696e67206973206e6f74207665726966696564000000000000000000600082015250565b6000612b9d6017836128dd565b9150612ba882612b67565b602082019050919050565b60006020820190508181036000830152612bcc81612b90565b9050919050565b7f5075726368617365207072696365206e6f742073657400000000000000000000600082015250565b6000612c096016836128dd565b9150612c1482612bd3565b602082019050919050565b60006020820190508181036000830152612c3881612bfc565b9050919050565b7f4d7573742073656e642066756c6c207075726368617365207072696365000000600082015250565b6000612c75601d836128dd565b9150612c8082612c3f565b602082019050919050565b60006020820190508181036000830152612ca481612c68565b9050919050565b7f4f6e6c79206c656e6465722063616e2063616c6c2074686973206d6574686f64600082015250565b6000612ce16020836128dd565b9150612cec82612cab565b602082019050919050565b60006020820190508181036000830152612d1081612cd4565b9050919050565b7f496e7370656374696f6e20686173206e6f742070617373656400000000000000600082015250565b6000612d4d6019836128dd565b9150612d5882612d17565b602082019050919050565b60006020820190508181036000830152612d7c81612d40565b9050919050565b7f4c656e64657220686173206e6f7420617070726f766564000000000000000000600082015250565b6000612db96017836128dd565b9150612dc482612d83565b602082019050919050565b60006020820190508181036000830152612de881612dac565b9050919050565b7f427579657220686173206e6f74206465706f7369746564206561726e65737400600082015250565b6000612e25601f836128dd565b9150612e3082612def565b602082019050919050565b60006020820190508181036000830152612e5481612e18565b9050919050565b7f496e73756666696369656e742066756e647320696e20657363726f7720746f2060008201527f66696e616c697a65000000000000000000000000000000000000000000000000602082015250565b6000612eb76028836128dd565b9150612ec282612e5b565b604082019050919050565b60006020820190508181036000830152612ee681612eaa565b9050919050565b6000606082019050612f02600083018661241f565b612f0f602083018561241f565b612f1c60408301846120cf565b949350505050565b600081905092915050565b50565b6000612f3f600083612f24565b9150612f4a82612f2f565b600082019050919050565b6000612f6082612f32565b9150819050919050565b7f4661696c656420746f207472616e73666572207075726368617365207072696360008201527f6520746f2073656c6c6572000000000000000000000000000000000000000000602082015250565b6000612fc6602b836128dd565b9150612fd182612f6a565b604082019050919050565b60006020820190508181036000830152612ff581612fb9565b9050919050565b7f4f6e6c792062757965722c2073656c6c6572206f72206c656e6465722063616e60008201527f20617070726f7665000000000000000000000000000000000000000000000000602082015250565b60006130586028836128dd565b915061306382612ffc565b604082019050919050565b600060208201905081810360008301526130878161304b565b9050919050565b7f43616e6e6f7420617070726f7665206f6e20626568616c66206f6620616e6f7460008201527f6865722070617274790000000000000000000000000000000000000000000000602082015250565b60006130ea6029836128dd565b91506130f58261308e565b604082019050919050565b60006020820190508181036000830152613119816130dd565b9050919050565b7f5265616c457374617465206164647265737320616c7265616479207365740000600082015250565b6000613156601e836128dd565b915061316182613120565b602082019050919050565b6000602082019050818103600083015261318581613149565b9050919050565b7f5265616c4573746174653a204e657720616464726573732063616e6e6f74206260008201527f65207a65726f0000000000000000000000000000000000000000000000000000602082015250565b60006131e86026836128dd565b91506131f38261318c565b604082019050919050565b60006020820190508181036000830152613217816131db565b9050919050565b7f496e7370656374696f6e20686173207061737365640000000000000000000000600082015250565b60006132546015836128dd565b915061325f8261321e565b602082019050919050565b6000602082019050818103600083015261328381613247565b9050919050565b7f4f6e6c792062757965722c2073656c6c65722c206f7220696e73706563746f7260008201527f2063616e2063616e63656c000000000000000000000000000000000000000000602082015250565b60006132e6602b836128dd565b91506132f18261328a565b604082019050919050565b60006020820190508181036000830152613315816132d9565b9050919050565b7f4e6f206275796572206173736f63696174656420776974682074686973204e4660008201527f5420666f7220726566756e640000000000000000000000000000000000000000602082015250565b6000613378602c836128dd565b91506133838261331c565b604082019050919050565b600060208201905081810360008301526133a78161336b565b9050919050565b7f4e6f206561726e657374206d6f6e6579206465706f736974656420666f72207460008201527f686973204e465420746f20726566756e64000000000000000000000000000000602082015250565b600061340a6031836128dd565b9150613415826133ae565b604082019050919050565b60006020820190508181036000830152613439816133fd565b9050919050565b7f496e73756666696369656e7420657363726f772062616c616e636520666f722060008201527f726566756e640000000000000000000000000000000000000000000000000000602082015250565b600061349c6026836128dd565b91506134a782613440565b604082019050919050565b600060208201905081810360008301526134cb8161348f565b9050919050565b7f4661696c656420746f20726566756e64206561726e657374206d6f6e65790000600082015250565b6000613508601e836128dd565b9150613513826134d2565b602082019050919050565b60006020820190508181036000830152613537816134fb565b905091905056fea2646970667358221220b5cb94ecb2a3eecf3ab5fd23fc8fb20964cc204736a8f5e295ebac1b6c9c96bb64736f6c63430008120033",
  "linkReferences": {},
  "deployedLinkReferences": {}
}