{
  "_format": "hh-sol-artifact-1",
  "contractName": "RealEstate",
  "sourceName": "contracts/RealEstate.sol",
  "abi": [
    {
      "inputs": [
        {
          "internalType": "address",
          "name": "_escrowMinterAddress",
          "type": "address"
        }
      ],
      "stateMutability": "nonpayable",
      "type": "constructor"
    },
    {
      "anonymous": false,
      "inputs": [
        {
          "indexed": true,
          "internalType": "address",
          "name": "owner",
          "type": "address"
        },
        {
          "indexed": true,
          "internalType": "address",
          "name": "approved",
          "type": "address"
        },
        {
          "indexed": true,
          "internalType": "uint256",
          "name": "tokenId",
          "type": "uint256"
        }
      ],
      "name": "Approval",
      "type": "event"
    },
    {
      "anonymous": false,
      "inputs": [
        {
          "indexed": true,
          "internalType": "address",
          "name": "owner",
          "type": "address"
        },
        {
          "indexed": true,
          "internalType": "address",
          "name": "operator",
          "type": "address"
        },
        {
          "indexed": false,
          "internalType": "bool",
          "name": "approved",
          "type": "bool"
        }
      ],
      "name": "ApprovalForAll",
      "type": "event"
    },
    {
      "anonymous": false,
      "inputs": [
        {
          "indexed": true,
          "internalType": "address",
          "name": "from",
          "type": "address"
        },
        {
          "indexed": true,
          "internalType": "address",
          "name": "to",
          "type": "address"
        },
        {
          "indexed": true,
          "internalType": "uint256",
          "name": "tokenId",
          "type": "uint256"
        }
      ],
      "name": "Transfer",
      "type": "event"
    },
    {
      "inputs": [
        {
          "internalType": "address",
          "name": "to",
          "type": "address"
        },
        {
          "internalType": "uint256",
          "name": "tokenId",
          "type": "uint256"
        }
      ],
      "name": "approve",
      "outputs": [],
      "stateMutability": "nonpayable",
      "type": "function"
    },
    {
      "inputs": [
        {
          "internalType": "address",
          "name": "owner",
          "type": "address"
        }
      ],
      "name": "balanceOf",
      "outputs": [
        {
          "internalType": "uint256",
          "name": "",
          "type": "uint256"
        }
      ],
      "stateMutability": "view",
      "type": "function"
    },
    {
      "inputs": [],
      "name": "escrowMinter",
      "outputs": [
        {
          "internalType": "address",
          "name": "",
          "type": "address"
        }
      ],
      "stateMutability": "view",
      "type": "function"
    },
    {
      "inputs": [
        {
          "internalType": "uint256",
          "name": "tokenId",
          "type": "uint256"
        }
      ],
      "name": "getApproved",
      "outputs": [
        {
          "internalType": "address",
          "name": "",
          "type": "address"
        }
      ],
      "stateMutability": "view",
      "type": "function"
    },
    {
      "inputs": [
        {
          "internalType": "address",
          "name": "owner",
          "type": "address"
        },
        {
          "internalType": "address",
          "name": "operator",
          "type": "address"
        }
      ],
      "name": "isApprovedForAll",
      "outputs": [
        {
          "internalType": "bool",
          "name": "",
          "type": "bool"
        }
      ],
      "stateMutability": "view",
      "type": "function"
    },
    {
      "inputs": [
        {
          "internalType": "address",
          "name": "_to",
          "type": "address"
        },
        {
          "internalType": "uint256",
          "name": "_tokenId",
          "type": "uint256"
        },
        {
          "internalType": "string",
          "name": "_tokenURI",
          "type": "string"
        }
      ],
      "name": "mint",
      "outputs": [],
      "stateMutability": "nonpayable",
      "type": "function"
    },
    {
      "inputs": [],
      "name": "name",
      "outputs": [
        {
          "internalType": "string",
          "name": "",
          "type": "string"
        }
      ],
      "stateMutability": "view",
      "type": "function"
    },
    {
      "inputs": [
        {
          "internalType": "uint256",
          "name": "tokenId",
          "type": "uint256"
        }
      ],
      "name": "ownerOf",
      "outputs": [
        {
          "internalType": "address",
          "name": "",
          "type": "address"
        }
      ],
      "stateMutability": "view",
      "type": "function"
    },
    {
      "inputs": [
        {
          "internalType": "address",
          "name": "from",
          "type": "address"
        },
        {
          "internalType": "address",
          "name": "to",
          "type": "address"
        },
        {
          "internalType": "uint256",
          "name": "tokenId",
          "type": "uint256"
        }
      ],
      "name": "safeTransferFrom",
      "outputs": [],
      "stateMutability": "nonpayable",
      "type": "function"
    },
    {
      "inputs": [
        {
          "internalType": "address",
          "name": "from",
          "type": "address"
        },
        {
          "internalType": "address",
          "name": "to",
          "type": "address"
        },
        {
          "internalType": "uint256",
          "name": "tokenId",
          "type": "uint256"
        },
        {
          "internalType": "bytes",
          "name": "data",
          "type": "bytes"
        }
      ],
      "name": "safeTransferFrom",
      "outputs": [],
      "stateMutability": "nonpayable",
      "type": "function"
    },
    {
      "inputs": [
        {
          "internalType": "address",
          "name": "operator",
          "type": "address"
        },
        {
          "internalType": "bool",
          "name": "approved",
          "type": "bool"
        }
      ],
      "name": "setApprovalForAll",
      "outputs": [],
      "stateMutability": "nonpayable",
      "type": "function"
    },
    {
      "inputs": [
        {
          "internalType": "bytes4",
          "name": "interfaceId",
          "type": "bytes4"
        }
      ],
      "name": "supportsInterface",
      "outputs": [
        {
          "internalType": "bool",
          "name": "",
          "type": "bool"
        }
      ],
      "stateMutability": "view",
      "type": "function"
    },
    {
      "inputs": [],
      "name": "symbol",
      "outputs": [
        {
          "internalType": "string",
          "name": "",
          "type": "string"
        }
      ],
      "stateMutability": "view",
      "type": "function"
    },
    {
      "inputs": [
        {
          "internalType": "uint256",
          "name": "tokenId",
          "type": "uint256"
        }
      ],
      "name": "tokenURI",
      "outputs": [
        {
          "internalType": "string",
          "name": "",
          "type": "string"
        }
      ],
      "stateMutability": "view",
      "type": "function"
    },
    {
      "inputs": [],
      "name": "totalSupply",
      "outputs": [
        {
          "internalType": "uint256",
          "name": "",
          "type": "uint256"
        }
      ],
      "stateMutability": "view",
      "type": "function"
    },
    {
      "inputs": [
        {
          "internalType": "address",
          "name": "from",
          "type": "address"
        },
        {
          "internalType": "address",
          "name": "to",
          "type": "address"
        },
        {
          "internalType": "uint256",
          "name": "tokenId",
          "type": "uint256"
        }
      ],
      "name": "transferFrom",
      "outputs": [],
      "stateMutability": "nonpayable",
      "type": "function"
    }
  ],
  "bytecode": "0x60806040523480156200001157600080fd5b5060405162003491380380620034918339818101604052810190620000379190620001ed565b6040518060400160405280600b81526020017f5265616c204573746174650000000000000000000000000000000000000000008152506040518060400160405280600481526020017f5245414c000000000000000000000000000000000000000000000000000000008152508160009081620000b4919062000499565b508060019081620000c6919062000499565b505050600073ffffffffffffffffffffffffffffffffffffffff168173ffffffffffffffffffffffffffffffffffffffff16036200013b576040517f08c379a0000000000000000000000000000000000000000000000000000000008152600401620001329062000607565b60405180910390fd5b80600860006101000a81548173ffffffffffffffffffffffffffffffffffffffff021916908373ffffffffffffffffffffffffffffffffffffffff1602179055505062000629565b600080fd5b600073ffffffffffffffffffffffffffffffffffffffff82169050919050565b6000620001b58262000188565b9050919050565b620001c781620001a8565b8114620001d357600080fd5b50565b600081519050620001e781620001bc565b92915050565b60006020828403121562000206576200020562000183565b5b60006200021684828501620001d6565b91505092915050565b600081519050919050565b7f4e487b7100000000000000000000000000000000000000000000000000000000600052604160045260246000fd5b7f4e487b7100000000000000000000000000000000000000000000000000000000600052602260045260246000fd5b60006002820490506001821680620002a157607f821691505b602082108103620002b757620002b662000259565b5b50919050565b60008190508160005260206000209050919050565b60006020601f8301049050919050565b600082821b905092915050565b600060088302620003217fffffffffffffffffffffffffffffffffffffffffffffffffffffffffffffffff82620002e2565b6200032d8683620002e2565b95508019841693508086168417925050509392505050565b6000819050919050565b6000819050919050565b60006200037a620003746200036e8462000345565b6200034f565b62000345565b9050919050565b6000819050919050565b620003968362000359565b620003ae620003a58262000381565b848454620002ef565b825550505050565b600090565b620003c5620003b6565b620003d28184846200038b565b505050565b5b81811015620003fa57620003ee600082620003bb565b600181019050620003d8565b5050565b601f82111562000449576200041381620002bd565b6200041e84620002d2565b810160208510156200042e578190505b620004466200043d85620002d2565b830182620003d7565b50505b505050565b600082821c905092915050565b60006200046e600019846008026200044e565b1980831691505092915050565b60006200048983836200045b565b9150826002028217905092915050565b620004a4826200021f565b67ffffffffffffffff811115620004c057620004bf6200022a565b5b620004cc825462000288565b620004d9828285620003fe565b600060209050601f831160018114620005115760008415620004fc578287015190505b6200050885826200047b565b86555062000578565b601f1984166200052186620002bd565b60005b828110156200054b5784890151825560018201915060208501945060208101905062000524565b868310156200056b578489015162000567601f8916826200045b565b8355505b6001600288020188555050505b505050505050565b600082825260208201905092915050565b7f5265616c4573746174653a204d696e7465722063616e6e6f74206265207a657260008201527f6f20616464726573730000000000000000000000000000000000000000000000602082015250565b6000620005ef60298362000580565b9150620005fc8262000591565b604082019050919050565b600060208201905081810360008301526200062281620005e0565b9050919050565b612e5880620006396000396000f3fe608060405234801561001057600080fd5b50600436106101005760003560e01c806370a0823111610097578063b88d4fde11610066578063b88d4fde146102ad578063c87b56dd146102c9578063d3fc9864146102f9578063e985e9c51461031557610100565b806370a082311461022557806395d89b4114610255578063a22cb46514610273578063af4f43e51461028f57610100565b806318160ddd116100d357806318160ddd1461019f57806323b872dd146101bd57806342842e0e146101d95780636352211e146101f557610100565b806301ffc9a71461010557806306fdde0314610135578063081812fc14610153578063095ea7b314610183575b600080fd5b61011f600480360381019061011a919061197c565b610345565b60405161012c91906119c4565b60405180910390f35b61013d610427565b60405161014a9190611a6f565b60405180910390f35b61016d60048036038101906101689190611ac7565b6104b9565b60405161017a9190611b35565b60405180910390f35b61019d60048036038101906101989190611b7c565b6104ff565b005b6101a7610616565b6040516101b49190611bcb565b60405180910390f35b6101d760048036038101906101d29190611be6565b610627565b005b6101f360048036038101906101ee9190611be6565b610687565b005b61020f600480360381019061020a9190611ac7565b6106a7565b60405161021c9190611b35565b60405180910390f35b61023f600480360381019061023a9190611c39565b610758565b60405161024c9190611bcb565b60405180910390f35b61025d61080f565b60405161026a9190611a6f565b60405180910390f35b61028d60048036038101906102889190611c92565b6108a1565b005b6102976108b7565b6040516102a49190611b35565b60405180910390f35b6102c760048036038101906102c29190611e07565b6108dd565b005b6102e360048036038101906102de9190611ac7565b61093f565b6040516102f09190611a6f565b60405180910390f35b610313600480360381019061030e9190611f2b565b610a51565b005b61032f600480360381019061032a9190611f9a565b610bf0565b60405161033c91906119c4565b60405180910390f35b60007f80ac58cd000000000000000000000000000000000000000000000000000000007bffffffffffffffffffffffffffffffffffffffffffffffffffffffff1916827bffffffffffffffffffffffffffffffffffffffffffffffffffffffff1916148061041057507f5b5e139f000000000000000000000000000000000000000000000000000000007bffffffffffffffffffffffffffffffffffffffffffffffffffffffff1916827bffffffffffffffffffffffffffffffffffffffffffffffffffffffff1916145b80610420575061041f82610c84565b5b9050919050565b60606000805461043690612009565b80601f016020809104026020016040519081016040528092919081815260200182805461046290612009565b80156104af5780601f10610484576101008083540402835291602001916104af565b820191906000526020600020905b81548152906001019060200180831161049257829003601f168201915b5050505050905090565b60006104c482610cee565b6004600083815260200190815260200160002060009054906101000a900473ffffffffffffffffffffffffffffffffffffffff169050919050565b600061050a826106a7565b90508073ffffffffffffffffffffffffffffffffffffffff168373ffffffffffffffffffffffffffffffffffffffff160361057a576040517f08c379a0000000000000000000000000000000000000000000000000000000008152600401610571906120ac565b60405180910390fd5b8073ffffffffffffffffffffffffffffffffffffffff16610599610d39565b73ffffffffffffffffffffffffffffffffffffffff1614806105c857506105c7816105c2610d39565b610bf0565b5b610607576040517f08c379a00000000000000000000000000000000000000000000000000000000081526004016105fe9061213e565b60405180910390fd5b6106118383610d41565b505050565b60006106226007610dfa565b905090565b610638610632610d39565b82610e08565b610677576040517f08c379a000000000000000000000000000000000000000000000000000000000815260040161066e906121d0565b60405180910390fd5b610682838383610e9d565b505050565b6106a2838383604051806020016040528060008152506108dd565b505050565b6000806002600084815260200190815260200160002060009054906101000a900473ffffffffffffffffffffffffffffffffffffffff169050600073ffffffffffffffffffffffffffffffffffffffff168173ffffffffffffffffffffffffffffffffffffffff160361074f576040517f08c379a00000000000000000000000000000000000000000000000000000000081526004016107469061223c565b60405180910390fd5b80915050919050565b60008073ffffffffffffffffffffffffffffffffffffffff168273ffffffffffffffffffffffffffffffffffffffff16036107c8576040517f08c379a00000000000000000000000000000000000000000000000000000000081526004016107bf906122ce565b60405180910390fd5b600360008373ffffffffffffffffffffffffffffffffffffffff1673ffffffffffffffffffffffffffffffffffffffff168152602001908152602001600020549050919050565b60606001805461081e90612009565b80601f016020809104026020016040519081016040528092919081815260200182805461084a90612009565b80156108975780601f1061086c57610100808354040283529160200191610897565b820191906000526020600020905b81548152906001019060200180831161087a57829003601f168201915b5050505050905090565b6108b36108ac610d39565b8383611103565b5050565b600860009054906101000a900473ffffffffffffffffffffffffffffffffffffffff1681565b6108ee6108e8610d39565b83610e08565b61092d576040517f08c379a0000000000000000000000000000000000000000000000000000000008152600401610924906121d0565b60405180910390fd5b6109398484848461126f565b50505050565b606061094a82610cee565b600060066000848152602001908152602001600020805461096a90612009565b80601f016020809104026020016040519081016040528092919081815260200182805461099690612009565b80156109e35780601f106109b8576101008083540402835291602001916109e3565b820191906000526020600020905b8154815290600101906020018083116109c657829003601f168201915b5050505050905060006109f46112cb565b90506000815103610a09578192505050610a4c565b600082511115610a3e578082604051602001610a2692919061232a565b60405160208183030381529060405292505050610a4c565b610a47846112e2565b925050505b919050565b600860009054906101000a900473ffffffffffffffffffffffffffffffffffffffff1673ffffffffffffffffffffffffffffffffffffffff163373ffffffffffffffffffffffffffffffffffffffff1614610ae1576040517f08c379a0000000000000000000000000000000000000000000000000000000008152600401610ad8906123c0565b60405180910390fd5b600073ffffffffffffffffffffffffffffffffffffffff168373ffffffffffffffffffffffffffffffffffffffff1603610b50576040517f08c379a0000000000000000000000000000000000000000000000000000000008152600401610b4790612452565b60405180910390fd5b60008211610b93576040517f08c379a0000000000000000000000000000000000000000000000000000000008152600401610b8a906124e4565b60405180910390fd5b6000815111610bd7576040517f08c379a0000000000000000000000000000000000000000000000000000000008152600401610bce90612576565b60405180910390fd5b610be1838361134a565b610beb8282611523565b505050565b6000600560008473ffffffffffffffffffffffffffffffffffffffff1673ffffffffffffffffffffffffffffffffffffffff16815260200190815260200160002060008373ffffffffffffffffffffffffffffffffffffffff1673ffffffffffffffffffffffffffffffffffffffff16815260200190815260200160002060009054906101000a900460ff16905092915050565b60007f01ffc9a7000000000000000000000000000000000000000000000000000000007bffffffffffffffffffffffffffffffffffffffffffffffffffffffff1916827bffffffffffffffffffffffffffffffffffffffffffffffffffffffff1916149050919050565b610cf781611590565b610d36576040517f08c379a0000000000000000000000000000000000000000000000000000000008152600401610d2d9061223c565b60405180910390fd5b50565b600033905090565b816004600083815260200190815260200160002060006101000a81548173ffffffffffffffffffffffffffffffffffffffff021916908373ffffffffffffffffffffffffffffffffffffffff160217905550808273ffffffffffffffffffffffffffffffffffffffff16610db4836106a7565b73ffffffffffffffffffffffffffffffffffffffff167f8c5be1e5ebec7d5bd14f71427d1e84f3dd0314c0f7b2291e5b200ac8c7c3b92560405160405180910390a45050565b600081600001549050919050565b600080610e14836106a7565b90508073ffffffffffffffffffffffffffffffffffffffff168473ffffffffffffffffffffffffffffffffffffffff161480610e565750610e558185610bf0565b5b80610e9457508373ffffffffffffffffffffffffffffffffffffffff16610e7c846104b9565b73ffffffffffffffffffffffffffffffffffffffff16145b91505092915050565b8273ffffffffffffffffffffffffffffffffffffffff16610ebd826106a7565b73ffffffffffffffffffffffffffffffffffffffff1614610f13576040517f08c379a0000000000000000000000000000000000000000000000000000000008152600401610f0a90612608565b60405180910390fd5b600073ffffffffffffffffffffffffffffffffffffffff168273ffffffffffffffffffffffffffffffffffffffff1603610f82576040517f08c379a0000000000000000000000000000000000000000000000000000000008152600401610f799061269a565b60405180910390fd5b610f8d8383836115fc565b610f98600082610d41565b6001600360008573ffffffffffffffffffffffffffffffffffffffff1673ffffffffffffffffffffffffffffffffffffffff1681526020019081526020016000206000828254610fe891906126e9565b925050819055506001600360008473ffffffffffffffffffffffffffffffffffffffff1673ffffffffffffffffffffffffffffffffffffffff168152602001908152602001600020600082825461103f919061271d565b92505081905550816002600083815260200190815260200160002060006101000a81548173ffffffffffffffffffffffffffffffffffffffff021916908373ffffffffffffffffffffffffffffffffffffffff160217905550808273ffffffffffffffffffffffffffffffffffffffff168473ffffffffffffffffffffffffffffffffffffffff167fddf252ad1be2c89b69c2b068fc378daa952ba7f163c4a11628f55a4df523b3ef60405160405180910390a46110fe838383611601565b505050565b8173ffffffffffffffffffffffffffffffffffffffff168373ffffffffffffffffffffffffffffffffffffffff1603611171576040517f08c379a00000000000000000000000000000000000000000000000000000000081526004016111689061279d565b60405180910390fd5b80600560008573ffffffffffffffffffffffffffffffffffffffff1673ffffffffffffffffffffffffffffffffffffffff16815260200190815260200160002060008473ffffffffffffffffffffffffffffffffffffffff1673ffffffffffffffffffffffffffffffffffffffff16815260200190815260200160002060006101000a81548160ff0219169083151502179055508173ffffffffffffffffffffffffffffffffffffffff168373ffffffffffffffffffffffffffffffffffffffff167f17307eab39ab6107e8899845ad3d59bd9653f200f220920489ca2b5937696c318360405161126291906119c4565b60405180910390a3505050565b61127a848484610e9d565b61128684848484611606565b6112c5576040517f08c379a00000000000000000000000000000000000000000000000000000000081526004016112bc9061282f565b60405180910390fd5b50505050565b606060405180602001604052806000815250905090565b60606112ed82610cee565b60006112f76112cb565b905060008151116113175760405180602001604052806000815250611342565b806113218461178d565b60405160200161133292919061232a565b6040516020818303038152906040525b915050919050565b600073ffffffffffffffffffffffffffffffffffffffff168273ffffffffffffffffffffffffffffffffffffffff16036113b9576040517f08c379a00000000000000000000000000000000000000000000000000000000081526004016113b09061289b565b60405180910390fd5b6113c281611590565b15611402576040517f08c379a00000000000000000000000000000000000000000000000000000000081526004016113f990612907565b60405180910390fd5b61140e600083836115fc565b6001600360008473ffffffffffffffffffffffffffffffffffffffff1673ffffffffffffffffffffffffffffffffffffffff168152602001908152602001600020600082825461145e919061271d565b92505081905550816002600083815260200190815260200160002060006101000a81548173ffffffffffffffffffffffffffffffffffffffff021916908373ffffffffffffffffffffffffffffffffffffffff160217905550808273ffffffffffffffffffffffffffffffffffffffff16600073ffffffffffffffffffffffffffffffffffffffff167fddf252ad1be2c89b69c2b068fc378daa952ba7f163c4a11628f55a4df523b3ef60405160405180910390a461151f60008383611601565b5050565b61152c82611590565b61156b576040517f08c379a000000000000000000000000000000000000000000000000000000000815260040161156290612999565b60405180910390fd5b8060066000848152602001908152602001600020908161158b9190612b65565b505050565b60008073ffffffffffffffffffffffffffffffffffffffff166002600084815260200190815260200160002060009054906101000a900473ffffffffffffffffffffffffffffffffffffffff1673ffffffffffffffffffffffffffffffffffffffff1614159050919050565b505050565b505050565b60006116278473ffffffffffffffffffffffffffffffffffffffff166118ed565b15611780578373ffffffffffffffffffffffffffffffffffffffff1663150b7a02611650610d39565b8786866040518563ffffffff1660e01b81526004016116729493929190612c8c565b6020604051808303816000875af19250505080156116ae57506040513d601f19601f820116820180604052508101906116ab9190612ced565b60015b611730573d80600081146116de576040519150601f19603f3d011682016040523d82523d6000602084013e6116e3565b606091505b506000815103611728576040517f08c379a000000000000000000000000000000000000000000000000000000000815260040161171f9061282f565b60405180910390fd5b805181602001fd5b63150b7a0260e01b7bffffffffffffffffffffffffffffffffffffffffffffffffffffffff1916817bffffffffffffffffffffffffffffffffffffffffffffffffffffffff191614915050611785565b600190505b949350505050565b6060600082036117d4576040518060400160405280600181526020017f300000000000000000000000000000000000000000000000000000000000000081525090506118e8565b600082905060005b600082146118065780806117ef90612d1a565b915050600a826117ff9190612d91565b91506117dc565b60008167ffffffffffffffff81111561182257611821611cdc565b5b6040519080825280601f01601f1916602001820160405280156118545781602001600182028036833780820191505090505b5090505b600085146118e15760018261186d91906126e9565b9150600a8561187c9190612dc2565b6030611888919061271d565b60f81b81838151811061189e5761189d612df3565b5b60200101907effffffffffffffffffffffffffffffffffffffffffffffffffffffffffffff1916908160001a905350600a856118da9190612d91565b9450611858565b8093505050505b919050565b6000808273ffffffffffffffffffffffffffffffffffffffff163b119050919050565b6000604051905090565b600080fd5b600080fd5b60007fffffffff0000000000000000000000000000000000000000000000000000000082169050919050565b61195981611924565b811461196457600080fd5b50565b60008135905061197681611950565b92915050565b6000602082840312156119925761199161191a565b5b60006119a084828501611967565b91505092915050565b60008115159050919050565b6119be816119a9565b82525050565b60006020820190506119d960008301846119b5565b92915050565b600081519050919050565b600082825260208201905092915050565b60005b83811015611a195780820151818401526020810190506119fe565b60008484015250505050565b6000601f19601f8301169050919050565b6000611a41826119df565b611a4b81856119ea565b9350611a5b8185602086016119fb565b611a6481611a25565b840191505092915050565b60006020820190508181036000830152611a898184611a36565b905092915050565b6000819050919050565b611aa481611a91565b8114611aaf57600080fd5b50565b600081359050611ac181611a9b565b92915050565b600060208284031215611add57611adc61191a565b5b6000611aeb84828501611ab2565b91505092915050565b600073ffffffffffffffffffffffffffffffffffffffff82169050919050565b6000611b1f82611af4565b9050919050565b611b2f81611b14565b82525050565b6000602082019050611b4a6000830184611b26565b92915050565b611b5981611b14565b8114611b6457600080fd5b50565b600081359050611b7681611b50565b92915050565b60008060408385031215611b9357611b9261191a565b5b6000611ba185828601611b67565b9250506020611bb285828601611ab2565b9150509250929050565b611bc581611a91565b82525050565b6000602082019050611be06000830184611bbc565b92915050565b600080600060608486031215611bff57611bfe61191a565b5b6000611c0d86828701611b67565b9350506020611c1e86828701611b67565b9250506040611c2f86828701611ab2565b9150509250925092565b600060208284031215611c4f57611c4e61191a565b5b6000611c5d84828501611b67565b91505092915050565b611c6f816119a9565b8114611c7a57600080fd5b50565b600081359050611c8c81611c66565b92915050565b60008060408385031215611ca957611ca861191a565b5b6000611cb785828601611b67565b9250506020611cc885828601611c7d565b9150509250929050565b600080fd5b600080fd5b7f4e487b7100000000000000000000000000000000000000000000000000000000600052604160045260246000fd5b611d1482611a25565b810181811067ffffffffffffffff82111715611d3357611d32611cdc565b5b80604052505050565b6000611d46611910565b9050611d528282611d0b565b919050565b600067ffffffffffffffff821115611d7257611d71611cdc565b5b611d7b82611a25565b9050602081019050919050565b82818337600083830152505050565b6000611daa611da584611d57565b611d3c565b905082815260208101848484011115611dc657611dc5611cd7565b5b611dd1848285611d88565b509392505050565b600082601f830112611dee57611ded611cd2565b5b8135611dfe848260208601611d97565b91505092915050565b60008060008060808587031215611e2157611e2061191a565b5b6000611e2f87828801611b67565b9450506020611e4087828801611b67565b9350506040611e5187828801611ab2565b925050606085013567ffffffffffffffff811115611e7257611e7161191f565b5b611e7e87828801611dd9565b91505092959194509250565b600067ffffffffffffffff821115611ea557611ea4611cdc565b5b611eae82611a25565b9050602081019050919050565b6000611ece611ec984611e8a565b611d3c565b905082815260208101848484011115611eea57611ee9611cd7565b5b611ef5848285611d88565b509392505050565b600082601f830112611f1257611f11611cd2565b5b8135611f22848260208601611ebb565b91505092915050565b600080600060608486031215611f4457611f4361191a565b5b6000611f5286828701611b67565b9350506020611f6386828701611ab2565b925050604084013567ffffffffffffffff811115611f8457611f8361191f565b5b611f9086828701611efd565b9150509250925092565b60008060408385031215611fb157611fb061191a565b5b6000611fbf85828601611b67565b9250506020611fd085828601611b67565b9150509250929050565b7f4e487b7100000000000000000000000000000000000000000000000000000000600052602260045260246000fd5b6000600282049050600182168061202157607f821691505b60208210810361203457612033611fda565b5b50919050565b7f4552433732313a20617070726f76616c20746f2063757272656e74206f776e6560008201527f7200000000000000000000000000000000000000000000000000000000000000602082015250565b60006120966021836119ea565b91506120a18261203a565b604082019050919050565b600060208201905081810360008301526120c581612089565b9050919050565b7f4552433732313a20617070726f76652063616c6c6572206973206e6f7420746f60008201527f6b656e206f776e6572206e6f7220617070726f76656420666f7220616c6c0000602082015250565b6000612128603e836119ea565b9150612133826120cc565b604082019050919050565b600060208201905081810360008301526121578161211b565b9050919050565b7f4552433732313a2063616c6c6572206973206e6f7420746f6b656e206f776e6560008201527f72206e6f7220617070726f766564000000000000000000000000000000000000602082015250565b60006121ba602e836119ea565b91506121c58261215e565b604082019050919050565b600060208201905081810360008301526121e9816121ad565b9050919050565b7f4552433732313a20696e76616c696420746f6b656e2049440000000000000000600082015250565b60006122266018836119ea565b9150612231826121f0565b602082019050919050565b6000602082019050818103600083015261225581612219565b9050919050565b7f4552433732313a2061646472657373207a65726f206973206e6f74206120766160008201527f6c6964206f776e65720000000000000000000000000000000000000000000000602082015250565b60006122b86029836119ea565b91506122c38261225c565b604082019050919050565b600060208201905081810360008301526122e7816122ab565b9050919050565b600081905092915050565b6000612304826119df565b61230e81856122ee565b935061231e8185602086016119fb565b80840191505092915050565b600061233682856122f9565b915061234282846122f9565b91508190509392505050565b7f4f6e6c7920657363726f77206d696e7465722063616e206d696e7420746f6b6560008201527f6e73000000000000000000000000000000000000000000000000000000000000602082015250565b60006123aa6022836119ea565b91506123b58261234e565b604082019050919050565b600060208201905081810360008301526123d98161239d565b9050919050565b7f5265616c4573746174653a2043616e6e6f74206d696e7420746f20746865207a60008201527f65726f2061646472657373000000000000000000000000000000000000000000602082015250565b600061243c602b836119ea565b9150612447826123e0565b604082019050919050565b6000602082019050818103600083015261246b8161242f565b9050919050565b7f5265616c4573746174653a20546f6b656e204944206d7573742062652067726560008201527f61746572207468616e207a65726f000000000000000000000000000000000000602082015250565b60006124ce602e836119ea565b91506124d982612472565b604082019050919050565b600060208201905081810360008301526124fd816124c1565b9050919050565b7f5265616c4573746174653a20546f6b656e205552492063616e6e6f742062652060008201527f656d707479000000000000000000000000000000000000000000000000000000602082015250565b60006125606025836119ea565b915061256b82612504565b604082019050919050565b6000602082019050818103600083015261258f81612553565b9050919050565b7f4552433732313a207472616e736665722066726f6d20696e636f72726563742060008201527f6f776e6572000000000000000000000000000000000000000000000000000000602082015250565b60006125f26025836119ea565b91506125fd82612596565b604082019050919050565b60006020820190508181036000830152612621816125e5565b9050919050565b7f4552433732313a207472616e7366657220746f20746865207a65726f2061646460008201527f7265737300000000000000000000000000000000000000000000000000000000602082015250565b60006126846024836119ea565b915061268f82612628565b604082019050919050565b600060208201905081810360008301526126b381612677565b9050919050565b7f4e487b7100000000000000000000000000000000000000000000000000000000600052601160045260246000fd5b60006126f482611a91565b91506126ff83611a91565b9250828203905081811115612717576127166126ba565b5b92915050565b600061272882611a91565b915061273383611a91565b925082820190508082111561274b5761274a6126ba565b5b92915050565b7f4552433732313a20617070726f766520746f2063616c6c657200000000000000600082015250565b60006127876019836119ea565b915061279282612751565b602082019050919050565b600060208201905081810360008301526127b68161277a565b9050919050565b7f4552433732313a207472616e7366657220746f206e6f6e20455243373231526560008201527f63656976657220696d706c656d656e7465720000000000000000000000000000602082015250565b60006128196032836119ea565b9150612824826127bd565b604082019050919050565b600060208201905081810360008301526128488161280c565b9050919050565b7f4552433732313a206d696e7420746f20746865207a65726f2061646472657373600082015250565b60006128856020836119ea565b91506128908261284f565b602082019050919050565b600060208201905081810360008301526128b481612878565b9050919050565b7f4552433732313a20746f6b656e20616c7265616479206d696e74656400000000600082015250565b60006128f1601c836119ea565b91506128fc826128bb565b602082019050919050565b60006020820190508181036000830152612920816128e4565b9050919050565b7f45524337323155524953746f726167653a2055524920736574206f66206e6f6e60008201527f6578697374656e7420746f6b656e000000000000000000000000000000000000602082015250565b6000612983602e836119ea565b915061298e82612927565b604082019050919050565b600060208201905081810360008301526129b281612976565b9050919050565b60008190508160005260206000209050919050565b60006020601f8301049050919050565b600082821b905092915050565b600060088302612a1b7fffffffffffffffffffffffffffffffffffffffffffffffffffffffffffffffff826129de565b612a2586836129de565b95508019841693508086168417925050509392505050565b6000819050919050565b6000612a62612a5d612a5884611a91565b612a3d565b611a91565b9050919050565b6000819050919050565b612a7c83612a47565b612a90612a8882612a69565b8484546129eb565b825550505050565b600090565b612aa5612a98565b612ab0818484612a73565b505050565b5b81811015612ad457612ac9600082612a9d565b600181019050612ab6565b5050565b601f821115612b1957612aea816129b9565b612af3846129ce565b81016020851015612b02578190505b612b16612b0e856129ce565b830182612ab5565b50505b505050565b600082821c905092915050565b6000612b3c60001984600802612b1e565b1980831691505092915050565b6000612b558383612b2b565b9150826002028217905092915050565b612b6e826119df565b67ffffffffffffffff811115612b8757612b86611cdc565b5b612b918254612009565b612b9c828285612ad8565b600060209050601f831160018114612bcf5760008415612bbd578287015190505b612bc78582612b49565b865550612c2f565b601f198416612bdd866129b9565b60005b82811015612c0557848901518255600182019150602085019450602081019050612be0565b86831015612c225784890151612c1e601f891682612b2b565b8355505b6001600288020188555050505b505050505050565b600081519050919050565b600082825260208201905092915050565b6000612c5e82612c37565b612c688185612c42565b9350612c788185602086016119fb565b612c8181611a25565b840191505092915050565b6000608082019050612ca16000830187611b26565b612cae6020830186611b26565b612cbb6040830185611bbc565b8181036060830152612ccd8184612c53565b905095945050505050565b600081519050612ce781611950565b92915050565b600060208284031215612d0357612d0261191a565b5b6000612d1184828501612cd8565b91505092915050565b6000612d2582611a91565b91507fffffffffffffffffffffffffffffffffffffffffffffffffffffffffffffffff8203612d5757612d566126ba565b5b600182019050919050565b7f4e487b7100000000000000000000000000000000000000000000000000000000600052601260045260246000fd5b6000612d9c82611a91565b9150612da783611a91565b925082612db757612db6612d62565b5b828204905092915050565b6000612dcd82611a91565b9150612dd883611a91565b925082612de857612de7612d62565b5b828206905092915050565b7f4e487b7100000000000000000000000000000000000000000000000000000000600052603260045260246000fdfea264697066735822122020409c3b5c4d137a2e506ab1d094a8ea37dcb8f4cd13f4521af6ff7b9caa91d364736f6c63430008110033",
  "linkReferences": {},
  "deployedLinkReferences": {}
}