{
  "_format": "hh-sol-artifact-1",
  "contractName": "PrescriptionManager",
  "sourceName": "contracts/Appointment/PrescriptionManager.sol",
  "abi": [
    {
      "inputs": [
        {
          "internalType": "address",
          "name": "telemedicineAddress",
          "type": "address"
        }
      ],
      "stateMutability": "nonpayable",
      "type": "constructor"
    },
    {
      "anonymous": false,
      "inputs": [
        {
          "indexed": true,
          "internalType": "uint256",
          "name": "appointmentId",
          "type": "uint256"
        },
        {
          "indexed": true,
          "internalType": "bytes32",
          "name": "medId",
          "type": "bytes32"
        }
      ],
      "name": "PrescriptionAssigned",
      "type": "event"
    },
    {
      "inputs": [
        {
          "internalType": "uint256",
          "name": "appointmentId",
          "type": "uint256"
        },
        {
          "internalType": "bytes32",
          "name": "medId",
          "type": "bytes32"
        }
      ],
      "name": "assignMedicine",
      "outputs": [],
      "stateMutability": "nonpayable",
      "type": "function"
    },
    {
      "inputs": [
        {
          "internalType": "uint256",
          "name": "appointmentId",
          "type": "uint256"
        }
      ],
      "name": "getMedId",
      "outputs": [
        {
          "internalType": "bytes32",
          "name": "",
          "type": "bytes32"
        }
      ],
      "stateMutability": "view",
      "type": "function"
    },
    {
      "inputs": [
        {
          "internalType": "uint256",
          "name": "",
          "type": "uint256"
        }
      ],
      "name": "medIdOf",
      "outputs": [
        {
          "internalType": "bytes32",
          "name": "",
          "type": "bytes32"
        }
      ],
      "stateMutability": "view",
      "type": "function"
    },
    {
      "inputs": [],
      "name": "telemedicine",
      "outputs": [
        {
          "internalType": "contract Telemedicine",
          "name": "",
          "type": "address"
        }
      ],
      "stateMutability": "view",
      "type": "function"
    }
  ],
  "bytecode": "0x608060405234801561001057600080fd5b50604051610818380380610818833981810160405281019061003291906100db565b806000806101000a81548173ffffffffffffffffffffffffffffffffffffffff021916908373ffffffffffffffffffffffffffffffffffffffff16021790555050610108565b600080fd5b600073ffffffffffffffffffffffffffffffffffffffff82169050919050565b60006100a88261007d565b9050919050565b6100b88161009d565b81146100c357600080fd5b50565b6000815190506100d5816100af565b92915050565b6000602082840312156100f1576100f0610078565b5b60006100ff848285016100c6565b91505092915050565b610701806101176000396000f3fe608060405234801561001057600080fd5b506004361061004c5760003560e01c80632a2ab6a3146100515780633dc175ad146100815780636b624eb11461009f578063944dd5cd146100cf575b600080fd5b61006b60048036038101906100669190610343565b6100eb565b6040516100789190610389565b60405180910390f35b610089610108565b6040516100969190610423565b60405180910390f35b6100b960048036038101906100b49190610343565b61012c565b6040516100c69190610389565b60405180910390f35b6100e960048036038101906100e4919061046a565b610144565b005b600060016000838152602001908152602001600020549050919050565b60008054906101000a900473ffffffffffffffffffffffffffffffffffffffff1681565b60016020528060005260406000206000915090505481565b60008060008054906101000a900473ffffffffffffffffffffffffffffffffffffffff1673ffffffffffffffffffffffffffffffffffffffff16630d943da2856040518263ffffffff1660e01b81526004016101a091906104b9565b608060405180830381865afa1580156101bd573d6000803e3d6000fd5b505050506040513d601f19601f820116820180604052508101906101e1919061054c565b935050925050600060028111156101fb576101fa6105b3565b5b81600281111561020e5761020d6105b3565b5b1461024e576040517f08c379a00000000000000000000000000000000000000000000000000000000081526004016102459061063f565b60405180910390fd5b8173ffffffffffffffffffffffffffffffffffffffff163373ffffffffffffffffffffffffffffffffffffffff16146102bc576040517f08c379a00000000000000000000000000000000000000000000000000000000081526004016102b3906106ab565b60405180910390fd5b82600160008681526020019081526020016000208190555082847f0ace3c1e2383d6c6a8ae87c095f3afe0223e0c73ae9dad464fea96bfa293b3b660405160405180910390a350505050565b600080fd5b6000819050919050565b6103208161030d565b811461032b57600080fd5b50565b60008135905061033d81610317565b92915050565b60006020828403121561035957610358610308565b5b60006103678482850161032e565b91505092915050565b6000819050919050565b61038381610370565b82525050565b600060208201905061039e600083018461037a565b92915050565b600073ffffffffffffffffffffffffffffffffffffffff82169050919050565b6000819050919050565b60006103e96103e46103df846103a4565b6103c4565b6103a4565b9050919050565b60006103fb826103ce565b9050919050565b600061040d826103f0565b9050919050565b61041d81610402565b82525050565b60006020820190506104386000830184610414565b92915050565b61044781610370565b811461045257600080fd5b50565b6000813590506104648161043e565b92915050565b6000806040838503121561048157610480610308565b5b600061048f8582860161032e565b92505060206104a085828601610455565b9150509250929050565b6104b38161030d565b82525050565b60006020820190506104ce60008301846104aa565b92915050565b60006104df826103a4565b9050919050565b6104ef816104d4565b81146104fa57600080fd5b50565b60008151905061050c816104e6565b92915050565b60008151905061052181610317565b92915050565b6003811061053457600080fd5b50565b60008151905061054681610527565b92915050565b6000806000806080858703121561056657610565610308565b5b6000610574878288016104fd565b9450506020610585878288016104fd565b935050604061059687828801610512565b92505060606105a787828801610537565b91505092959194509250565b7f4e487b7100000000000000000000000000000000000000000000000000000000600052602160045260246000fd5b600082825260208201905092915050565b7f4e6f742061637469766500000000000000000000000000000000000000000000600082015250565b6000610629600a836105e2565b9150610634826105f3565b602082019050919050565b600060208201905081810360008301526106588161061c565b9050919050565b7f4f6e6c7920646f63746f72000000000000000000000000000000000000000000600082015250565b6000610695600b836105e2565b91506106a08261065f565b602082019050919050565b600060208201905081810360008301526106c481610688565b905091905056fea26469706673582212206fc016eb2d297edd6d75ecaede3b329ac716561e9185173f32caa8981dff07ef64736f6c634300081c0033",
  "linkReferences": {},
  "deployedLinkReferences": {}
}