{
  "_format": "hh-sol-artifact-1",
  "contractName": "AccessRequest",
  "sourceName": "contracts/AcccessRequest.sol",
  "abi": [
    {
      "inputs": [
        {
          "internalType": "address",
          "name": "_doctorRegistry",
          "type": "address"
        },
        {
          "internalType": "address",
          "name": "_patientRegistry",
          "type": "address"
        }
      ],
      "stateMutability": "nonpayable",
      "type": "constructor"
    },
    {
      "inputs": [
        {
          "internalType": "address",
          "name": "owner",
          "type": "address"
        }
      ],
      "name": "OwnableInvalidOwner",
      "type": "error"
    },
    {
      "inputs": [
        {
          "internalType": "address",
          "name": "account",
          "type": "address"
        }
      ],
      "name": "OwnableUnauthorizedAccount",
      "type": "error"
    },
    {
      "anonymous": false,
      "inputs": [
        {
          "indexed": true,
          "internalType": "address",
          "name": "previousOwner",
          "type": "address"
        },
        {
          "indexed": true,
          "internalType": "address",
          "name": "newOwner",
          "type": "address"
        }
      ],
      "name": "OwnershipTransferred",
      "type": "event"
    },
    {
      "anonymous": false,
      "inputs": [
        {
          "indexed": true,
          "internalType": "uint256",
          "name": "requestId",
          "type": "uint256"
        },
        {
          "indexed": true,
          "internalType": "address",
          "name": "doctor",
          "type": "address"
        }
      ],
      "name": "RequestApproved",
      "type": "event"
    },
    {
      "anonymous": false,
      "inputs": [
        {
          "indexed": true,
          "internalType": "uint256",
          "name": "requestId",
          "type": "uint256"
        },
        {
          "indexed": true,
          "internalType": "address",
          "name": "admin",
          "type": "address"
        },
        {
          "indexed": true,
          "internalType": "address",
          "name": "doctor",
          "type": "address"
        },
        {
          "indexed": false,
          "internalType": "address",
          "name": "patient",
          "type": "address"
        }
      ],
      "name": "RequestCreated",
      "type": "event"
    },
    {
      "anonymous": false,
      "inputs": [
        {
          "indexed": true,
          "internalType": "uint256",
          "name": "requestId",
          "type": "uint256"
        },
        {
          "indexed": true,
          "internalType": "address",
          "name": "doctor",
          "type": "address"
        }
      ],
      "name": "RequestRejected",
      "type": "event"
    },
    {
      "inputs": [
        {
          "internalType": "uint256",
          "name": "requestId",
          "type": "uint256"
        }
      ],
      "name": "approveRequest",
      "outputs": [],
      "stateMutability": "nonpayable",
      "type": "function"
    },
    {
      "inputs": [
        {
          "internalType": "address",
          "name": "doctor",
          "type": "address"
        },
        {
          "internalType": "address",
          "name": "patient",
          "type": "address"
        }
      ],
      "name": "createRequest",
      "outputs": [],
      "stateMutability": "nonpayable",
      "type": "function"
    },
    {
      "inputs": [],
      "name": "doctors",
      "outputs": [
        {
          "internalType": "contract IRegistryCheck",
          "name": "",
          "type": "address"
        }
      ],
      "stateMutability": "view",
      "type": "function"
    },
    {
      "inputs": [
        {
          "internalType": "uint256",
          "name": "id",
          "type": "uint256"
        }
      ],
      "name": "getRequest",
      "outputs": [
        {
          "internalType": "address",
          "name": "",
          "type": "address"
        },
        {
          "internalType": "address",
          "name": "",
          "type": "address"
        },
        {
          "internalType": "address",
          "name": "",
          "type": "address"
        },
        {
          "internalType": "enum AccessRequest.Status",
          "name": "",
          "type": "uint8"
        }
      ],
      "stateMutability": "view",
      "type": "function"
    },
    {
      "inputs": [],
      "name": "nextRequestId",
      "outputs": [
        {
          "internalType": "uint256",
          "name": "",
          "type": "uint256"
        }
      ],
      "stateMutability": "view",
      "type": "function"
    },
    {
      "inputs": [],
      "name": "owner",
      "outputs": [
        {
          "internalType": "address",
          "name": "",
          "type": "address"
        }
      ],
      "stateMutability": "view",
      "type": "function"
    },
    {
      "inputs": [],
      "name": "patients",
      "outputs": [
        {
          "internalType": "contract IRegistryCheck",
          "name": "",
          "type": "address"
        }
      ],
      "stateMutability": "view",
      "type": "function"
    },
    {
      "inputs": [
        {
          "internalType": "uint256",
          "name": "requestId",
          "type": "uint256"
        }
      ],
      "name": "rejectRequest",
      "outputs": [],
      "stateMutability": "nonpayable",
      "type": "function"
    },
    {
      "inputs": [],
      "name": "renounceOwnership",
      "outputs": [],
      "stateMutability": "nonpayable",
      "type": "function"
    },
    {
      "inputs": [
        {
          "internalType": "uint256",
          "name": "",
          "type": "uint256"
        }
      ],
      "name": "requests",
      "outputs": [
        {
          "internalType": "address",
          "name": "admin",
          "type": "address"
        },
        {
          "internalType": "address",
          "name": "doctor",
          "type": "address"
        },
        {
          "internalType": "address",
          "name": "patient",
          "type": "address"
        },
        {
          "internalType": "enum AccessRequest.Status",
          "name": "status",
          "type": "uint8"
        }
      ],
      "stateMutability": "view",
      "type": "function"
    },
    {
      "inputs": [
        {
          "internalType": "address",
          "name": "newOwner",
          "type": "address"
        }
      ],
      "name": "transferOwnership",
      "outputs": [],
      "stateMutability": "nonpayable",
      "type": "function"
    }
  ],
  "bytecode": "0x608060405234801561001057600080fd5b506040516115e03803806115e083398181016040528101906100329190610265565b33600073ffffffffffffffffffffffffffffffffffffffff168173ffffffffffffffffffffffffffffffffffffffff16036100a55760006040517f1e4fbdf700000000000000000000000000000000000000000000000000000000815260040161009c91906102b4565b60405180910390fd5b6100b48161013e60201b60201c565b5081600160006101000a81548173ffffffffffffffffffffffffffffffffffffffff021916908373ffffffffffffffffffffffffffffffffffffffff16021790555080600260006101000a81548173ffffffffffffffffffffffffffffffffffffffff021916908373ffffffffffffffffffffffffffffffffffffffff16021790555050506102cf565b60008060009054906101000a900473ffffffffffffffffffffffffffffffffffffffff169050816000806101000a81548173ffffffffffffffffffffffffffffffffffffffff021916908373ffffffffffffffffffffffffffffffffffffffff1602179055508173ffffffffffffffffffffffffffffffffffffffff168173ffffffffffffffffffffffffffffffffffffffff167f8be0079c531659141344cd1fd0a4f28419497f9722a3daafe3b4186f6b6457e060405160405180910390a35050565b600080fd5b600073ffffffffffffffffffffffffffffffffffffffff82169050919050565b600061023282610207565b9050919050565b61024281610227565b811461024d57600080fd5b50565b60008151905061025f81610239565b92915050565b6000806040838503121561027c5761027b610202565b5b600061028a85828601610250565b925050602061029b85828601610250565b9150509250929050565b6102ae81610227565b82525050565b60006020820190506102c960008301846102a5565b92915050565b611302806102de6000396000f3fe608060405234801561001057600080fd5b50600436106100a95760003560e01c8063715018a611610071578063715018a61461014057806381d12c581461014a5780638da5cb5b1461017d578063c58343ef1461019b578063d7d1bbdb146101ce578063f2fde38b146101ea576100a9565b8063134a25c5146100ae5780632203ec2d146100cc5780632d7788db146100ea5780635951a0e1146101065780636a84a98514610122575b600080fd5b6100b6610206565b6040516100c39190610d39565b60405180910390f35b6100d461022c565b6040516100e19190610d39565b60405180910390f35b61010460048036038101906100ff9190610d8f565b610252565b005b610120600480360381019061011b9190610dfa565b6103e8565b005b61012a6107bd565b6040516101379190610e49565b60405180910390f35b6101486107c3565b005b610164600480360381019061015f9190610d8f565b6107d7565b6040516101749493929190610eea565b60405180910390f35b610185610874565b6040516101929190610f2f565b60405180910390f35b6101b560048036038101906101b09190610d8f565b61089d565b6040516101c59493929190610eea565b60405180910390f35b6101e860048036038101906101e39190610d8f565b61094b565b005b61020460048036038101906101ff9190610f4a565b610ae1565b005b600260009054906101000a900473ffffffffffffffffffffffffffffffffffffffff1681565b600160009054906101000a900473ffffffffffffffffffffffffffffffffffffffff1681565b60006003600083815260200190815260200160002090506000600281111561027d5761027c610e73565b5b8160020160149054906101000a900460ff1660028111156102a1576102a0610e73565b5b146102e1576040517f08c379a00000000000000000000000000000000000000000000000000000000081526004016102d890610fd4565b60405180910390fd5b8060010160009054906101000a900473ffffffffffffffffffffffffffffffffffffffff1673ffffffffffffffffffffffffffffffffffffffff163373ffffffffffffffffffffffffffffffffffffffff1614610373576040517f08c379a000000000000000000000000000000000000000000000000000000000815260040161036a90611066565b60405180910390fd5b60028160020160146101000a81548160ff0219169083600281111561039b5761039a610e73565b5b02179055503373ffffffffffffffffffffffffffffffffffffffff16827f490ad67e4c8b3b9c1d11dfcd7f02e155190b8f6feff3a9d9e9df3721f0f74e5760405160405180910390a35050565b6103f0610b67565b600160009054906101000a900473ffffffffffffffffffffffffffffffffffffffff1673ffffffffffffffffffffffffffffffffffffffff1663996440c6836040518263ffffffff1660e01b815260040161044b9190610f2f565b602060405180830381865afa158015610468573d6000803e3d6000fd5b505050506040513d601f19601f8201168201806040525081019061048c91906110be565b6104cb576040517f08c379a00000000000000000000000000000000000000000000000000000000081526004016104c290611137565b60405180910390fd5b600260009054906101000a900473ffffffffffffffffffffffffffffffffffffffff1673ffffffffffffffffffffffffffffffffffffffff16638f9c79ed826040518263ffffffff1660e01b81526004016105269190610f2f565b602060405180830381865afa158015610543573d6000803e3d6000fd5b505050506040513d601f19601f8201168201806040525081019061056791906110be565b6105a6576040517f08c379a000000000000000000000000000000000000000000000000000000000815260040161059d906111a3565b60405180910390fd5b60405180608001604052803373ffffffffffffffffffffffffffffffffffffffff1681526020018373ffffffffffffffffffffffffffffffffffffffff1681526020018273ffffffffffffffffffffffffffffffffffffffff1681526020016000600281111561061957610618610e73565b5b81525060036000600454815260200190815260200160002060008201518160000160006101000a81548173ffffffffffffffffffffffffffffffffffffffff021916908373ffffffffffffffffffffffffffffffffffffffff16021790555060208201518160010160006101000a81548173ffffffffffffffffffffffffffffffffffffffff021916908373ffffffffffffffffffffffffffffffffffffffff16021790555060408201518160020160006101000a81548173ffffffffffffffffffffffffffffffffffffffff021916908373ffffffffffffffffffffffffffffffffffffffff16021790555060608201518160020160146101000a81548160ff0219169083600281111561073157610730610e73565b5b02179055509050508173ffffffffffffffffffffffffffffffffffffffff163373ffffffffffffffffffffffffffffffffffffffff166004547f7cf78f4c341785a756f206671f2e4e359f4914053c27594bd35d17d8326f4841846040516107999190610f2f565b60405180910390a4600460008154809291906107b4906111f2565b91905055505050565b60045481565b6107cb610b67565b6107d56000610bee565b565b60036020528060005260406000206000915090508060000160009054906101000a900473ffffffffffffffffffffffffffffffffffffffff16908060010160009054906101000a900473ffffffffffffffffffffffffffffffffffffffff16908060020160009054906101000a900473ffffffffffffffffffffffffffffffffffffffff16908060020160149054906101000a900460ff16905084565b60008060009054906101000a900473ffffffffffffffffffffffffffffffffffffffff16905090565b60008060008060006003600087815260200190815260200160002090508060000160009054906101000a900473ffffffffffffffffffffffffffffffffffffffff168160010160009054906101000a900473ffffffffffffffffffffffffffffffffffffffff168260020160009054906101000a900473ffffffffffffffffffffffffffffffffffffffff168360020160149054906101000a900460ff169450945094509450509193509193565b60006003600083815260200190815260200160002090506000600281111561097657610975610e73565b5b8160020160149054906101000a900460ff16600281111561099a57610999610e73565b5b146109da576040517f08c379a00000000000000000000000000000000000000000000000000000000081526004016109d190610fd4565b60405180910390fd5b8060010160009054906101000a900473ffffffffffffffffffffffffffffffffffffffff1673ffffffffffffffffffffffffffffffffffffffff163373ffffffffffffffffffffffffffffffffffffffff1614610a6c576040517f08c379a0000000000000000000000000000000000000000000000000000000008152600401610a63906112ac565b60405180910390fd5b60018160020160146101000a81548160ff02191690836002811115610a9457610a93610e73565b5b02179055503373ffffffffffffffffffffffffffffffffffffffff16827ff3dc904660a0ea05aba8dfa1e21fbc4fb2914be2a3029da7b0fdd3e5eee20ddb60405160405180910390a35050565b610ae9610b67565b600073ffffffffffffffffffffffffffffffffffffffff168173ffffffffffffffffffffffffffffffffffffffff1603610b5b5760006040517f1e4fbdf7000000000000000000000000000000000000000000000000000000008152600401610b529190610f2f565b60405180910390fd5b610b6481610bee565b50565b610b6f610cb2565b73ffffffffffffffffffffffffffffffffffffffff16610b8d610874565b73ffffffffffffffffffffffffffffffffffffffff1614610bec57610bb0610cb2565b6040517f118cdaa7000000000000000000000000000000000000000000000000000000008152600401610be39190610f2f565b60405180910390fd5b565b60008060009054906101000a900473ffffffffffffffffffffffffffffffffffffffff169050816000806101000a81548173ffffffffffffffffffffffffffffffffffffffff021916908373ffffffffffffffffffffffffffffffffffffffff1602179055508173ffffffffffffffffffffffffffffffffffffffff168173ffffffffffffffffffffffffffffffffffffffff167f8be0079c531659141344cd1fd0a4f28419497f9722a3daafe3b4186f6b6457e060405160405180910390a35050565b600033905090565b600073ffffffffffffffffffffffffffffffffffffffff82169050919050565b6000819050919050565b6000610cff610cfa610cf584610cba565b610cda565b610cba565b9050919050565b6000610d1182610ce4565b9050919050565b6000610d2382610d06565b9050919050565b610d3381610d18565b82525050565b6000602082019050610d4e6000830184610d2a565b92915050565b600080fd5b6000819050919050565b610d6c81610d59565b8114610d7757600080fd5b50565b600081359050610d8981610d63565b92915050565b600060208284031215610da557610da4610d54565b5b6000610db384828501610d7a565b91505092915050565b6000610dc782610cba565b9050919050565b610dd781610dbc565b8114610de257600080fd5b50565b600081359050610df481610dce565b92915050565b60008060408385031215610e1157610e10610d54565b5b6000610e1f85828601610de5565b9250506020610e3085828601610de5565b9150509250929050565b610e4381610d59565b82525050565b6000602082019050610e5e6000830184610e3a565b92915050565b610e6d81610dbc565b82525050565b7f4e487b7100000000000000000000000000000000000000000000000000000000600052602160045260246000fd5b60038110610eb357610eb2610e73565b5b50565b6000819050610ec482610ea2565b919050565b6000610ed482610eb6565b9050919050565b610ee481610ec9565b82525050565b6000608082019050610eff6000830187610e64565b610f0c6020830186610e64565b610f196040830185610e64565b610f266060830184610edb565b95945050505050565b6000602082019050610f446000830184610e64565b92915050565b600060208284031215610f6057610f5f610d54565b5b6000610f6e84828501610de5565b91505092915050565b600082825260208201905092915050565b7f5374617475733a204e6f742070656e64696e6700000000000000000000000000600082015250565b6000610fbe601383610f77565b9150610fc982610f88565b602082019050919050565b60006020820190508181036000830152610fed81610fb1565b9050919050565b7f4163636573733a204f6e6c792064657369676e6174656420646f63746f72206360008201527f616e2072656a6563740000000000000000000000000000000000000000000000602082015250565b6000611050602983610f77565b915061105b82610ff4565b604082019050919050565b6000602082019050818103600083015261107f81611043565b9050919050565b60008115159050919050565b61109b81611086565b81146110a657600080fd5b50565b6000815190506110b881611092565b92915050565b6000602082840312156110d4576110d3610d54565b5b60006110e2848285016110a9565b91505092915050565b7f52656769737472793a20496e76616c696420646f63746f720000000000000000600082015250565b6000611121601883610f77565b915061112c826110eb565b602082019050919050565b6000602082019050818103600083015261115081611114565b9050919050565b7f52656769737472793a20496e76616c69642070617469656e7400000000000000600082015250565b600061118d601983610f77565b915061119882611157565b602082019050919050565b600060208201905081810360008301526111bc81611180565b9050919050565b7f4e487b7100000000000000000000000000000000000000000000000000000000600052601160045260246000fd5b60006111fd82610d59565b91507fffffffffffffffffffffffffffffffffffffffffffffffffffffffffffffffff820361122f5761122e6111c3565b5b600182019050919050565b7f4163636573733a204f6e6c792064657369676e6174656420646f63746f72206360008201527f616e20617070726f766500000000000000000000000000000000000000000000602082015250565b6000611296602a83610f77565b91506112a18261123a565b604082019050919050565b600060208201905081810360008301526112c581611289565b905091905056fea264697066735822122055d642c254fddcb8d36a0d83dc6fc66a2525322909e6caf0ded83d916585ded364736f6c634300081c0033",
  "linkReferences": {},
  "deployedLinkReferences": {}
}