{
  "_format": "hh-sol-artifact-1",
  "contractName": "HospitalServices",
  "sourceName": "contracts/HospitalManagement.sol",
  "abi": [
    {
      "inputs": [
        {
          "internalType": "address",
          "name": "_registry",
          "type": "address"
        }
      ],
      "stateMutability": "nonpayable",
      "type": "constructor"
    },
    {
      "inputs": [
        {
          "internalType": "address",
          "name": "owner",
          "type": "address"
        }
      ],
      "name": "OwnableInvalidOwner",
      "type": "error"
    },
    {
      "inputs": [
        {
          "internalType": "address",
          "name": "account",
          "type": "address"
        }
      ],
      "name": "OwnableUnauthorizedAccount",
      "type": "error"
    },
    {
      "anonymous": false,
      "inputs": [
        {
          "indexed": true,
          "internalType": "address",
          "name": "previousOwner",
          "type": "address"
        },
        {
          "indexed": true,
          "internalType": "address",
          "name": "newOwner",
          "type": "address"
        }
      ],
      "name": "OwnershipTransferred",
      "type": "event"
    },
    {
      "inputs": [
        {
          "internalType": "uint256",
          "name": "",
          "type": "uint256"
        }
      ],
      "name": "appointments",
      "outputs": [
        {
          "internalType": "uint256",
          "name": "id",
          "type": "uint256"
        },
        {
          "internalType": "address",
          "name": "patient",
          "type": "address"
        },
        {
          "internalType": "address",
          "name": "doctor",
          "type": "address"
        },
        {
          "internalType": "uint256",
          "name": "timestamp",
          "type": "uint256"
        },
        {
          "internalType": "enum HospitalServices.ApptStatus",
          "name": "status",
          "type": "uint8"
        }
      ],
      "stateMutability": "view",
      "type": "function"
    },
    {
      "inputs": [
        {
          "internalType": "address",
          "name": "_doctor",
          "type": "address"
        },
        {
          "internalType": "uint256",
          "name": "_timestamp",
          "type": "uint256"
        }
      ],
      "name": "bookAppointment",
      "outputs": [],
      "stateMutability": "nonpayable",
      "type": "function"
    },
    {
      "inputs": [
        {
          "internalType": "uint256",
          "name": "",
          "type": "uint256"
        }
      ],
      "name": "claims",
      "outputs": [
        {
          "internalType": "uint256",
          "name": "id",
          "type": "uint256"
        },
        {
          "internalType": "uint256",
          "name": "recordId",
          "type": "uint256"
        },
        {
          "internalType": "address",
          "name": "patient",
          "type": "address"
        },
        {
          "internalType": "address",
          "name": "insurer",
          "type": "address"
        },
        {
          "internalType": "uint256",
          "name": "amount",
          "type": "uint256"
        },
        {
          "internalType": "enum HospitalServices.ClaimStatus",
          "name": "status",
          "type": "uint8"
        }
      ],
      "stateMutability": "view",
      "type": "function"
    },
    {
      "inputs": [],
      "name": "nextApptId",
      "outputs": [
        {
          "internalType": "uint256",
          "name": "",
          "type": "uint256"
        }
      ],
      "stateMutability": "view",
      "type": "function"
    },
    {
      "inputs": [],
      "name": "nextClaimId",
      "outputs": [
        {
          "internalType": "uint256",
          "name": "",
          "type": "uint256"
        }
      ],
      "stateMutability": "view",
      "type": "function"
    },
    {
      "inputs": [],
      "name": "owner",
      "outputs": [
        {
          "internalType": "address",
          "name": "",
          "type": "address"
        }
      ],
      "stateMutability": "view",
      "type": "function"
    },
    {
      "inputs": [
        {
          "internalType": "uint256",
          "name": "_claimId",
          "type": "uint256"
        },
        {
          "internalType": "enum HospitalServices.ClaimStatus",
          "name": "_status",
          "type": "uint8"
        }
      ],
      "name": "processClaim",
      "outputs": [],
      "stateMutability": "nonpayable",
      "type": "function"
    },
    {
      "inputs": [],
      "name": "registry",
      "outputs": [
        {
          "internalType": "contract IRegistry",
          "name": "",
          "type": "address"
        }
      ],
      "stateMutability": "view",
      "type": "function"
    },
    {
      "inputs": [],
      "name": "renounceOwnership",
      "outputs": [],
      "stateMutability": "nonpayable",
      "type": "function"
    },
    {
      "inputs": [
        {
          "internalType": "uint256",
          "name": "_recordId",
          "type": "uint256"
        },
        {
          "internalType": "address",
          "name": "_insurer",
          "type": "address"
        },
        {
          "internalType": "uint256",
          "name": "_amount",
          "type": "uint256"
        }
      ],
      "name": "submitClaim",
      "outputs": [],
      "stateMutability": "nonpayable",
      "type": "function"
    },
    {
      "inputs": [
        {
          "internalType": "address",
          "name": "newOwner",
          "type": "address"
        }
      ],
      "name": "transferOwnership",
      "outputs": [],
      "stateMutability": "nonpayable",
      "type": "function"
    },
    {
      "inputs": [
        {
          "internalType": "uint256",
          "name": "_id",
          "type": "uint256"
        },
        {
          "internalType": "enum HospitalServices.ApptStatus",
          "name": "_status",
          "type": "uint8"
        }
      ],
      "name": "updateAppointmentStatus",
      "outputs": [],
      "stateMutability": "nonpayable",
      "type": "function"
    }
  ],
  "bytecode": "0x608060405234801561001057600080fd5b506040516118a23803806118a283398181016040528101906100329190610223565b33600073ffffffffffffffffffffffffffffffffffffffff168173ffffffffffffffffffffffffffffffffffffffff16036100a55760006040517f1e4fbdf700000000000000000000000000000000000000000000000000000000815260040161009c919061025f565b60405180910390fd5b6100b4816100fc60201b60201c565b5080600160006101000a81548173ffffffffffffffffffffffffffffffffffffffff021916908373ffffffffffffffffffffffffffffffffffffffff1602179055505061027a565b60008060009054906101000a900473ffffffffffffffffffffffffffffffffffffffff169050816000806101000a81548173ffffffffffffffffffffffffffffffffffffffff021916908373ffffffffffffffffffffffffffffffffffffffff1602179055508173ffffffffffffffffffffffffffffffffffffffff168173ffffffffffffffffffffffffffffffffffffffff167f8be0079c531659141344cd1fd0a4f28419497f9722a3daafe3b4186f6b6457e060405160405180910390a35050565b600080fd5b600073ffffffffffffffffffffffffffffffffffffffff82169050919050565b60006101f0826101c5565b9050919050565b610200816101e5565b811461020b57600080fd5b50565b60008151905061021d816101f7565b92915050565b600060208284031215610239576102386101c0565b5b60006102478482850161020e565b91505092915050565b610259816101e5565b82525050565b60006020820190506102746000830184610250565b92915050565b611619806102896000396000f3fe608060405234801561001057600080fd5b50600436106100b45760003560e01c8063a888c2cd11610071578063a888c2cd1461016d578063b9ec0366146101a2578063bc8db4fc146101c0578063eef28996146101dc578063f0ba348e146101f8578063f2fde38b14610214576100b4565b8063068a423b146100b957806312dc9013146100d5578063715018a6146101095780637b103999146101135780638da5cb5b14610131578063a0021cf11461014f575b600080fd5b6100d360048036038101906100ce9190610df1565b610230565b005b6100ef60048036038101906100ea9190610e31565b61030a565b604051610100959493929190610f25565b60405180910390f35b61011161038d565b005b61011b6103a1565b6040516101289190610fd7565b60405180910390f35b6101396103c7565b6040516101469190610ff2565b60405180910390f35b6101576103f0565b604051610164919061100d565b60405180910390f35b61018760048036038101906101829190610e31565b6103f6565b60405161019996959493929190611070565b60405180910390f35b6101aa61047f565b6040516101b7919061100d565b60405180910390f35b6101da60048036038101906101d591906110f6565b610485565b005b6101f660048036038101906101f19190611162565b61055f565b005b610212600480360381019061020d91906111a2565b610883565b005b61022e600480360381019061022991906111f5565b610bb8565b005b60006002600084815260200190815260200160002090508060020160009054906101000a900473ffffffffffffffffffffffffffffffffffffffff1673ffffffffffffffffffffffffffffffffffffffff163373ffffffffffffffffffffffffffffffffffffffff16146102d9576040517f08c379a00000000000000000000000000000000000000000000000000000000081526004016102d0906112a5565b60405180910390fd5b818160040160006101000a81548160ff02191690836003811115610300576102ff610eae565b5b0217905550505050565b60026020528060005260406000206000915090508060000154908060010160009054906101000a900473ffffffffffffffffffffffffffffffffffffffff16908060020160009054906101000a900473ffffffffffffffffffffffffffffffffffffffff16908060030154908060040160009054906101000a900460ff16905085565b610395610c3e565b61039f6000610cc5565b565b600160009054906101000a900473ffffffffffffffffffffffffffffffffffffffff1681565b60008060009054906101000a900473ffffffffffffffffffffffffffffffffffffffff16905090565b60055481565b60046020528060005260406000206000915090508060000154908060010154908060020160009054906101000a900473ffffffffffffffffffffffffffffffffffffffff16908060030160009054906101000a900473ffffffffffffffffffffffffffffffffffffffff16908060040154908060050160009054906101000a900460ff16905086565b60035481565b60006004600084815260200190815260200160002090508060030160009054906101000a900473ffffffffffffffffffffffffffffffffffffffff1673ffffffffffffffffffffffffffffffffffffffff163373ffffffffffffffffffffffffffffffffffffffff161461052e576040517f08c379a000000000000000000000000000000000000000000000000000000000815260040161052590611337565b60405180910390fd5b818160050160006101000a81548160ff0219169083600381111561055557610554610eae565b5b0217905550505050565b600160009054906101000a900473ffffffffffffffffffffffffffffffffffffffff1673ffffffffffffffffffffffffffffffffffffffff16638f9c79ed336040518263ffffffff1660e01b81526004016105ba9190610ff2565b602060405180830381865afa1580156105d7573d6000803e3d6000fd5b505050506040513d601f19601f820116820180604052508101906105fb919061138f565b61063a576040517f08c379a000000000000000000000000000000000000000000000000000000000815260040161063190611408565b60405180910390fd5b600160009054906101000a900473ffffffffffffffffffffffffffffffffffffffff1673ffffffffffffffffffffffffffffffffffffffff1663996440c6836040518263ffffffff1660e01b81526004016106959190610ff2565b602060405180830381865afa1580156106b2573d6000803e3d6000fd5b505050506040513d601f19601f820116820180604052508101906106d6919061138f565b610715576040517f08c379a000000000000000000000000000000000000000000000000000000000815260040161070c90611474565b60405180910390fd5b6040518060a0016040528060035481526020013373ffffffffffffffffffffffffffffffffffffffff1681526020018373ffffffffffffffffffffffffffffffffffffffff1681526020018281526020016000600381111561077a57610779610eae565b5b8152506002600060035481526020019081526020016000206000820151816000015560208201518160010160006101000a81548173ffffffffffffffffffffffffffffffffffffffff021916908373ffffffffffffffffffffffffffffffffffffffff16021790555060408201518160020160006101000a81548173ffffffffffffffffffffffffffffffffffffffff021916908373ffffffffffffffffffffffffffffffffffffffff1602179055506060820151816003015560808201518160040160006101000a81548160ff0219169083600381111561085f5761085e610eae565b5b02179055509050506003600081548092919061087a906114c3565b91905055505050565b600160009054906101000a900473ffffffffffffffffffffffffffffffffffffffff1673ffffffffffffffffffffffffffffffffffffffff16638f9c79ed336040518263ffffffff1660e01b81526004016108de9190610ff2565b602060405180830381865afa1580156108fb573d6000803e3d6000fd5b505050506040513d601f19601f8201168201806040525081019061091f919061138f565b61095e576040517f08c379a000000000000000000000000000000000000000000000000000000000815260040161095590611557565b60405180910390fd5b600160009054906101000a900473ffffffffffffffffffffffffffffffffffffffff1673ffffffffffffffffffffffffffffffffffffffff1663da7897e2836040518263ffffffff1660e01b81526004016109b99190610ff2565b602060405180830381865afa1580156109d6573d6000803e3d6000fd5b505050506040513d601f19601f820116820180604052508101906109fa919061138f565b610a39576040517f08c379a0000000000000000000000000000000000000000000000000000000008152600401610a30906115c3565b60405180910390fd5b6040518060c0016040528060055481526020018481526020013373ffffffffffffffffffffffffffffffffffffffff1681526020018373ffffffffffffffffffffffffffffffffffffffff16815260200182815260200160006003811115610aa457610aa3610eae565b5b815250600460006005548152602001908152602001600020600082015181600001556020820151816001015560408201518160020160006101000a81548173ffffffffffffffffffffffffffffffffffffffff021916908373ffffffffffffffffffffffffffffffffffffffff16021790555060608201518160030160006101000a81548173ffffffffffffffffffffffffffffffffffffffff021916908373ffffffffffffffffffffffffffffffffffffffff1602179055506080820151816004015560a08201518160050160006101000a81548160ff02191690836003811115610b9357610b92610eae565b5b021790555090505060056000815480929190610bae906114c3565b9190505550505050565b610bc0610c3e565b600073ffffffffffffffffffffffffffffffffffffffff168173ffffffffffffffffffffffffffffffffffffffff1603610c325760006040517f1e4fbdf7000000000000000000000000000000000000000000000000000000008152600401610c299190610ff2565b60405180910390fd5b610c3b81610cc5565b50565b610c46610d89565b73ffffffffffffffffffffffffffffffffffffffff16610c646103c7565b73ffffffffffffffffffffffffffffffffffffffff1614610cc357610c87610d89565b6040517f118cdaa7000000000000000000000000000000000000000000000000000000008152600401610cba9190610ff2565b60405180910390fd5b565b60008060009054906101000a900473ffffffffffffffffffffffffffffffffffffffff169050816000806101000a81548173ffffffffffffffffffffffffffffffffffffffff021916908373ffffffffffffffffffffffffffffffffffffffff1602179055508173ffffffffffffffffffffffffffffffffffffffff168173ffffffffffffffffffffffffffffffffffffffff167f8be0079c531659141344cd1fd0a4f28419497f9722a3daafe3b4186f6b6457e060405160405180910390a35050565b600033905090565b600080fd5b6000819050919050565b610da981610d96565b8114610db457600080fd5b50565b600081359050610dc681610da0565b92915050565b60048110610dd957600080fd5b50565b600081359050610deb81610dcc565b92915050565b60008060408385031215610e0857610e07610d91565b5b6000610e1685828601610db7565b9250506020610e2785828601610ddc565b9150509250929050565b600060208284031215610e4757610e46610d91565b5b6000610e5584828501610db7565b91505092915050565b610e6781610d96565b82525050565b600073ffffffffffffffffffffffffffffffffffffffff82169050919050565b6000610e9882610e6d565b9050919050565b610ea881610e8d565b82525050565b7f4e487b7100000000000000000000000000000000000000000000000000000000600052602160045260246000fd5b60048110610eee57610eed610eae565b5b50565b6000819050610eff82610edd565b919050565b6000610f0f82610ef1565b9050919050565b610f1f81610f04565b82525050565b600060a082019050610f3a6000830188610e5e565b610f476020830187610e9f565b610f546040830186610e9f565b610f616060830185610e5e565b610f6e6080830184610f16565b9695505050505050565b6000819050919050565b6000610f9d610f98610f9384610e6d565b610f78565b610e6d565b9050919050565b6000610faf82610f82565b9050919050565b6000610fc182610fa4565b9050919050565b610fd181610fb6565b82525050565b6000602082019050610fec6000830184610fc8565b92915050565b60006020820190506110076000830184610e9f565b92915050565b60006020820190506110226000830184610e5e565b92915050565b6004811061103957611038610eae565b5b50565b600081905061104a82611028565b919050565b600061105a8261103c565b9050919050565b61106a8161104f565b82525050565b600060c0820190506110856000830189610e5e565b6110926020830188610e5e565b61109f6040830187610e9f565b6110ac6060830186610e9f565b6110b96080830185610e5e565b6110c660a0830184611061565b979650505050505050565b600481106110de57600080fd5b50565b6000813590506110f0816110d1565b92915050565b6000806040838503121561110d5761110c610d91565b5b600061111b85828601610db7565b925050602061112c858286016110e1565b9150509250929050565b61113f81610e8d565b811461114a57600080fd5b50565b60008135905061115c81611136565b92915050565b6000806040838503121561117957611178610d91565b5b60006111878582860161114d565b925050602061119885828601610db7565b9150509250929050565b6000806000606084860312156111bb576111ba610d91565b5b60006111c986828701610db7565b93505060206111da8682870161114d565b92505060406111eb86828701610db7565b9150509250925092565b60006020828403121561120b5761120a610d91565b5b60006112198482850161114d565b91505092915050565b600082825260208201905092915050565b7f4f6e6c792074686520646f63746f722063616e2075706461746520737461747560008201527f7300000000000000000000000000000000000000000000000000000000000000602082015250565b600061128f602183611222565b915061129a82611233565b604082019050919050565b600060208201905081810360008301526112be81611282565b9050919050565b7f4f6e6c79207468652061737369676e656420696e73757265722063616e20707260008201527f6f63657373000000000000000000000000000000000000000000000000000000602082015250565b6000611321602583611222565b915061132c826112c5565b604082019050919050565b6000602082019050818103600083015261135081611314565b9050919050565b60008115159050919050565b61136c81611357565b811461137757600080fd5b50565b60008151905061138981611363565b92915050565b6000602082840312156113a5576113a4610d91565b5b60006113b38482850161137a565b91505092915050565b7f4f6e6c792070617469656e74732063616e20626f6f6b00000000000000000000600082015250565b60006113f2601683611222565b91506113fd826113bc565b602082019050919050565b60006020820190508181036000830152611421816113e5565b9050919050565b7f496e76616c696420646f63746f72000000000000000000000000000000000000600082015250565b600061145e600e83611222565b915061146982611428565b602082019050919050565b6000602082019050818103600083015261148d81611451565b9050919050565b7f4e487b7100000000000000000000000000000000000000000000000000000000600052601160045260246000fd5b60006114ce82610d96565b91507fffffffffffffffffffffffffffffffffffffffffffffffffffffffffffffffff8203611500576114ff611494565b5b600182019050919050565b7f4f6e6c792070617469656e74732063616e207375626d697420636c61696d7300600082015250565b6000611541601f83611222565b915061154c8261150b565b602082019050919050565b6000602082019050818103600083015261157081611534565b9050919050565b7f496e76616c696420696e73757265720000000000000000000000000000000000600082015250565b60006115ad600f83611222565b91506115b882611577565b602082019050919050565b600060208201905081810360008301526115dc816115a0565b905091905056fea2646970667358221220ff9c1e85ab0e48bf8b1d4a99b13778929c93380e361f76c4a7f94e54c2bcc47864736f6c634300081c0033",
  "linkReferences": {},
  "deployedLinkReferences": {}
}